{
	"contracts/listaespera.sol": {
		"ListaEspera": {
			"abi": [
				{
					"inputs": [
						{
							"internalType": "contract TokenEspera",
							"name": "token_",
							"type": "address"
						}
					],
					"stateMutability": "nonpayable",
					"type": "constructor"
				},
				{
					"inputs": [],
					"name": "COST_REGISTER",
					"outputs": [
						{
							"internalType": "uint256",
							"name": "",
							"type": "uint256"
						}
					],
					"stateMutability": "view",
					"type": "function"
				},
				{
					"inputs": [],
					"name": "comprarToken",
					"outputs": [],
					"stateMutability": "nonpayable",
					"type": "function"
				},
				{
					"inputs": [],
					"name": "getBalance",
					"outputs": [
						{
							"internalType": "uint256",
							"name": "",
							"type": "uint256"
						}
					],
					"stateMutability": "view",
					"type": "function"
				},
				{
					"inputs": [],
					"name": "inscribirse",
					"outputs": [],
					"stateMutability": "nonpayable",
					"type": "function"
				},
				{
					"inputs": [
						{
							"internalType": "uint256",
							"name": "",
							"type": "uint256"
						}
					],
					"name": "inscritos",
					"outputs": [
						{
							"internalType": "address",
							"name": "",
							"type": "address"
						}
					],
					"stateMutability": "view",
					"type": "function"
				},
				{
					"inputs": [],
					"name": "numeroEnLista",
					"outputs": [
						{
							"internalType": "uint256",
							"name": "",
							"type": "uint256"
						}
					],
					"stateMutability": "view",
					"type": "function"
				},
				{
					"inputs": [],
					"name": "owner",
					"outputs": [
						{
							"internalType": "address",
							"name": "",
							"type": "address"
						}
					],
					"stateMutability": "view",
					"type": "function"
				},
				{
					"inputs": [],
					"name": "token",
					"outputs": [
						{
							"internalType": "contract TokenEspera",
							"name": "",
							"type": "address"
						}
					],
					"stateMutability": "view",
					"type": "function"
				},
				{
					"inputs": [
						{
							"internalType": "address",
							"name": "from",
							"type": "address"
						},
						{
							"internalType": "address",
							"name": "to",
							"type": "address"
						},
						{
							"internalType": "uint256",
							"name": "amount",
							"type": "uint256"
						}
					],
					"name": "transferForMember",
					"outputs": [
						{
							"internalType": "bool",
							"name": "",
							"type": "bool"
						}
					],
					"stateMutability": "nonpayable",
					"type": "function"
				},
				{
					"inputs": [
						{
							"internalType": "address",
							"name": "_usuario",
							"type": "address"
						}
					],
					"name": "yaEstaInscrito",
					"outputs": [
						{
							"internalType": "bool",
							"name": "",
							"type": "bool"
						}
					],
					"stateMutability": "view",
					"type": "function"
				}
			],
			"devdoc": {
				"kind": "dev",
				"methods": {},
				"version": 1
			},
			"evm": {
				"assembly": "    /* \"contracts/listaespera.sol\":87:2268  contract ListaEspera {... */\n  mstore(0x40, 0x80)\n    /* \"contracts/listaespera.sol\":142:184  0xF55301514c27489Fde7C9cd9A3EA8044E7E04579 */\n  0xf55301514c27489fde7c9cd9a3ea8044e7e04579\n    /* \"contracts/listaespera.sol\":114:184  address     public  owner = 0xF55301514c27489Fde7C9cd9A3EA8044E7E04579 */\n  0x00\n  exp(0x0100, 0x00)\n  dup2\n  sload\n  dup2\n  0xffffffffffffffffffffffffffffffffffffffff\n  mul\n  not\n  and\n  swap1\n  dup4\n  0xffffffffffffffffffffffffffffffffffffffff\n  and\n  mul\n  or\n  swap1\n  sstore\n  pop\n    /* \"contracts/listaespera.sol\":390:453  constructor(TokenEspera token_) {... */\n  callvalue\n  dup1\n  iszero\n  tag_1\n  jumpi\n  revert(0x00, 0x00)\ntag_1:\n  pop\n  mload(0x40)\n  sub(codesize, bytecodeSize)\n  dup1\n  bytecodeSize\n  dup4\n  codecopy\n  dup2\n  dup2\n  add\n  0x40\n  mstore\n  dup2\n  add\n  swap1\n  tag_2\n  swap2\n  swap1\n  tag_3\n  jump\t// in\ntag_2:\n    /* \"contracts/listaespera.sol\":440:446  token_ */\n  dup1\n    /* \"contracts/listaespera.sol\":432:437  token */\n  0x01\n  0x00\n    /* \"contracts/listaespera.sol\":432:446  token = token_ */\n  0x0100\n  exp\n  dup2\n  sload\n  dup2\n  0xffffffffffffffffffffffffffffffffffffffff\n  mul\n  not\n  and\n  swap1\n  dup4\n  0xffffffffffffffffffffffffffffffffffffffff\n  and\n  mul\n  or\n  swap1\n  sstore\n  pop\n    /* \"contracts/listaespera.sol\":390:453  constructor(TokenEspera token_) {... */\n  pop\n    /* \"contracts/listaespera.sol\":87:2268  contract ListaEspera {... */\n  jump(tag_6)\n    /* \"#utility.yul\":88:205   */\ntag_8:\n    /* \"#utility.yul\":197:198   */\n  0x00\n    /* \"#utility.yul\":194:195   */\n  0x00\n    /* \"#utility.yul\":187:199   */\n  revert\n    /* \"#utility.yul\":334:460   */\ntag_10:\n    /* \"#utility.yul\":371:378   */\n  0x00\n    /* \"#utility.yul\":411:453   */\n  0xffffffffffffffffffffffffffffffffffffffff\n    /* \"#utility.yul\":404:409   */\n  dup3\n    /* \"#utility.yul\":400:454   */\n  and\n    /* \"#utility.yul\":389:454   */\n  swap1\n  pop\n    /* \"#utility.yul\":334:460   */\n  swap2\n  swap1\n  pop\n  jump\t// out\n    /* \"#utility.yul\":466:562   */\ntag_11:\n    /* \"#utility.yul\":503:510   */\n  0x00\n    /* \"#utility.yul\":532:556   */\n  tag_21\n    /* \"#utility.yul\":550:555   */\n  dup3\n    /* \"#utility.yul\":532:556   */\n  tag_10\n  jump\t// in\ntag_21:\n    /* \"#utility.yul\":521:556   */\n  swap1\n  pop\n    /* \"#utility.yul\":466:562   */\n  swap2\n  swap1\n  pop\n  jump\t// out\n    /* \"#utility.yul\":568:684   */\ntag_12:\n    /* \"#utility.yul\":625:632   */\n  0x00\n    /* \"#utility.yul\":654:678   */\n  tag_23\n    /* \"#utility.yul\":672:677   */\n  dup3\n    /* \"#utility.yul\":654:678   */\n  tag_11\n  jump\t// in\ntag_23:\n    /* \"#utility.yul\":643:678   */\n  swap1\n  pop\n    /* \"#utility.yul\":568:684   */\n  swap2\n  swap1\n  pop\n  jump\t// out\n    /* \"#utility.yul\":690:852   */\ntag_13:\n    /* \"#utility.yul\":783:827   */\n  tag_25\n    /* \"#utility.yul\":821:826   */\n  dup2\n    /* \"#utility.yul\":783:827   */\n  tag_12\n  jump\t// in\ntag_25:\n    /* \"#utility.yul\":776:781   */\n  dup2\n    /* \"#utility.yul\":773:828   */\n  eq\n    /* \"#utility.yul\":763:846   */\n  tag_26\n  jumpi\n    /* \"#utility.yul\":842:843   */\n  0x00\n    /* \"#utility.yul\":839:840   */\n  0x00\n    /* \"#utility.yul\":832:844   */\n  revert\n    /* \"#utility.yul\":763:846   */\ntag_26:\n    /* \"#utility.yul\":690:852   */\n  pop\n  jump\t// out\n    /* \"#utility.yul\":858:1041   */\ntag_14:\n    /* \"#utility.yul\":935:940   */\n  0x00\n    /* \"#utility.yul\":966:972   */\n  dup2\n    /* \"#utility.yul\":960:973   */\n  mload\n    /* \"#utility.yul\":951:973   */\n  swap1\n  pop\n    /* \"#utility.yul\":982:1035   */\n  tag_28\n    /* \"#utility.yul\":1029:1034   */\n  dup2\n    /* \"#utility.yul\":982:1035   */\n  tag_13\n  jump\t// in\ntag_28:\n    /* \"#utility.yul\":858:1041   */\n  swap3\n  swap2\n  pop\n  pop\n  jump\t// out\n    /* \"#utility.yul\":1047:1438   */\ntag_3:\n    /* \"#utility.yul\":1137:1143   */\n  0x00\n    /* \"#utility.yul\":1186:1188   */\n  0x20\n    /* \"#utility.yul\":1174:1183   */\n  dup3\n    /* \"#utility.yul\":1165:1172   */\n  dup5\n    /* \"#utility.yul\":1161:1184   */\n  sub\n    /* \"#utility.yul\":1157:1189   */\n  slt\n    /* \"#utility.yul\":1154:1273   */\n  iszero\n  tag_30\n  jumpi\n    /* \"#utility.yul\":1192:1271   */\n  tag_31\n  tag_8\n  jump\t// in\ntag_31:\n    /* \"#utility.yul\":1154:1273   */\ntag_30:\n    /* \"#utility.yul\":1312:1313   */\n  0x00\n    /* \"#utility.yul\":1337:1421   */\n  tag_32\n    /* \"#utility.yul\":1413:1420   */\n  dup5\n    /* \"#utility.yul\":1404:1410   */\n  dup3\n    /* \"#utility.yul\":1393:1402   */\n  dup6\n    /* \"#utility.yul\":1389:1411   */\n  add\n    /* \"#utility.yul\":1337:1421   */\n  tag_14\n  jump\t// in\ntag_32:\n    /* \"#utility.yul\":1327:1421   */\n  swap2\n  pop\n    /* \"#utility.yul\":1283:1431   */\n  pop\n    /* \"#utility.yul\":1047:1438   */\n  swap3\n  swap2\n  pop\n  pop\n  jump\t// out\n    /* \"contracts/listaespera.sol\":87:2268  contract ListaEspera {... */\ntag_6:\n  dataSize(sub_0)\n  dup1\n  dataOffset(sub_0)\n  0x00\n  codecopy\n  0x00\n  return\nstop\n\nsub_0: assembly {\n        /* \"contracts/listaespera.sol\":87:2268  contract ListaEspera {... */\n      mstore(0x40, 0x80)\n      callvalue\n      dup1\n      iszero\n      tag_1\n      jumpi\n      revert(0x00, 0x00)\n    tag_1:\n      pop\n      jumpi(tag_2, lt(calldatasize, 0x04))\n      shr(0xe0, calldataload(0x00))\n      dup1\n      0x8a75e7bd\n      gt\n      tag_13\n      jumpi\n      dup1\n      0x8a75e7bd\n      eq\n      tag_8\n      jumpi\n      dup1\n      0x8da5cb5b\n      eq\n      tag_9\n      jumpi\n      dup1\n      0xcd0d232a\n      eq\n      tag_10\n      jumpi\n      dup1\n      0xf32360a0\n      eq\n      tag_11\n      jumpi\n      dup1\n      0xfc0c546a\n      eq\n      tag_12\n      jumpi\n      jump(tag_2)\n    tag_13:\n      dup1\n      0x0469846b\n      eq\n      tag_3\n      jumpi\n      dup1\n      0x12065fe0\n      eq\n      tag_4\n      jumpi\n      dup1\n      0x61722365\n      eq\n      tag_5\n      jumpi\n      dup1\n      0x787e5869\n      eq\n      tag_6\n      jumpi\n      dup1\n      0x8881a874\n      eq\n      tag_7\n      jumpi\n    tag_2:\n      revert(0x00, 0x00)\n        /* \"contracts/listaespera.sol\":832:1084  function yaEstaInscrito(address _usuario) public view returns (bool) {... */\n    tag_3:\n      tag_14\n      0x04\n      dup1\n      calldatasize\n      sub\n      dup2\n      add\n      swap1\n      tag_15\n      swap2\n      swap1\n      tag_16\n      jump\t// in\n    tag_15:\n      tag_17\n      jump\t// in\n    tag_14:\n      mload(0x40)\n      tag_18\n      swap2\n      swap1\n      tag_19\n      jump\t// in\n    tag_18:\n      mload(0x40)\n      dup1\n      swap2\n      sub\n      swap1\n      return\n        /* \"contracts/listaespera.sol\":1973:2078  function getBalance() view external returns (uint256) {... */\n    tag_4:\n      tag_20\n      tag_21\n      jump\t// in\n    tag_20:\n      mload(0x40)\n      tag_22\n      swap2\n      swap1\n      tag_23\n      jump\t// in\n    tag_22:\n      mload(0x40)\n      dup1\n      swap2\n      sub\n      swap1\n      return\n        /* \"contracts/listaespera.sol\":459:826  function inscribirse() external {... */\n    tag_5:\n      tag_24\n      tag_25\n      jump\t// in\n    tag_24:\n      stop\n        /* \"contracts/listaespera.sol\":221:250  address[]   public  inscritos */\n    tag_6:\n      tag_26\n      0x04\n      dup1\n      calldatasize\n      sub\n      dup2\n      add\n      swap1\n      tag_27\n      swap2\n      swap1\n      tag_28\n      jump\t// in\n    tag_27:\n      tag_29\n      jump\t// in\n    tag_26:\n      mload(0x40)\n      tag_30\n      swap2\n      swap1\n      tag_31\n      jump\t// in\n    tag_30:\n      mload(0x40)\n      dup1\n      swap2\n      sub\n      swap1\n      return\n        /* \"contracts/listaespera.sol\":329:379  uint256     public constant COST_REGISTER = 10**18 */\n    tag_7:\n      tag_32\n      tag_33\n      jump\t// in\n    tag_32:\n      mload(0x40)\n      tag_34\n      swap2\n      swap1\n      tag_23\n      jump\t// in\n    tag_34:\n      mload(0x40)\n      dup1\n      swap2\n      sub\n      swap1\n      return\n        /* \"contracts/listaespera.sol\":1726:1967  function transferForMember(address from, address to, uint256 amount) external returns (bool) {... */\n    tag_8:\n      tag_35\n      0x04\n      dup1\n      calldatasize\n      sub\n      dup2\n      add\n      swap1\n      tag_36\n      swap2\n      swap1\n      tag_37\n      jump\t// in\n    tag_36:\n      tag_38\n      jump\t// in\n    tag_35:\n      mload(0x40)\n      tag_39\n      swap2\n      swap1\n      tag_19\n      jump\t// in\n    tag_39:\n      mload(0x40)\n      dup1\n      swap2\n      sub\n      swap1\n      return\n        /* \"contracts/listaespera.sol\":114:184  address     public  owner = 0xF55301514c27489Fde7C9cd9A3EA8044E7E04579 */\n    tag_9:\n      tag_40\n      tag_41\n      jump\t// in\n    tag_40:\n      mload(0x40)\n      tag_42\n      swap2\n      swap1\n      tag_31\n      jump\t// in\n    tag_42:\n      mload(0x40)\n      dup1\n      swap2\n      sub\n      swap1\n      return\n        /* \"contracts/listaespera.sol\":1090:1557  function numeroEnLista() public view returns (uint256) {     ... */\n    tag_10:\n      tag_43\n      tag_44\n      jump\t// in\n    tag_43:\n      mload(0x40)\n      tag_45\n      swap2\n      swap1\n      tag_23\n      jump\t// in\n    tag_45:\n      mload(0x40)\n      dup1\n      swap2\n      sub\n      swap1\n      return\n        /* \"contracts/listaespera.sol\":1562:1720  function comprarToken() external {... */\n    tag_11:\n      tag_46\n      tag_47\n      jump\t// in\n    tag_46:\n      stop\n        /* \"contracts/listaespera.sol\":190:215  TokenEspera public  token */\n    tag_12:\n      tag_48\n      tag_49\n      jump\t// in\n    tag_48:\n      mload(0x40)\n      tag_50\n      swap2\n      swap1\n      tag_51\n      jump\t// in\n    tag_50:\n      mload(0x40)\n      dup1\n      swap2\n      sub\n      swap1\n      return\n        /* \"contracts/listaespera.sol\":832:1084  function yaEstaInscrito(address _usuario) public view returns (bool) {... */\n    tag_17:\n        /* \"contracts/listaespera.sol\":895:899  bool */\n      0x00\n        /* \"contracts/listaespera.sol\":915:924  uint256 i */\n      0x00\n        /* \"contracts/listaespera.sol\":927:928  0 */\n      0x00\n        /* \"contracts/listaespera.sol\":915:928  uint256 i = 0 */\n      swap1\n      pop\n        /* \"contracts/listaespera.sol\":911:1055  for(uint256 i = 0; i < inscritos.length; i++) {... */\n    tag_53:\n        /* \"contracts/listaespera.sol\":934:943  inscritos */\n      0x02\n        /* \"contracts/listaespera.sol\":934:950  inscritos.length */\n      dup1\n      sload\n      swap1\n      pop\n        /* \"contracts/listaespera.sol\":930:931  i */\n      dup2\n        /* \"contracts/listaespera.sol\":930:950  i < inscritos.length */\n      lt\n        /* \"contracts/listaespera.sol\":911:1055  for(uint256 i = 0; i < inscritos.length; i++) {... */\n      iszero\n      tag_54\n      jumpi\n        /* \"contracts/listaespera.sol\":991:999  _usuario */\n      dup3\n        /* \"contracts/listaespera.sol\":975:999  inscritos[i] == _usuario */\n      0xffffffffffffffffffffffffffffffffffffffff\n      and\n        /* \"contracts/listaespera.sol\":975:984  inscritos */\n      0x02\n        /* \"contracts/listaespera.sol\":985:986  i */\n      dup3\n        /* \"contracts/listaespera.sol\":975:987  inscritos[i] */\n      dup2\n      sload\n      dup2\n      lt\n      tag_56\n      jumpi\n      tag_57\n      tag_58\n      jump\t// in\n    tag_57:\n    tag_56:\n      swap1\n      0x00\n      mstore\n      keccak256(0x00, 0x20)\n      add\n      0x00\n      swap1\n      sload\n      swap1\n      0x0100\n      exp\n      swap1\n      div\n      0xffffffffffffffffffffffffffffffffffffffff\n      and\n        /* \"contracts/listaespera.sol\":975:999  inscritos[i] == _usuario */\n      0xffffffffffffffffffffffffffffffffffffffff\n      and\n      sub\n        /* \"contracts/listaespera.sol\":971:1045  if (inscritos[i] == _usuario) {... */\n      tag_60\n      jumpi\n        /* \"contracts/listaespera.sol\":1026:1030  true */\n      0x01\n        /* \"contracts/listaespera.sol\":1019:1030  return true */\n      swap2\n      pop\n      pop\n      jump(tag_52)\n        /* \"contracts/listaespera.sol\":971:1045  if (inscritos[i] == _usuario) {... */\n    tag_60:\n        /* \"contracts/listaespera.sol\":952:955  i++ */\n      dup1\n      dup1\n      0x01\n      add\n      swap2\n      pop\n      pop\n        /* \"contracts/listaespera.sol\":911:1055  for(uint256 i = 0; i < inscritos.length; i++) {... */\n      jump(tag_53)\n    tag_54:\n      pop\n        /* \"contracts/listaespera.sol\":1072:1077  false */\n      0x00\n        /* \"contracts/listaespera.sol\":1065:1077  return false */\n      swap1\n      pop\n        /* \"contracts/listaespera.sol\":832:1084  function yaEstaInscrito(address _usuario) public view returns (bool) {... */\n    tag_52:\n      swap2\n      swap1\n      pop\n      jump\t// out\n        /* \"contracts/listaespera.sol\":1973:2078  function getBalance() view external returns (uint256) {... */\n    tag_21:\n        /* \"contracts/listaespera.sol\":2018:2025  uint256 */\n      0x00\n        /* \"contracts/listaespera.sol\":2044:2049  token */\n      0x01\n      0x00\n      swap1\n      sload\n      swap1\n      0x0100\n      exp\n      swap1\n      div\n      0xffffffffffffffffffffffffffffffffffffffff\n      and\n        /* \"contracts/listaespera.sol\":2044:2059  token.balanceOf */\n      0xffffffffffffffffffffffffffffffffffffffff\n      and\n      0x70a08231\n        /* \"contracts/listaespera.sol\":2060:2070  msg.sender */\n      caller\n        /* \"contracts/listaespera.sol\":2044:2071  token.balanceOf(msg.sender) */\n      mload(0x40)\n      dup3\n      0xffffffff\n      and\n      0xe0\n      shl\n      dup2\n      mstore\n      0x04\n      add\n      tag_62\n      swap2\n      swap1\n      tag_31\n      jump\t// in\n    tag_62:\n      0x20\n      mload(0x40)\n      dup1\n      dup4\n      sub\n      dup2\n      dup7\n      gas\n      staticcall\n      iszero\n      dup1\n      iszero\n      tag_64\n      jumpi\n      returndatacopy(0x00, 0x00, returndatasize)\n      revert(0x00, returndatasize)\n    tag_64:\n      pop\n      pop\n      pop\n      pop\n      mload(0x40)\n      returndatasize\n      not(0x1f)\n      0x1f\n      dup3\n      add\n      and\n      dup3\n      add\n      dup1\n      0x40\n      mstore\n      pop\n      dup2\n      add\n      swap1\n      tag_65\n      swap2\n      swap1\n      tag_66\n      jump\t// in\n    tag_65:\n        /* \"contracts/listaespera.sol\":2037:2071  return token.balanceOf(msg.sender) */\n      swap1\n      pop\n        /* \"contracts/listaespera.sol\":1973:2078  function getBalance() view external returns (uint256) {... */\n      swap1\n      jump\t// out\n        /* \"contracts/listaespera.sol\":459:826  function inscribirse() external {... */\n    tag_25:\n        /* \"contracts/listaespera.sol\":510:536  yaEstaInscrito(msg.sender) */\n      tag_68\n        /* \"contracts/listaespera.sol\":525:535  msg.sender */\n      caller\n        /* \"contracts/listaespera.sol\":510:524  yaEstaInscrito */\n      tag_17\n        /* \"contracts/listaespera.sol\":510:536  yaEstaInscrito(msg.sender) */\n      jump\t// in\n    tag_68:\n        /* \"contracts/listaespera.sol\":509:536  !yaEstaInscrito(msg.sender) */\n      iszero\n        /* \"contracts/listaespera.sol\":501:558  require(!yaEstaInscrito(msg.sender), \"Ya estas inscrito\") */\n      tag_69\n      jumpi\n      mload(0x40)\n      0x08c379a000000000000000000000000000000000000000000000000000000000\n      dup2\n      mstore\n      0x04\n      add\n      tag_70\n      swap1\n      tag_71\n      jump\t// in\n    tag_70:\n      mload(0x40)\n      dup1\n      swap2\n      sub\n      swap1\n      revert\n    tag_69:\n        /* \"contracts/listaespera.sol\":373:379  10**18 */\n      0x0de0b6b3a7640000\n        /* \"contracts/listaespera.sol\":576:581  token */\n      0x01\n      0x00\n      swap1\n      sload\n      swap1\n      0x0100\n      exp\n      swap1\n      div\n      0xffffffffffffffffffffffffffffffffffffffff\n      and\n        /* \"contracts/listaespera.sol\":576:591  token.balanceOf */\n      0xffffffffffffffffffffffffffffffffffffffff\n      and\n      0x70a08231\n        /* \"contracts/listaespera.sol\":592:602  msg.sender */\n      caller\n        /* \"contracts/listaespera.sol\":576:603  token.balanceOf(msg.sender) */\n      mload(0x40)\n      dup3\n      0xffffffff\n      and\n      0xe0\n      shl\n      dup2\n      mstore\n      0x04\n      add\n      tag_72\n      swap2\n      swap1\n      tag_31\n      jump\t// in\n    tag_72:\n      0x20\n      mload(0x40)\n      dup1\n      dup4\n      sub\n      dup2\n      dup7\n      gas\n      staticcall\n      iszero\n      dup1\n      iszero\n      tag_74\n      jumpi\n      returndatacopy(0x00, 0x00, returndatasize)\n      revert(0x00, returndatasize)\n    tag_74:\n      pop\n      pop\n      pop\n      pop\n      mload(0x40)\n      returndatasize\n      not(0x1f)\n      0x1f\n      dup3\n      add\n      and\n      dup3\n      add\n      dup1\n      0x40\n      mstore\n      pop\n      dup2\n      add\n      swap1\n      tag_75\n      swap2\n      swap1\n      tag_66\n      jump\t// in\n    tag_75:\n        /* \"contracts/listaespera.sol\":576:619  token.balanceOf(msg.sender) > COST_REGISTER */\n      gt\n        /* \"contracts/listaespera.sol\":568:642  require(token.balanceOf(msg.sender) > COST_REGISTER, \"Saldo insuficiente\") */\n      tag_76\n      jumpi\n      mload(0x40)\n      0x08c379a000000000000000000000000000000000000000000000000000000000\n      dup2\n      mstore\n      0x04\n      add\n      tag_77\n      swap1\n      tag_78\n      jump\t// in\n    tag_77:\n      mload(0x40)\n      dup1\n      swap2\n      sub\n      swap1\n      revert\n    tag_76:\n        /* \"contracts/listaespera.sol\":653:662  inscritos */\n      0x02\n        /* \"contracts/listaespera.sol\":668:678  msg.sender */\n      caller\n        /* \"contracts/listaespera.sol\":653:679  inscritos.push(msg.sender) */\n      swap1\n      dup1\n      0x01\n      dup2\n      sload\n      add\n      dup1\n      dup3\n      sstore\n      dup1\n      swap2\n      pop\n      pop\n      0x01\n      swap1\n      sub\n      swap1\n      0x00\n      mstore\n      keccak256(0x00, 0x20)\n      add\n      0x00\n      swap1\n      swap2\n      swap1\n      swap2\n      swap1\n      swap2\n      0x0100\n      exp\n      dup2\n      sload\n      dup2\n      0xffffffffffffffffffffffffffffffffffffffff\n      mul\n      not\n      and\n      swap1\n      dup4\n      0xffffffffffffffffffffffffffffffffffffffff\n      and\n      mul\n      or\n      swap1\n      sstore\n      pop\n        /* \"contracts/listaespera.sol\":690:701  bool result */\n      0x00\n        /* \"contracts/listaespera.sol\":704:709  token */\n      0x01\n      0x00\n      swap1\n      sload\n      swap1\n      0x0100\n      exp\n      swap1\n      div\n      0xffffffffffffffffffffffffffffffffffffffff\n      and\n        /* \"contracts/listaespera.sol\":704:722  token.transferFrom */\n      0xffffffffffffffffffffffffffffffffffffffff\n      and\n      0x23b872dd\n        /* \"contracts/listaespera.sol\":723:733  msg.sender */\n      caller\n        /* \"contracts/listaespera.sol\":735:740  owner */\n      0x00\n      0x00\n      swap1\n      sload\n      swap1\n      0x0100\n      exp\n      swap1\n      div\n      0xffffffffffffffffffffffffffffffffffffffff\n      and\n        /* \"contracts/listaespera.sol\":373:379  10**18 */\n      0x0de0b6b3a7640000\n        /* \"contracts/listaespera.sol\":704:756  token.transferFrom(msg.sender, owner, COST_REGISTER) */\n      mload(0x40)\n      dup5\n      0xffffffff\n      and\n      0xe0\n      shl\n      dup2\n      mstore\n      0x04\n      add\n      tag_80\n      swap4\n      swap3\n      swap2\n      swap1\n      tag_81\n      jump\t// in\n    tag_80:\n      0x20\n      mload(0x40)\n      dup1\n      dup4\n      sub\n      dup2\n      0x00\n      dup8\n      gas\n      call\n      iszero\n      dup1\n      iszero\n      tag_83\n      jumpi\n      returndatacopy(0x00, 0x00, returndatasize)\n      revert(0x00, returndatasize)\n    tag_83:\n      pop\n      pop\n      pop\n      pop\n      mload(0x40)\n      returndatasize\n      not(0x1f)\n      0x1f\n      dup3\n      add\n      and\n      dup3\n      add\n      dup1\n      0x40\n      mstore\n      pop\n      dup2\n      add\n      swap1\n      tag_84\n      swap2\n      swap1\n      tag_85\n      jump\t// in\n    tag_84:\n        /* \"contracts/listaespera.sol\":690:756  bool result = token.transferFrom(msg.sender, owner, COST_REGISTER) */\n      swap1\n      pop\n        /* \"contracts/listaespera.sol\":774:780  result */\n      dup1\n        /* \"contracts/listaespera.sol\":766:819  require(result, \"Error al realizar la transferencia\") */\n      tag_86\n      jumpi\n      mload(0x40)\n      0x08c379a000000000000000000000000000000000000000000000000000000000\n      dup2\n      mstore\n      0x04\n      add\n      tag_87\n      swap1\n      tag_88\n      jump\t// in\n    tag_87:\n      mload(0x40)\n      dup1\n      swap2\n      sub\n      swap1\n      revert\n    tag_86:\n        /* \"contracts/listaespera.sol\":491:826  {... */\n      pop\n        /* \"contracts/listaespera.sol\":459:826  function inscribirse() external {... */\n      jump\t// out\n        /* \"contracts/listaespera.sol\":221:250  address[]   public  inscritos */\n    tag_29:\n      0x02\n      dup2\n      dup2\n      sload\n      dup2\n      lt\n      tag_89\n      jumpi\n      0x00\n      dup1\n      revert\n    tag_89:\n      swap1\n      0x00\n      mstore\n      keccak256(0x00, 0x20)\n      add\n      0x00\n      swap2\n      pop\n      sload\n      swap1\n      0x0100\n      exp\n      swap1\n      div\n      0xffffffffffffffffffffffffffffffffffffffff\n      and\n      dup2\n      jump\t// out\n        /* \"contracts/listaespera.sol\":329:379  uint256     public constant COST_REGISTER = 10**18 */\n    tag_33:\n        /* \"contracts/listaespera.sol\":373:379  10**18 */\n      0x0de0b6b3a7640000\n        /* \"contracts/listaespera.sol\":329:379  uint256     public constant COST_REGISTER = 10**18 */\n      dup2\n      jump\t// out\n        /* \"contracts/listaespera.sol\":1726:1967  function transferForMember(address from, address to, uint256 amount) external returns (bool) {... */\n    tag_38:\n        /* \"contracts/listaespera.sol\":1813:1817  bool */\n      0x00\n        /* \"contracts/listaespera.sol\":1862:1868  amount */\n      dup2\n        /* \"contracts/listaespera.sol\":1837:1842  token */\n      0x01\n      0x00\n      swap1\n      sload\n      swap1\n      0x0100\n      exp\n      swap1\n      div\n      0xffffffffffffffffffffffffffffffffffffffff\n      and\n        /* \"contracts/listaespera.sol\":1837:1852  token.balanceOf */\n      0xffffffffffffffffffffffffffffffffffffffff\n      and\n      0x70a08231\n        /* \"contracts/listaespera.sol\":1853:1857  from */\n      dup7\n        /* \"contracts/listaespera.sol\":1837:1858  token.balanceOf(from) */\n      mload(0x40)\n      dup3\n      0xffffffff\n      and\n      0xe0\n      shl\n      dup2\n      mstore\n      0x04\n      add\n      tag_92\n      swap2\n      swap1\n      tag_31\n      jump\t// in\n    tag_92:\n      0x20\n      mload(0x40)\n      dup1\n      dup4\n      sub\n      dup2\n      dup7\n      gas\n      staticcall\n      iszero\n      dup1\n      iszero\n      tag_94\n      jumpi\n      returndatacopy(0x00, 0x00, returndatasize)\n      revert(0x00, returndatasize)\n    tag_94:\n      pop\n      pop\n      pop\n      pop\n      mload(0x40)\n      returndatasize\n      not(0x1f)\n      0x1f\n      dup3\n      add\n      and\n      dup3\n      add\n      dup1\n      0x40\n      mstore\n      pop\n      dup2\n      add\n      swap1\n      tag_95\n      swap2\n      swap1\n      tag_66\n      jump\t// in\n    tag_95:\n        /* \"contracts/listaespera.sol\":1837:1868  token.balanceOf(from) >= amount */\n      lt\n      iszero\n        /* \"contracts/listaespera.sol\":1829:1891  require(token.balanceOf(from) >= amount, \"Saldo insuficiente\") */\n      tag_96\n      jumpi\n      mload(0x40)\n      0x08c379a000000000000000000000000000000000000000000000000000000000\n      dup2\n      mstore\n      0x04\n      add\n      tag_97\n      swap1\n      tag_78\n      jump\t// in\n    tag_97:\n      mload(0x40)\n      dup1\n      swap2\n      sub\n      swap1\n      revert\n    tag_96:\n        /* \"contracts/listaespera.sol\":1902:1907  token */\n      0x01\n      0x00\n      swap1\n      sload\n      swap1\n      0x0100\n      exp\n      swap1\n      div\n      0xffffffffffffffffffffffffffffffffffffffff\n      and\n        /* \"contracts/listaespera.sol\":1902:1920  token.transferFrom */\n      0xffffffffffffffffffffffffffffffffffffffff\n      and\n      0x23b872dd\n        /* \"contracts/listaespera.sol\":1921:1925  from */\n      dup6\n        /* \"contracts/listaespera.sol\":1927:1929  to */\n      dup6\n        /* \"contracts/listaespera.sol\":1931:1937  amount */\n      dup6\n        /* \"contracts/listaespera.sol\":1902:1938  token.transferFrom(from, to, amount) */\n      mload(0x40)\n      dup5\n      0xffffffff\n      and\n      0xe0\n      shl\n      dup2\n      mstore\n      0x04\n      add\n      tag_98\n      swap4\n      swap3\n      swap2\n      swap1\n      tag_81\n      jump\t// in\n    tag_98:\n      0x20\n      mload(0x40)\n      dup1\n      dup4\n      sub\n      dup2\n      0x00\n      dup8\n      gas\n      call\n      iszero\n      dup1\n      iszero\n      tag_100\n      jumpi\n      returndatacopy(0x00, 0x00, returndatasize)\n      revert(0x00, returndatasize)\n    tag_100:\n      pop\n      pop\n      pop\n      pop\n      mload(0x40)\n      returndatasize\n      not(0x1f)\n      0x1f\n      dup3\n      add\n      and\n      dup3\n      add\n      dup1\n      0x40\n      mstore\n      pop\n      dup2\n      add\n      swap1\n      tag_101\n      swap2\n      swap1\n      tag_85\n      jump\t// in\n    tag_101:\n      pop\n        /* \"contracts/listaespera.sol\":1956:1960  true */\n      0x01\n        /* \"contracts/listaespera.sol\":1949:1960  return true */\n      swap1\n      pop\n        /* \"contracts/listaespera.sol\":1726:1967  function transferForMember(address from, address to, uint256 amount) external returns (bool) {... */\n      swap4\n      swap3\n      pop\n      pop\n      pop\n      jump\t// out\n        /* \"contracts/listaespera.sol\":114:184  address     public  owner = 0xF55301514c27489Fde7C9cd9A3EA8044E7E04579 */\n    tag_41:\n      0x00\n      0x00\n      swap1\n      sload\n      swap1\n      0x0100\n      exp\n      swap1\n      div\n      0xffffffffffffffffffffffffffffffffffffffff\n      and\n      dup2\n      jump\t// out\n        /* \"contracts/listaespera.sol\":1090:1557  function numeroEnLista() public view returns (uint256) {     ... */\n    tag_44:\n        /* \"contracts/listaespera.sol\":1136:1143  uint256 */\n      0x00\n        /* \"contracts/listaespera.sol\":1160:1174  uint256 indice */\n      0x00\n        /* \"contracts/listaespera.sol\":1177:1178  0 */\n      0x00\n        /* \"contracts/listaespera.sol\":1160:1178  uint256 indice = 0 */\n      swap1\n      pop\n        /* \"contracts/listaespera.sol\":1188:1203  bool encontrado */\n      0x00\n        /* \"contracts/listaespera.sol\":1206:1211  false */\n      0x00\n        /* \"contracts/listaespera.sol\":1188:1211  bool encontrado = false */\n      swap1\n      pop\n        /* \"contracts/listaespera.sol\":1225:1234  uint256 i */\n      0x00\n        /* \"contracts/listaespera.sol\":1237:1238  0 */\n      0x00\n        /* \"contracts/listaespera.sol\":1225:1238  uint256 i = 0 */\n      swap1\n      pop\n        /* \"contracts/listaespera.sol\":1221:1443  for(uint256 i = 0; (i < inscritos.length) && (!encontrado); i++) {... */\n    tag_103:\n        /* \"contracts/listaespera.sol\":1245:1254  inscritos */\n      0x02\n        /* \"contracts/listaespera.sol\":1245:1261  inscritos.length */\n      dup1\n      sload\n      swap1\n      pop\n        /* \"contracts/listaespera.sol\":1241:1242  i */\n      dup2\n        /* \"contracts/listaespera.sol\":1241:1261  i < inscritos.length */\n      lt\n        /* \"contracts/listaespera.sol\":1240:1279  (i < inscritos.length) && (!encontrado) */\n      dup1\n      iszero\n      tag_106\n      jumpi\n      pop\n        /* \"contracts/listaespera.sol\":1268:1278  encontrado */\n      dup2\n        /* \"contracts/listaespera.sol\":1267:1278  !encontrado */\n      iszero\n        /* \"contracts/listaespera.sol\":1240:1279  (i < inscritos.length) && (!encontrado) */\n    tag_106:\n        /* \"contracts/listaespera.sol\":1221:1443  for(uint256 i = 0; (i < inscritos.length) && (!encontrado); i++) {... */\n      iszero\n      tag_104\n      jumpi\n        /* \"contracts/listaespera.sol\":1320:1330  msg.sender */\n      caller\n        /* \"contracts/listaespera.sol\":1304:1330  inscritos[i] == msg.sender */\n      0xffffffffffffffffffffffffffffffffffffffff\n      and\n        /* \"contracts/listaespera.sol\":1304:1313  inscritos */\n      0x02\n        /* \"contracts/listaespera.sol\":1314:1315  i */\n      dup3\n        /* \"contracts/listaespera.sol\":1304:1316  inscritos[i] */\n      dup2\n      sload\n      dup2\n      lt\n      tag_107\n      jumpi\n      tag_108\n      tag_58\n      jump\t// in\n    tag_108:\n    tag_107:\n      swap1\n      0x00\n      mstore\n      keccak256(0x00, 0x20)\n      add\n      0x00\n      swap1\n      sload\n      swap1\n      0x0100\n      exp\n      swap1\n      div\n      0xffffffffffffffffffffffffffffffffffffffff\n      and\n        /* \"contracts/listaespera.sol\":1304:1330  inscritos[i] == msg.sender */\n      0xffffffffffffffffffffffffffffffffffffffff\n      and\n      sub\n        /* \"contracts/listaespera.sol\":1300:1433  if (inscritos[i] == msg.sender) {... */\n      tag_110\n      jumpi\n        /* \"contracts/listaespera.sol\":1359:1360  i */\n      dup1\n        /* \"contracts/listaespera.sol\":1350:1360  indice = i */\n      swap3\n      pop\n        /* \"contracts/listaespera.sol\":1391:1395  true */\n      0x01\n        /* \"contracts/listaespera.sol\":1378:1395  encontrado = true */\n      swap2\n      pop\n        /* \"contracts/listaespera.sol\":1413:1418  break */\n      jump(tag_104)\n        /* \"contracts/listaespera.sol\":1300:1433  if (inscritos[i] == msg.sender) {... */\n    tag_110:\n        /* \"contracts/listaespera.sol\":1281:1284  i++ */\n      dup1\n      dup1\n      tag_111\n      swap1\n      tag_112\n      jump\t// in\n    tag_111:\n      swap2\n      pop\n      pop\n        /* \"contracts/listaespera.sol\":1221:1443  for(uint256 i = 0; (i < inscritos.length) && (!encontrado); i++) {... */\n      jump(tag_103)\n    tag_104:\n      pop\n        /* \"contracts/listaespera.sol\":1458:1468  encontrado */\n      dup1\n        /* \"contracts/listaespera.sol\":1453:1551  if (!encontrado) {... */\n      tag_113\n      jumpi\n        /* \"contracts/listaespera.sol\":1491:1492  0 */\n      0x00\n        /* \"contracts/listaespera.sol\":1484:1492  return 0 */\n      swap3\n      pop\n      pop\n      pop\n      jump(tag_102)\n        /* \"contracts/listaespera.sol\":1453:1551  if (!encontrado) {... */\n    tag_113:\n        /* \"contracts/listaespera.sol\":1539:1540  1 */\n      0x01\n        /* \"contracts/listaespera.sol\":1530:1536  indice */\n      dup3\n        /* \"contracts/listaespera.sol\":1530:1540  indice + 1 */\n      tag_115\n      swap2\n      swap1\n      tag_116\n      jump\t// in\n    tag_115:\n        /* \"contracts/listaespera.sol\":1523:1540  return indice + 1 */\n      swap3\n      pop\n      pop\n      pop\n        /* \"contracts/listaespera.sol\":1090:1557  function numeroEnLista() public view returns (uint256) {     ... */\n    tag_102:\n      swap1\n      jump\t// out\n        /* \"contracts/listaespera.sol\":1562:1720  function comprarToken() external {... */\n    tag_47:\n        /* \"contracts/listaespera.sol\":1605:1625  uint256 numeroTokens */\n      0x00\n        /* \"contracts/listaespera.sol\":1659:1665  10**18 */\n      0x0de0b6b3a7640000\n        /* \"contracts/listaespera.sol\":1628:1633  token */\n      0x01\n      0x00\n      swap1\n      sload\n      swap1\n      0x0100\n      exp\n      swap1\n      div\n      0xffffffffffffffffffffffffffffffffffffffff\n      and\n        /* \"contracts/listaespera.sol\":1628:1643  token.balanceOf */\n      0xffffffffffffffffffffffffffffffffffffffff\n      and\n      0x70a08231\n        /* \"contracts/listaespera.sol\":1644:1654  msg.sender */\n      caller\n        /* \"contracts/listaespera.sol\":1628:1655  token.balanceOf(msg.sender) */\n      mload(0x40)\n      dup3\n      0xffffffff\n      and\n      0xe0\n      shl\n      dup2\n      mstore\n      0x04\n      add\n      tag_118\n      swap2\n      swap1\n      tag_31\n      jump\t// in\n    tag_118:\n      0x20\n      mload(0x40)\n      dup1\n      dup4\n      sub\n      dup2\n      dup7\n      gas\n      staticcall\n      iszero\n      dup1\n      iszero\n      tag_120\n      jumpi\n      returndatacopy(0x00, 0x00, returndatasize)\n      revert(0x00, returndatasize)\n    tag_120:\n      pop\n      pop\n      pop\n      pop\n      mload(0x40)\n      returndatasize\n      not(0x1f)\n      0x1f\n      dup3\n      add\n      and\n      dup3\n      add\n      dup1\n      0x40\n      mstore\n      pop\n      dup2\n      add\n      swap1\n      tag_121\n      swap2\n      swap1\n      tag_66\n      jump\t// in\n    tag_121:\n        /* \"contracts/listaespera.sol\":1628:1666  token.balanceOf(msg.sender) + (10**18) */\n      tag_122\n      swap2\n      swap1\n      tag_116\n      jump\t// in\n    tag_122:\n        /* \"contracts/listaespera.sol\":1605:1666  uint256 numeroTokens = token.balanceOf(msg.sender) + (10**18) */\n      swap1\n      pop\n        /* \"contracts/listaespera.sol\":1677:1682  token */\n      0x01\n      0x00\n      swap1\n      sload\n      swap1\n      0x0100\n      exp\n      swap1\n      div\n      0xffffffffffffffffffffffffffffffffffffffff\n      and\n        /* \"contracts/listaespera.sol\":1677:1687  token.mint */\n      0xffffffffffffffffffffffffffffffffffffffff\n      and\n      0x40c10f19\n        /* \"contracts/listaespera.sol\":1688:1698  msg.sender */\n      caller\n        /* \"contracts/listaespera.sol\":1700:1712  numeroTokens */\n      dup4\n        /* \"contracts/listaespera.sol\":1677:1713  token.mint(msg.sender, numeroTokens) */\n      mload(0x40)\n      dup4\n      0xffffffff\n      and\n      0xe0\n      shl\n      dup2\n      mstore\n      0x04\n      add\n      tag_123\n      swap3\n      swap2\n      swap1\n      tag_124\n      jump\t// in\n    tag_123:\n      0x00\n      mload(0x40)\n      dup1\n      dup4\n      sub\n      dup2\n      0x00\n      dup8\n      dup1\n      extcodesize\n      iszero\n      dup1\n      iszero\n      tag_125\n      jumpi\n      revert(0x00, 0x00)\n    tag_125:\n      pop\n      gas\n      call\n      iszero\n      dup1\n      iszero\n      tag_127\n      jumpi\n      returndatacopy(0x00, 0x00, returndatasize)\n      revert(0x00, returndatasize)\n    tag_127:\n      pop\n      pop\n      pop\n      pop\n        /* \"contracts/listaespera.sol\":1595:1720  {... */\n      pop\n        /* \"contracts/listaespera.sol\":1562:1720  function comprarToken() external {... */\n      jump\t// out\n        /* \"contracts/listaespera.sol\":190:215  TokenEspera public  token */\n    tag_49:\n      0x01\n      0x00\n      swap1\n      sload\n      swap1\n      0x0100\n      exp\n      swap1\n      div\n      0xffffffffffffffffffffffffffffffffffffffff\n      and\n      dup2\n      jump\t// out\n        /* \"#utility.yul\":88:205   */\n    tag_129:\n        /* \"#utility.yul\":197:198   */\n      0x00\n        /* \"#utility.yul\":194:195   */\n      0x00\n        /* \"#utility.yul\":187:199   */\n      revert\n        /* \"#utility.yul\":334:460   */\n    tag_131:\n        /* \"#utility.yul\":371:378   */\n      0x00\n        /* \"#utility.yul\":411:453   */\n      0xffffffffffffffffffffffffffffffffffffffff\n        /* \"#utility.yul\":404:409   */\n      dup3\n        /* \"#utility.yul\":400:454   */\n      and\n        /* \"#utility.yul\":389:454   */\n      swap1\n      pop\n        /* \"#utility.yul\":334:460   */\n      swap2\n      swap1\n      pop\n      jump\t// out\n        /* \"#utility.yul\":466:562   */\n    tag_132:\n        /* \"#utility.yul\":503:510   */\n      0x00\n        /* \"#utility.yul\":532:556   */\n      tag_164\n        /* \"#utility.yul\":550:555   */\n      dup3\n        /* \"#utility.yul\":532:556   */\n      tag_131\n      jump\t// in\n    tag_164:\n        /* \"#utility.yul\":521:556   */\n      swap1\n      pop\n        /* \"#utility.yul\":466:562   */\n      swap2\n      swap1\n      pop\n      jump\t// out\n        /* \"#utility.yul\":568:690   */\n    tag_133:\n        /* \"#utility.yul\":641:665   */\n      tag_166\n        /* \"#utility.yul\":659:664   */\n      dup2\n        /* \"#utility.yul\":641:665   */\n      tag_132\n      jump\t// in\n    tag_166:\n        /* \"#utility.yul\":634:639   */\n      dup2\n        /* \"#utility.yul\":631:666   */\n      eq\n        /* \"#utility.yul\":621:684   */\n      tag_167\n      jumpi\n        /* \"#utility.yul\":680:681   */\n      0x00\n        /* \"#utility.yul\":677:678   */\n      0x00\n        /* \"#utility.yul\":670:682   */\n      revert\n        /* \"#utility.yul\":621:684   */\n    tag_167:\n        /* \"#utility.yul\":568:690   */\n      pop\n      jump\t// out\n        /* \"#utility.yul\":696:835   */\n    tag_134:\n        /* \"#utility.yul\":742:747   */\n      0x00\n        /* \"#utility.yul\":780:786   */\n      dup2\n        /* \"#utility.yul\":767:787   */\n      calldataload\n        /* \"#utility.yul\":758:787   */\n      swap1\n      pop\n        /* \"#utility.yul\":796:829   */\n      tag_169\n        /* \"#utility.yul\":823:828   */\n      dup2\n        /* \"#utility.yul\":796:829   */\n      tag_133\n      jump\t// in\n    tag_169:\n        /* \"#utility.yul\":696:835   */\n      swap3\n      swap2\n      pop\n      pop\n      jump\t// out\n        /* \"#utility.yul\":841:1170   */\n    tag_16:\n        /* \"#utility.yul\":900:906   */\n      0x00\n        /* \"#utility.yul\":949:951   */\n      0x20\n        /* \"#utility.yul\":937:946   */\n      dup3\n        /* \"#utility.yul\":928:935   */\n      dup5\n        /* \"#utility.yul\":924:947   */\n      sub\n        /* \"#utility.yul\":920:952   */\n      slt\n        /* \"#utility.yul\":917:1036   */\n      iszero\n      tag_171\n      jumpi\n        /* \"#utility.yul\":955:1034   */\n      tag_172\n      tag_129\n      jump\t// in\n    tag_172:\n        /* \"#utility.yul\":917:1036   */\n    tag_171:\n        /* \"#utility.yul\":1075:1076   */\n      0x00\n        /* \"#utility.yul\":1100:1153   */\n      tag_173\n        /* \"#utility.yul\":1145:1152   */\n      dup5\n        /* \"#utility.yul\":1136:1142   */\n      dup3\n        /* \"#utility.yul\":1125:1134   */\n      dup6\n        /* \"#utility.yul\":1121:1143   */\n      add\n        /* \"#utility.yul\":1100:1153   */\n      tag_134\n      jump\t// in\n    tag_173:\n        /* \"#utility.yul\":1090:1153   */\n      swap2\n      pop\n        /* \"#utility.yul\":1046:1163   */\n      pop\n        /* \"#utility.yul\":841:1170   */\n      swap3\n      swap2\n      pop\n      pop\n      jump\t// out\n        /* \"#utility.yul\":1176:1266   */\n    tag_135:\n        /* \"#utility.yul\":1210:1217   */\n      0x00\n        /* \"#utility.yul\":1253:1258   */\n      dup2\n        /* \"#utility.yul\":1246:1259   */\n      iszero\n        /* \"#utility.yul\":1239:1260   */\n      iszero\n        /* \"#utility.yul\":1228:1260   */\n      swap1\n      pop\n        /* \"#utility.yul\":1176:1266   */\n      swap2\n      swap1\n      pop\n      jump\t// out\n        /* \"#utility.yul\":1272:1381   */\n    tag_136:\n        /* \"#utility.yul\":1353:1374   */\n      tag_176\n        /* \"#utility.yul\":1368:1373   */\n      dup2\n        /* \"#utility.yul\":1353:1374   */\n      tag_135\n      jump\t// in\n    tag_176:\n        /* \"#utility.yul\":1348:1351   */\n      dup3\n        /* \"#utility.yul\":1341:1375   */\n      mstore\n        /* \"#utility.yul\":1272:1381   */\n      pop\n      pop\n      jump\t// out\n        /* \"#utility.yul\":1387:1597   */\n    tag_19:\n        /* \"#utility.yul\":1474:1478   */\n      0x00\n        /* \"#utility.yul\":1512:1514   */\n      0x20\n        /* \"#utility.yul\":1501:1510   */\n      dup3\n        /* \"#utility.yul\":1497:1515   */\n      add\n        /* \"#utility.yul\":1489:1515   */\n      swap1\n      pop\n        /* \"#utility.yul\":1525:1590   */\n      tag_178\n        /* \"#utility.yul\":1587:1588   */\n      0x00\n        /* \"#utility.yul\":1576:1585   */\n      dup4\n        /* \"#utility.yul\":1572:1589   */\n      add\n        /* \"#utility.yul\":1563:1569   */\n      dup5\n        /* \"#utility.yul\":1525:1590   */\n      tag_136\n      jump\t// in\n    tag_178:\n        /* \"#utility.yul\":1387:1597   */\n      swap3\n      swap2\n      pop\n      pop\n      jump\t// out\n        /* \"#utility.yul\":1603:1680   */\n    tag_137:\n        /* \"#utility.yul\":1640:1647   */\n      0x00\n        /* \"#utility.yul\":1669:1674   */\n      dup2\n        /* \"#utility.yul\":1658:1674   */\n      swap1\n      pop\n        /* \"#utility.yul\":1603:1680   */\n      swap2\n      swap1\n      pop\n      jump\t// out\n        /* \"#utility.yul\":1686:1804   */\n    tag_138:\n        /* \"#utility.yul\":1773:1797   */\n      tag_181\n        /* \"#utility.yul\":1791:1796   */\n      dup2\n        /* \"#utility.yul\":1773:1797   */\n      tag_137\n      jump\t// in\n    tag_181:\n        /* \"#utility.yul\":1768:1771   */\n      dup3\n        /* \"#utility.yul\":1761:1798   */\n      mstore\n        /* \"#utility.yul\":1686:1804   */\n      pop\n      pop\n      jump\t// out\n        /* \"#utility.yul\":1810:2032   */\n    tag_23:\n        /* \"#utility.yul\":1903:1907   */\n      0x00\n        /* \"#utility.yul\":1941:1943   */\n      0x20\n        /* \"#utility.yul\":1930:1939   */\n      dup3\n        /* \"#utility.yul\":1926:1944   */\n      add\n        /* \"#utility.yul\":1918:1944   */\n      swap1\n      pop\n        /* \"#utility.yul\":1954:2025   */\n      tag_183\n        /* \"#utility.yul\":2022:2023   */\n      0x00\n        /* \"#utility.yul\":2011:2020   */\n      dup4\n        /* \"#utility.yul\":2007:2024   */\n      add\n        /* \"#utility.yul\":1998:2004   */\n      dup5\n        /* \"#utility.yul\":1954:2025   */\n      tag_138\n      jump\t// in\n    tag_183:\n        /* \"#utility.yul\":1810:2032   */\n      swap3\n      swap2\n      pop\n      pop\n      jump\t// out\n        /* \"#utility.yul\":2038:2160   */\n    tag_139:\n        /* \"#utility.yul\":2111:2135   */\n      tag_185\n        /* \"#utility.yul\":2129:2134   */\n      dup2\n        /* \"#utility.yul\":2111:2135   */\n      tag_137\n      jump\t// in\n    tag_185:\n        /* \"#utility.yul\":2104:2109   */\n      dup2\n        /* \"#utility.yul\":2101:2136   */\n      eq\n        /* \"#utility.yul\":2091:2154   */\n      tag_186\n      jumpi\n        /* \"#utility.yul\":2150:2151   */\n      0x00\n        /* \"#utility.yul\":2147:2148   */\n      0x00\n        /* \"#utility.yul\":2140:2152   */\n      revert\n        /* \"#utility.yul\":2091:2154   */\n    tag_186:\n        /* \"#utility.yul\":2038:2160   */\n      pop\n      jump\t// out\n        /* \"#utility.yul\":2166:2305   */\n    tag_140:\n        /* \"#utility.yul\":2212:2217   */\n      0x00\n        /* \"#utility.yul\":2250:2256   */\n      dup2\n        /* \"#utility.yul\":2237:2257   */\n      calldataload\n        /* \"#utility.yul\":2228:2257   */\n      swap1\n      pop\n        /* \"#utility.yul\":2266:2299   */\n      tag_188\n        /* \"#utility.yul\":2293:2298   */\n      dup2\n        /* \"#utility.yul\":2266:2299   */\n      tag_139\n      jump\t// in\n    tag_188:\n        /* \"#utility.yul\":2166:2305   */\n      swap3\n      swap2\n      pop\n      pop\n      jump\t// out\n        /* \"#utility.yul\":2311:2640   */\n    tag_28:\n        /* \"#utility.yul\":2370:2376   */\n      0x00\n        /* \"#utility.yul\":2419:2421   */\n      0x20\n        /* \"#utility.yul\":2407:2416   */\n      dup3\n        /* \"#utility.yul\":2398:2405   */\n      dup5\n        /* \"#utility.yul\":2394:2417   */\n      sub\n        /* \"#utility.yul\":2390:2422   */\n      slt\n        /* \"#utility.yul\":2387:2506   */\n      iszero\n      tag_190\n      jumpi\n        /* \"#utility.yul\":2425:2504   */\n      tag_191\n      tag_129\n      jump\t// in\n    tag_191:\n        /* \"#utility.yul\":2387:2506   */\n    tag_190:\n        /* \"#utility.yul\":2545:2546   */\n      0x00\n        /* \"#utility.yul\":2570:2623   */\n      tag_192\n        /* \"#utility.yul\":2615:2622   */\n      dup5\n        /* \"#utility.yul\":2606:2612   */\n      dup3\n        /* \"#utility.yul\":2595:2604   */\n      dup6\n        /* \"#utility.yul\":2591:2613   */\n      add\n        /* \"#utility.yul\":2570:2623   */\n      tag_140\n      jump\t// in\n    tag_192:\n        /* \"#utility.yul\":2560:2623   */\n      swap2\n      pop\n        /* \"#utility.yul\":2516:2633   */\n      pop\n        /* \"#utility.yul\":2311:2640   */\n      swap3\n      swap2\n      pop\n      pop\n      jump\t// out\n        /* \"#utility.yul\":2646:2764   */\n    tag_141:\n        /* \"#utility.yul\":2733:2757   */\n      tag_194\n        /* \"#utility.yul\":2751:2756   */\n      dup2\n        /* \"#utility.yul\":2733:2757   */\n      tag_132\n      jump\t// in\n    tag_194:\n        /* \"#utility.yul\":2728:2731   */\n      dup3\n        /* \"#utility.yul\":2721:2758   */\n      mstore\n        /* \"#utility.yul\":2646:2764   */\n      pop\n      pop\n      jump\t// out\n        /* \"#utility.yul\":2770:2992   */\n    tag_31:\n        /* \"#utility.yul\":2863:2867   */\n      0x00\n        /* \"#utility.yul\":2901:2903   */\n      0x20\n        /* \"#utility.yul\":2890:2899   */\n      dup3\n        /* \"#utility.yul\":2886:2904   */\n      add\n        /* \"#utility.yul\":2878:2904   */\n      swap1\n      pop\n        /* \"#utility.yul\":2914:2985   */\n      tag_196\n        /* \"#utility.yul\":2982:2983   */\n      0x00\n        /* \"#utility.yul\":2971:2980   */\n      dup4\n        /* \"#utility.yul\":2967:2984   */\n      add\n        /* \"#utility.yul\":2958:2964   */\n      dup5\n        /* \"#utility.yul\":2914:2985   */\n      tag_141\n      jump\t// in\n    tag_196:\n        /* \"#utility.yul\":2770:2992   */\n      swap3\n      swap2\n      pop\n      pop\n      jump\t// out\n        /* \"#utility.yul\":2998:3617   */\n    tag_37:\n        /* \"#utility.yul\":3075:3081   */\n      0x00\n        /* \"#utility.yul\":3083:3089   */\n      0x00\n        /* \"#utility.yul\":3091:3097   */\n      0x00\n        /* \"#utility.yul\":3140:3142   */\n      0x60\n        /* \"#utility.yul\":3128:3137   */\n      dup5\n        /* \"#utility.yul\":3119:3126   */\n      dup7\n        /* \"#utility.yul\":3115:3138   */\n      sub\n        /* \"#utility.yul\":3111:3143   */\n      slt\n        /* \"#utility.yul\":3108:3227   */\n      iszero\n      tag_198\n      jumpi\n        /* \"#utility.yul\":3146:3225   */\n      tag_199\n      tag_129\n      jump\t// in\n    tag_199:\n        /* \"#utility.yul\":3108:3227   */\n    tag_198:\n        /* \"#utility.yul\":3266:3267   */\n      0x00\n        /* \"#utility.yul\":3291:3344   */\n      tag_200\n        /* \"#utility.yul\":3336:3343   */\n      dup7\n        /* \"#utility.yul\":3327:3333   */\n      dup3\n        /* \"#utility.yul\":3316:3325   */\n      dup8\n        /* \"#utility.yul\":3312:3334   */\n      add\n        /* \"#utility.yul\":3291:3344   */\n      tag_134\n      jump\t// in\n    tag_200:\n        /* \"#utility.yul\":3281:3344   */\n      swap4\n      pop\n        /* \"#utility.yul\":3237:3354   */\n      pop\n        /* \"#utility.yul\":3393:3395   */\n      0x20\n        /* \"#utility.yul\":3419:3472   */\n      tag_201\n        /* \"#utility.yul\":3464:3471   */\n      dup7\n        /* \"#utility.yul\":3455:3461   */\n      dup3\n        /* \"#utility.yul\":3444:3453   */\n      dup8\n        /* \"#utility.yul\":3440:3462   */\n      add\n        /* \"#utility.yul\":3419:3472   */\n      tag_134\n      jump\t// in\n    tag_201:\n        /* \"#utility.yul\":3409:3472   */\n      swap3\n      pop\n        /* \"#utility.yul\":3364:3482   */\n      pop\n        /* \"#utility.yul\":3521:3523   */\n      0x40\n        /* \"#utility.yul\":3547:3600   */\n      tag_202\n        /* \"#utility.yul\":3592:3599   */\n      dup7\n        /* \"#utility.yul\":3583:3589   */\n      dup3\n        /* \"#utility.yul\":3572:3581   */\n      dup8\n        /* \"#utility.yul\":3568:3590   */\n      add\n        /* \"#utility.yul\":3547:3600   */\n      tag_140\n      jump\t// in\n    tag_202:\n        /* \"#utility.yul\":3537:3600   */\n      swap2\n      pop\n        /* \"#utility.yul\":3492:3610   */\n      pop\n        /* \"#utility.yul\":2998:3617   */\n      swap3\n      pop\n      swap3\n      pop\n      swap3\n      jump\t// out\n        /* \"#utility.yul\":3623:3683   */\n    tag_142:\n        /* \"#utility.yul\":3651:3654   */\n      0x00\n        /* \"#utility.yul\":3672:3677   */\n      dup2\n        /* \"#utility.yul\":3665:3677   */\n      swap1\n      pop\n        /* \"#utility.yul\":3623:3683   */\n      swap2\n      swap1\n      pop\n      jump\t// out\n        /* \"#utility.yul\":3689:3831   */\n    tag_143:\n        /* \"#utility.yul\":3739:3748   */\n      0x00\n        /* \"#utility.yul\":3772:3825   */\n      tag_205\n        /* \"#utility.yul\":3790:3824   */\n      tag_206\n        /* \"#utility.yul\":3799:3823   */\n      tag_207\n        /* \"#utility.yul\":3817:3822   */\n      dup5\n        /* \"#utility.yul\":3799:3823   */\n      tag_131\n      jump\t// in\n    tag_207:\n        /* \"#utility.yul\":3790:3824   */\n      tag_142\n      jump\t// in\n    tag_206:\n        /* \"#utility.yul\":3772:3825   */\n      tag_131\n      jump\t// in\n    tag_205:\n        /* \"#utility.yul\":3759:3825   */\n      swap1\n      pop\n        /* \"#utility.yul\":3689:3831   */\n      swap2\n      swap1\n      pop\n      jump\t// out\n        /* \"#utility.yul\":3837:3963   */\n    tag_144:\n        /* \"#utility.yul\":3887:3896   */\n      0x00\n        /* \"#utility.yul\":3920:3957   */\n      tag_209\n        /* \"#utility.yul\":3951:3956   */\n      dup3\n        /* \"#utility.yul\":3920:3957   */\n      tag_143\n      jump\t// in\n    tag_209:\n        /* \"#utility.yul\":3907:3957   */\n      swap1\n      pop\n        /* \"#utility.yul\":3837:3963   */\n      swap2\n      swap1\n      pop\n      jump\t// out\n        /* \"#utility.yul\":3969:4115   */\n    tag_145:\n        /* \"#utility.yul\":4039:4048   */\n      0x00\n        /* \"#utility.yul\":4072:4109   */\n      tag_211\n        /* \"#utility.yul\":4103:4108   */\n      dup3\n        /* \"#utility.yul\":4072:4109   */\n      tag_144\n      jump\t// in\n    tag_211:\n        /* \"#utility.yul\":4059:4109   */\n      swap1\n      pop\n        /* \"#utility.yul\":3969:4115   */\n      swap2\n      swap1\n      pop\n      jump\t// out\n        /* \"#utility.yul\":4121:4292   */\n    tag_146:\n        /* \"#utility.yul\":4228:4285   */\n      tag_213\n        /* \"#utility.yul\":4279:4284   */\n      dup2\n        /* \"#utility.yul\":4228:4285   */\n      tag_145\n      jump\t// in\n    tag_213:\n        /* \"#utility.yul\":4223:4226   */\n      dup3\n        /* \"#utility.yul\":4216:4286   */\n      mstore\n        /* \"#utility.yul\":4121:4292   */\n      pop\n      pop\n      jump\t// out\n        /* \"#utility.yul\":4298:4560   */\n    tag_51:\n        /* \"#utility.yul\":4411:4415   */\n      0x00\n        /* \"#utility.yul\":4449:4451   */\n      0x20\n        /* \"#utility.yul\":4438:4447   */\n      dup3\n        /* \"#utility.yul\":4434:4452   */\n      add\n        /* \"#utility.yul\":4426:4452   */\n      swap1\n      pop\n        /* \"#utility.yul\":4462:4553   */\n      tag_215\n        /* \"#utility.yul\":4550:4551   */\n      0x00\n        /* \"#utility.yul\":4539:4548   */\n      dup4\n        /* \"#utility.yul\":4535:4552   */\n      add\n        /* \"#utility.yul\":4526:4532   */\n      dup5\n        /* \"#utility.yul\":4462:4553   */\n      tag_146\n      jump\t// in\n    tag_215:\n        /* \"#utility.yul\":4298:4560   */\n      swap3\n      swap2\n      pop\n      pop\n      jump\t// out\n        /* \"#utility.yul\":4566:4746   */\n    tag_58:\n        /* \"#utility.yul\":4614:4691   */\n      0x4e487b7100000000000000000000000000000000000000000000000000000000\n        /* \"#utility.yul\":4611:4612   */\n      0x00\n        /* \"#utility.yul\":4604:4692   */\n      mstore\n        /* \"#utility.yul\":4711:4715   */\n      0x32\n        /* \"#utility.yul\":4708:4709   */\n      0x04\n        /* \"#utility.yul\":4701:4716   */\n      mstore\n        /* \"#utility.yul\":4735:4739   */\n      0x24\n        /* \"#utility.yul\":4732:4733   */\n      0x00\n        /* \"#utility.yul\":4725:4740   */\n      revert\n        /* \"#utility.yul\":4752:4895   */\n    tag_147:\n        /* \"#utility.yul\":4809:4814   */\n      0x00\n        /* \"#utility.yul\":4840:4846   */\n      dup2\n        /* \"#utility.yul\":4834:4847   */\n      mload\n        /* \"#utility.yul\":4825:4847   */\n      swap1\n      pop\n        /* \"#utility.yul\":4856:4889   */\n      tag_218\n        /* \"#utility.yul\":4883:4888   */\n      dup2\n        /* \"#utility.yul\":4856:4889   */\n      tag_139\n      jump\t// in\n    tag_218:\n        /* \"#utility.yul\":4752:4895   */\n      swap3\n      swap2\n      pop\n      pop\n      jump\t// out\n        /* \"#utility.yul\":4901:5252   */\n    tag_66:\n        /* \"#utility.yul\":4971:4977   */\n      0x00\n        /* \"#utility.yul\":5020:5022   */\n      0x20\n        /* \"#utility.yul\":5008:5017   */\n      dup3\n        /* \"#utility.yul\":4999:5006   */\n      dup5\n        /* \"#utility.yul\":4995:5018   */\n      sub\n        /* \"#utility.yul\":4991:5023   */\n      slt\n        /* \"#utility.yul\":4988:5107   */\n      iszero\n      tag_220\n      jumpi\n        /* \"#utility.yul\":5026:5105   */\n      tag_221\n      tag_129\n      jump\t// in\n    tag_221:\n        /* \"#utility.yul\":4988:5107   */\n    tag_220:\n        /* \"#utility.yul\":5146:5147   */\n      0x00\n        /* \"#utility.yul\":5171:5235   */\n      tag_222\n        /* \"#utility.yul\":5227:5234   */\n      dup5\n        /* \"#utility.yul\":5218:5224   */\n      dup3\n        /* \"#utility.yul\":5207:5216   */\n      dup6\n        /* \"#utility.yul\":5203:5225   */\n      add\n        /* \"#utility.yul\":5171:5235   */\n      tag_147\n      jump\t// in\n    tag_222:\n        /* \"#utility.yul\":5161:5235   */\n      swap2\n      pop\n        /* \"#utility.yul\":5117:5245   */\n      pop\n        /* \"#utility.yul\":4901:5252   */\n      swap3\n      swap2\n      pop\n      pop\n      jump\t// out\n        /* \"#utility.yul\":5258:5427   */\n    tag_148:\n        /* \"#utility.yul\":5342:5353   */\n      0x00\n        /* \"#utility.yul\":5376:5382   */\n      dup3\n        /* \"#utility.yul\":5371:5374   */\n      dup3\n        /* \"#utility.yul\":5364:5383   */\n      mstore\n        /* \"#utility.yul\":5416:5420   */\n      0x20\n        /* \"#utility.yul\":5411:5414   */\n      dup3\n        /* \"#utility.yul\":5407:5421   */\n      add\n        /* \"#utility.yul\":5392:5421   */\n      swap1\n      pop\n        /* \"#utility.yul\":5258:5427   */\n      swap3\n      swap2\n      pop\n      pop\n      jump\t// out\n        /* \"#utility.yul\":5433:5600   */\n    tag_149:\n        /* \"#utility.yul\":5573:5592   */\n      0x596120657374617320696e73637269746f000000000000000000000000000000\n        /* \"#utility.yul\":5569:5570   */\n      0x00\n        /* \"#utility.yul\":5561:5567   */\n      dup3\n        /* \"#utility.yul\":5557:5571   */\n      add\n        /* \"#utility.yul\":5550:5593   */\n      mstore\n        /* \"#utility.yul\":5433:5600   */\n      pop\n      jump\t// out\n        /* \"#utility.yul\":5606:5972   */\n    tag_150:\n        /* \"#utility.yul\":5748:5751   */\n      0x00\n        /* \"#utility.yul\":5769:5836   */\n      tag_226\n        /* \"#utility.yul\":5833:5835   */\n      0x11\n        /* \"#utility.yul\":5828:5831   */\n      dup4\n        /* \"#utility.yul\":5769:5836   */\n      tag_148\n      jump\t// in\n    tag_226:\n        /* \"#utility.yul\":5762:5836   */\n      swap2\n      pop\n        /* \"#utility.yul\":5845:5938   */\n      tag_227\n        /* \"#utility.yul\":5934:5937   */\n      dup3\n        /* \"#utility.yul\":5845:5938   */\n      tag_149\n      jump\t// in\n    tag_227:\n        /* \"#utility.yul\":5963:5965   */\n      0x20\n        /* \"#utility.yul\":5958:5961   */\n      dup3\n        /* \"#utility.yul\":5954:5966   */\n      add\n        /* \"#utility.yul\":5947:5966   */\n      swap1\n      pop\n        /* \"#utility.yul\":5606:5972   */\n      swap2\n      swap1\n      pop\n      jump\t// out\n        /* \"#utility.yul\":5978:6397   */\n    tag_71:\n        /* \"#utility.yul\":6144:6148   */\n      0x00\n        /* \"#utility.yul\":6182:6184   */\n      0x20\n        /* \"#utility.yul\":6171:6180   */\n      dup3\n        /* \"#utility.yul\":6167:6185   */\n      add\n        /* \"#utility.yul\":6159:6185   */\n      swap1\n      pop\n        /* \"#utility.yul\":6231:6240   */\n      dup2\n        /* \"#utility.yul\":6225:6229   */\n      dup2\n        /* \"#utility.yul\":6221:6241   */\n      sub\n        /* \"#utility.yul\":6217:6218   */\n      0x00\n        /* \"#utility.yul\":6206:6215   */\n      dup4\n        /* \"#utility.yul\":6202:6219   */\n      add\n        /* \"#utility.yul\":6195:6242   */\n      mstore\n        /* \"#utility.yul\":6259:6390   */\n      tag_229\n        /* \"#utility.yul\":6385:6389   */\n      dup2\n        /* \"#utility.yul\":6259:6390   */\n      tag_150\n      jump\t// in\n    tag_229:\n        /* \"#utility.yul\":6251:6390   */\n      swap1\n      pop\n        /* \"#utility.yul\":5978:6397   */\n      swap2\n      swap1\n      pop\n      jump\t// out\n        /* \"#utility.yul\":6403:6571   */\n    tag_151:\n        /* \"#utility.yul\":6543:6563   */\n      0x53616c646f20696e737566696369656e74650000000000000000000000000000\n        /* \"#utility.yul\":6539:6540   */\n      0x00\n        /* \"#utility.yul\":6531:6537   */\n      dup3\n        /* \"#utility.yul\":6527:6541   */\n      add\n        /* \"#utility.yul\":6520:6564   */\n      mstore\n        /* \"#utility.yul\":6403:6571   */\n      pop\n      jump\t// out\n        /* \"#utility.yul\":6577:6943   */\n    tag_152:\n        /* \"#utility.yul\":6719:6722   */\n      0x00\n        /* \"#utility.yul\":6740:6807   */\n      tag_232\n        /* \"#utility.yul\":6804:6806   */\n      0x12\n        /* \"#utility.yul\":6799:6802   */\n      dup4\n        /* \"#utility.yul\":6740:6807   */\n      tag_148\n      jump\t// in\n    tag_232:\n        /* \"#utility.yul\":6733:6807   */\n      swap2\n      pop\n        /* \"#utility.yul\":6816:6909   */\n      tag_233\n        /* \"#utility.yul\":6905:6908   */\n      dup3\n        /* \"#utility.yul\":6816:6909   */\n      tag_151\n      jump\t// in\n    tag_233:\n        /* \"#utility.yul\":6934:6936   */\n      0x20\n        /* \"#utility.yul\":6929:6932   */\n      dup3\n        /* \"#utility.yul\":6925:6937   */\n      add\n        /* \"#utility.yul\":6918:6937   */\n      swap1\n      pop\n        /* \"#utility.yul\":6577:6943   */\n      swap2\n      swap1\n      pop\n      jump\t// out\n        /* \"#utility.yul\":6949:7368   */\n    tag_78:\n        /* \"#utility.yul\":7115:7119   */\n      0x00\n        /* \"#utility.yul\":7153:7155   */\n      0x20\n        /* \"#utility.yul\":7142:7151   */\n      dup3\n        /* \"#utility.yul\":7138:7156   */\n      add\n        /* \"#utility.yul\":7130:7156   */\n      swap1\n      pop\n        /* \"#utility.yul\":7202:7211   */\n      dup2\n        /* \"#utility.yul\":7196:7200   */\n      dup2\n        /* \"#utility.yul\":7192:7212   */\n      sub\n        /* \"#utility.yul\":7188:7189   */\n      0x00\n        /* \"#utility.yul\":7177:7186   */\n      dup4\n        /* \"#utility.yul\":7173:7190   */\n      add\n        /* \"#utility.yul\":7166:7213   */\n      mstore\n        /* \"#utility.yul\":7230:7361   */\n      tag_235\n        /* \"#utility.yul\":7356:7360   */\n      dup2\n        /* \"#utility.yul\":7230:7361   */\n      tag_152\n      jump\t// in\n    tag_235:\n        /* \"#utility.yul\":7222:7361   */\n      swap1\n      pop\n        /* \"#utility.yul\":6949:7368   */\n      swap2\n      swap1\n      pop\n      jump\t// out\n        /* \"#utility.yul\":7374:7816   */\n    tag_81:\n        /* \"#utility.yul\":7523:7527   */\n      0x00\n        /* \"#utility.yul\":7561:7563   */\n      0x60\n        /* \"#utility.yul\":7550:7559   */\n      dup3\n        /* \"#utility.yul\":7546:7564   */\n      add\n        /* \"#utility.yul\":7538:7564   */\n      swap1\n      pop\n        /* \"#utility.yul\":7574:7645   */\n      tag_237\n        /* \"#utility.yul\":7642:7643   */\n      0x00\n        /* \"#utility.yul\":7631:7640   */\n      dup4\n        /* \"#utility.yul\":7627:7644   */\n      add\n        /* \"#utility.yul\":7618:7624   */\n      dup7\n        /* \"#utility.yul\":7574:7645   */\n      tag_141\n      jump\t// in\n    tag_237:\n        /* \"#utility.yul\":7655:7727   */\n      tag_238\n        /* \"#utility.yul\":7723:7725   */\n      0x20\n        /* \"#utility.yul\":7712:7721   */\n      dup4\n        /* \"#utility.yul\":7708:7726   */\n      add\n        /* \"#utility.yul\":7699:7705   */\n      dup6\n        /* \"#utility.yul\":7655:7727   */\n      tag_141\n      jump\t// in\n    tag_238:\n        /* \"#utility.yul\":7737:7809   */\n      tag_239\n        /* \"#utility.yul\":7805:7807   */\n      0x40\n        /* \"#utility.yul\":7794:7803   */\n      dup4\n        /* \"#utility.yul\":7790:7808   */\n      add\n        /* \"#utility.yul\":7781:7787   */\n      dup5\n        /* \"#utility.yul\":7737:7809   */\n      tag_138\n      jump\t// in\n    tag_239:\n        /* \"#utility.yul\":7374:7816   */\n      swap5\n      swap4\n      pop\n      pop\n      pop\n      pop\n      jump\t// out\n        /* \"#utility.yul\":7822:7938   */\n    tag_153:\n        /* \"#utility.yul\":7892:7913   */\n      tag_241\n        /* \"#utility.yul\":7907:7912   */\n      dup2\n        /* \"#utility.yul\":7892:7913   */\n      tag_135\n      jump\t// in\n    tag_241:\n        /* \"#utility.yul\":7885:7890   */\n      dup2\n        /* \"#utility.yul\":7882:7914   */\n      eq\n        /* \"#utility.yul\":7872:7932   */\n      tag_242\n      jumpi\n        /* \"#utility.yul\":7928:7929   */\n      0x00\n        /* \"#utility.yul\":7925:7926   */\n      0x00\n        /* \"#utility.yul\":7918:7930   */\n      revert\n        /* \"#utility.yul\":7872:7932   */\n    tag_242:\n        /* \"#utility.yul\":7822:7938   */\n      pop\n      jump\t// out\n        /* \"#utility.yul\":7944:8081   */\n    tag_154:\n        /* \"#utility.yul\":7998:8003   */\n      0x00\n        /* \"#utility.yul\":8029:8035   */\n      dup2\n        /* \"#utility.yul\":8023:8036   */\n      mload\n        /* \"#utility.yul\":8014:8036   */\n      swap1\n      pop\n        /* \"#utility.yul\":8045:8075   */\n      tag_244\n        /* \"#utility.yul\":8069:8074   */\n      dup2\n        /* \"#utility.yul\":8045:8075   */\n      tag_153\n      jump\t// in\n    tag_244:\n        /* \"#utility.yul\":7944:8081   */\n      swap3\n      swap2\n      pop\n      pop\n      jump\t// out\n        /* \"#utility.yul\":8087:8432   */\n    tag_85:\n        /* \"#utility.yul\":8154:8160   */\n      0x00\n        /* \"#utility.yul\":8203:8205   */\n      0x20\n        /* \"#utility.yul\":8191:8200   */\n      dup3\n        /* \"#utility.yul\":8182:8189   */\n      dup5\n        /* \"#utility.yul\":8178:8201   */\n      sub\n        /* \"#utility.yul\":8174:8206   */\n      slt\n        /* \"#utility.yul\":8171:8290   */\n      iszero\n      tag_246\n      jumpi\n        /* \"#utility.yul\":8209:8288   */\n      tag_247\n      tag_129\n      jump\t// in\n    tag_247:\n        /* \"#utility.yul\":8171:8290   */\n    tag_246:\n        /* \"#utility.yul\":8329:8330   */\n      0x00\n        /* \"#utility.yul\":8354:8415   */\n      tag_248\n        /* \"#utility.yul\":8407:8414   */\n      dup5\n        /* \"#utility.yul\":8398:8404   */\n      dup3\n        /* \"#utility.yul\":8387:8396   */\n      dup6\n        /* \"#utility.yul\":8383:8405   */\n      add\n        /* \"#utility.yul\":8354:8415   */\n      tag_154\n      jump\t// in\n    tag_248:\n        /* \"#utility.yul\":8344:8415   */\n      swap2\n      pop\n        /* \"#utility.yul\":8300:8425   */\n      pop\n        /* \"#utility.yul\":8087:8432   */\n      swap3\n      swap2\n      pop\n      pop\n      jump\t// out\n        /* \"#utility.yul\":8438:8659   */\n    tag_155:\n        /* \"#utility.yul\":8578:8612   */\n      0x4572726f7220616c207265616c697a6172206c61207472616e73666572656e63\n        /* \"#utility.yul\":8574:8575   */\n      0x00\n        /* \"#utility.yul\":8566:8572   */\n      dup3\n        /* \"#utility.yul\":8562:8576   */\n      add\n        /* \"#utility.yul\":8555:8613   */\n      mstore\n        /* \"#utility.yul\":8647:8651   */\n      0x6961000000000000000000000000000000000000000000000000000000000000\n        /* \"#utility.yul\":8642:8644   */\n      0x20\n        /* \"#utility.yul\":8634:8640   */\n      dup3\n        /* \"#utility.yul\":8630:8645   */\n      add\n        /* \"#utility.yul\":8623:8652   */\n      mstore\n        /* \"#utility.yul\":8438:8659   */\n      pop\n      jump\t// out\n        /* \"#utility.yul\":8665:9031   */\n    tag_156:\n        /* \"#utility.yul\":8807:8810   */\n      0x00\n        /* \"#utility.yul\":8828:8895   */\n      tag_251\n        /* \"#utility.yul\":8892:8894   */\n      0x22\n        /* \"#utility.yul\":8887:8890   */\n      dup4\n        /* \"#utility.yul\":8828:8895   */\n      tag_148\n      jump\t// in\n    tag_251:\n        /* \"#utility.yul\":8821:8895   */\n      swap2\n      pop\n        /* \"#utility.yul\":8904:8997   */\n      tag_252\n        /* \"#utility.yul\":8993:8996   */\n      dup3\n        /* \"#utility.yul\":8904:8997   */\n      tag_155\n      jump\t// in\n    tag_252:\n        /* \"#utility.yul\":9022:9024   */\n      0x40\n        /* \"#utility.yul\":9017:9020   */\n      dup3\n        /* \"#utility.yul\":9013:9025   */\n      add\n        /* \"#utility.yul\":9006:9025   */\n      swap1\n      pop\n        /* \"#utility.yul\":8665:9031   */\n      swap2\n      swap1\n      pop\n      jump\t// out\n        /* \"#utility.yul\":9037:9456   */\n    tag_88:\n        /* \"#utility.yul\":9203:9207   */\n      0x00\n        /* \"#utility.yul\":9241:9243   */\n      0x20\n        /* \"#utility.yul\":9230:9239   */\n      dup3\n        /* \"#utility.yul\":9226:9244   */\n      add\n        /* \"#utility.yul\":9218:9244   */\n      swap1\n      pop\n        /* \"#utility.yul\":9290:9299   */\n      dup2\n        /* \"#utility.yul\":9284:9288   */\n      dup2\n        /* \"#utility.yul\":9280:9300   */\n      sub\n        /* \"#utility.yul\":9276:9277   */\n      0x00\n        /* \"#utility.yul\":9265:9274   */\n      dup4\n        /* \"#utility.yul\":9261:9278   */\n      add\n        /* \"#utility.yul\":9254:9301   */\n      mstore\n        /* \"#utility.yul\":9318:9449   */\n      tag_254\n        /* \"#utility.yul\":9444:9448   */\n      dup2\n        /* \"#utility.yul\":9318:9449   */\n      tag_156\n      jump\t// in\n    tag_254:\n        /* \"#utility.yul\":9310:9449   */\n      swap1\n      pop\n        /* \"#utility.yul\":9037:9456   */\n      swap2\n      swap1\n      pop\n      jump\t// out\n        /* \"#utility.yul\":9462:9642   */\n    tag_157:\n        /* \"#utility.yul\":9510:9587   */\n      0x4e487b7100000000000000000000000000000000000000000000000000000000\n        /* \"#utility.yul\":9507:9508   */\n      0x00\n        /* \"#utility.yul\":9500:9588   */\n      mstore\n        /* \"#utility.yul\":9607:9611   */\n      0x11\n        /* \"#utility.yul\":9604:9605   */\n      0x04\n        /* \"#utility.yul\":9597:9612   */\n      mstore\n        /* \"#utility.yul\":9631:9635   */\n      0x24\n        /* \"#utility.yul\":9628:9629   */\n      0x00\n        /* \"#utility.yul\":9621:9636   */\n      revert\n        /* \"#utility.yul\":9648:9881   */\n    tag_112:\n        /* \"#utility.yul\":9687:9690   */\n      0x00\n        /* \"#utility.yul\":9710:9734   */\n      tag_257\n        /* \"#utility.yul\":9728:9733   */\n      dup3\n        /* \"#utility.yul\":9710:9734   */\n      tag_137\n      jump\t// in\n    tag_257:\n        /* \"#utility.yul\":9701:9734   */\n      swap2\n      pop\n        /* \"#utility.yul\":9756:9822   */\n      0xffffffffffffffffffffffffffffffffffffffffffffffffffffffffffffffff\n        /* \"#utility.yul\":9749:9754   */\n      dup3\n        /* \"#utility.yul\":9746:9823   */\n      sub\n        /* \"#utility.yul\":9743:9846   */\n      tag_258\n      jumpi\n        /* \"#utility.yul\":9826:9844   */\n      tag_259\n      tag_157\n      jump\t// in\n    tag_259:\n        /* \"#utility.yul\":9743:9846   */\n    tag_258:\n        /* \"#utility.yul\":9873:9874   */\n      0x01\n        /* \"#utility.yul\":9866:9871   */\n      dup3\n        /* \"#utility.yul\":9862:9875   */\n      add\n        /* \"#utility.yul\":9855:9875   */\n      swap1\n      pop\n        /* \"#utility.yul\":9648:9881   */\n      swap2\n      swap1\n      pop\n      jump\t// out\n        /* \"#utility.yul\":9887:10078   */\n    tag_116:\n        /* \"#utility.yul\":9927:9930   */\n      0x00\n        /* \"#utility.yul\":9946:9966   */\n      tag_261\n        /* \"#utility.yul\":9964:9965   */\n      dup3\n        /* \"#utility.yul\":9946:9966   */\n      tag_137\n      jump\t// in\n    tag_261:\n        /* \"#utility.yul\":9941:9966   */\n      swap2\n      pop\n        /* \"#utility.yul\":9980:10000   */\n      tag_262\n        /* \"#utility.yul\":9998:9999   */\n      dup4\n        /* \"#utility.yul\":9980:10000   */\n      tag_137\n      jump\t// in\n    tag_262:\n        /* \"#utility.yul\":9975:10000   */\n      swap3\n      pop\n        /* \"#utility.yul\":10023:10024   */\n      dup3\n        /* \"#utility.yul\":10020:10021   */\n      dup3\n        /* \"#utility.yul\":10016:10025   */\n      add\n        /* \"#utility.yul\":10009:10025   */\n      swap1\n      pop\n        /* \"#utility.yul\":10044:10047   */\n      dup1\n        /* \"#utility.yul\":10041:10042   */\n      dup3\n        /* \"#utility.yul\":10038:10048   */\n      gt\n        /* \"#utility.yul\":10035:10071   */\n      iszero\n      tag_263\n      jumpi\n        /* \"#utility.yul\":10051:10069   */\n      tag_264\n      tag_157\n      jump\t// in\n    tag_264:\n        /* \"#utility.yul\":10035:10071   */\n    tag_263:\n        /* \"#utility.yul\":9887:10078   */\n      swap3\n      swap2\n      pop\n      pop\n      jump\t// out\n        /* \"#utility.yul\":10084:10416   */\n    tag_124:\n        /* \"#utility.yul\":10205:10209   */\n      0x00\n        /* \"#utility.yul\":10243:10245   */\n      0x40\n        /* \"#utility.yul\":10232:10241   */\n      dup3\n        /* \"#utility.yul\":10228:10246   */\n      add\n        /* \"#utility.yul\":10220:10246   */\n      swap1\n      pop\n        /* \"#utility.yul\":10256:10327   */\n      tag_266\n        /* \"#utility.yul\":10324:10325   */\n      0x00\n        /* \"#utility.yul\":10313:10322   */\n      dup4\n        /* \"#utility.yul\":10309:10326   */\n      add\n        /* \"#utility.yul\":10300:10306   */\n      dup6\n        /* \"#utility.yul\":10256:10327   */\n      tag_141\n      jump\t// in\n    tag_266:\n        /* \"#utility.yul\":10337:10409   */\n      tag_267\n        /* \"#utility.yul\":10405:10407   */\n      0x20\n        /* \"#utility.yul\":10394:10403   */\n      dup4\n        /* \"#utility.yul\":10390:10408   */\n      add\n        /* \"#utility.yul\":10381:10387   */\n      dup5\n        /* \"#utility.yul\":10337:10409   */\n      tag_138\n      jump\t// in\n    tag_267:\n        /* \"#utility.yul\":10084:10416   */\n      swap4\n      swap3\n      pop\n      pop\n      pop\n      jump\t// out\n\n    auxdata: 0xa2646970667358221220f5fe016d9dbcfc6d2b4b85f59c72666731108ea8488e127eb653cf406bc3b47c64736f6c634300081e0033\n}\n",
				"bytecode": {
					"linkReferences": {},
					"object": "608060405273f55301514c27489fde7c9cd9a3ea8044e7e045795f5f6101000a81548173ffffffffffffffffffffffffffffffffffffffff021916908373ffffffffffffffffffffffffffffffffffffffff160217905550348015610062575f5ffd5b506040516110e13803806110e183398181016040528101906100849190610139565b8060015f6101000a81548173ffffffffffffffffffffffffffffffffffffffff021916908373ffffffffffffffffffffffffffffffffffffffff16021790555050610164565b5f5ffd5b5f73ffffffffffffffffffffffffffffffffffffffff82169050919050565b5f6100f7826100ce565b9050919050565b5f610108826100ed565b9050919050565b610118816100fe565b8114610122575f5ffd5b50565b5f815190506101338161010f565b92915050565b5f6020828403121561014e5761014d6100ca565b5b5f61015b84828501610125565b91505092915050565b610f70806101715f395ff3fe608060405234801561000f575f5ffd5b506004361061009c575f3560e01c80638a75e7bd116100645780638a75e7bd146101465780638da5cb5b14610176578063cd0d232a14610194578063f32360a0146101b2578063fc0c546a146101bc5761009c565b80630469846b146100a057806312065fe0146100d057806361722365146100ee578063787e5869146100f85780638881a87414610128575b5f5ffd5b6100ba60048036038101906100b59190610a38565b6101da565b6040516100c79190610a7d565b60405180910390f35b6100d861027c565b6040516100e59190610aae565b60405180910390f35b6100f661031b565b005b610112600480360381019061010d9190610af1565b6105b2565b60405161011f9190610b2b565b60405180910390f35b6101306105ed565b60405161013d9190610aae565b60405180910390f35b610160600480360381019061015b9190610b44565b6105f9565b60405161016d9190610a7d565b60405180910390f35b61017e61077f565b60405161018b9190610b2b565b60405180910390f35b61019c6107a3565b6040516101a99190610aae565b60405180910390f35b6101ba61087a565b005b6101c46109b5565b6040516101d19190610bef565b60405180910390f35b5f5f5f90505b600280549050811015610272578273ffffffffffffffffffffffffffffffffffffffff166002828154811061021857610217610c08565b5b905f5260205f20015f9054906101000a900473ffffffffffffffffffffffffffffffffffffffff1673ffffffffffffffffffffffffffffffffffffffff1603610265576001915050610277565b80806001019150506101e0565b505f90505b919050565b5f60015f9054906101000a900473ffffffffffffffffffffffffffffffffffffffff1673ffffffffffffffffffffffffffffffffffffffff166370a08231336040518263ffffffff1660e01b81526004016102d79190610b2b565b602060405180830381865afa1580156102f2573d5f5f3e3d5ffd5b505050506040513d601f19601f820116820180604052508101906103169190610c49565b905090565b610324336101da565b15610364576040517f08c379a000000000000000000000000000000000000000000000000000000000815260040161035b90610cce565b60405180910390fd5b670de0b6b3a764000060015f9054906101000a900473ffffffffffffffffffffffffffffffffffffffff1673ffffffffffffffffffffffffffffffffffffffff166370a08231336040518263ffffffff1660e01b81526004016103c79190610b2b565b602060405180830381865afa1580156103e2573d5f5f3e3d5ffd5b505050506040513d601f19601f820116820180604052508101906104069190610c49565b11610446576040517f08c379a000000000000000000000000000000000000000000000000000000000815260040161043d90610d36565b60405180910390fd5b600233908060018154018082558091505060019003905f5260205f20015f9091909190916101000a81548173ffffffffffffffffffffffffffffffffffffffff021916908373ffffffffffffffffffffffffffffffffffffffff1602179055505f60015f9054906101000a900473ffffffffffffffffffffffffffffffffffffffff1673ffffffffffffffffffffffffffffffffffffffff166323b872dd335f5f9054906101000a900473ffffffffffffffffffffffffffffffffffffffff16670de0b6b3a76400006040518463ffffffff1660e01b815260040161052d93929190610d54565b6020604051808303815f875af1158015610549573d5f5f3e3d5ffd5b505050506040513d601f19601f8201168201806040525081019061056d9190610db3565b9050806105af576040517f08c379a00000000000000000000000000000000000000000000000000000000081526004016105a690610e4e565b60405180910390fd5b50565b600281815481106105c1575f80fd5b905f5260205f20015f915054906101000a900473ffffffffffffffffffffffffffffffffffffffff1681565b670de0b6b3a764000081565b5f8160015f9054906101000a900473ffffffffffffffffffffffffffffffffffffffff1673ffffffffffffffffffffffffffffffffffffffff166370a08231866040518263ffffffff1660e01b81526004016106559190610b2b565b602060405180830381865afa158015610670573d5f5f3e3d5ffd5b505050506040513d601f19601f820116820180604052508101906106949190610c49565b10156106d5576040517f08c379a00000000000000000000000000000000000000000000000000000000081526004016106cc90610d36565b60405180910390fd5b60015f9054906101000a900473ffffffffffffffffffffffffffffffffffffffff1673ffffffffffffffffffffffffffffffffffffffff166323b872dd8585856040518463ffffffff1660e01b815260040161073393929190610d54565b6020604051808303815f875af115801561074f573d5f5f3e3d5ffd5b505050506040513d601f19601f820116820180604052508101906107739190610db3565b50600190509392505050565b5f5f9054906101000a900473ffffffffffffffffffffffffffffffffffffffff1681565b5f5f5f90505f5f90505f5f90505b600280549050811080156107c3575081155b15610855573373ffffffffffffffffffffffffffffffffffffffff16600282815481106107f3576107f2610c08565b5b905f5260205f20015f9054906101000a900473ffffffffffffffffffffffffffffffffffffffff1673ffffffffffffffffffffffffffffffffffffffff16036108425780925060019150610855565b808061084d90610e99565b9150506107b1565b5080610865575f92505050610877565b6001826108729190610ee0565b925050505b90565b5f670de0b6b3a764000060015f9054906101000a900473ffffffffffffffffffffffffffffffffffffffff1673ffffffffffffffffffffffffffffffffffffffff166370a08231336040518263ffffffff1660e01b81526004016108de9190610b2b565b602060405180830381865afa1580156108f9573d5f5f3e3d5ffd5b505050506040513d601f19601f8201168201806040525081019061091d9190610c49565b6109279190610ee0565b905060015f9054906101000a900473ffffffffffffffffffffffffffffffffffffffff1673ffffffffffffffffffffffffffffffffffffffff166340c10f1933836040518363ffffffff1660e01b8152600401610985929190610f13565b5f604051808303815f87803b15801561099c575f5ffd5b505af11580156109ae573d5f5f3e3d5ffd5b5050505050565b60015f9054906101000a900473ffffffffffffffffffffffffffffffffffffffff1681565b5f5ffd5b5f73ffffffffffffffffffffffffffffffffffffffff82169050919050565b5f610a07826109de565b9050919050565b610a17816109fd565b8114610a21575f5ffd5b50565b5f81359050610a3281610a0e565b92915050565b5f60208284031215610a4d57610a4c6109da565b5b5f610a5a84828501610a24565b91505092915050565b5f8115159050919050565b610a7781610a63565b82525050565b5f602082019050610a905f830184610a6e565b92915050565b5f819050919050565b610aa881610a96565b82525050565b5f602082019050610ac15f830184610a9f565b92915050565b610ad081610a96565b8114610ada575f5ffd5b50565b5f81359050610aeb81610ac7565b92915050565b5f60208284031215610b0657610b056109da565b5b5f610b1384828501610add565b91505092915050565b610b25816109fd565b82525050565b5f602082019050610b3e5f830184610b1c565b92915050565b5f5f5f60608486031215610b5b57610b5a6109da565b5b5f610b6886828701610a24565b9350506020610b7986828701610a24565b9250506040610b8a86828701610add565b9150509250925092565b5f819050919050565b5f610bb7610bb2610bad846109de565b610b94565b6109de565b9050919050565b5f610bc882610b9d565b9050919050565b5f610bd982610bbe565b9050919050565b610be981610bcf565b82525050565b5f602082019050610c025f830184610be0565b92915050565b7f4e487b71000000000000000000000000000000000000000000000000000000005f52603260045260245ffd5b5f81519050610c4381610ac7565b92915050565b5f60208284031215610c5e57610c5d6109da565b5b5f610c6b84828501610c35565b91505092915050565b5f82825260208201905092915050565b7f596120657374617320696e73637269746f0000000000000000000000000000005f82015250565b5f610cb8601183610c74565b9150610cc382610c84565b602082019050919050565b5f6020820190508181035f830152610ce581610cac565b9050919050565b7f53616c646f20696e737566696369656e746500000000000000000000000000005f82015250565b5f610d20601283610c74565b9150610d2b82610cec565b602082019050919050565b5f6020820190508181035f830152610d4d81610d14565b9050919050565b5f606082019050610d675f830186610b1c565b610d746020830185610b1c565b610d816040830184610a9f565b949350505050565b610d9281610a63565b8114610d9c575f5ffd5b50565b5f81519050610dad81610d89565b92915050565b5f60208284031215610dc857610dc76109da565b5b5f610dd584828501610d9f565b91505092915050565b7f4572726f7220616c207265616c697a6172206c61207472616e73666572656e635f8201527f6961000000000000000000000000000000000000000000000000000000000000602082015250565b5f610e38602283610c74565b9150610e4382610dde565b604082019050919050565b5f6020820190508181035f830152610e6581610e2c565b9050919050565b7f4e487b71000000000000000000000000000000000000000000000000000000005f52601160045260245ffd5b5f610ea382610a96565b91507fffffffffffffffffffffffffffffffffffffffffffffffffffffffffffffffff8203610ed557610ed4610e6c565b5b600182019050919050565b5f610eea82610a96565b9150610ef583610a96565b9250828201905080821115610f0d57610f0c610e6c565b5b92915050565b5f604082019050610f265f830185610b1c565b610f336020830184610a9f565b939250505056fea2646970667358221220f5fe016d9dbcfc6d2b4b85f59c72666731108ea8488e127eb653cf406bc3b47c64736f6c634300081e0033",
					"opcodes": "PUSH1 0x80 PUSH1 0x40 MSTORE PUSH20 0xF55301514C27489FDE7C9CD9A3EA8044E7E04579 PUSH0 PUSH0 PUSH2 0x100 EXP DUP2 SLOAD DUP2 PUSH20 0xFFFFFFFFFFFFFFFFFFFFFFFFFFFFFFFFFFFFFFFF MUL NOT AND SWAP1 DUP4 PUSH20 0xFFFFFFFFFFFFFFFFFFFFFFFFFFFFFFFFFFFFFFFF AND MUL OR SWAP1 SSTORE POP CALLVALUE DUP1 ISZERO PUSH2 0x62 JUMPI PUSH0 PUSH0 REVERT JUMPDEST POP PUSH1 0x40 MLOAD PUSH2 0x10E1 CODESIZE SUB DUP1 PUSH2 0x10E1 DUP4 CODECOPY DUP2 DUP2 ADD PUSH1 0x40 MSTORE DUP2 ADD SWAP1 PUSH2 0x84 SWAP2 SWAP1 PUSH2 0x139 JUMP JUMPDEST DUP1 PUSH1 0x1 PUSH0 PUSH2 0x100 EXP DUP2 SLOAD DUP2 PUSH20 0xFFFFFFFFFFFFFFFFFFFFFFFFFFFFFFFFFFFFFFFF MUL NOT AND SWAP1 DUP4 PUSH20 0xFFFFFFFFFFFFFFFFFFFFFFFFFFFFFFFFFFFFFFFF AND MUL OR SWAP1 SSTORE POP POP PUSH2 0x164 JUMP JUMPDEST PUSH0 PUSH0 REVERT JUMPDEST PUSH0 PUSH20 0xFFFFFFFFFFFFFFFFFFFFFFFFFFFFFFFFFFFFFFFF DUP3 AND SWAP1 POP SWAP2 SWAP1 POP JUMP JUMPDEST PUSH0 PUSH2 0xF7 DUP3 PUSH2 0xCE JUMP JUMPDEST SWAP1 POP SWAP2 SWAP1 POP JUMP JUMPDEST PUSH0 PUSH2 0x108 DUP3 PUSH2 0xED JUMP JUMPDEST SWAP1 POP SWAP2 SWAP1 POP JUMP JUMPDEST PUSH2 0x118 DUP2 PUSH2 0xFE JUMP JUMPDEST DUP2 EQ PUSH2 0x122 JUMPI PUSH0 PUSH0 REVERT JUMPDEST POP JUMP JUMPDEST PUSH0 DUP2 MLOAD SWAP1 POP PUSH2 0x133 DUP2 PUSH2 0x10F JUMP JUMPDEST SWAP3 SWAP2 POP POP JUMP JUMPDEST PUSH0 PUSH1 0x20 DUP3 DUP5 SUB SLT ISZERO PUSH2 0x14E JUMPI PUSH2 0x14D PUSH2 0xCA JUMP JUMPDEST JUMPDEST PUSH0 PUSH2 0x15B DUP5 DUP3 DUP6 ADD PUSH2 0x125 JUMP JUMPDEST SWAP2 POP POP SWAP3 SWAP2 POP POP JUMP JUMPDEST PUSH2 0xF70 DUP1 PUSH2 0x171 PUSH0 CODECOPY PUSH0 RETURN INVALID PUSH1 0x80 PUSH1 0x40 MSTORE CALLVALUE DUP1 ISZERO PUSH2 0xF JUMPI PUSH0 PUSH0 REVERT JUMPDEST POP PUSH1 0x4 CALLDATASIZE LT PUSH2 0x9C JUMPI PUSH0 CALLDATALOAD PUSH1 0xE0 SHR DUP1 PUSH4 0x8A75E7BD GT PUSH2 0x64 JUMPI DUP1 PUSH4 0x8A75E7BD EQ PUSH2 0x146 JUMPI DUP1 PUSH4 0x8DA5CB5B EQ PUSH2 0x176 JUMPI DUP1 PUSH4 0xCD0D232A EQ PUSH2 0x194 JUMPI DUP1 PUSH4 0xF32360A0 EQ PUSH2 0x1B2 JUMPI DUP1 PUSH4 0xFC0C546A EQ PUSH2 0x1BC JUMPI PUSH2 0x9C JUMP JUMPDEST DUP1 PUSH4 0x469846B EQ PUSH2 0xA0 JUMPI DUP1 PUSH4 0x12065FE0 EQ PUSH2 0xD0 JUMPI DUP1 PUSH4 0x61722365 EQ PUSH2 0xEE JUMPI DUP1 PUSH4 0x787E5869 EQ PUSH2 0xF8 JUMPI DUP1 PUSH4 0x8881A874 EQ PUSH2 0x128 JUMPI JUMPDEST PUSH0 PUSH0 REVERT JUMPDEST PUSH2 0xBA PUSH1 0x4 DUP1 CALLDATASIZE SUB DUP2 ADD SWAP1 PUSH2 0xB5 SWAP2 SWAP1 PUSH2 0xA38 JUMP JUMPDEST PUSH2 0x1DA JUMP JUMPDEST PUSH1 0x40 MLOAD PUSH2 0xC7 SWAP2 SWAP1 PUSH2 0xA7D JUMP JUMPDEST PUSH1 0x40 MLOAD DUP1 SWAP2 SUB SWAP1 RETURN JUMPDEST PUSH2 0xD8 PUSH2 0x27C JUMP JUMPDEST PUSH1 0x40 MLOAD PUSH2 0xE5 SWAP2 SWAP1 PUSH2 0xAAE JUMP JUMPDEST PUSH1 0x40 MLOAD DUP1 SWAP2 SUB SWAP1 RETURN JUMPDEST PUSH2 0xF6 PUSH2 0x31B JUMP JUMPDEST STOP JUMPDEST PUSH2 0x112 PUSH1 0x4 DUP1 CALLDATASIZE SUB DUP2 ADD SWAP1 PUSH2 0x10D SWAP2 SWAP1 PUSH2 0xAF1 JUMP JUMPDEST PUSH2 0x5B2 JUMP JUMPDEST PUSH1 0x40 MLOAD PUSH2 0x11F SWAP2 SWAP1 PUSH2 0xB2B JUMP JUMPDEST PUSH1 0x40 MLOAD DUP1 SWAP2 SUB SWAP1 RETURN JUMPDEST PUSH2 0x130 PUSH2 0x5ED JUMP JUMPDEST PUSH1 0x40 MLOAD PUSH2 0x13D SWAP2 SWAP1 PUSH2 0xAAE JUMP JUMPDEST PUSH1 0x40 MLOAD DUP1 SWAP2 SUB SWAP1 RETURN JUMPDEST PUSH2 0x160 PUSH1 0x4 DUP1 CALLDATASIZE SUB DUP2 ADD SWAP1 PUSH2 0x15B SWAP2 SWAP1 PUSH2 0xB44 JUMP JUMPDEST PUSH2 0x5F9 JUMP JUMPDEST PUSH1 0x40 MLOAD PUSH2 0x16D SWAP2 SWAP1 PUSH2 0xA7D JUMP JUMPDEST PUSH1 0x40 MLOAD DUP1 SWAP2 SUB SWAP1 RETURN JUMPDEST PUSH2 0x17E PUSH2 0x77F JUMP JUMPDEST PUSH1 0x40 MLOAD PUSH2 0x18B SWAP2 SWAP1 PUSH2 0xB2B JUMP JUMPDEST PUSH1 0x40 MLOAD DUP1 SWAP2 SUB SWAP1 RETURN JUMPDEST PUSH2 0x19C PUSH2 0x7A3 JUMP JUMPDEST PUSH1 0x40 MLOAD PUSH2 0x1A9 SWAP2 SWAP1 PUSH2 0xAAE JUMP JUMPDEST PUSH1 0x40 MLOAD DUP1 SWAP2 SUB SWAP1 RETURN JUMPDEST PUSH2 0x1BA PUSH2 0x87A JUMP JUMPDEST STOP JUMPDEST PUSH2 0x1C4 PUSH2 0x9B5 JUMP JUMPDEST PUSH1 0x40 MLOAD PUSH2 0x1D1 SWAP2 SWAP1 PUSH2 0xBEF JUMP JUMPDEST PUSH1 0x40 MLOAD DUP1 SWAP2 SUB SWAP1 RETURN JUMPDEST PUSH0 PUSH0 PUSH0 SWAP1 POP JUMPDEST PUSH1 0x2 DUP1 SLOAD SWAP1 POP DUP2 LT ISZERO PUSH2 0x272 JUMPI DUP3 PUSH20 0xFFFFFFFFFFFFFFFFFFFFFFFFFFFFFFFFFFFFFFFF AND PUSH1 0x2 DUP3 DUP2 SLOAD DUP2 LT PUSH2 0x218 JUMPI PUSH2 0x217 PUSH2 0xC08 JUMP JUMPDEST JUMPDEST SWAP1 PUSH0 MSTORE PUSH1 0x20 PUSH0 KECCAK256 ADD PUSH0 SWAP1 SLOAD SWAP1 PUSH2 0x100 EXP SWAP1 DIV PUSH20 0xFFFFFFFFFFFFFFFFFFFFFFFFFFFFFFFFFFFFFFFF AND PUSH20 0xFFFFFFFFFFFFFFFFFFFFFFFFFFFFFFFFFFFFFFFF AND SUB PUSH2 0x265 JUMPI PUSH1 0x1 SWAP2 POP POP PUSH2 0x277 JUMP JUMPDEST DUP1 DUP1 PUSH1 0x1 ADD SWAP2 POP POP PUSH2 0x1E0 JUMP JUMPDEST POP PUSH0 SWAP1 POP JUMPDEST SWAP2 SWAP1 POP JUMP JUMPDEST PUSH0 PUSH1 0x1 PUSH0 SWAP1 SLOAD SWAP1 PUSH2 0x100 EXP SWAP1 DIV PUSH20 0xFFFFFFFFFFFFFFFFFFFFFFFFFFFFFFFFFFFFFFFF AND PUSH20 0xFFFFFFFFFFFFFFFFFFFFFFFFFFFFFFFFFFFFFFFF AND PUSH4 0x70A08231 CALLER PUSH1 0x40 MLOAD DUP3 PUSH4 0xFFFFFFFF AND PUSH1 0xE0 SHL DUP2 MSTORE PUSH1 0x4 ADD PUSH2 0x2D7 SWAP2 SWAP1 PUSH2 0xB2B JUMP JUMPDEST PUSH1 0x20 PUSH1 0x40 MLOAD DUP1 DUP4 SUB DUP2 DUP7 GAS STATICCALL ISZERO DUP1 ISZERO PUSH2 0x2F2 JUMPI RETURNDATASIZE PUSH0 PUSH0 RETURNDATACOPY RETURNDATASIZE PUSH0 REVERT JUMPDEST POP POP POP POP PUSH1 0x40 MLOAD RETURNDATASIZE PUSH1 0x1F NOT PUSH1 0x1F DUP3 ADD AND DUP3 ADD DUP1 PUSH1 0x40 MSTORE POP DUP2 ADD SWAP1 PUSH2 0x316 SWAP2 SWAP1 PUSH2 0xC49 JUMP JUMPDEST SWAP1 POP SWAP1 JUMP JUMPDEST PUSH2 0x324 CALLER PUSH2 0x1DA JUMP JUMPDEST ISZERO PUSH2 0x364 JUMPI PUSH1 0x40 MLOAD PUSH32 0x8C379A000000000000000000000000000000000000000000000000000000000 DUP2 MSTORE PUSH1 0x4 ADD PUSH2 0x35B SWAP1 PUSH2 0xCCE JUMP JUMPDEST PUSH1 0x40 MLOAD DUP1 SWAP2 SUB SWAP1 REVERT JUMPDEST PUSH8 0xDE0B6B3A7640000 PUSH1 0x1 PUSH0 SWAP1 SLOAD SWAP1 PUSH2 0x100 EXP SWAP1 DIV PUSH20 0xFFFFFFFFFFFFFFFFFFFFFFFFFFFFFFFFFFFFFFFF AND PUSH20 0xFFFFFFFFFFFFFFFFFFFFFFFFFFFFFFFFFFFFFFFF AND PUSH4 0x70A08231 CALLER PUSH1 0x40 MLOAD DUP3 PUSH4 0xFFFFFFFF AND PUSH1 0xE0 SHL DUP2 MSTORE PUSH1 0x4 ADD PUSH2 0x3C7 SWAP2 SWAP1 PUSH2 0xB2B JUMP JUMPDEST PUSH1 0x20 PUSH1 0x40 MLOAD DUP1 DUP4 SUB DUP2 DUP7 GAS STATICCALL ISZERO DUP1 ISZERO PUSH2 0x3E2 JUMPI RETURNDATASIZE PUSH0 PUSH0 RETURNDATACOPY RETURNDATASIZE PUSH0 REVERT JUMPDEST POP POP POP POP PUSH1 0x40 MLOAD RETURNDATASIZE PUSH1 0x1F NOT PUSH1 0x1F DUP3 ADD AND DUP3 ADD DUP1 PUSH1 0x40 MSTORE POP DUP2 ADD SWAP1 PUSH2 0x406 SWAP2 SWAP1 PUSH2 0xC49 JUMP JUMPDEST GT PUSH2 0x446 JUMPI PUSH1 0x40 MLOAD PUSH32 0x8C379A000000000000000000000000000000000000000000000000000000000 DUP2 MSTORE PUSH1 0x4 ADD PUSH2 0x43D SWAP1 PUSH2 0xD36 JUMP JUMPDEST PUSH1 0x40 MLOAD DUP1 SWAP2 SUB SWAP1 REVERT JUMPDEST PUSH1 0x2 CALLER SWAP1 DUP1 PUSH1 0x1 DUP2 SLOAD ADD DUP1 DUP3 SSTORE DUP1 SWAP2 POP POP PUSH1 0x1 SWAP1 SUB SWAP1 PUSH0 MSTORE PUSH1 0x20 PUSH0 KECCAK256 ADD PUSH0 SWAP1 SWAP2 SWAP1 SWAP2 SWAP1 SWAP2 PUSH2 0x100 EXP DUP2 SLOAD DUP2 PUSH20 0xFFFFFFFFFFFFFFFFFFFFFFFFFFFFFFFFFFFFFFFF MUL NOT AND SWAP1 DUP4 PUSH20 0xFFFFFFFFFFFFFFFFFFFFFFFFFFFFFFFFFFFFFFFF AND MUL OR SWAP1 SSTORE POP PUSH0 PUSH1 0x1 PUSH0 SWAP1 SLOAD SWAP1 PUSH2 0x100 EXP SWAP1 DIV PUSH20 0xFFFFFFFFFFFFFFFFFFFFFFFFFFFFFFFFFFFFFFFF AND PUSH20 0xFFFFFFFFFFFFFFFFFFFFFFFFFFFFFFFFFFFFFFFF AND PUSH4 0x23B872DD CALLER PUSH0 PUSH0 SWAP1 SLOAD SWAP1 PUSH2 0x100 EXP SWAP1 DIV PUSH20 0xFFFFFFFFFFFFFFFFFFFFFFFFFFFFFFFFFFFFFFFF AND PUSH8 0xDE0B6B3A7640000 PUSH1 0x40 MLOAD DUP5 PUSH4 0xFFFFFFFF AND PUSH1 0xE0 SHL DUP2 MSTORE PUSH1 0x4 ADD PUSH2 0x52D SWAP4 SWAP3 SWAP2 SWAP1 PUSH2 0xD54 JUMP JUMPDEST PUSH1 0x20 PUSH1 0x40 MLOAD DUP1 DUP4 SUB DUP2 PUSH0 DUP8 GAS CALL ISZERO DUP1 ISZERO PUSH2 0x549 JUMPI RETURNDATASIZE PUSH0 PUSH0 RETURNDATACOPY RETURNDATASIZE PUSH0 REVERT JUMPDEST POP POP POP POP PUSH1 0x40 MLOAD RETURNDATASIZE PUSH1 0x1F NOT PUSH1 0x1F DUP3 ADD AND DUP3 ADD DUP1 PUSH1 0x40 MSTORE POP DUP2 ADD SWAP1 PUSH2 0x56D SWAP2 SWAP1 PUSH2 0xDB3 JUMP JUMPDEST SWAP1 POP DUP1 PUSH2 0x5AF JUMPI PUSH1 0x40 MLOAD PUSH32 0x8C379A000000000000000000000000000000000000000000000000000000000 DUP2 MSTORE PUSH1 0x4 ADD PUSH2 0x5A6 SWAP1 PUSH2 0xE4E JUMP JUMPDEST PUSH1 0x40 MLOAD DUP1 SWAP2 SUB SWAP1 REVERT JUMPDEST POP JUMP JUMPDEST PUSH1 0x2 DUP2 DUP2 SLOAD DUP2 LT PUSH2 0x5C1 JUMPI PUSH0 DUP1 REVERT JUMPDEST SWAP1 PUSH0 MSTORE PUSH1 0x20 PUSH0 KECCAK256 ADD PUSH0 SWAP2 POP SLOAD SWAP1 PUSH2 0x100 EXP SWAP1 DIV PUSH20 0xFFFFFFFFFFFFFFFFFFFFFFFFFFFFFFFFFFFFFFFF AND DUP2 JUMP JUMPDEST PUSH8 0xDE0B6B3A7640000 DUP2 JUMP JUMPDEST PUSH0 DUP2 PUSH1 0x1 PUSH0 SWAP1 SLOAD SWAP1 PUSH2 0x100 EXP SWAP1 DIV PUSH20 0xFFFFFFFFFFFFFFFFFFFFFFFFFFFFFFFFFFFFFFFF AND PUSH20 0xFFFFFFFFFFFFFFFFFFFFFFFFFFFFFFFFFFFFFFFF AND PUSH4 0x70A08231 DUP7 PUSH1 0x40 MLOAD DUP3 PUSH4 0xFFFFFFFF AND PUSH1 0xE0 SHL DUP2 MSTORE PUSH1 0x4 ADD PUSH2 0x655 SWAP2 SWAP1 PUSH2 0xB2B JUMP JUMPDEST PUSH1 0x20 PUSH1 0x40 MLOAD DUP1 DUP4 SUB DUP2 DUP7 GAS STATICCALL ISZERO DUP1 ISZERO PUSH2 0x670 JUMPI RETURNDATASIZE PUSH0 PUSH0 RETURNDATACOPY RETURNDATASIZE PUSH0 REVERT JUMPDEST POP POP POP POP PUSH1 0x40 MLOAD RETURNDATASIZE PUSH1 0x1F NOT PUSH1 0x1F DUP3 ADD AND DUP3 ADD DUP1 PUSH1 0x40 MSTORE POP DUP2 ADD SWAP1 PUSH2 0x694 SWAP2 SWAP1 PUSH2 0xC49 JUMP JUMPDEST LT ISZERO PUSH2 0x6D5 JUMPI PUSH1 0x40 MLOAD PUSH32 0x8C379A000000000000000000000000000000000000000000000000000000000 DUP2 MSTORE PUSH1 0x4 ADD PUSH2 0x6CC SWAP1 PUSH2 0xD36 JUMP JUMPDEST PUSH1 0x40 MLOAD DUP1 SWAP2 SUB SWAP1 REVERT JUMPDEST PUSH1 0x1 PUSH0 SWAP1 SLOAD SWAP1 PUSH2 0x100 EXP SWAP1 DIV PUSH20 0xFFFFFFFFFFFFFFFFFFFFFFFFFFFFFFFFFFFFFFFF AND PUSH20 0xFFFFFFFFFFFFFFFFFFFFFFFFFFFFFFFFFFFFFFFF AND PUSH4 0x23B872DD DUP6 DUP6 DUP6 PUSH1 0x40 MLOAD DUP5 PUSH4 0xFFFFFFFF AND PUSH1 0xE0 SHL DUP2 MSTORE PUSH1 0x4 ADD PUSH2 0x733 SWAP4 SWAP3 SWAP2 SWAP1 PUSH2 0xD54 JUMP JUMPDEST PUSH1 0x20 PUSH1 0x40 MLOAD DUP1 DUP4 SUB DUP2 PUSH0 DUP8 GAS CALL ISZERO DUP1 ISZERO PUSH2 0x74F JUMPI RETURNDATASIZE PUSH0 PUSH0 RETURNDATACOPY RETURNDATASIZE PUSH0 REVERT JUMPDEST POP POP POP POP PUSH1 0x40 MLOAD RETURNDATASIZE PUSH1 0x1F NOT PUSH1 0x1F DUP3 ADD AND DUP3 ADD DUP1 PUSH1 0x40 MSTORE POP DUP2 ADD SWAP1 PUSH2 0x773 SWAP2 SWAP1 PUSH2 0xDB3 JUMP JUMPDEST POP PUSH1 0x1 SWAP1 POP SWAP4 SWAP3 POP POP POP JUMP JUMPDEST PUSH0 PUSH0 SWAP1 SLOAD SWAP1 PUSH2 0x100 EXP SWAP1 DIV PUSH20 0xFFFFFFFFFFFFFFFFFFFFFFFFFFFFFFFFFFFFFFFF AND DUP2 JUMP JUMPDEST PUSH0 PUSH0 PUSH0 SWAP1 POP PUSH0 PUSH0 SWAP1 POP PUSH0 PUSH0 SWAP1 POP JUMPDEST PUSH1 0x2 DUP1 SLOAD SWAP1 POP DUP2 LT DUP1 ISZERO PUSH2 0x7C3 JUMPI POP DUP2 ISZERO JUMPDEST ISZERO PUSH2 0x855 JUMPI CALLER PUSH20 0xFFFFFFFFFFFFFFFFFFFFFFFFFFFFFFFFFFFFFFFF AND PUSH1 0x2 DUP3 DUP2 SLOAD DUP2 LT PUSH2 0x7F3 JUMPI PUSH2 0x7F2 PUSH2 0xC08 JUMP JUMPDEST JUMPDEST SWAP1 PUSH0 MSTORE PUSH1 0x20 PUSH0 KECCAK256 ADD PUSH0 SWAP1 SLOAD SWAP1 PUSH2 0x100 EXP SWAP1 DIV PUSH20 0xFFFFFFFFFFFFFFFFFFFFFFFFFFFFFFFFFFFFFFFF AND PUSH20 0xFFFFFFFFFFFFFFFFFFFFFFFFFFFFFFFFFFFFFFFF AND SUB PUSH2 0x842 JUMPI DUP1 SWAP3 POP PUSH1 0x1 SWAP2 POP PUSH2 0x855 JUMP JUMPDEST DUP1 DUP1 PUSH2 0x84D SWAP1 PUSH2 0xE99 JUMP JUMPDEST SWAP2 POP POP PUSH2 0x7B1 JUMP JUMPDEST POP DUP1 PUSH2 0x865 JUMPI PUSH0 SWAP3 POP POP POP PUSH2 0x877 JUMP JUMPDEST PUSH1 0x1 DUP3 PUSH2 0x872 SWAP2 SWAP1 PUSH2 0xEE0 JUMP JUMPDEST SWAP3 POP POP POP JUMPDEST SWAP1 JUMP JUMPDEST PUSH0 PUSH8 0xDE0B6B3A7640000 PUSH1 0x1 PUSH0 SWAP1 SLOAD SWAP1 PUSH2 0x100 EXP SWAP1 DIV PUSH20 0xFFFFFFFFFFFFFFFFFFFFFFFFFFFFFFFFFFFFFFFF AND PUSH20 0xFFFFFFFFFFFFFFFFFFFFFFFFFFFFFFFFFFFFFFFF AND PUSH4 0x70A08231 CALLER PUSH1 0x40 MLOAD DUP3 PUSH4 0xFFFFFFFF AND PUSH1 0xE0 SHL DUP2 MSTORE PUSH1 0x4 ADD PUSH2 0x8DE SWAP2 SWAP1 PUSH2 0xB2B JUMP JUMPDEST PUSH1 0x20 PUSH1 0x40 MLOAD DUP1 DUP4 SUB DUP2 DUP7 GAS STATICCALL ISZERO DUP1 ISZERO PUSH2 0x8F9 JUMPI RETURNDATASIZE PUSH0 PUSH0 RETURNDATACOPY RETURNDATASIZE PUSH0 REVERT JUMPDEST POP POP POP POP PUSH1 0x40 MLOAD RETURNDATASIZE PUSH1 0x1F NOT PUSH1 0x1F DUP3 ADD AND DUP3 ADD DUP1 PUSH1 0x40 MSTORE POP DUP2 ADD SWAP1 PUSH2 0x91D SWAP2 SWAP1 PUSH2 0xC49 JUMP JUMPDEST PUSH2 0x927 SWAP2 SWAP1 PUSH2 0xEE0 JUMP JUMPDEST SWAP1 POP PUSH1 0x1 PUSH0 SWAP1 SLOAD SWAP1 PUSH2 0x100 EXP SWAP1 DIV PUSH20 0xFFFFFFFFFFFFFFFFFFFFFFFFFFFFFFFFFFFFFFFF AND PUSH20 0xFFFFFFFFFFFFFFFFFFFFFFFFFFFFFFFFFFFFFFFF AND PUSH4 0x40C10F19 CALLER DUP4 PUSH1 0x40 MLOAD DUP4 PUSH4 0xFFFFFFFF AND PUSH1 0xE0 SHL DUP2 MSTORE PUSH1 0x4 ADD PUSH2 0x985 SWAP3 SWAP2 SWAP1 PUSH2 0xF13 JUMP JUMPDEST PUSH0 PUSH1 0x40 MLOAD DUP1 DUP4 SUB DUP2 PUSH0 DUP8 DUP1 EXTCODESIZE ISZERO DUP1 ISZERO PUSH2 0x99C JUMPI PUSH0 PUSH0 REVERT JUMPDEST POP GAS CALL ISZERO DUP1 ISZERO PUSH2 0x9AE JUMPI RETURNDATASIZE PUSH0 PUSH0 RETURNDATACOPY RETURNDATASIZE PUSH0 REVERT JUMPDEST POP POP POP POP POP JUMP JUMPDEST PUSH1 0x1 PUSH0 SWAP1 SLOAD SWAP1 PUSH2 0x100 EXP SWAP1 DIV PUSH20 0xFFFFFFFFFFFFFFFFFFFFFFFFFFFFFFFFFFFFFFFF AND DUP2 JUMP JUMPDEST PUSH0 PUSH0 REVERT JUMPDEST PUSH0 PUSH20 0xFFFFFFFFFFFFFFFFFFFFFFFFFFFFFFFFFFFFFFFF DUP3 AND SWAP1 POP SWAP2 SWAP1 POP JUMP JUMPDEST PUSH0 PUSH2 0xA07 DUP3 PUSH2 0x9DE JUMP JUMPDEST SWAP1 POP SWAP2 SWAP1 POP JUMP JUMPDEST PUSH2 0xA17 DUP2 PUSH2 0x9FD JUMP JUMPDEST DUP2 EQ PUSH2 0xA21 JUMPI PUSH0 PUSH0 REVERT JUMPDEST POP JUMP JUMPDEST PUSH0 DUP2 CALLDATALOAD SWAP1 POP PUSH2 0xA32 DUP2 PUSH2 0xA0E JUMP JUMPDEST SWAP3 SWAP2 POP POP JUMP JUMPDEST PUSH0 PUSH1 0x20 DUP3 DUP5 SUB SLT ISZERO PUSH2 0xA4D JUMPI PUSH2 0xA4C PUSH2 0x9DA JUMP JUMPDEST JUMPDEST PUSH0 PUSH2 0xA5A DUP5 DUP3 DUP6 ADD PUSH2 0xA24 JUMP JUMPDEST SWAP2 POP POP SWAP3 SWAP2 POP POP JUMP JUMPDEST PUSH0 DUP2 ISZERO ISZERO SWAP1 POP SWAP2 SWAP1 POP JUMP JUMPDEST PUSH2 0xA77 DUP2 PUSH2 0xA63 JUMP JUMPDEST DUP3 MSTORE POP POP JUMP JUMPDEST PUSH0 PUSH1 0x20 DUP3 ADD SWAP1 POP PUSH2 0xA90 PUSH0 DUP4 ADD DUP5 PUSH2 0xA6E JUMP JUMPDEST SWAP3 SWAP2 POP POP JUMP JUMPDEST PUSH0 DUP2 SWAP1 POP SWAP2 SWAP1 POP JUMP JUMPDEST PUSH2 0xAA8 DUP2 PUSH2 0xA96 JUMP JUMPDEST DUP3 MSTORE POP POP JUMP JUMPDEST PUSH0 PUSH1 0x20 DUP3 ADD SWAP1 POP PUSH2 0xAC1 PUSH0 DUP4 ADD DUP5 PUSH2 0xA9F JUMP JUMPDEST SWAP3 SWAP2 POP POP JUMP JUMPDEST PUSH2 0xAD0 DUP2 PUSH2 0xA96 JUMP JUMPDEST DUP2 EQ PUSH2 0xADA JUMPI PUSH0 PUSH0 REVERT JUMPDEST POP JUMP JUMPDEST PUSH0 DUP2 CALLDATALOAD SWAP1 POP PUSH2 0xAEB DUP2 PUSH2 0xAC7 JUMP JUMPDEST SWAP3 SWAP2 POP POP JUMP JUMPDEST PUSH0 PUSH1 0x20 DUP3 DUP5 SUB SLT ISZERO PUSH2 0xB06 JUMPI PUSH2 0xB05 PUSH2 0x9DA JUMP JUMPDEST JUMPDEST PUSH0 PUSH2 0xB13 DUP5 DUP3 DUP6 ADD PUSH2 0xADD JUMP JUMPDEST SWAP2 POP POP SWAP3 SWAP2 POP POP JUMP JUMPDEST PUSH2 0xB25 DUP2 PUSH2 0x9FD JUMP JUMPDEST DUP3 MSTORE POP POP JUMP JUMPDEST PUSH0 PUSH1 0x20 DUP3 ADD SWAP1 POP PUSH2 0xB3E PUSH0 DUP4 ADD DUP5 PUSH2 0xB1C JUMP JUMPDEST SWAP3 SWAP2 POP POP JUMP JUMPDEST PUSH0 PUSH0 PUSH0 PUSH1 0x60 DUP5 DUP7 SUB SLT ISZERO PUSH2 0xB5B JUMPI PUSH2 0xB5A PUSH2 0x9DA JUMP JUMPDEST JUMPDEST PUSH0 PUSH2 0xB68 DUP7 DUP3 DUP8 ADD PUSH2 0xA24 JUMP JUMPDEST SWAP4 POP POP PUSH1 0x20 PUSH2 0xB79 DUP7 DUP3 DUP8 ADD PUSH2 0xA24 JUMP JUMPDEST SWAP3 POP POP PUSH1 0x40 PUSH2 0xB8A DUP7 DUP3 DUP8 ADD PUSH2 0xADD JUMP JUMPDEST SWAP2 POP POP SWAP3 POP SWAP3 POP SWAP3 JUMP JUMPDEST PUSH0 DUP2 SWAP1 POP SWAP2 SWAP1 POP JUMP JUMPDEST PUSH0 PUSH2 0xBB7 PUSH2 0xBB2 PUSH2 0xBAD DUP5 PUSH2 0x9DE JUMP JUMPDEST PUSH2 0xB94 JUMP JUMPDEST PUSH2 0x9DE JUMP JUMPDEST SWAP1 POP SWAP2 SWAP1 POP JUMP JUMPDEST PUSH0 PUSH2 0xBC8 DUP3 PUSH2 0xB9D JUMP JUMPDEST SWAP1 POP SWAP2 SWAP1 POP JUMP JUMPDEST PUSH0 PUSH2 0xBD9 DUP3 PUSH2 0xBBE JUMP JUMPDEST SWAP1 POP SWAP2 SWAP1 POP JUMP JUMPDEST PUSH2 0xBE9 DUP2 PUSH2 0xBCF JUMP JUMPDEST DUP3 MSTORE POP POP JUMP JUMPDEST PUSH0 PUSH1 0x20 DUP3 ADD SWAP1 POP PUSH2 0xC02 PUSH0 DUP4 ADD DUP5 PUSH2 0xBE0 JUMP JUMPDEST SWAP3 SWAP2 POP POP JUMP JUMPDEST PUSH32 0x4E487B7100000000000000000000000000000000000000000000000000000000 PUSH0 MSTORE PUSH1 0x32 PUSH1 0x4 MSTORE PUSH1 0x24 PUSH0 REVERT JUMPDEST PUSH0 DUP2 MLOAD SWAP1 POP PUSH2 0xC43 DUP2 PUSH2 0xAC7 JUMP JUMPDEST SWAP3 SWAP2 POP POP JUMP JUMPDEST PUSH0 PUSH1 0x20 DUP3 DUP5 SUB SLT ISZERO PUSH2 0xC5E JUMPI PUSH2 0xC5D PUSH2 0x9DA JUMP JUMPDEST JUMPDEST PUSH0 PUSH2 0xC6B DUP5 DUP3 DUP6 ADD PUSH2 0xC35 JUMP JUMPDEST SWAP2 POP POP SWAP3 SWAP2 POP POP JUMP JUMPDEST PUSH0 DUP3 DUP3 MSTORE PUSH1 0x20 DUP3 ADD SWAP1 POP SWAP3 SWAP2 POP POP JUMP JUMPDEST PUSH32 0x596120657374617320696E73637269746F000000000000000000000000000000 PUSH0 DUP3 ADD MSTORE POP JUMP JUMPDEST PUSH0 PUSH2 0xCB8 PUSH1 0x11 DUP4 PUSH2 0xC74 JUMP JUMPDEST SWAP2 POP PUSH2 0xCC3 DUP3 PUSH2 0xC84 JUMP JUMPDEST PUSH1 0x20 DUP3 ADD SWAP1 POP SWAP2 SWAP1 POP JUMP JUMPDEST PUSH0 PUSH1 0x20 DUP3 ADD SWAP1 POP DUP2 DUP2 SUB PUSH0 DUP4 ADD MSTORE PUSH2 0xCE5 DUP2 PUSH2 0xCAC JUMP JUMPDEST SWAP1 POP SWAP2 SWAP1 POP JUMP JUMPDEST PUSH32 0x53616C646F20696E737566696369656E74650000000000000000000000000000 PUSH0 DUP3 ADD MSTORE POP JUMP JUMPDEST PUSH0 PUSH2 0xD20 PUSH1 0x12 DUP4 PUSH2 0xC74 JUMP JUMPDEST SWAP2 POP PUSH2 0xD2B DUP3 PUSH2 0xCEC JUMP JUMPDEST PUSH1 0x20 DUP3 ADD SWAP1 POP SWAP2 SWAP1 POP JUMP JUMPDEST PUSH0 PUSH1 0x20 DUP3 ADD SWAP1 POP DUP2 DUP2 SUB PUSH0 DUP4 ADD MSTORE PUSH2 0xD4D DUP2 PUSH2 0xD14 JUMP JUMPDEST SWAP1 POP SWAP2 SWAP1 POP JUMP JUMPDEST PUSH0 PUSH1 0x60 DUP3 ADD SWAP1 POP PUSH2 0xD67 PUSH0 DUP4 ADD DUP7 PUSH2 0xB1C JUMP JUMPDEST PUSH2 0xD74 PUSH1 0x20 DUP4 ADD DUP6 PUSH2 0xB1C JUMP JUMPDEST PUSH2 0xD81 PUSH1 0x40 DUP4 ADD DUP5 PUSH2 0xA9F JUMP JUMPDEST SWAP5 SWAP4 POP POP POP POP JUMP JUMPDEST PUSH2 0xD92 DUP2 PUSH2 0xA63 JUMP JUMPDEST DUP2 EQ PUSH2 0xD9C JUMPI PUSH0 PUSH0 REVERT JUMPDEST POP JUMP JUMPDEST PUSH0 DUP2 MLOAD SWAP1 POP PUSH2 0xDAD DUP2 PUSH2 0xD89 JUMP JUMPDEST SWAP3 SWAP2 POP POP JUMP JUMPDEST PUSH0 PUSH1 0x20 DUP3 DUP5 SUB SLT ISZERO PUSH2 0xDC8 JUMPI PUSH2 0xDC7 PUSH2 0x9DA JUMP JUMPDEST JUMPDEST PUSH0 PUSH2 0xDD5 DUP5 DUP3 DUP6 ADD PUSH2 0xD9F JUMP JUMPDEST SWAP2 POP POP SWAP3 SWAP2 POP POP JUMP JUMPDEST PUSH32 0x4572726F7220616C207265616C697A6172206C61207472616E73666572656E63 PUSH0 DUP3 ADD MSTORE PUSH32 0x6961000000000000000000000000000000000000000000000000000000000000 PUSH1 0x20 DUP3 ADD MSTORE POP JUMP JUMPDEST PUSH0 PUSH2 0xE38 PUSH1 0x22 DUP4 PUSH2 0xC74 JUMP JUMPDEST SWAP2 POP PUSH2 0xE43 DUP3 PUSH2 0xDDE JUMP JUMPDEST PUSH1 0x40 DUP3 ADD SWAP1 POP SWAP2 SWAP1 POP JUMP JUMPDEST PUSH0 PUSH1 0x20 DUP3 ADD SWAP1 POP DUP2 DUP2 SUB PUSH0 DUP4 ADD MSTORE PUSH2 0xE65 DUP2 PUSH2 0xE2C JUMP JUMPDEST SWAP1 POP SWAP2 SWAP1 POP JUMP JUMPDEST PUSH32 0x4E487B7100000000000000000000000000000000000000000000000000000000 PUSH0 MSTORE PUSH1 0x11 PUSH1 0x4 MSTORE PUSH1 0x24 PUSH0 REVERT JUMPDEST PUSH0 PUSH2 0xEA3 DUP3 PUSH2 0xA96 JUMP JUMPDEST SWAP2 POP PUSH32 0xFFFFFFFFFFFFFFFFFFFFFFFFFFFFFFFFFFFFFFFFFFFFFFFFFFFFFFFFFFFFFFFF DUP3 SUB PUSH2 0xED5 JUMPI PUSH2 0xED4 PUSH2 0xE6C JUMP JUMPDEST JUMPDEST PUSH1 0x1 DUP3 ADD SWAP1 POP SWAP2 SWAP1 POP JUMP JUMPDEST PUSH0 PUSH2 0xEEA DUP3 PUSH2 0xA96 JUMP JUMPDEST SWAP2 POP PUSH2 0xEF5 DUP4 PUSH2 0xA96 JUMP JUMPDEST SWAP3 POP DUP3 DUP3 ADD SWAP1 POP DUP1 DUP3 GT ISZERO PUSH2 0xF0D JUMPI PUSH2 0xF0C PUSH2 0xE6C JUMP JUMPDEST JUMPDEST SWAP3 SWAP2 POP POP JUMP JUMPDEST PUSH0 PUSH1 0x40 DUP3 ADD SWAP1 POP PUSH2 0xF26 PUSH0 DUP4 ADD DUP6 PUSH2 0xB1C JUMP JUMPDEST PUSH2 0xF33 PUSH1 0x20 DUP4 ADD DUP5 PUSH2 0xA9F JUMP JUMPDEST SWAP4 SWAP3 POP POP POP JUMP INVALID LOG2 PUSH5 0x6970667358 0x22 SLT KECCAK256 CREATE2 INVALID ADD PUSH14 0x9DBCFC6D2B4B85F59C7266673110 DUP15 0xA8 BASEFEE DUP15 SLT PUSH31 0xB653CF406BC3B47C64736F6C634300081E0033000000000000000000000000 "
				},
				"gasEstimates": {
					"creation": {
						"codeDepositCost": "790400",
						"executionCost": "infinite",
						"totalCost": "infinite"
					},
					"external": {
						"COST_REGISTER()": "414",
						"comprarToken()": "infinite",
						"getBalance()": "infinite",
						"inscribirse()": "infinite",
						"inscritos(uint256)": "5011",
						"numeroEnLista()": "infinite",
						"owner()": "2529",
						"token()": "infinite",
						"transferForMember(address,address,uint256)": "infinite",
						"yaEstaInscrito(address)": "infinite"
					}
				},
				"methodIdentifiers": {
					"COST_REGISTER()": "8881a874",
					"comprarToken()": "f32360a0",
					"getBalance()": "12065fe0",
					"inscribirse()": "61722365",
					"inscritos(uint256)": "787e5869",
					"numeroEnLista()": "cd0d232a",
					"owner()": "8da5cb5b",
					"token()": "fc0c546a",
					"transferForMember(address,address,uint256)": "8a75e7bd",
					"yaEstaInscrito(address)": "0469846b"
				}
			},
			"storageLayout": {
				"storage": [
					{
						"astId": 791,
						"contract": "contracts/listaespera.sol:ListaEspera",
						"label": "owner",
						"offset": 0,
						"slot": "0",
						"type": "t_address"
					},
					{
						"astId": 794,
						"contract": "contracts/listaespera.sol:ListaEspera",
						"label": "token",
						"offset": 0,
						"slot": "1",
						"type": "t_contract(TokenEspera)1173"
					},
					{
						"astId": 797,
						"contract": "contracts/listaespera.sol:ListaEspera",
						"label": "inscritos",
						"offset": 0,
						"slot": "2",
						"type": "t_array(t_address)dyn_storage"
					},
					{
						"astId": 799,
						"contract": "contracts/listaespera.sol:ListaEspera",
						"label": "bloqueado",
						"offset": 0,
						"slot": "3",
						"type": "t_bool"
					}
				],
				"types": {
					"t_address": {
						"encoding": "inplace",
						"label": "address",
						"numberOfBytes": "20"
					},
					"t_array(t_address)dyn_storage": {
						"base": "t_address",
						"encoding": "dynamic_array",
						"label": "address[]",
						"numberOfBytes": "32"
					},
					"t_bool": {
						"encoding": "inplace",
						"label": "bool",
						"numberOfBytes": "1"
					},
					"t_contract(TokenEspera)1173": {
						"encoding": "inplace",
						"label": "contract TokenEspera",
						"numberOfBytes": "20"
					}
				}
			},
			"userdoc": {
				"kind": "user",
				"methods": {},
				"version": 1
			}
		}
	}
}