{
	"contracts/listaespera.sol": {
		"ListaEspera": {
			"abi": [
				{
					"inputs": [
						{
							"internalType": "contract TokenEspera",
							"name": "token_",
							"type": "address"
						}
					],
					"stateMutability": "nonpayable",
					"type": "constructor"
				},
				{
					"inputs": [],
					"name": "comprarToken",
					"outputs": [],
					"stateMutability": "nonpayable",
					"type": "function"
				},
				{
					"inputs": [],
					"name": "inscribirse",
					"outputs": [],
					"stateMutability": "nonpayable",
					"type": "function"
				},
				{
					"inputs": [
						{
							"internalType": "uint256",
							"name": "",
							"type": "uint256"
						}
					],
					"name": "inscritos",
					"outputs": [
						{
							"internalType": "address",
							"name": "",
							"type": "address"
						}
					],
					"stateMutability": "view",
					"type": "function"
				},
				{
					"inputs": [
						{
							"internalType": "address",
							"name": "_usuario",
							"type": "address"
						}
					],
					"name": "numeroEnLista",
					"outputs": [
						{
							"internalType": "bool",
							"name": "",
							"type": "bool"
						},
						{
							"internalType": "uint256",
							"name": "",
							"type": "uint256"
						}
					],
					"stateMutability": "view",
					"type": "function"
				},
				{
					"inputs": [],
					"name": "owner",
					"outputs": [
						{
							"internalType": "address",
							"name": "",
							"type": "address"
						}
					],
					"stateMutability": "view",
					"type": "function"
				},
				{
					"inputs": [],
					"name": "token",
					"outputs": [
						{
							"internalType": "contract TokenEspera",
							"name": "",
							"type": "address"
						}
					],
					"stateMutability": "view",
					"type": "function"
				},
				{
					"inputs": [
						{
							"internalType": "address",
							"name": "from",
							"type": "address"
						},
						{
							"internalType": "address",
							"name": "to",
							"type": "address"
						},
						{
							"internalType": "uint256",
							"name": "amount",
							"type": "uint256"
						}
					],
					"name": "transferForMember",
					"outputs": [
						{
							"internalType": "bool",
							"name": "",
							"type": "bool"
						}
					],
					"stateMutability": "nonpayable",
					"type": "function"
				},
				{
					"inputs": [
						{
							"internalType": "address",
							"name": "_usuario",
							"type": "address"
						}
					],
					"name": "yaEstaInscrito",
					"outputs": [
						{
							"internalType": "bool",
							"name": "",
							"type": "bool"
						}
					],
					"stateMutability": "view",
					"type": "function"
				}
			],
			"devdoc": {
				"kind": "dev",
				"methods": {},
				"version": 1
			},
			"evm": {
				"assembly": "    /* \"contracts/listaespera.sol\":87:2122  contract ListaEspera {... */\n  mstore(0x40, 0x80)\n    /* \"contracts/listaespera.sol\":142:184  0xF55301514c27489Fde7C9cd9A3EA8044E7E04579 */\n  0xf55301514c27489fde7c9cd9a3ea8044e7e04579\n    /* \"contracts/listaespera.sol\":114:184  address     public  owner = 0xF55301514c27489Fde7C9cd9A3EA8044E7E04579 */\n  0x00\n  exp(0x0100, 0x00)\n  dup2\n  sload\n  dup2\n  0xffffffffffffffffffffffffffffffffffffffff\n  mul\n  not\n  and\n  swap1\n  dup4\n  0xffffffffffffffffffffffffffffffffffffffff\n  and\n  mul\n  or\n  swap1\n  sstore\n  pop\n    /* \"contracts/listaespera.sol\":330:393  constructor(TokenEspera token_) {... */\n  callvalue\n  dup1\n  iszero\n  tag_1\n  jumpi\n  revert(0x00, 0x00)\ntag_1:\n  pop\n  mload(0x40)\n  sub(codesize, bytecodeSize)\n  dup1\n  bytecodeSize\n  dup4\n  codecopy\n  dup2\n  dup2\n  add\n  0x40\n  mstore\n  dup2\n  add\n  swap1\n  tag_2\n  swap2\n  swap1\n  tag_3\n  jump\t// in\ntag_2:\n    /* \"contracts/listaespera.sol\":380:386  token_ */\n  dup1\n    /* \"contracts/listaespera.sol\":372:377  token */\n  0x01\n  0x00\n    /* \"contracts/listaespera.sol\":372:386  token = token_ */\n  0x0100\n  exp\n  dup2\n  sload\n  dup2\n  0xffffffffffffffffffffffffffffffffffffffff\n  mul\n  not\n  and\n  swap1\n  dup4\n  0xffffffffffffffffffffffffffffffffffffffff\n  and\n  mul\n  or\n  swap1\n  sstore\n  pop\n    /* \"contracts/listaespera.sol\":330:393  constructor(TokenEspera token_) {... */\n  pop\n    /* \"contracts/listaespera.sol\":87:2122  contract ListaEspera {... */\n  jump(tag_6)\n    /* \"#utility.yul\":88:205   */\ntag_8:\n    /* \"#utility.yul\":197:198   */\n  0x00\n    /* \"#utility.yul\":194:195   */\n  0x00\n    /* \"#utility.yul\":187:199   */\n  revert\n    /* \"#utility.yul\":334:460   */\ntag_10:\n    /* \"#utility.yul\":371:378   */\n  0x00\n    /* \"#utility.yul\":411:453   */\n  0xffffffffffffffffffffffffffffffffffffffff\n    /* \"#utility.yul\":404:409   */\n  dup3\n    /* \"#utility.yul\":400:454   */\n  and\n    /* \"#utility.yul\":389:454   */\n  swap1\n  pop\n    /* \"#utility.yul\":334:460   */\n  swap2\n  swap1\n  pop\n  jump\t// out\n    /* \"#utility.yul\":466:562   */\ntag_11:\n    /* \"#utility.yul\":503:510   */\n  0x00\n    /* \"#utility.yul\":532:556   */\n  tag_21\n    /* \"#utility.yul\":550:555   */\n  dup3\n    /* \"#utility.yul\":532:556   */\n  tag_10\n  jump\t// in\ntag_21:\n    /* \"#utility.yul\":521:556   */\n  swap1\n  pop\n    /* \"#utility.yul\":466:562   */\n  swap2\n  swap1\n  pop\n  jump\t// out\n    /* \"#utility.yul\":568:684   */\ntag_12:\n    /* \"#utility.yul\":625:632   */\n  0x00\n    /* \"#utility.yul\":654:678   */\n  tag_23\n    /* \"#utility.yul\":672:677   */\n  dup3\n    /* \"#utility.yul\":654:678   */\n  tag_11\n  jump\t// in\ntag_23:\n    /* \"#utility.yul\":643:678   */\n  swap1\n  pop\n    /* \"#utility.yul\":568:684   */\n  swap2\n  swap1\n  pop\n  jump\t// out\n    /* \"#utility.yul\":690:852   */\ntag_13:\n    /* \"#utility.yul\":783:827   */\n  tag_25\n    /* \"#utility.yul\":821:826   */\n  dup2\n    /* \"#utility.yul\":783:827   */\n  tag_12\n  jump\t// in\ntag_25:\n    /* \"#utility.yul\":776:781   */\n  dup2\n    /* \"#utility.yul\":773:828   */\n  eq\n    /* \"#utility.yul\":763:846   */\n  tag_26\n  jumpi\n    /* \"#utility.yul\":842:843   */\n  0x00\n    /* \"#utility.yul\":839:840   */\n  0x00\n    /* \"#utility.yul\":832:844   */\n  revert\n    /* \"#utility.yul\":763:846   */\ntag_26:\n    /* \"#utility.yul\":690:852   */\n  pop\n  jump\t// out\n    /* \"#utility.yul\":858:1041   */\ntag_14:\n    /* \"#utility.yul\":935:940   */\n  0x00\n    /* \"#utility.yul\":966:972   */\n  dup2\n    /* \"#utility.yul\":960:973   */\n  mload\n    /* \"#utility.yul\":951:973   */\n  swap1\n  pop\n    /* \"#utility.yul\":982:1035   */\n  tag_28\n    /* \"#utility.yul\":1029:1034   */\n  dup2\n    /* \"#utility.yul\":982:1035   */\n  tag_13\n  jump\t// in\ntag_28:\n    /* \"#utility.yul\":858:1041   */\n  swap3\n  swap2\n  pop\n  pop\n  jump\t// out\n    /* \"#utility.yul\":1047:1438   */\ntag_3:\n    /* \"#utility.yul\":1137:1143   */\n  0x00\n    /* \"#utility.yul\":1186:1188   */\n  0x20\n    /* \"#utility.yul\":1174:1183   */\n  dup3\n    /* \"#utility.yul\":1165:1172   */\n  dup5\n    /* \"#utility.yul\":1161:1184   */\n  sub\n    /* \"#utility.yul\":1157:1189   */\n  slt\n    /* \"#utility.yul\":1154:1273   */\n  iszero\n  tag_30\n  jumpi\n    /* \"#utility.yul\":1192:1271   */\n  tag_31\n  tag_8\n  jump\t// in\ntag_31:\n    /* \"#utility.yul\":1154:1273   */\ntag_30:\n    /* \"#utility.yul\":1312:1313   */\n  0x00\n    /* \"#utility.yul\":1337:1421   */\n  tag_32\n    /* \"#utility.yul\":1413:1420   */\n  dup5\n    /* \"#utility.yul\":1404:1410   */\n  dup3\n    /* \"#utility.yul\":1393:1402   */\n  dup6\n    /* \"#utility.yul\":1389:1411   */\n  add\n    /* \"#utility.yul\":1337:1421   */\n  tag_14\n  jump\t// in\ntag_32:\n    /* \"#utility.yul\":1327:1421   */\n  swap2\n  pop\n    /* \"#utility.yul\":1283:1431   */\n  pop\n    /* \"#utility.yul\":1047:1438   */\n  swap3\n  swap2\n  pop\n  pop\n  jump\t// out\n    /* \"contracts/listaespera.sol\":87:2122  contract ListaEspera {... */\ntag_6:\n  dataSize(sub_0)\n  dup1\n  dataOffset(sub_0)\n  0x00\n  codecopy\n  0x00\n  return\nstop\n\nsub_0: assembly {\n        /* \"contracts/listaespera.sol\":87:2122  contract ListaEspera {... */\n      mstore(0x40, 0x80)\n      callvalue\n      dup1\n      iszero\n      tag_1\n      jumpi\n      revert(0x00, 0x00)\n    tag_1:\n      pop\n      jumpi(tag_2, lt(calldatasize, 0x04))\n      shr(0xe0, calldataload(0x00))\n      dup1\n      0x8a75e7bd\n      gt\n      tag_11\n      jumpi\n      dup1\n      0x8a75e7bd\n      eq\n      tag_7\n      jumpi\n      dup1\n      0x8da5cb5b\n      eq\n      tag_8\n      jumpi\n      dup1\n      0xf32360a0\n      eq\n      tag_9\n      jumpi\n      dup1\n      0xfc0c546a\n      eq\n      tag_10\n      jumpi\n      jump(tag_2)\n    tag_11:\n      dup1\n      0x0469846b\n      eq\n      tag_3\n      jumpi\n      dup1\n      0x61722365\n      eq\n      tag_4\n      jumpi\n      dup1\n      0x787e5869\n      eq\n      tag_5\n      jumpi\n      dup1\n      0x7a54f9d9\n      eq\n      tag_6\n      jumpi\n    tag_2:\n      revert(0x00, 0x00)\n        /* \"contracts/listaespera.sol\":680:1014  function yaEstaInscrito(address _usuario) public view returns (bool) {... */\n    tag_3:\n      tag_12\n      0x04\n      dup1\n      calldatasize\n      sub\n      dup2\n      add\n      swap1\n      tag_13\n      swap2\n      swap1\n      tag_14\n      jump\t// in\n    tag_13:\n      tag_15\n      jump\t// in\n    tag_12:\n      mload(0x40)\n      tag_16\n      swap2\n      swap1\n      tag_17\n      jump\t// in\n    tag_16:\n      mload(0x40)\n      dup1\n      swap2\n      sub\n      swap1\n      return\n        /* \"contracts/listaespera.sol\":399:674  function inscribirse() external noReentrancy {... */\n    tag_4:\n      tag_18\n      tag_19\n      jump\t// in\n    tag_18:\n      stop\n        /* \"contracts/listaespera.sol\":221:250  address[]   public  inscritos */\n    tag_5:\n      tag_20\n      0x04\n      dup1\n      calldatasize\n      sub\n      dup2\n      add\n      swap1\n      tag_21\n      swap2\n      swap1\n      tag_22\n      jump\t// in\n    tag_21:\n      tag_23\n      jump\t// in\n    tag_20:\n      mload(0x40)\n      tag_24\n      swap2\n      swap1\n      tag_25\n      jump\t// in\n    tag_24:\n      mload(0x40)\n      dup1\n      swap2\n      sub\n      swap1\n      return\n        /* \"contracts/listaespera.sol\":1020:1522  function numeroEnLista(address _usuario) public view returns (bool, uint256) {... */\n    tag_6:\n      tag_26\n      0x04\n      dup1\n      calldatasize\n      sub\n      dup2\n      add\n      swap1\n      tag_27\n      swap2\n      swap1\n      tag_14\n      jump\t// in\n    tag_27:\n      tag_28\n      jump\t// in\n    tag_26:\n      mload(0x40)\n      tag_29\n      swap3\n      swap2\n      swap1\n      tag_30\n      jump\t// in\n    tag_29:\n      mload(0x40)\n      dup1\n      swap2\n      sub\n      swap1\n      return\n        /* \"contracts/listaespera.sol\":1691:1932  function transferForMember(address from, address to, uint256 amount) external returns (bool) {... */\n    tag_7:\n      tag_31\n      0x04\n      dup1\n      calldatasize\n      sub\n      dup2\n      add\n      swap1\n      tag_32\n      swap2\n      swap1\n      tag_33\n      jump\t// in\n    tag_32:\n      tag_34\n      jump\t// in\n    tag_31:\n      mload(0x40)\n      tag_35\n      swap2\n      swap1\n      tag_17\n      jump\t// in\n    tag_35:\n      mload(0x40)\n      dup1\n      swap2\n      sub\n      swap1\n      return\n        /* \"contracts/listaespera.sol\":114:184  address     public  owner = 0xF55301514c27489Fde7C9cd9A3EA8044E7E04579 */\n    tag_8:\n      tag_36\n      tag_37\n      jump\t// in\n    tag_36:\n      mload(0x40)\n      tag_38\n      swap2\n      swap1\n      tag_25\n      jump\t// in\n    tag_38:\n      mload(0x40)\n      dup1\n      swap2\n      sub\n      swap1\n      return\n        /* \"contracts/listaespera.sol\":1527:1685  function comprarToken() external {... */\n    tag_9:\n      tag_39\n      tag_40\n      jump\t// in\n    tag_39:\n      stop\n        /* \"contracts/listaespera.sol\":190:215  TokenEspera public  token */\n    tag_10:\n      tag_41\n      tag_42\n      jump\t// in\n    tag_41:\n      mload(0x40)\n      tag_43\n      swap2\n      swap1\n      tag_44\n      jump\t// in\n    tag_43:\n      mload(0x40)\n      dup1\n      swap2\n      sub\n      swap1\n      return\n        /* \"contracts/listaespera.sol\":680:1014  function yaEstaInscrito(address _usuario) public view returns (bool) {... */\n    tag_15:\n        /* \"contracts/listaespera.sol\":743:747  bool */\n      0x00\n        /* \"contracts/listaespera.sol\":779:784  owner */\n      0x00\n      0x00\n      swap1\n      sload\n      swap1\n      0x0100\n      exp\n      swap1\n      div\n      0xffffffffffffffffffffffffffffffffffffffff\n      and\n        /* \"contracts/listaespera.sol\":767:784  _usuario != owner */\n      0xffffffffffffffffffffffffffffffffffffffff\n      and\n        /* \"contracts/listaespera.sol\":767:775  _usuario */\n      dup3\n        /* \"contracts/listaespera.sol\":767:784  _usuario != owner */\n      0xffffffffffffffffffffffffffffffffffffffff\n      and\n      sub\n        /* \"contracts/listaespera.sol\":759:830  require(_usuario != owner, \"El propietario no puede estar en la lista\") */\n      tag_46\n      jumpi\n      mload(0x40)\n      0x08c379a000000000000000000000000000000000000000000000000000000000\n      dup2\n      mstore\n      0x04\n      add\n      tag_47\n      swap1\n      tag_48\n      jump\t// in\n    tag_47:\n      mload(0x40)\n      dup1\n      swap2\n      sub\n      swap1\n      revert\n    tag_46:\n        /* \"contracts/listaespera.sol\":845:854  uint256 i */\n      0x00\n        /* \"contracts/listaespera.sol\":857:858  0 */\n      0x00\n        /* \"contracts/listaespera.sol\":845:858  uint256 i = 0 */\n      swap1\n      pop\n        /* \"contracts/listaespera.sol\":841:985  for(uint256 i = 0; i < inscritos.length; i++) {... */\n    tag_49:\n        /* \"contracts/listaespera.sol\":864:873  inscritos */\n      0x02\n        /* \"contracts/listaespera.sol\":864:880  inscritos.length */\n      dup1\n      sload\n      swap1\n      pop\n        /* \"contracts/listaespera.sol\":860:861  i */\n      dup2\n        /* \"contracts/listaespera.sol\":860:880  i < inscritos.length */\n      lt\n        /* \"contracts/listaespera.sol\":841:985  for(uint256 i = 0; i < inscritos.length; i++) {... */\n      iszero\n      tag_50\n      jumpi\n        /* \"contracts/listaespera.sol\":921:929  _usuario */\n      dup3\n        /* \"contracts/listaespera.sol\":905:929  inscritos[i] == _usuario */\n      0xffffffffffffffffffffffffffffffffffffffff\n      and\n        /* \"contracts/listaespera.sol\":905:914  inscritos */\n      0x02\n        /* \"contracts/listaespera.sol\":915:916  i */\n      dup3\n        /* \"contracts/listaespera.sol\":905:917  inscritos[i] */\n      dup2\n      sload\n      dup2\n      lt\n      tag_52\n      jumpi\n      tag_53\n      tag_54\n      jump\t// in\n    tag_53:\n    tag_52:\n      swap1\n      0x00\n      mstore\n      keccak256(0x00, 0x20)\n      add\n      0x00\n      swap1\n      sload\n      swap1\n      0x0100\n      exp\n      swap1\n      div\n      0xffffffffffffffffffffffffffffffffffffffff\n      and\n        /* \"contracts/listaespera.sol\":905:929  inscritos[i] == _usuario */\n      0xffffffffffffffffffffffffffffffffffffffff\n      and\n      sub\n        /* \"contracts/listaespera.sol\":901:975  if (inscritos[i] == _usuario) {... */\n      tag_56\n      jumpi\n        /* \"contracts/listaespera.sol\":956:960  true */\n      0x01\n        /* \"contracts/listaespera.sol\":949:960  return true */\n      swap2\n      pop\n      pop\n      jump(tag_45)\n        /* \"contracts/listaespera.sol\":901:975  if (inscritos[i] == _usuario) {... */\n    tag_56:\n        /* \"contracts/listaespera.sol\":882:885  i++ */\n      dup1\n      dup1\n      0x01\n      add\n      swap2\n      pop\n      pop\n        /* \"contracts/listaespera.sol\":841:985  for(uint256 i = 0; i < inscritos.length; i++) {... */\n      jump(tag_49)\n    tag_50:\n      pop\n        /* \"contracts/listaespera.sol\":1002:1007  false */\n      0x00\n        /* \"contracts/listaespera.sol\":995:1007  return false */\n      swap1\n      pop\n        /* \"contracts/listaespera.sol\":680:1014  function yaEstaInscrito(address _usuario) public view returns (bool) {... */\n    tag_45:\n      swap2\n      swap1\n      pop\n      jump\t// out\n        /* \"contracts/listaespera.sol\":399:674  function inscribirse() external noReentrancy {... */\n    tag_19:\n        /* \"contracts/listaespera.sol\":2030:2039  bloqueado */\n      0x03\n      0x00\n      swap1\n      sload\n      swap1\n      0x0100\n      exp\n      swap1\n      div\n      0xff\n      and\n        /* \"contracts/listaespera.sol\":2026:2049  if (bloqueado) revert() */\n      iszero\n      tag_58\n      jumpi\n        /* \"contracts/listaespera.sol\":2041:2049  revert() */\n      revert(0x00, 0x00)\n        /* \"contracts/listaespera.sol\":2026:2049  if (bloqueado) revert() */\n    tag_58:\n        /* \"contracts/listaespera.sol\":2071:2075  true */\n      0x01\n        /* \"contracts/listaespera.sol\":2059:2068  bloqueado */\n      0x03\n      0x00\n        /* \"contracts/listaespera.sol\":2059:2075  bloqueado = true */\n      0x0100\n      exp\n      dup2\n      sload\n      dup2\n      0xff\n      mul\n      not\n      and\n      swap1\n      dup4\n      iszero\n      iszero\n      mul\n      or\n      swap1\n      sstore\n      pop\n        /* \"contracts/listaespera.sol\":476:481  owner */\n      0x00\n      0x00\n      swap1\n      sload\n      swap1\n      0x0100\n      exp\n      swap1\n      div\n      0xffffffffffffffffffffffffffffffffffffffff\n      and\n        /* \"contracts/listaespera.sol\":462:481  msg.sender != owner */\n      0xffffffffffffffffffffffffffffffffffffffff\n      and\n        /* \"contracts/listaespera.sol\":462:472  msg.sender */\n      caller\n        /* \"contracts/listaespera.sol\":462:481  msg.sender != owner */\n      0xffffffffffffffffffffffffffffffffffffffff\n      and\n      sub\n        /* \"contracts/listaespera.sol\":454:527  require(msg.sender != owner, \"El propietario no puede estar en la lista\") */\n      tag_60\n      jumpi\n      mload(0x40)\n      0x08c379a000000000000000000000000000000000000000000000000000000000\n      dup2\n      mstore\n      0x04\n      add\n      tag_61\n      swap1\n      tag_48\n      jump\t// in\n    tag_61:\n      mload(0x40)\n      dup1\n      swap2\n      sub\n      swap1\n      revert\n    tag_60:\n        /* \"contracts/listaespera.sol\":546:572  yaEstaInscrito(msg.sender) */\n      tag_62\n        /* \"contracts/listaespera.sol\":561:571  msg.sender */\n      caller\n        /* \"contracts/listaespera.sol\":546:560  yaEstaInscrito */\n      tag_15\n        /* \"contracts/listaespera.sol\":546:572  yaEstaInscrito(msg.sender) */\n      jump\t// in\n    tag_62:\n        /* \"contracts/listaespera.sol\":545:572  !yaEstaInscrito(msg.sender) */\n      iszero\n        /* \"contracts/listaespera.sol\":537:594  require(!yaEstaInscrito(msg.sender), \"Ya estas inscrito\") */\n      tag_63\n      jumpi\n      mload(0x40)\n      0x08c379a000000000000000000000000000000000000000000000000000000000\n      dup2\n      mstore\n      0x04\n      add\n      tag_64\n      swap1\n      tag_65\n      jump\t// in\n    tag_64:\n      mload(0x40)\n      dup1\n      swap2\n      sub\n      swap1\n      revert\n    tag_63:\n        /* \"contracts/listaespera.sol\":606:615  inscritos */\n      0x02\n        /* \"contracts/listaespera.sol\":621:631  msg.sender */\n      caller\n        /* \"contracts/listaespera.sol\":606:632  inscritos.push(msg.sender) */\n      swap1\n      dup1\n      0x01\n      dup2\n      sload\n      add\n      dup1\n      dup3\n      sstore\n      dup1\n      swap2\n      pop\n      pop\n      0x01\n      swap1\n      sub\n      swap1\n      0x00\n      mstore\n      keccak256(0x00, 0x20)\n      add\n      0x00\n      swap1\n      swap2\n      swap1\n      swap2\n      swap1\n      swap2\n      0x0100\n      exp\n      dup2\n      sload\n      dup2\n      0xffffffffffffffffffffffffffffffffffffffff\n      mul\n      not\n      and\n      swap1\n      dup4\n      0xffffffffffffffffffffffffffffffffffffffff\n      and\n      mul\n      or\n      swap1\n      sstore\n      pop\n        /* \"contracts/listaespera.sol\":643:648  token */\n      0x01\n      0x00\n      swap1\n      sload\n      swap1\n      0x0100\n      exp\n      swap1\n      div\n      0xffffffffffffffffffffffffffffffffffffffff\n      and\n        /* \"contracts/listaespera.sol\":643:657  token.transfer */\n      0xffffffffffffffffffffffffffffffffffffffff\n      and\n      0xa9059cbb\n        /* \"contracts/listaespera.sol\":658:663  owner */\n      0x00\n      0x00\n      swap1\n      sload\n      swap1\n      0x0100\n      exp\n      swap1\n      div\n      0xffffffffffffffffffffffffffffffffffffffff\n      and\n        /* \"contracts/listaespera.sol\":665:666  1 */\n      0x01\n        /* \"contracts/listaespera.sol\":643:667  token.transfer(owner, 1) */\n      mload(0x40)\n      dup4\n      0xffffffff\n      and\n      0xe0\n      shl\n      dup2\n      mstore\n      0x04\n      add\n      tag_67\n      swap3\n      swap2\n      swap1\n      tag_68\n      jump\t// in\n    tag_67:\n      0x20\n      mload(0x40)\n      dup1\n      dup4\n      sub\n      dup2\n      0x00\n      dup8\n      gas\n      call\n      iszero\n      dup1\n      iszero\n      tag_70\n      jumpi\n      returndatacopy(0x00, 0x00, returndatasize)\n      revert(0x00, returndatasize)\n    tag_70:\n      pop\n      pop\n      pop\n      pop\n      mload(0x40)\n      returndatasize\n      not(0x1f)\n      0x1f\n      dup3\n      add\n      and\n      dup3\n      add\n      dup1\n      0x40\n      mstore\n      pop\n      dup2\n      add\n      swap1\n      tag_71\n      swap2\n      swap1\n      tag_72\n      jump\t// in\n    tag_71:\n      pop\n        /* \"contracts/listaespera.sol\":2108:2113  false */\n      0x00\n        /* \"contracts/listaespera.sol\":2096:2105  bloqueado */\n      0x03\n      0x00\n        /* \"contracts/listaespera.sol\":2096:2113  bloqueado = false */\n      0x0100\n      exp\n      dup2\n      sload\n      dup2\n      0xff\n      mul\n      not\n      and\n      swap1\n      dup4\n      iszero\n      iszero\n      mul\n      or\n      swap1\n      sstore\n      pop\n        /* \"contracts/listaespera.sol\":399:674  function inscribirse() external noReentrancy {... */\n      jump\t// out\n        /* \"contracts/listaespera.sol\":221:250  address[]   public  inscritos */\n    tag_23:\n      0x02\n      dup2\n      dup2\n      sload\n      dup2\n      lt\n      tag_73\n      jumpi\n      0x00\n      dup1\n      revert\n    tag_73:\n      swap1\n      0x00\n      mstore\n      keccak256(0x00, 0x20)\n      add\n      0x00\n      swap2\n      pop\n      sload\n      swap1\n      0x0100\n      exp\n      swap1\n      div\n      0xffffffffffffffffffffffffffffffffffffffff\n      and\n      dup2\n      jump\t// out\n        /* \"contracts/listaespera.sol\":1020:1522  function numeroEnLista(address _usuario) public view returns (bool, uint256) {... */\n    tag_28:\n        /* \"contracts/listaespera.sol\":1082:1086  bool */\n      0x00\n        /* \"contracts/listaespera.sol\":1088:1095  uint256 */\n      0x00\n        /* \"contracts/listaespera.sol\":1127:1132  owner */\n      0x00\n      0x00\n      swap1\n      sload\n      swap1\n      0x0100\n      exp\n      swap1\n      div\n      0xffffffffffffffffffffffffffffffffffffffff\n      and\n        /* \"contracts/listaespera.sol\":1115:1132  _usuario != owner */\n      0xffffffffffffffffffffffffffffffffffffffff\n      and\n        /* \"contracts/listaespera.sol\":1115:1123  _usuario */\n      dup4\n        /* \"contracts/listaespera.sol\":1115:1132  _usuario != owner */\n      0xffffffffffffffffffffffffffffffffffffffff\n      and\n      sub\n        /* \"contracts/listaespera.sol\":1107:1178  require(_usuario != owner, \"El propietario no puede estar en la lista\") */\n      tag_76\n      jumpi\n      mload(0x40)\n      0x08c379a000000000000000000000000000000000000000000000000000000000\n      dup2\n      mstore\n      0x04\n      add\n      tag_77\n      swap1\n      tag_48\n      jump\t// in\n    tag_77:\n      mload(0x40)\n      dup1\n      swap2\n      sub\n      swap1\n      revert\n    tag_76:\n        /* \"contracts/listaespera.sol\":1197:1211  uint256 indice */\n      0x00\n        /* \"contracts/listaespera.sol\":1214:1215  0 */\n      0x00\n        /* \"contracts/listaespera.sol\":1197:1215  uint256 indice = 0 */\n      swap1\n      pop\n        /* \"contracts/listaespera.sol\":1225:1240  bool encontrado */\n      0x00\n        /* \"contracts/listaespera.sol\":1243:1248  false */\n      0x00\n        /* \"contracts/listaespera.sol\":1225:1248  bool encontrado = false */\n      swap1\n      pop\n        /* \"contracts/listaespera.sol\":1262:1271  uint256 i */\n      0x00\n        /* \"contracts/listaespera.sol\":1274:1275  0 */\n      0x00\n        /* \"contracts/listaespera.sol\":1262:1275  uint256 i = 0 */\n      swap1\n      pop\n        /* \"contracts/listaespera.sol\":1258:1478  for(uint256 i = 0; (i < inscritos.length) && (!encontrado); i++) {... */\n    tag_78:\n        /* \"contracts/listaespera.sol\":1282:1291  inscritos */\n      0x02\n        /* \"contracts/listaespera.sol\":1282:1298  inscritos.length */\n      dup1\n      sload\n      swap1\n      pop\n        /* \"contracts/listaespera.sol\":1278:1279  i */\n      dup2\n        /* \"contracts/listaespera.sol\":1278:1298  i < inscritos.length */\n      lt\n        /* \"contracts/listaespera.sol\":1277:1316  (i < inscritos.length) && (!encontrado) */\n      dup1\n      iszero\n      tag_81\n      jumpi\n      pop\n        /* \"contracts/listaespera.sol\":1305:1315  encontrado */\n      dup2\n        /* \"contracts/listaespera.sol\":1304:1315  !encontrado */\n      iszero\n        /* \"contracts/listaespera.sol\":1277:1316  (i < inscritos.length) && (!encontrado) */\n    tag_81:\n        /* \"contracts/listaespera.sol\":1258:1478  for(uint256 i = 0; (i < inscritos.length) && (!encontrado); i++) {... */\n      iszero\n      tag_79\n      jumpi\n        /* \"contracts/listaespera.sol\":1357:1365  _usuario */\n      dup6\n        /* \"contracts/listaespera.sol\":1341:1365  inscritos[i] == _usuario */\n      0xffffffffffffffffffffffffffffffffffffffff\n      and\n        /* \"contracts/listaespera.sol\":1341:1350  inscritos */\n      0x02\n        /* \"contracts/listaespera.sol\":1351:1352  i */\n      dup3\n        /* \"contracts/listaespera.sol\":1341:1353  inscritos[i] */\n      dup2\n      sload\n      dup2\n      lt\n      tag_82\n      jumpi\n      tag_83\n      tag_54\n      jump\t// in\n    tag_83:\n    tag_82:\n      swap1\n      0x00\n      mstore\n      keccak256(0x00, 0x20)\n      add\n      0x00\n      swap1\n      sload\n      swap1\n      0x0100\n      exp\n      swap1\n      div\n      0xffffffffffffffffffffffffffffffffffffffff\n      and\n        /* \"contracts/listaespera.sol\":1341:1365  inscritos[i] == _usuario */\n      0xffffffffffffffffffffffffffffffffffffffff\n      and\n      sub\n        /* \"contracts/listaespera.sol\":1337:1468  if (inscritos[i] == _usuario) {... */\n      tag_85\n      jumpi\n        /* \"contracts/listaespera.sol\":1394:1395  i */\n      dup1\n        /* \"contracts/listaespera.sol\":1385:1395  indice = i */\n      swap3\n      pop\n        /* \"contracts/listaespera.sol\":1426:1430  true */\n      0x01\n        /* \"contracts/listaespera.sol\":1413:1430  encontrado = true */\n      swap2\n      pop\n        /* \"contracts/listaespera.sol\":1448:1453  break */\n      jump(tag_79)\n        /* \"contracts/listaespera.sol\":1337:1468  if (inscritos[i] == _usuario) {... */\n    tag_85:\n        /* \"contracts/listaespera.sol\":1318:1321  i++ */\n      dup1\n      dup1\n      tag_86\n      swap1\n      tag_87\n      jump\t// in\n    tag_86:\n      swap2\n      pop\n      pop\n        /* \"contracts/listaespera.sol\":1258:1478  for(uint256 i = 0; (i < inscritos.length) && (!encontrado); i++) {... */\n      jump(tag_78)\n    tag_79:\n      pop\n        /* \"contracts/listaespera.sol\":1496:1506  encontrado */\n      dup1\n        /* \"contracts/listaespera.sol\":1508:1514  indice */\n      dup3\n        /* \"contracts/listaespera.sol\":1488:1515  return (encontrado, indice) */\n      swap4\n      pop\n      swap4\n      pop\n      pop\n      pop\n        /* \"contracts/listaespera.sol\":1020:1522  function numeroEnLista(address _usuario) public view returns (bool, uint256) {... */\n      swap2\n      pop\n      swap2\n      jump\t// out\n        /* \"contracts/listaespera.sol\":1691:1932  function transferForMember(address from, address to, uint256 amount) external returns (bool) {... */\n    tag_34:\n        /* \"contracts/listaespera.sol\":1778:1782  bool */\n      0x00\n        /* \"contracts/listaespera.sol\":1827:1833  amount */\n      dup2\n        /* \"contracts/listaespera.sol\":1802:1807  token */\n      0x01\n      0x00\n      swap1\n      sload\n      swap1\n      0x0100\n      exp\n      swap1\n      div\n      0xffffffffffffffffffffffffffffffffffffffff\n      and\n        /* \"contracts/listaespera.sol\":1802:1817  token.balanceOf */\n      0xffffffffffffffffffffffffffffffffffffffff\n      and\n      0x70a08231\n        /* \"contracts/listaespera.sol\":1818:1822  from */\n      dup7\n        /* \"contracts/listaespera.sol\":1802:1823  token.balanceOf(from) */\n      mload(0x40)\n      dup3\n      0xffffffff\n      and\n      0xe0\n      shl\n      dup2\n      mstore\n      0x04\n      add\n      tag_89\n      swap2\n      swap1\n      tag_25\n      jump\t// in\n    tag_89:\n      0x20\n      mload(0x40)\n      dup1\n      dup4\n      sub\n      dup2\n      dup7\n      gas\n      staticcall\n      iszero\n      dup1\n      iszero\n      tag_91\n      jumpi\n      returndatacopy(0x00, 0x00, returndatasize)\n      revert(0x00, returndatasize)\n    tag_91:\n      pop\n      pop\n      pop\n      pop\n      mload(0x40)\n      returndatasize\n      not(0x1f)\n      0x1f\n      dup3\n      add\n      and\n      dup3\n      add\n      dup1\n      0x40\n      mstore\n      pop\n      dup2\n      add\n      swap1\n      tag_92\n      swap2\n      swap1\n      tag_93\n      jump\t// in\n    tag_92:\n        /* \"contracts/listaespera.sol\":1802:1833  token.balanceOf(from) >= amount */\n      lt\n      iszero\n        /* \"contracts/listaespera.sol\":1794:1856  require(token.balanceOf(from) >= amount, \"Saldo insuficiente\") */\n      tag_94\n      jumpi\n      mload(0x40)\n      0x08c379a000000000000000000000000000000000000000000000000000000000\n      dup2\n      mstore\n      0x04\n      add\n      tag_95\n      swap1\n      tag_96\n      jump\t// in\n    tag_95:\n      mload(0x40)\n      dup1\n      swap2\n      sub\n      swap1\n      revert\n    tag_94:\n        /* \"contracts/listaespera.sol\":1867:1872  token */\n      0x01\n      0x00\n      swap1\n      sload\n      swap1\n      0x0100\n      exp\n      swap1\n      div\n      0xffffffffffffffffffffffffffffffffffffffff\n      and\n        /* \"contracts/listaespera.sol\":1867:1885  token.transferFrom */\n      0xffffffffffffffffffffffffffffffffffffffff\n      and\n      0x23b872dd\n        /* \"contracts/listaespera.sol\":1886:1890  from */\n      dup6\n        /* \"contracts/listaespera.sol\":1892:1894  to */\n      dup6\n        /* \"contracts/listaespera.sol\":1896:1902  amount */\n      dup6\n        /* \"contracts/listaespera.sol\":1867:1903  token.transferFrom(from, to, amount) */\n      mload(0x40)\n      dup5\n      0xffffffff\n      and\n      0xe0\n      shl\n      dup2\n      mstore\n      0x04\n      add\n      tag_97\n      swap4\n      swap3\n      swap2\n      swap1\n      tag_98\n      jump\t// in\n    tag_97:\n      0x20\n      mload(0x40)\n      dup1\n      dup4\n      sub\n      dup2\n      0x00\n      dup8\n      gas\n      call\n      iszero\n      dup1\n      iszero\n      tag_100\n      jumpi\n      returndatacopy(0x00, 0x00, returndatasize)\n      revert(0x00, returndatasize)\n    tag_100:\n      pop\n      pop\n      pop\n      pop\n      mload(0x40)\n      returndatasize\n      not(0x1f)\n      0x1f\n      dup3\n      add\n      and\n      dup3\n      add\n      dup1\n      0x40\n      mstore\n      pop\n      dup2\n      add\n      swap1\n      tag_101\n      swap2\n      swap1\n      tag_72\n      jump\t// in\n    tag_101:\n      pop\n        /* \"contracts/listaespera.sol\":1921:1925  true */\n      0x01\n        /* \"contracts/listaespera.sol\":1914:1925  return true */\n      swap1\n      pop\n        /* \"contracts/listaespera.sol\":1691:1932  function transferForMember(address from, address to, uint256 amount) external returns (bool) {... */\n      swap4\n      swap3\n      pop\n      pop\n      pop\n      jump\t// out\n        /* \"contracts/listaespera.sol\":114:184  address     public  owner = 0xF55301514c27489Fde7C9cd9A3EA8044E7E04579 */\n    tag_37:\n      0x00\n      0x00\n      swap1\n      sload\n      swap1\n      0x0100\n      exp\n      swap1\n      div\n      0xffffffffffffffffffffffffffffffffffffffff\n      and\n      dup2\n      jump\t// out\n        /* \"contracts/listaespera.sol\":1527:1685  function comprarToken() external {... */\n    tag_40:\n        /* \"contracts/listaespera.sol\":1570:1590  uint256 numeroTokens */\n      0x00\n        /* \"contracts/listaespera.sol\":1624:1630  10**18 */\n      0x0de0b6b3a7640000\n        /* \"contracts/listaespera.sol\":1593:1598  token */\n      0x01\n      0x00\n      swap1\n      sload\n      swap1\n      0x0100\n      exp\n      swap1\n      div\n      0xffffffffffffffffffffffffffffffffffffffff\n      and\n        /* \"contracts/listaespera.sol\":1593:1608  token.balanceOf */\n      0xffffffffffffffffffffffffffffffffffffffff\n      and\n      0x70a08231\n        /* \"contracts/listaespera.sol\":1609:1619  msg.sender */\n      caller\n        /* \"contracts/listaespera.sol\":1593:1620  token.balanceOf(msg.sender) */\n      mload(0x40)\n      dup3\n      0xffffffff\n      and\n      0xe0\n      shl\n      dup2\n      mstore\n      0x04\n      add\n      tag_103\n      swap2\n      swap1\n      tag_25\n      jump\t// in\n    tag_103:\n      0x20\n      mload(0x40)\n      dup1\n      dup4\n      sub\n      dup2\n      dup7\n      gas\n      staticcall\n      iszero\n      dup1\n      iszero\n      tag_105\n      jumpi\n      returndatacopy(0x00, 0x00, returndatasize)\n      revert(0x00, returndatasize)\n    tag_105:\n      pop\n      pop\n      pop\n      pop\n      mload(0x40)\n      returndatasize\n      not(0x1f)\n      0x1f\n      dup3\n      add\n      and\n      dup3\n      add\n      dup1\n      0x40\n      mstore\n      pop\n      dup2\n      add\n      swap1\n      tag_106\n      swap2\n      swap1\n      tag_93\n      jump\t// in\n    tag_106:\n        /* \"contracts/listaespera.sol\":1593:1631  token.balanceOf(msg.sender) + (10**18) */\n      tag_107\n      swap2\n      swap1\n      tag_108\n      jump\t// in\n    tag_107:\n        /* \"contracts/listaespera.sol\":1570:1631  uint256 numeroTokens = token.balanceOf(msg.sender) + (10**18) */\n      swap1\n      pop\n        /* \"contracts/listaespera.sol\":1642:1647  token */\n      0x01\n      0x00\n      swap1\n      sload\n      swap1\n      0x0100\n      exp\n      swap1\n      div\n      0xffffffffffffffffffffffffffffffffffffffff\n      and\n        /* \"contracts/listaespera.sol\":1642:1652  token.mint */\n      0xffffffffffffffffffffffffffffffffffffffff\n      and\n      0x40c10f19\n        /* \"contracts/listaespera.sol\":1653:1663  msg.sender */\n      caller\n        /* \"contracts/listaespera.sol\":1665:1677  numeroTokens */\n      dup4\n        /* \"contracts/listaespera.sol\":1642:1678  token.mint(msg.sender, numeroTokens) */\n      mload(0x40)\n      dup4\n      0xffffffff\n      and\n      0xe0\n      shl\n      dup2\n      mstore\n      0x04\n      add\n      tag_109\n      swap3\n      swap2\n      swap1\n      tag_110\n      jump\t// in\n    tag_109:\n      0x00\n      mload(0x40)\n      dup1\n      dup4\n      sub\n      dup2\n      0x00\n      dup8\n      dup1\n      extcodesize\n      iszero\n      dup1\n      iszero\n      tag_111\n      jumpi\n      revert(0x00, 0x00)\n    tag_111:\n      pop\n      gas\n      call\n      iszero\n      dup1\n      iszero\n      tag_113\n      jumpi\n      returndatacopy(0x00, 0x00, returndatasize)\n      revert(0x00, returndatasize)\n    tag_113:\n      pop\n      pop\n      pop\n      pop\n        /* \"contracts/listaespera.sol\":1560:1685  {... */\n      pop\n        /* \"contracts/listaespera.sol\":1527:1685  function comprarToken() external {... */\n      jump\t// out\n        /* \"contracts/listaespera.sol\":190:215  TokenEspera public  token */\n    tag_42:\n      0x01\n      0x00\n      swap1\n      sload\n      swap1\n      0x0100\n      exp\n      swap1\n      div\n      0xffffffffffffffffffffffffffffffffffffffff\n      and\n      dup2\n      jump\t// out\n        /* \"#utility.yul\":88:205   */\n    tag_115:\n        /* \"#utility.yul\":197:198   */\n      0x00\n        /* \"#utility.yul\":194:195   */\n      0x00\n        /* \"#utility.yul\":187:199   */\n      revert\n        /* \"#utility.yul\":334:460   */\n    tag_117:\n        /* \"#utility.yul\":371:378   */\n      0x00\n        /* \"#utility.yul\":411:453   */\n      0xffffffffffffffffffffffffffffffffffffffff\n        /* \"#utility.yul\":404:409   */\n      dup3\n        /* \"#utility.yul\":400:454   */\n      and\n        /* \"#utility.yul\":389:454   */\n      swap1\n      pop\n        /* \"#utility.yul\":334:460   */\n      swap2\n      swap1\n      pop\n      jump\t// out\n        /* \"#utility.yul\":466:562   */\n    tag_118:\n        /* \"#utility.yul\":503:510   */\n      0x00\n        /* \"#utility.yul\":532:556   */\n      tag_153\n        /* \"#utility.yul\":550:555   */\n      dup3\n        /* \"#utility.yul\":532:556   */\n      tag_117\n      jump\t// in\n    tag_153:\n        /* \"#utility.yul\":521:556   */\n      swap1\n      pop\n        /* \"#utility.yul\":466:562   */\n      swap2\n      swap1\n      pop\n      jump\t// out\n        /* \"#utility.yul\":568:690   */\n    tag_119:\n        /* \"#utility.yul\":641:665   */\n      tag_155\n        /* \"#utility.yul\":659:664   */\n      dup2\n        /* \"#utility.yul\":641:665   */\n      tag_118\n      jump\t// in\n    tag_155:\n        /* \"#utility.yul\":634:639   */\n      dup2\n        /* \"#utility.yul\":631:666   */\n      eq\n        /* \"#utility.yul\":621:684   */\n      tag_156\n      jumpi\n        /* \"#utility.yul\":680:681   */\n      0x00\n        /* \"#utility.yul\":677:678   */\n      0x00\n        /* \"#utility.yul\":670:682   */\n      revert\n        /* \"#utility.yul\":621:684   */\n    tag_156:\n        /* \"#utility.yul\":568:690   */\n      pop\n      jump\t// out\n        /* \"#utility.yul\":696:835   */\n    tag_120:\n        /* \"#utility.yul\":742:747   */\n      0x00\n        /* \"#utility.yul\":780:786   */\n      dup2\n        /* \"#utility.yul\":767:787   */\n      calldataload\n        /* \"#utility.yul\":758:787   */\n      swap1\n      pop\n        /* \"#utility.yul\":796:829   */\n      tag_158\n        /* \"#utility.yul\":823:828   */\n      dup2\n        /* \"#utility.yul\":796:829   */\n      tag_119\n      jump\t// in\n    tag_158:\n        /* \"#utility.yul\":696:835   */\n      swap3\n      swap2\n      pop\n      pop\n      jump\t// out\n        /* \"#utility.yul\":841:1170   */\n    tag_14:\n        /* \"#utility.yul\":900:906   */\n      0x00\n        /* \"#utility.yul\":949:951   */\n      0x20\n        /* \"#utility.yul\":937:946   */\n      dup3\n        /* \"#utility.yul\":928:935   */\n      dup5\n        /* \"#utility.yul\":924:947   */\n      sub\n        /* \"#utility.yul\":920:952   */\n      slt\n        /* \"#utility.yul\":917:1036   */\n      iszero\n      tag_160\n      jumpi\n        /* \"#utility.yul\":955:1034   */\n      tag_161\n      tag_115\n      jump\t// in\n    tag_161:\n        /* \"#utility.yul\":917:1036   */\n    tag_160:\n        /* \"#utility.yul\":1075:1076   */\n      0x00\n        /* \"#utility.yul\":1100:1153   */\n      tag_162\n        /* \"#utility.yul\":1145:1152   */\n      dup5\n        /* \"#utility.yul\":1136:1142   */\n      dup3\n        /* \"#utility.yul\":1125:1134   */\n      dup6\n        /* \"#utility.yul\":1121:1143   */\n      add\n        /* \"#utility.yul\":1100:1153   */\n      tag_120\n      jump\t// in\n    tag_162:\n        /* \"#utility.yul\":1090:1153   */\n      swap2\n      pop\n        /* \"#utility.yul\":1046:1163   */\n      pop\n        /* \"#utility.yul\":841:1170   */\n      swap3\n      swap2\n      pop\n      pop\n      jump\t// out\n        /* \"#utility.yul\":1176:1266   */\n    tag_121:\n        /* \"#utility.yul\":1210:1217   */\n      0x00\n        /* \"#utility.yul\":1253:1258   */\n      dup2\n        /* \"#utility.yul\":1246:1259   */\n      iszero\n        /* \"#utility.yul\":1239:1260   */\n      iszero\n        /* \"#utility.yul\":1228:1260   */\n      swap1\n      pop\n        /* \"#utility.yul\":1176:1266   */\n      swap2\n      swap1\n      pop\n      jump\t// out\n        /* \"#utility.yul\":1272:1381   */\n    tag_122:\n        /* \"#utility.yul\":1353:1374   */\n      tag_165\n        /* \"#utility.yul\":1368:1373   */\n      dup2\n        /* \"#utility.yul\":1353:1374   */\n      tag_121\n      jump\t// in\n    tag_165:\n        /* \"#utility.yul\":1348:1351   */\n      dup3\n        /* \"#utility.yul\":1341:1375   */\n      mstore\n        /* \"#utility.yul\":1272:1381   */\n      pop\n      pop\n      jump\t// out\n        /* \"#utility.yul\":1387:1597   */\n    tag_17:\n        /* \"#utility.yul\":1474:1478   */\n      0x00\n        /* \"#utility.yul\":1512:1514   */\n      0x20\n        /* \"#utility.yul\":1501:1510   */\n      dup3\n        /* \"#utility.yul\":1497:1515   */\n      add\n        /* \"#utility.yul\":1489:1515   */\n      swap1\n      pop\n        /* \"#utility.yul\":1525:1590   */\n      tag_167\n        /* \"#utility.yul\":1587:1588   */\n      0x00\n        /* \"#utility.yul\":1576:1585   */\n      dup4\n        /* \"#utility.yul\":1572:1589   */\n      add\n        /* \"#utility.yul\":1563:1569   */\n      dup5\n        /* \"#utility.yul\":1525:1590   */\n      tag_122\n      jump\t// in\n    tag_167:\n        /* \"#utility.yul\":1387:1597   */\n      swap3\n      swap2\n      pop\n      pop\n      jump\t// out\n        /* \"#utility.yul\":1603:1680   */\n    tag_123:\n        /* \"#utility.yul\":1640:1647   */\n      0x00\n        /* \"#utility.yul\":1669:1674   */\n      dup2\n        /* \"#utility.yul\":1658:1674   */\n      swap1\n      pop\n        /* \"#utility.yul\":1603:1680   */\n      swap2\n      swap1\n      pop\n      jump\t// out\n        /* \"#utility.yul\":1686:1808   */\n    tag_124:\n        /* \"#utility.yul\":1759:1783   */\n      tag_170\n        /* \"#utility.yul\":1777:1782   */\n      dup2\n        /* \"#utility.yul\":1759:1783   */\n      tag_123\n      jump\t// in\n    tag_170:\n        /* \"#utility.yul\":1752:1757   */\n      dup2\n        /* \"#utility.yul\":1749:1784   */\n      eq\n        /* \"#utility.yul\":1739:1802   */\n      tag_171\n      jumpi\n        /* \"#utility.yul\":1798:1799   */\n      0x00\n        /* \"#utility.yul\":1795:1796   */\n      0x00\n        /* \"#utility.yul\":1788:1800   */\n      revert\n        /* \"#utility.yul\":1739:1802   */\n    tag_171:\n        /* \"#utility.yul\":1686:1808   */\n      pop\n      jump\t// out\n        /* \"#utility.yul\":1814:1953   */\n    tag_125:\n        /* \"#utility.yul\":1860:1865   */\n      0x00\n        /* \"#utility.yul\":1898:1904   */\n      dup2\n        /* \"#utility.yul\":1885:1905   */\n      calldataload\n        /* \"#utility.yul\":1876:1905   */\n      swap1\n      pop\n        /* \"#utility.yul\":1914:1947   */\n      tag_173\n        /* \"#utility.yul\":1941:1946   */\n      dup2\n        /* \"#utility.yul\":1914:1947   */\n      tag_124\n      jump\t// in\n    tag_173:\n        /* \"#utility.yul\":1814:1953   */\n      swap3\n      swap2\n      pop\n      pop\n      jump\t// out\n        /* \"#utility.yul\":1959:2288   */\n    tag_22:\n        /* \"#utility.yul\":2018:2024   */\n      0x00\n        /* \"#utility.yul\":2067:2069   */\n      0x20\n        /* \"#utility.yul\":2055:2064   */\n      dup3\n        /* \"#utility.yul\":2046:2053   */\n      dup5\n        /* \"#utility.yul\":2042:2065   */\n      sub\n        /* \"#utility.yul\":2038:2070   */\n      slt\n        /* \"#utility.yul\":2035:2154   */\n      iszero\n      tag_175\n      jumpi\n        /* \"#utility.yul\":2073:2152   */\n      tag_176\n      tag_115\n      jump\t// in\n    tag_176:\n        /* \"#utility.yul\":2035:2154   */\n    tag_175:\n        /* \"#utility.yul\":2193:2194   */\n      0x00\n        /* \"#utility.yul\":2218:2271   */\n      tag_177\n        /* \"#utility.yul\":2263:2270   */\n      dup5\n        /* \"#utility.yul\":2254:2260   */\n      dup3\n        /* \"#utility.yul\":2243:2252   */\n      dup6\n        /* \"#utility.yul\":2239:2261   */\n      add\n        /* \"#utility.yul\":2218:2271   */\n      tag_125\n      jump\t// in\n    tag_177:\n        /* \"#utility.yul\":2208:2271   */\n      swap2\n      pop\n        /* \"#utility.yul\":2164:2281   */\n      pop\n        /* \"#utility.yul\":1959:2288   */\n      swap3\n      swap2\n      pop\n      pop\n      jump\t// out\n        /* \"#utility.yul\":2294:2412   */\n    tag_126:\n        /* \"#utility.yul\":2381:2405   */\n      tag_179\n        /* \"#utility.yul\":2399:2404   */\n      dup2\n        /* \"#utility.yul\":2381:2405   */\n      tag_118\n      jump\t// in\n    tag_179:\n        /* \"#utility.yul\":2376:2379   */\n      dup3\n        /* \"#utility.yul\":2369:2406   */\n      mstore\n        /* \"#utility.yul\":2294:2412   */\n      pop\n      pop\n      jump\t// out\n        /* \"#utility.yul\":2418:2640   */\n    tag_25:\n        /* \"#utility.yul\":2511:2515   */\n      0x00\n        /* \"#utility.yul\":2549:2551   */\n      0x20\n        /* \"#utility.yul\":2538:2547   */\n      dup3\n        /* \"#utility.yul\":2534:2552   */\n      add\n        /* \"#utility.yul\":2526:2552   */\n      swap1\n      pop\n        /* \"#utility.yul\":2562:2633   */\n      tag_181\n        /* \"#utility.yul\":2630:2631   */\n      0x00\n        /* \"#utility.yul\":2619:2628   */\n      dup4\n        /* \"#utility.yul\":2615:2632   */\n      add\n        /* \"#utility.yul\":2606:2612   */\n      dup5\n        /* \"#utility.yul\":2562:2633   */\n      tag_126\n      jump\t// in\n    tag_181:\n        /* \"#utility.yul\":2418:2640   */\n      swap3\n      swap2\n      pop\n      pop\n      jump\t// out\n        /* \"#utility.yul\":2646:2764   */\n    tag_127:\n        /* \"#utility.yul\":2733:2757   */\n      tag_183\n        /* \"#utility.yul\":2751:2756   */\n      dup2\n        /* \"#utility.yul\":2733:2757   */\n      tag_123\n      jump\t// in\n    tag_183:\n        /* \"#utility.yul\":2728:2731   */\n      dup3\n        /* \"#utility.yul\":2721:2758   */\n      mstore\n        /* \"#utility.yul\":2646:2764   */\n      pop\n      pop\n      jump\t// out\n        /* \"#utility.yul\":2770:3090   */\n    tag_30:\n        /* \"#utility.yul\":2885:2889   */\n      0x00\n        /* \"#utility.yul\":2923:2925   */\n      0x40\n        /* \"#utility.yul\":2912:2921   */\n      dup3\n        /* \"#utility.yul\":2908:2926   */\n      add\n        /* \"#utility.yul\":2900:2926   */\n      swap1\n      pop\n        /* \"#utility.yul\":2936:3001   */\n      tag_185\n        /* \"#utility.yul\":2998:2999   */\n      0x00\n        /* \"#utility.yul\":2987:2996   */\n      dup4\n        /* \"#utility.yul\":2983:3000   */\n      add\n        /* \"#utility.yul\":2974:2980   */\n      dup6\n        /* \"#utility.yul\":2936:3001   */\n      tag_122\n      jump\t// in\n    tag_185:\n        /* \"#utility.yul\":3011:3083   */\n      tag_186\n        /* \"#utility.yul\":3079:3081   */\n      0x20\n        /* \"#utility.yul\":3068:3077   */\n      dup4\n        /* \"#utility.yul\":3064:3082   */\n      add\n        /* \"#utility.yul\":3055:3061   */\n      dup5\n        /* \"#utility.yul\":3011:3083   */\n      tag_127\n      jump\t// in\n    tag_186:\n        /* \"#utility.yul\":2770:3090   */\n      swap4\n      swap3\n      pop\n      pop\n      pop\n      jump\t// out\n        /* \"#utility.yul\":3096:3715   */\n    tag_33:\n        /* \"#utility.yul\":3173:3179   */\n      0x00\n        /* \"#utility.yul\":3181:3187   */\n      0x00\n        /* \"#utility.yul\":3189:3195   */\n      0x00\n        /* \"#utility.yul\":3238:3240   */\n      0x60\n        /* \"#utility.yul\":3226:3235   */\n      dup5\n        /* \"#utility.yul\":3217:3224   */\n      dup7\n        /* \"#utility.yul\":3213:3236   */\n      sub\n        /* \"#utility.yul\":3209:3241   */\n      slt\n        /* \"#utility.yul\":3206:3325   */\n      iszero\n      tag_188\n      jumpi\n        /* \"#utility.yul\":3244:3323   */\n      tag_189\n      tag_115\n      jump\t// in\n    tag_189:\n        /* \"#utility.yul\":3206:3325   */\n    tag_188:\n        /* \"#utility.yul\":3364:3365   */\n      0x00\n        /* \"#utility.yul\":3389:3442   */\n      tag_190\n        /* \"#utility.yul\":3434:3441   */\n      dup7\n        /* \"#utility.yul\":3425:3431   */\n      dup3\n        /* \"#utility.yul\":3414:3423   */\n      dup8\n        /* \"#utility.yul\":3410:3432   */\n      add\n        /* \"#utility.yul\":3389:3442   */\n      tag_120\n      jump\t// in\n    tag_190:\n        /* \"#utility.yul\":3379:3442   */\n      swap4\n      pop\n        /* \"#utility.yul\":3335:3452   */\n      pop\n        /* \"#utility.yul\":3491:3493   */\n      0x20\n        /* \"#utility.yul\":3517:3570   */\n      tag_191\n        /* \"#utility.yul\":3562:3569   */\n      dup7\n        /* \"#utility.yul\":3553:3559   */\n      dup3\n        /* \"#utility.yul\":3542:3551   */\n      dup8\n        /* \"#utility.yul\":3538:3560   */\n      add\n        /* \"#utility.yul\":3517:3570   */\n      tag_120\n      jump\t// in\n    tag_191:\n        /* \"#utility.yul\":3507:3570   */\n      swap3\n      pop\n        /* \"#utility.yul\":3462:3580   */\n      pop\n        /* \"#utility.yul\":3619:3621   */\n      0x40\n        /* \"#utility.yul\":3645:3698   */\n      tag_192\n        /* \"#utility.yul\":3690:3697   */\n      dup7\n        /* \"#utility.yul\":3681:3687   */\n      dup3\n        /* \"#utility.yul\":3670:3679   */\n      dup8\n        /* \"#utility.yul\":3666:3688   */\n      add\n        /* \"#utility.yul\":3645:3698   */\n      tag_125\n      jump\t// in\n    tag_192:\n        /* \"#utility.yul\":3635:3698   */\n      swap2\n      pop\n        /* \"#utility.yul\":3590:3708   */\n      pop\n        /* \"#utility.yul\":3096:3715   */\n      swap3\n      pop\n      swap3\n      pop\n      swap3\n      jump\t// out\n        /* \"#utility.yul\":3721:3781   */\n    tag_128:\n        /* \"#utility.yul\":3749:3752   */\n      0x00\n        /* \"#utility.yul\":3770:3775   */\n      dup2\n        /* \"#utility.yul\":3763:3775   */\n      swap1\n      pop\n        /* \"#utility.yul\":3721:3781   */\n      swap2\n      swap1\n      pop\n      jump\t// out\n        /* \"#utility.yul\":3787:3929   */\n    tag_129:\n        /* \"#utility.yul\":3837:3846   */\n      0x00\n        /* \"#utility.yul\":3870:3923   */\n      tag_195\n        /* \"#utility.yul\":3888:3922   */\n      tag_196\n        /* \"#utility.yul\":3897:3921   */\n      tag_197\n        /* \"#utility.yul\":3915:3920   */\n      dup5\n        /* \"#utility.yul\":3897:3921   */\n      tag_117\n      jump\t// in\n    tag_197:\n        /* \"#utility.yul\":3888:3922   */\n      tag_128\n      jump\t// in\n    tag_196:\n        /* \"#utility.yul\":3870:3923   */\n      tag_117\n      jump\t// in\n    tag_195:\n        /* \"#utility.yul\":3857:3923   */\n      swap1\n      pop\n        /* \"#utility.yul\":3787:3929   */\n      swap2\n      swap1\n      pop\n      jump\t// out\n        /* \"#utility.yul\":3935:4061   */\n    tag_130:\n        /* \"#utility.yul\":3985:3994   */\n      0x00\n        /* \"#utility.yul\":4018:4055   */\n      tag_199\n        /* \"#utility.yul\":4049:4054   */\n      dup3\n        /* \"#utility.yul\":4018:4055   */\n      tag_129\n      jump\t// in\n    tag_199:\n        /* \"#utility.yul\":4005:4055   */\n      swap1\n      pop\n        /* \"#utility.yul\":3935:4061   */\n      swap2\n      swap1\n      pop\n      jump\t// out\n        /* \"#utility.yul\":4067:4213   */\n    tag_131:\n        /* \"#utility.yul\":4137:4146   */\n      0x00\n        /* \"#utility.yul\":4170:4207   */\n      tag_201\n        /* \"#utility.yul\":4201:4206   */\n      dup3\n        /* \"#utility.yul\":4170:4207   */\n      tag_130\n      jump\t// in\n    tag_201:\n        /* \"#utility.yul\":4157:4207   */\n      swap1\n      pop\n        /* \"#utility.yul\":4067:4213   */\n      swap2\n      swap1\n      pop\n      jump\t// out\n        /* \"#utility.yul\":4219:4390   */\n    tag_132:\n        /* \"#utility.yul\":4326:4383   */\n      tag_203\n        /* \"#utility.yul\":4377:4382   */\n      dup2\n        /* \"#utility.yul\":4326:4383   */\n      tag_131\n      jump\t// in\n    tag_203:\n        /* \"#utility.yul\":4321:4324   */\n      dup3\n        /* \"#utility.yul\":4314:4384   */\n      mstore\n        /* \"#utility.yul\":4219:4390   */\n      pop\n      pop\n      jump\t// out\n        /* \"#utility.yul\":4396:4658   */\n    tag_44:\n        /* \"#utility.yul\":4509:4513   */\n      0x00\n        /* \"#utility.yul\":4547:4549   */\n      0x20\n        /* \"#utility.yul\":4536:4545   */\n      dup3\n        /* \"#utility.yul\":4532:4550   */\n      add\n        /* \"#utility.yul\":4524:4550   */\n      swap1\n      pop\n        /* \"#utility.yul\":4560:4651   */\n      tag_205\n        /* \"#utility.yul\":4648:4649   */\n      0x00\n        /* \"#utility.yul\":4637:4646   */\n      dup4\n        /* \"#utility.yul\":4633:4650   */\n      add\n        /* \"#utility.yul\":4624:4630   */\n      dup5\n        /* \"#utility.yul\":4560:4651   */\n      tag_132\n      jump\t// in\n    tag_205:\n        /* \"#utility.yul\":4396:4658   */\n      swap3\n      swap2\n      pop\n      pop\n      jump\t// out\n        /* \"#utility.yul\":4664:4833   */\n    tag_133:\n        /* \"#utility.yul\":4748:4759   */\n      0x00\n        /* \"#utility.yul\":4782:4788   */\n      dup3\n        /* \"#utility.yul\":4777:4780   */\n      dup3\n        /* \"#utility.yul\":4770:4789   */\n      mstore\n        /* \"#utility.yul\":4822:4826   */\n      0x20\n        /* \"#utility.yul\":4817:4820   */\n      dup3\n        /* \"#utility.yul\":4813:4827   */\n      add\n        /* \"#utility.yul\":4798:4827   */\n      swap1\n      pop\n        /* \"#utility.yul\":4664:4833   */\n      swap3\n      swap2\n      pop\n      pop\n      jump\t// out\n        /* \"#utility.yul\":4839:5067   */\n    tag_134:\n        /* \"#utility.yul\":4979:5013   */\n      0x456c2070726f706965746172696f206e6f20707565646520657374617220656e\n        /* \"#utility.yul\":4975:4976   */\n      0x00\n        /* \"#utility.yul\":4967:4973   */\n      dup3\n        /* \"#utility.yul\":4963:4977   */\n      add\n        /* \"#utility.yul\":4956:5014   */\n      mstore\n        /* \"#utility.yul\":5048:5059   */\n      0x206c61206c697374610000000000000000000000000000000000000000000000\n        /* \"#utility.yul\":5043:5045   */\n      0x20\n        /* \"#utility.yul\":5035:5041   */\n      dup3\n        /* \"#utility.yul\":5031:5046   */\n      add\n        /* \"#utility.yul\":5024:5060   */\n      mstore\n        /* \"#utility.yul\":4839:5067   */\n      pop\n      jump\t// out\n        /* \"#utility.yul\":5073:5439   */\n    tag_135:\n        /* \"#utility.yul\":5215:5218   */\n      0x00\n        /* \"#utility.yul\":5236:5303   */\n      tag_209\n        /* \"#utility.yul\":5300:5302   */\n      0x29\n        /* \"#utility.yul\":5295:5298   */\n      dup4\n        /* \"#utility.yul\":5236:5303   */\n      tag_133\n      jump\t// in\n    tag_209:\n        /* \"#utility.yul\":5229:5303   */\n      swap2\n      pop\n        /* \"#utility.yul\":5312:5405   */\n      tag_210\n        /* \"#utility.yul\":5401:5404   */\n      dup3\n        /* \"#utility.yul\":5312:5405   */\n      tag_134\n      jump\t// in\n    tag_210:\n        /* \"#utility.yul\":5430:5432   */\n      0x40\n        /* \"#utility.yul\":5425:5428   */\n      dup3\n        /* \"#utility.yul\":5421:5433   */\n      add\n        /* \"#utility.yul\":5414:5433   */\n      swap1\n      pop\n        /* \"#utility.yul\":5073:5439   */\n      swap2\n      swap1\n      pop\n      jump\t// out\n        /* \"#utility.yul\":5445:5864   */\n    tag_48:\n        /* \"#utility.yul\":5611:5615   */\n      0x00\n        /* \"#utility.yul\":5649:5651   */\n      0x20\n        /* \"#utility.yul\":5638:5647   */\n      dup3\n        /* \"#utility.yul\":5634:5652   */\n      add\n        /* \"#utility.yul\":5626:5652   */\n      swap1\n      pop\n        /* \"#utility.yul\":5698:5707   */\n      dup2\n        /* \"#utility.yul\":5692:5696   */\n      dup2\n        /* \"#utility.yul\":5688:5708   */\n      sub\n        /* \"#utility.yul\":5684:5685   */\n      0x00\n        /* \"#utility.yul\":5673:5682   */\n      dup4\n        /* \"#utility.yul\":5669:5686   */\n      add\n        /* \"#utility.yul\":5662:5709   */\n      mstore\n        /* \"#utility.yul\":5726:5857   */\n      tag_212\n        /* \"#utility.yul\":5852:5856   */\n      dup2\n        /* \"#utility.yul\":5726:5857   */\n      tag_135\n      jump\t// in\n    tag_212:\n        /* \"#utility.yul\":5718:5857   */\n      swap1\n      pop\n        /* \"#utility.yul\":5445:5864   */\n      swap2\n      swap1\n      pop\n      jump\t// out\n        /* \"#utility.yul\":5870:6050   */\n    tag_54:\n        /* \"#utility.yul\":5918:5995   */\n      0x4e487b7100000000000000000000000000000000000000000000000000000000\n        /* \"#utility.yul\":5915:5916   */\n      0x00\n        /* \"#utility.yul\":5908:5996   */\n      mstore\n        /* \"#utility.yul\":6015:6019   */\n      0x32\n        /* \"#utility.yul\":6012:6013   */\n      0x04\n        /* \"#utility.yul\":6005:6020   */\n      mstore\n        /* \"#utility.yul\":6039:6043   */\n      0x24\n        /* \"#utility.yul\":6036:6037   */\n      0x00\n        /* \"#utility.yul\":6029:6044   */\n      revert\n        /* \"#utility.yul\":6056:6223   */\n    tag_136:\n        /* \"#utility.yul\":6196:6215   */\n      0x596120657374617320696e73637269746f000000000000000000000000000000\n        /* \"#utility.yul\":6192:6193   */\n      0x00\n        /* \"#utility.yul\":6184:6190   */\n      dup3\n        /* \"#utility.yul\":6180:6194   */\n      add\n        /* \"#utility.yul\":6173:6216   */\n      mstore\n        /* \"#utility.yul\":6056:6223   */\n      pop\n      jump\t// out\n        /* \"#utility.yul\":6229:6595   */\n    tag_137:\n        /* \"#utility.yul\":6371:6374   */\n      0x00\n        /* \"#utility.yul\":6392:6459   */\n      tag_216\n        /* \"#utility.yul\":6456:6458   */\n      0x11\n        /* \"#utility.yul\":6451:6454   */\n      dup4\n        /* \"#utility.yul\":6392:6459   */\n      tag_133\n      jump\t// in\n    tag_216:\n        /* \"#utility.yul\":6385:6459   */\n      swap2\n      pop\n        /* \"#utility.yul\":6468:6561   */\n      tag_217\n        /* \"#utility.yul\":6557:6560   */\n      dup3\n        /* \"#utility.yul\":6468:6561   */\n      tag_136\n      jump\t// in\n    tag_217:\n        /* \"#utility.yul\":6586:6588   */\n      0x20\n        /* \"#utility.yul\":6581:6584   */\n      dup3\n        /* \"#utility.yul\":6577:6589   */\n      add\n        /* \"#utility.yul\":6570:6589   */\n      swap1\n      pop\n        /* \"#utility.yul\":6229:6595   */\n      swap2\n      swap1\n      pop\n      jump\t// out\n        /* \"#utility.yul\":6601:7020   */\n    tag_65:\n        /* \"#utility.yul\":6767:6771   */\n      0x00\n        /* \"#utility.yul\":6805:6807   */\n      0x20\n        /* \"#utility.yul\":6794:6803   */\n      dup3\n        /* \"#utility.yul\":6790:6808   */\n      add\n        /* \"#utility.yul\":6782:6808   */\n      swap1\n      pop\n        /* \"#utility.yul\":6854:6863   */\n      dup2\n        /* \"#utility.yul\":6848:6852   */\n      dup2\n        /* \"#utility.yul\":6844:6864   */\n      sub\n        /* \"#utility.yul\":6840:6841   */\n      0x00\n        /* \"#utility.yul\":6829:6838   */\n      dup4\n        /* \"#utility.yul\":6825:6842   */\n      add\n        /* \"#utility.yul\":6818:6865   */\n      mstore\n        /* \"#utility.yul\":6882:7013   */\n      tag_219\n        /* \"#utility.yul\":7008:7012   */\n      dup2\n        /* \"#utility.yul\":6882:7013   */\n      tag_137\n      jump\t// in\n    tag_219:\n        /* \"#utility.yul\":6874:7013   */\n      swap1\n      pop\n        /* \"#utility.yul\":6601:7020   */\n      swap2\n      swap1\n      pop\n      jump\t// out\n        /* \"#utility.yul\":7026:7111   */\n    tag_138:\n        /* \"#utility.yul\":7071:7078   */\n      0x00\n        /* \"#utility.yul\":7100:7105   */\n      dup2\n        /* \"#utility.yul\":7089:7105   */\n      swap1\n      pop\n        /* \"#utility.yul\":7026:7111   */\n      swap2\n      swap1\n      pop\n      jump\t// out\n        /* \"#utility.yul\":7117:7275   */\n    tag_139:\n        /* \"#utility.yul\":7175:7184   */\n      0x00\n        /* \"#utility.yul\":7208:7269   */\n      tag_222\n        /* \"#utility.yul\":7226:7268   */\n      tag_223\n        /* \"#utility.yul\":7235:7267   */\n      tag_224\n        /* \"#utility.yul\":7261:7266   */\n      dup5\n        /* \"#utility.yul\":7235:7267   */\n      tag_138\n      jump\t// in\n    tag_224:\n        /* \"#utility.yul\":7226:7268   */\n      tag_128\n      jump\t// in\n    tag_223:\n        /* \"#utility.yul\":7208:7269   */\n      tag_123\n      jump\t// in\n    tag_222:\n        /* \"#utility.yul\":7195:7269   */\n      swap1\n      pop\n        /* \"#utility.yul\":7117:7275   */\n      swap2\n      swap1\n      pop\n      jump\t// out\n        /* \"#utility.yul\":7281:7428   */\n    tag_140:\n        /* \"#utility.yul\":7376:7421   */\n      tag_226\n        /* \"#utility.yul\":7415:7420   */\n      dup2\n        /* \"#utility.yul\":7376:7421   */\n      tag_139\n      jump\t// in\n    tag_226:\n        /* \"#utility.yul\":7371:7374   */\n      dup3\n        /* \"#utility.yul\":7364:7422   */\n      mstore\n        /* \"#utility.yul\":7281:7428   */\n      pop\n      pop\n      jump\t// out\n        /* \"#utility.yul\":7434:7782   */\n    tag_68:\n        /* \"#utility.yul\":7563:7567   */\n      0x00\n        /* \"#utility.yul\":7601:7603   */\n      0x40\n        /* \"#utility.yul\":7590:7599   */\n      dup3\n        /* \"#utility.yul\":7586:7604   */\n      add\n        /* \"#utility.yul\":7578:7604   */\n      swap1\n      pop\n        /* \"#utility.yul\":7614:7685   */\n      tag_228\n        /* \"#utility.yul\":7682:7683   */\n      0x00\n        /* \"#utility.yul\":7671:7680   */\n      dup4\n        /* \"#utility.yul\":7667:7684   */\n      add\n        /* \"#utility.yul\":7658:7664   */\n      dup6\n        /* \"#utility.yul\":7614:7685   */\n      tag_126\n      jump\t// in\n    tag_228:\n        /* \"#utility.yul\":7695:7775   */\n      tag_229\n        /* \"#utility.yul\":7771:7773   */\n      0x20\n        /* \"#utility.yul\":7760:7769   */\n      dup4\n        /* \"#utility.yul\":7756:7774   */\n      add\n        /* \"#utility.yul\":7747:7753   */\n      dup5\n        /* \"#utility.yul\":7695:7775   */\n      tag_140\n      jump\t// in\n    tag_229:\n        /* \"#utility.yul\":7434:7782   */\n      swap4\n      swap3\n      pop\n      pop\n      pop\n      jump\t// out\n        /* \"#utility.yul\":7788:7904   */\n    tag_141:\n        /* \"#utility.yul\":7858:7879   */\n      tag_231\n        /* \"#utility.yul\":7873:7878   */\n      dup2\n        /* \"#utility.yul\":7858:7879   */\n      tag_121\n      jump\t// in\n    tag_231:\n        /* \"#utility.yul\":7851:7856   */\n      dup2\n        /* \"#utility.yul\":7848:7880   */\n      eq\n        /* \"#utility.yul\":7838:7898   */\n      tag_232\n      jumpi\n        /* \"#utility.yul\":7894:7895   */\n      0x00\n        /* \"#utility.yul\":7891:7892   */\n      0x00\n        /* \"#utility.yul\":7884:7896   */\n      revert\n        /* \"#utility.yul\":7838:7898   */\n    tag_232:\n        /* \"#utility.yul\":7788:7904   */\n      pop\n      jump\t// out\n        /* \"#utility.yul\":7910:8047   */\n    tag_142:\n        /* \"#utility.yul\":7964:7969   */\n      0x00\n        /* \"#utility.yul\":7995:8001   */\n      dup2\n        /* \"#utility.yul\":7989:8002   */\n      mload\n        /* \"#utility.yul\":7980:8002   */\n      swap1\n      pop\n        /* \"#utility.yul\":8011:8041   */\n      tag_234\n        /* \"#utility.yul\":8035:8040   */\n      dup2\n        /* \"#utility.yul\":8011:8041   */\n      tag_141\n      jump\t// in\n    tag_234:\n        /* \"#utility.yul\":7910:8047   */\n      swap3\n      swap2\n      pop\n      pop\n      jump\t// out\n        /* \"#utility.yul\":8053:8398   */\n    tag_72:\n        /* \"#utility.yul\":8120:8126   */\n      0x00\n        /* \"#utility.yul\":8169:8171   */\n      0x20\n        /* \"#utility.yul\":8157:8166   */\n      dup3\n        /* \"#utility.yul\":8148:8155   */\n      dup5\n        /* \"#utility.yul\":8144:8167   */\n      sub\n        /* \"#utility.yul\":8140:8172   */\n      slt\n        /* \"#utility.yul\":8137:8256   */\n      iszero\n      tag_236\n      jumpi\n        /* \"#utility.yul\":8175:8254   */\n      tag_237\n      tag_115\n      jump\t// in\n    tag_237:\n        /* \"#utility.yul\":8137:8256   */\n    tag_236:\n        /* \"#utility.yul\":8295:8296   */\n      0x00\n        /* \"#utility.yul\":8320:8381   */\n      tag_238\n        /* \"#utility.yul\":8373:8380   */\n      dup5\n        /* \"#utility.yul\":8364:8370   */\n      dup3\n        /* \"#utility.yul\":8353:8362   */\n      dup6\n        /* \"#utility.yul\":8349:8371   */\n      add\n        /* \"#utility.yul\":8320:8381   */\n      tag_142\n      jump\t// in\n    tag_238:\n        /* \"#utility.yul\":8310:8381   */\n      swap2\n      pop\n        /* \"#utility.yul\":8266:8391   */\n      pop\n        /* \"#utility.yul\":8053:8398   */\n      swap3\n      swap2\n      pop\n      pop\n      jump\t// out\n        /* \"#utility.yul\":8404:8584   */\n    tag_143:\n        /* \"#utility.yul\":8452:8529   */\n      0x4e487b7100000000000000000000000000000000000000000000000000000000\n        /* \"#utility.yul\":8449:8450   */\n      0x00\n        /* \"#utility.yul\":8442:8530   */\n      mstore\n        /* \"#utility.yul\":8549:8553   */\n      0x11\n        /* \"#utility.yul\":8546:8547   */\n      0x04\n        /* \"#utility.yul\":8539:8554   */\n      mstore\n        /* \"#utility.yul\":8573:8577   */\n      0x24\n        /* \"#utility.yul\":8570:8571   */\n      0x00\n        /* \"#utility.yul\":8563:8578   */\n      revert\n        /* \"#utility.yul\":8590:8823   */\n    tag_87:\n        /* \"#utility.yul\":8629:8632   */\n      0x00\n        /* \"#utility.yul\":8652:8676   */\n      tag_241\n        /* \"#utility.yul\":8670:8675   */\n      dup3\n        /* \"#utility.yul\":8652:8676   */\n      tag_123\n      jump\t// in\n    tag_241:\n        /* \"#utility.yul\":8643:8676   */\n      swap2\n      pop\n        /* \"#utility.yul\":8698:8764   */\n      0xffffffffffffffffffffffffffffffffffffffffffffffffffffffffffffffff\n        /* \"#utility.yul\":8691:8696   */\n      dup3\n        /* \"#utility.yul\":8688:8765   */\n      sub\n        /* \"#utility.yul\":8685:8788   */\n      tag_242\n      jumpi\n        /* \"#utility.yul\":8768:8786   */\n      tag_243\n      tag_143\n      jump\t// in\n    tag_243:\n        /* \"#utility.yul\":8685:8788   */\n    tag_242:\n        /* \"#utility.yul\":8815:8816   */\n      0x01\n        /* \"#utility.yul\":8808:8813   */\n      dup3\n        /* \"#utility.yul\":8804:8817   */\n      add\n        /* \"#utility.yul\":8797:8817   */\n      swap1\n      pop\n        /* \"#utility.yul\":8590:8823   */\n      swap2\n      swap1\n      pop\n      jump\t// out\n        /* \"#utility.yul\":8829:8972   */\n    tag_144:\n        /* \"#utility.yul\":8886:8891   */\n      0x00\n        /* \"#utility.yul\":8917:8923   */\n      dup2\n        /* \"#utility.yul\":8911:8924   */\n      mload\n        /* \"#utility.yul\":8902:8924   */\n      swap1\n      pop\n        /* \"#utility.yul\":8933:8966   */\n      tag_245\n        /* \"#utility.yul\":8960:8965   */\n      dup2\n        /* \"#utility.yul\":8933:8966   */\n      tag_124\n      jump\t// in\n    tag_245:\n        /* \"#utility.yul\":8829:8972   */\n      swap3\n      swap2\n      pop\n      pop\n      jump\t// out\n        /* \"#utility.yul\":8978:9329   */\n    tag_93:\n        /* \"#utility.yul\":9048:9054   */\n      0x00\n        /* \"#utility.yul\":9097:9099   */\n      0x20\n        /* \"#utility.yul\":9085:9094   */\n      dup3\n        /* \"#utility.yul\":9076:9083   */\n      dup5\n        /* \"#utility.yul\":9072:9095   */\n      sub\n        /* \"#utility.yul\":9068:9100   */\n      slt\n        /* \"#utility.yul\":9065:9184   */\n      iszero\n      tag_247\n      jumpi\n        /* \"#utility.yul\":9103:9182   */\n      tag_248\n      tag_115\n      jump\t// in\n    tag_248:\n        /* \"#utility.yul\":9065:9184   */\n    tag_247:\n        /* \"#utility.yul\":9223:9224   */\n      0x00\n        /* \"#utility.yul\":9248:9312   */\n      tag_249\n        /* \"#utility.yul\":9304:9311   */\n      dup5\n        /* \"#utility.yul\":9295:9301   */\n      dup3\n        /* \"#utility.yul\":9284:9293   */\n      dup6\n        /* \"#utility.yul\":9280:9302   */\n      add\n        /* \"#utility.yul\":9248:9312   */\n      tag_144\n      jump\t// in\n    tag_249:\n        /* \"#utility.yul\":9238:9312   */\n      swap2\n      pop\n        /* \"#utility.yul\":9194:9322   */\n      pop\n        /* \"#utility.yul\":8978:9329   */\n      swap3\n      swap2\n      pop\n      pop\n      jump\t// out\n        /* \"#utility.yul\":9335:9503   */\n    tag_145:\n        /* \"#utility.yul\":9475:9495   */\n      0x53616c646f20696e737566696369656e74650000000000000000000000000000\n        /* \"#utility.yul\":9471:9472   */\n      0x00\n        /* \"#utility.yul\":9463:9469   */\n      dup3\n        /* \"#utility.yul\":9459:9473   */\n      add\n        /* \"#utility.yul\":9452:9496   */\n      mstore\n        /* \"#utility.yul\":9335:9503   */\n      pop\n      jump\t// out\n        /* \"#utility.yul\":9509:9875   */\n    tag_146:\n        /* \"#utility.yul\":9651:9654   */\n      0x00\n        /* \"#utility.yul\":9672:9739   */\n      tag_252\n        /* \"#utility.yul\":9736:9738   */\n      0x12\n        /* \"#utility.yul\":9731:9734   */\n      dup4\n        /* \"#utility.yul\":9672:9739   */\n      tag_133\n      jump\t// in\n    tag_252:\n        /* \"#utility.yul\":9665:9739   */\n      swap2\n      pop\n        /* \"#utility.yul\":9748:9841   */\n      tag_253\n        /* \"#utility.yul\":9837:9840   */\n      dup3\n        /* \"#utility.yul\":9748:9841   */\n      tag_145\n      jump\t// in\n    tag_253:\n        /* \"#utility.yul\":9866:9868   */\n      0x20\n        /* \"#utility.yul\":9861:9864   */\n      dup3\n        /* \"#utility.yul\":9857:9869   */\n      add\n        /* \"#utility.yul\":9850:9869   */\n      swap1\n      pop\n        /* \"#utility.yul\":9509:9875   */\n      swap2\n      swap1\n      pop\n      jump\t// out\n        /* \"#utility.yul\":9881:10300   */\n    tag_96:\n        /* \"#utility.yul\":10047:10051   */\n      0x00\n        /* \"#utility.yul\":10085:10087   */\n      0x20\n        /* \"#utility.yul\":10074:10083   */\n      dup3\n        /* \"#utility.yul\":10070:10088   */\n      add\n        /* \"#utility.yul\":10062:10088   */\n      swap1\n      pop\n        /* \"#utility.yul\":10134:10143   */\n      dup2\n        /* \"#utility.yul\":10128:10132   */\n      dup2\n        /* \"#utility.yul\":10124:10144   */\n      sub\n        /* \"#utility.yul\":10120:10121   */\n      0x00\n        /* \"#utility.yul\":10109:10118   */\n      dup4\n        /* \"#utility.yul\":10105:10122   */\n      add\n        /* \"#utility.yul\":10098:10145   */\n      mstore\n        /* \"#utility.yul\":10162:10293   */\n      tag_255\n        /* \"#utility.yul\":10288:10292   */\n      dup2\n        /* \"#utility.yul\":10162:10293   */\n      tag_146\n      jump\t// in\n    tag_255:\n        /* \"#utility.yul\":10154:10293   */\n      swap1\n      pop\n        /* \"#utility.yul\":9881:10300   */\n      swap2\n      swap1\n      pop\n      jump\t// out\n        /* \"#utility.yul\":10306:10748   */\n    tag_98:\n        /* \"#utility.yul\":10455:10459   */\n      0x00\n        /* \"#utility.yul\":10493:10495   */\n      0x60\n        /* \"#utility.yul\":10482:10491   */\n      dup3\n        /* \"#utility.yul\":10478:10496   */\n      add\n        /* \"#utility.yul\":10470:10496   */\n      swap1\n      pop\n        /* \"#utility.yul\":10506:10577   */\n      tag_257\n        /* \"#utility.yul\":10574:10575   */\n      0x00\n        /* \"#utility.yul\":10563:10572   */\n      dup4\n        /* \"#utility.yul\":10559:10576   */\n      add\n        /* \"#utility.yul\":10550:10556   */\n      dup7\n        /* \"#utility.yul\":10506:10577   */\n      tag_126\n      jump\t// in\n    tag_257:\n        /* \"#utility.yul\":10587:10659   */\n      tag_258\n        /* \"#utility.yul\":10655:10657   */\n      0x20\n        /* \"#utility.yul\":10644:10653   */\n      dup4\n        /* \"#utility.yul\":10640:10658   */\n      add\n        /* \"#utility.yul\":10631:10637   */\n      dup6\n        /* \"#utility.yul\":10587:10659   */\n      tag_126\n      jump\t// in\n    tag_258:\n        /* \"#utility.yul\":10669:10741   */\n      tag_259\n        /* \"#utility.yul\":10737:10739   */\n      0x40\n        /* \"#utility.yul\":10726:10735   */\n      dup4\n        /* \"#utility.yul\":10722:10740   */\n      add\n        /* \"#utility.yul\":10713:10719   */\n      dup5\n        /* \"#utility.yul\":10669:10741   */\n      tag_127\n      jump\t// in\n    tag_259:\n        /* \"#utility.yul\":10306:10748   */\n      swap5\n      swap4\n      pop\n      pop\n      pop\n      pop\n      jump\t// out\n        /* \"#utility.yul\":10754:10945   */\n    tag_108:\n        /* \"#utility.yul\":10794:10797   */\n      0x00\n        /* \"#utility.yul\":10813:10833   */\n      tag_261\n        /* \"#utility.yul\":10831:10832   */\n      dup3\n        /* \"#utility.yul\":10813:10833   */\n      tag_123\n      jump\t// in\n    tag_261:\n        /* \"#utility.yul\":10808:10833   */\n      swap2\n      pop\n        /* \"#utility.yul\":10847:10867   */\n      tag_262\n        /* \"#utility.yul\":10865:10866   */\n      dup4\n        /* \"#utility.yul\":10847:10867   */\n      tag_123\n      jump\t// in\n    tag_262:\n        /* \"#utility.yul\":10842:10867   */\n      swap3\n      pop\n        /* \"#utility.yul\":10890:10891   */\n      dup3\n        /* \"#utility.yul\":10887:10888   */\n      dup3\n        /* \"#utility.yul\":10883:10892   */\n      add\n        /* \"#utility.yul\":10876:10892   */\n      swap1\n      pop\n        /* \"#utility.yul\":10911:10914   */\n      dup1\n        /* \"#utility.yul\":10908:10909   */\n      dup3\n        /* \"#utility.yul\":10905:10915   */\n      gt\n        /* \"#utility.yul\":10902:10938   */\n      iszero\n      tag_263\n      jumpi\n        /* \"#utility.yul\":10918:10936   */\n      tag_264\n      tag_143\n      jump\t// in\n    tag_264:\n        /* \"#utility.yul\":10902:10938   */\n    tag_263:\n        /* \"#utility.yul\":10754:10945   */\n      swap3\n      swap2\n      pop\n      pop\n      jump\t// out\n        /* \"#utility.yul\":10951:11283   */\n    tag_110:\n        /* \"#utility.yul\":11072:11076   */\n      0x00\n        /* \"#utility.yul\":11110:11112   */\n      0x40\n        /* \"#utility.yul\":11099:11108   */\n      dup3\n        /* \"#utility.yul\":11095:11113   */\n      add\n        /* \"#utility.yul\":11087:11113   */\n      swap1\n      pop\n        /* \"#utility.yul\":11123:11194   */\n      tag_266\n        /* \"#utility.yul\":11191:11192   */\n      0x00\n        /* \"#utility.yul\":11180:11189   */\n      dup4\n        /* \"#utility.yul\":11176:11193   */\n      add\n        /* \"#utility.yul\":11167:11173   */\n      dup6\n        /* \"#utility.yul\":11123:11194   */\n      tag_126\n      jump\t// in\n    tag_266:\n        /* \"#utility.yul\":11204:11276   */\n      tag_267\n        /* \"#utility.yul\":11272:11274   */\n      0x20\n        /* \"#utility.yul\":11261:11270   */\n      dup4\n        /* \"#utility.yul\":11257:11275   */\n      add\n        /* \"#utility.yul\":11248:11254   */\n      dup5\n        /* \"#utility.yul\":11204:11276   */\n      tag_127\n      jump\t// in\n    tag_267:\n        /* \"#utility.yul\":10951:11283   */\n      swap4\n      swap3\n      pop\n      pop\n      pop\n      jump\t// out\n\n    auxdata: 0xa2646970667358221220a2e3ae186e27afd866bb2e3ed47fe30a4375baf19ec5e76b173f69d89147268164736f6c634300081e0033\n}\n",
				"bytecode": {
					"linkReferences": {},
					"object": "608060405273f55301514c27489fde7c9cd9a3ea8044e7e045795f5f6101000a81548173ffffffffffffffffffffffffffffffffffffffff021916908373ffffffffffffffffffffffffffffffffffffffff160217905550348015610062575f5ffd5b5060405161111638038061111683398181016040528101906100849190610139565b8060015f6101000a81548173ffffffffffffffffffffffffffffffffffffffff021916908373ffffffffffffffffffffffffffffffffffffffff16021790555050610164565b5f5ffd5b5f73ffffffffffffffffffffffffffffffffffffffff82169050919050565b5f6100f7826100ce565b9050919050565b5f610108826100ed565b9050919050565b610118816100fe565b8114610122575f5ffd5b50565b5f815190506101338161010f565b92915050565b5f6020828403121561014e5761014d6100ca565b5b5f61015b84828501610125565b91505092915050565b610fa5806101715f395ff3fe608060405234801561000f575f5ffd5b5060043610610086575f3560e01c80638a75e7bd116100595780638a75e7bd146101255780638da5cb5b14610155578063f32360a014610173578063fc0c546a1461017d57610086565b80630469846b1461008a57806361722365146100ba578063787e5869146100c45780637a54f9d9146100f4575b5f5ffd5b6100a4600480360381019061009f91906109ff565b61019b565b6040516100b19190610a44565b60405180910390f35b6100c26102cb565b005b6100de60048036038101906100d99190610a90565b61050d565b6040516100eb9190610aca565b60405180910390f35b61010e600480360381019061010991906109ff565b610548565b60405161011c929190610af2565b60405180910390f35b61013f600480360381019061013a9190610b19565b610697565b60405161014c9190610a44565b60405180910390f35b61015d61081d565b60405161016a9190610aca565b60405180910390f35b61017b610841565b005b61018561097c565b6040516101929190610bc4565b60405180910390f35b5f5f5f9054906101000a900473ffffffffffffffffffffffffffffffffffffffff1673ffffffffffffffffffffffffffffffffffffffff168273ffffffffffffffffffffffffffffffffffffffff160361022a576040517f08c379a000000000000000000000000000000000000000000000000000000000815260040161022190610c5d565b60405180910390fd5b5f5f90505b6002805490508110156102c1578273ffffffffffffffffffffffffffffffffffffffff166002828154811061026757610266610c7b565b5b905f5260205f20015f9054906101000a900473ffffffffffffffffffffffffffffffffffffffff1673ffffffffffffffffffffffffffffffffffffffff16036102b45760019150506102c6565b808060010191505061022f565b505f90505b919050565b60035f9054906101000a900460ff16156102e3575f5ffd5b600160035f6101000a81548160ff0219169083151502179055505f5f9054906101000a900473ffffffffffffffffffffffffffffffffffffffff1673ffffffffffffffffffffffffffffffffffffffff163373ffffffffffffffffffffffffffffffffffffffff160361038b576040517f08c379a000000000000000000000000000000000000000000000000000000000815260040161038290610c5d565b60405180910390fd5b6103943361019b565b156103d4576040517f08c379a00000000000000000000000000000000000000000000000000000000081526004016103cb90610cf2565b60405180910390fd5b600233908060018154018082558091505060019003905f5260205f20015f9091909190916101000a81548173ffffffffffffffffffffffffffffffffffffffff021916908373ffffffffffffffffffffffffffffffffffffffff16021790555060015f9054906101000a900473ffffffffffffffffffffffffffffffffffffffff1673ffffffffffffffffffffffffffffffffffffffff1663a9059cbb5f5f9054906101000a900473ffffffffffffffffffffffffffffffffffffffff1660016040518363ffffffff1660e01b81526004016104b1929190610d49565b6020604051808303815f875af11580156104cd573d5f5f3e3d5ffd5b505050506040513d601f19601f820116820180604052508101906104f19190610d9a565b505f60035f6101000a81548160ff021916908315150217905550565b6002818154811061051c575f80fd5b905f5260205f20015f915054906101000a900473ffffffffffffffffffffffffffffffffffffffff1681565b5f5f5f5f9054906101000a900473ffffffffffffffffffffffffffffffffffffffff1673ffffffffffffffffffffffffffffffffffffffff168373ffffffffffffffffffffffffffffffffffffffff16036105d8576040517f08c379a00000000000000000000000000000000000000000000000000000000081526004016105cf90610c5d565b60405180910390fd5b5f5f90505f5f90505f5f90505b600280549050811080156105f7575081155b15610689578573ffffffffffffffffffffffffffffffffffffffff166002828154811061062757610626610c7b565b5b905f5260205f20015f9054906101000a900473ffffffffffffffffffffffffffffffffffffffff1673ffffffffffffffffffffffffffffffffffffffff16036106765780925060019150610689565b808061068190610df2565b9150506105e5565b508082935093505050915091565b5f8160015f9054906101000a900473ffffffffffffffffffffffffffffffffffffffff1673ffffffffffffffffffffffffffffffffffffffff166370a08231866040518263ffffffff1660e01b81526004016106f39190610aca565b602060405180830381865afa15801561070e573d5f5f3e3d5ffd5b505050506040513d601f19601f820116820180604052508101906107329190610e4d565b1015610773576040517f08c379a000000000000000000000000000000000000000000000000000000000815260040161076a90610ec2565b60405180910390fd5b60015f9054906101000a900473ffffffffffffffffffffffffffffffffffffffff1673ffffffffffffffffffffffffffffffffffffffff166323b872dd8585856040518463ffffffff1660e01b81526004016107d193929190610ee0565b6020604051808303815f875af11580156107ed573d5f5f3e3d5ffd5b505050506040513d601f19601f820116820180604052508101906108119190610d9a565b50600190509392505050565b5f5f9054906101000a900473ffffffffffffffffffffffffffffffffffffffff1681565b5f670de0b6b3a764000060015f9054906101000a900473ffffffffffffffffffffffffffffffffffffffff1673ffffffffffffffffffffffffffffffffffffffff166370a08231336040518263ffffffff1660e01b81526004016108a59190610aca565b602060405180830381865afa1580156108c0573d5f5f3e3d5ffd5b505050506040513d601f19601f820116820180604052508101906108e49190610e4d565b6108ee9190610f15565b905060015f9054906101000a900473ffffffffffffffffffffffffffffffffffffffff1673ffffffffffffffffffffffffffffffffffffffff166340c10f1933836040518363ffffffff1660e01b815260040161094c929190610f48565b5f604051808303815f87803b158015610963575f5ffd5b505af1158015610975573d5f5f3e3d5ffd5b5050505050565b60015f9054906101000a900473ffffffffffffffffffffffffffffffffffffffff1681565b5f5ffd5b5f73ffffffffffffffffffffffffffffffffffffffff82169050919050565b5f6109ce826109a5565b9050919050565b6109de816109c4565b81146109e8575f5ffd5b50565b5f813590506109f9816109d5565b92915050565b5f60208284031215610a1457610a136109a1565b5b5f610a21848285016109eb565b91505092915050565b5f8115159050919050565b610a3e81610a2a565b82525050565b5f602082019050610a575f830184610a35565b92915050565b5f819050919050565b610a6f81610a5d565b8114610a79575f5ffd5b50565b5f81359050610a8a81610a66565b92915050565b5f60208284031215610aa557610aa46109a1565b5b5f610ab284828501610a7c565b91505092915050565b610ac4816109c4565b82525050565b5f602082019050610add5f830184610abb565b92915050565b610aec81610a5d565b82525050565b5f604082019050610b055f830185610a35565b610b126020830184610ae3565b9392505050565b5f5f5f60608486031215610b3057610b2f6109a1565b5b5f610b3d868287016109eb565b9350506020610b4e868287016109eb565b9250506040610b5f86828701610a7c565b9150509250925092565b5f819050919050565b5f610b8c610b87610b82846109a5565b610b69565b6109a5565b9050919050565b5f610b9d82610b72565b9050919050565b5f610bae82610b93565b9050919050565b610bbe81610ba4565b82525050565b5f602082019050610bd75f830184610bb5565b92915050565b5f82825260208201905092915050565b7f456c2070726f706965746172696f206e6f20707565646520657374617220656e5f8201527f206c61206c697374610000000000000000000000000000000000000000000000602082015250565b5f610c47602983610bdd565b9150610c5282610bed565b604082019050919050565b5f6020820190508181035f830152610c7481610c3b565b9050919050565b7f4e487b71000000000000000000000000000000000000000000000000000000005f52603260045260245ffd5b7f596120657374617320696e73637269746f0000000000000000000000000000005f82015250565b5f610cdc601183610bdd565b9150610ce782610ca8565b602082019050919050565b5f6020820190508181035f830152610d0981610cd0565b9050919050565b5f819050919050565b5f610d33610d2e610d2984610d10565b610b69565b610a5d565b9050919050565b610d4381610d19565b82525050565b5f604082019050610d5c5f830185610abb565b610d696020830184610d3a565b9392505050565b610d7981610a2a565b8114610d83575f5ffd5b50565b5f81519050610d9481610d70565b92915050565b5f60208284031215610daf57610dae6109a1565b5b5f610dbc84828501610d86565b91505092915050565b7f4e487b71000000000000000000000000000000000000000000000000000000005f52601160045260245ffd5b5f610dfc82610a5d565b91507fffffffffffffffffffffffffffffffffffffffffffffffffffffffffffffffff8203610e2e57610e2d610dc5565b5b600182019050919050565b5f81519050610e4781610a66565b92915050565b5f60208284031215610e6257610e616109a1565b5b5f610e6f84828501610e39565b91505092915050565b7f53616c646f20696e737566696369656e746500000000000000000000000000005f82015250565b5f610eac601283610bdd565b9150610eb782610e78565b602082019050919050565b5f6020820190508181035f830152610ed981610ea0565b9050919050565b5f606082019050610ef35f830186610abb565b610f006020830185610abb565b610f0d6040830184610ae3565b949350505050565b5f610f1f82610a5d565b9150610f2a83610a5d565b9250828201905080821115610f4257610f41610dc5565b5b92915050565b5f604082019050610f5b5f830185610abb565b610f686020830184610ae3565b939250505056fea2646970667358221220a2e3ae186e27afd866bb2e3ed47fe30a4375baf19ec5e76b173f69d89147268164736f6c634300081e0033",
					"opcodes": "PUSH1 0x80 PUSH1 0x40 MSTORE PUSH20 0xF55301514C27489FDE7C9CD9A3EA8044E7E04579 PUSH0 PUSH0 PUSH2 0x100 EXP DUP2 SLOAD DUP2 PUSH20 0xFFFFFFFFFFFFFFFFFFFFFFFFFFFFFFFFFFFFFFFF MUL NOT AND SWAP1 DUP4 PUSH20 0xFFFFFFFFFFFFFFFFFFFFFFFFFFFFFFFFFFFFFFFF AND MUL OR SWAP1 SSTORE POP CALLVALUE DUP1 ISZERO PUSH2 0x62 JUMPI PUSH0 PUSH0 REVERT JUMPDEST POP PUSH1 0x40 MLOAD PUSH2 0x1116 CODESIZE SUB DUP1 PUSH2 0x1116 DUP4 CODECOPY DUP2 DUP2 ADD PUSH1 0x40 MSTORE DUP2 ADD SWAP1 PUSH2 0x84 SWAP2 SWAP1 PUSH2 0x139 JUMP JUMPDEST DUP1 PUSH1 0x1 PUSH0 PUSH2 0x100 EXP DUP2 SLOAD DUP2 PUSH20 0xFFFFFFFFFFFFFFFFFFFFFFFFFFFFFFFFFFFFFFFF MUL NOT AND SWAP1 DUP4 PUSH20 0xFFFFFFFFFFFFFFFFFFFFFFFFFFFFFFFFFFFFFFFF AND MUL OR SWAP1 SSTORE POP POP PUSH2 0x164 JUMP JUMPDEST PUSH0 PUSH0 REVERT JUMPDEST PUSH0 PUSH20 0xFFFFFFFFFFFFFFFFFFFFFFFFFFFFFFFFFFFFFFFF DUP3 AND SWAP1 POP SWAP2 SWAP1 POP JUMP JUMPDEST PUSH0 PUSH2 0xF7 DUP3 PUSH2 0xCE JUMP JUMPDEST SWAP1 POP SWAP2 SWAP1 POP JUMP JUMPDEST PUSH0 PUSH2 0x108 DUP3 PUSH2 0xED JUMP JUMPDEST SWAP1 POP SWAP2 SWAP1 POP JUMP JUMPDEST PUSH2 0x118 DUP2 PUSH2 0xFE JUMP JUMPDEST DUP2 EQ PUSH2 0x122 JUMPI PUSH0 PUSH0 REVERT JUMPDEST POP JUMP JUMPDEST PUSH0 DUP2 MLOAD SWAP1 POP PUSH2 0x133 DUP2 PUSH2 0x10F JUMP JUMPDEST SWAP3 SWAP2 POP POP JUMP JUMPDEST PUSH0 PUSH1 0x20 DUP3 DUP5 SUB SLT ISZERO PUSH2 0x14E JUMPI PUSH2 0x14D PUSH2 0xCA JUMP JUMPDEST JUMPDEST PUSH0 PUSH2 0x15B DUP5 DUP3 DUP6 ADD PUSH2 0x125 JUMP JUMPDEST SWAP2 POP POP SWAP3 SWAP2 POP POP JUMP JUMPDEST PUSH2 0xFA5 DUP1 PUSH2 0x171 PUSH0 CODECOPY PUSH0 RETURN INVALID PUSH1 0x80 PUSH1 0x40 MSTORE CALLVALUE DUP1 ISZERO PUSH2 0xF JUMPI PUSH0 PUSH0 REVERT JUMPDEST POP PUSH1 0x4 CALLDATASIZE LT PUSH2 0x86 JUMPI PUSH0 CALLDATALOAD PUSH1 0xE0 SHR DUP1 PUSH4 0x8A75E7BD GT PUSH2 0x59 JUMPI DUP1 PUSH4 0x8A75E7BD EQ PUSH2 0x125 JUMPI DUP1 PUSH4 0x8DA5CB5B EQ PUSH2 0x155 JUMPI DUP1 PUSH4 0xF32360A0 EQ PUSH2 0x173 JUMPI DUP1 PUSH4 0xFC0C546A EQ PUSH2 0x17D JUMPI PUSH2 0x86 JUMP JUMPDEST DUP1 PUSH4 0x469846B EQ PUSH2 0x8A JUMPI DUP1 PUSH4 0x61722365 EQ PUSH2 0xBA JUMPI DUP1 PUSH4 0x787E5869 EQ PUSH2 0xC4 JUMPI DUP1 PUSH4 0x7A54F9D9 EQ PUSH2 0xF4 JUMPI JUMPDEST PUSH0 PUSH0 REVERT JUMPDEST PUSH2 0xA4 PUSH1 0x4 DUP1 CALLDATASIZE SUB DUP2 ADD SWAP1 PUSH2 0x9F SWAP2 SWAP1 PUSH2 0x9FF JUMP JUMPDEST PUSH2 0x19B JUMP JUMPDEST PUSH1 0x40 MLOAD PUSH2 0xB1 SWAP2 SWAP1 PUSH2 0xA44 JUMP JUMPDEST PUSH1 0x40 MLOAD DUP1 SWAP2 SUB SWAP1 RETURN JUMPDEST PUSH2 0xC2 PUSH2 0x2CB JUMP JUMPDEST STOP JUMPDEST PUSH2 0xDE PUSH1 0x4 DUP1 CALLDATASIZE SUB DUP2 ADD SWAP1 PUSH2 0xD9 SWAP2 SWAP1 PUSH2 0xA90 JUMP JUMPDEST PUSH2 0x50D JUMP JUMPDEST PUSH1 0x40 MLOAD PUSH2 0xEB SWAP2 SWAP1 PUSH2 0xACA JUMP JUMPDEST PUSH1 0x40 MLOAD DUP1 SWAP2 SUB SWAP1 RETURN JUMPDEST PUSH2 0x10E PUSH1 0x4 DUP1 CALLDATASIZE SUB DUP2 ADD SWAP1 PUSH2 0x109 SWAP2 SWAP1 PUSH2 0x9FF JUMP JUMPDEST PUSH2 0x548 JUMP JUMPDEST PUSH1 0x40 MLOAD PUSH2 0x11C SWAP3 SWAP2 SWAP1 PUSH2 0xAF2 JUMP JUMPDEST PUSH1 0x40 MLOAD DUP1 SWAP2 SUB SWAP1 RETURN JUMPDEST PUSH2 0x13F PUSH1 0x4 DUP1 CALLDATASIZE SUB DUP2 ADD SWAP1 PUSH2 0x13A SWAP2 SWAP1 PUSH2 0xB19 JUMP JUMPDEST PUSH2 0x697 JUMP JUMPDEST PUSH1 0x40 MLOAD PUSH2 0x14C SWAP2 SWAP1 PUSH2 0xA44 JUMP JUMPDEST PUSH1 0x40 MLOAD DUP1 SWAP2 SUB SWAP1 RETURN JUMPDEST PUSH2 0x15D PUSH2 0x81D JUMP JUMPDEST PUSH1 0x40 MLOAD PUSH2 0x16A SWAP2 SWAP1 PUSH2 0xACA JUMP JUMPDEST PUSH1 0x40 MLOAD DUP1 SWAP2 SUB SWAP1 RETURN JUMPDEST PUSH2 0x17B PUSH2 0x841 JUMP JUMPDEST STOP JUMPDEST PUSH2 0x185 PUSH2 0x97C JUMP JUMPDEST PUSH1 0x40 MLOAD PUSH2 0x192 SWAP2 SWAP1 PUSH2 0xBC4 JUMP JUMPDEST PUSH1 0x40 MLOAD DUP1 SWAP2 SUB SWAP1 RETURN JUMPDEST PUSH0 PUSH0 PUSH0 SWAP1 SLOAD SWAP1 PUSH2 0x100 EXP SWAP1 DIV PUSH20 0xFFFFFFFFFFFFFFFFFFFFFFFFFFFFFFFFFFFFFFFF AND PUSH20 0xFFFFFFFFFFFFFFFFFFFFFFFFFFFFFFFFFFFFFFFF AND DUP3 PUSH20 0xFFFFFFFFFFFFFFFFFFFFFFFFFFFFFFFFFFFFFFFF AND SUB PUSH2 0x22A JUMPI PUSH1 0x40 MLOAD PUSH32 0x8C379A000000000000000000000000000000000000000000000000000000000 DUP2 MSTORE PUSH1 0x4 ADD PUSH2 0x221 SWAP1 PUSH2 0xC5D JUMP JUMPDEST PUSH1 0x40 MLOAD DUP1 SWAP2 SUB SWAP1 REVERT JUMPDEST PUSH0 PUSH0 SWAP1 POP JUMPDEST PUSH1 0x2 DUP1 SLOAD SWAP1 POP DUP2 LT ISZERO PUSH2 0x2C1 JUMPI DUP3 PUSH20 0xFFFFFFFFFFFFFFFFFFFFFFFFFFFFFFFFFFFFFFFF AND PUSH1 0x2 DUP3 DUP2 SLOAD DUP2 LT PUSH2 0x267 JUMPI PUSH2 0x266 PUSH2 0xC7B JUMP JUMPDEST JUMPDEST SWAP1 PUSH0 MSTORE PUSH1 0x20 PUSH0 KECCAK256 ADD PUSH0 SWAP1 SLOAD SWAP1 PUSH2 0x100 EXP SWAP1 DIV PUSH20 0xFFFFFFFFFFFFFFFFFFFFFFFFFFFFFFFFFFFFFFFF AND PUSH20 0xFFFFFFFFFFFFFFFFFFFFFFFFFFFFFFFFFFFFFFFF AND SUB PUSH2 0x2B4 JUMPI PUSH1 0x1 SWAP2 POP POP PUSH2 0x2C6 JUMP JUMPDEST DUP1 DUP1 PUSH1 0x1 ADD SWAP2 POP POP PUSH2 0x22F JUMP JUMPDEST POP PUSH0 SWAP1 POP JUMPDEST SWAP2 SWAP1 POP JUMP JUMPDEST PUSH1 0x3 PUSH0 SWAP1 SLOAD SWAP1 PUSH2 0x100 EXP SWAP1 DIV PUSH1 0xFF AND ISZERO PUSH2 0x2E3 JUMPI PUSH0 PUSH0 REVERT JUMPDEST PUSH1 0x1 PUSH1 0x3 PUSH0 PUSH2 0x100 EXP DUP2 SLOAD DUP2 PUSH1 0xFF MUL NOT AND SWAP1 DUP4 ISZERO ISZERO MUL OR SWAP1 SSTORE POP PUSH0 PUSH0 SWAP1 SLOAD SWAP1 PUSH2 0x100 EXP SWAP1 DIV PUSH20 0xFFFFFFFFFFFFFFFFFFFFFFFFFFFFFFFFFFFFFFFF AND PUSH20 0xFFFFFFFFFFFFFFFFFFFFFFFFFFFFFFFFFFFFFFFF AND CALLER PUSH20 0xFFFFFFFFFFFFFFFFFFFFFFFFFFFFFFFFFFFFFFFF AND SUB PUSH2 0x38B JUMPI PUSH1 0x40 MLOAD PUSH32 0x8C379A000000000000000000000000000000000000000000000000000000000 DUP2 MSTORE PUSH1 0x4 ADD PUSH2 0x382 SWAP1 PUSH2 0xC5D JUMP JUMPDEST PUSH1 0x40 MLOAD DUP1 SWAP2 SUB SWAP1 REVERT JUMPDEST PUSH2 0x394 CALLER PUSH2 0x19B JUMP JUMPDEST ISZERO PUSH2 0x3D4 JUMPI PUSH1 0x40 MLOAD PUSH32 0x8C379A000000000000000000000000000000000000000000000000000000000 DUP2 MSTORE PUSH1 0x4 ADD PUSH2 0x3CB SWAP1 PUSH2 0xCF2 JUMP JUMPDEST PUSH1 0x40 MLOAD DUP1 SWAP2 SUB SWAP1 REVERT JUMPDEST PUSH1 0x2 CALLER SWAP1 DUP1 PUSH1 0x1 DUP2 SLOAD ADD DUP1 DUP3 SSTORE DUP1 SWAP2 POP POP PUSH1 0x1 SWAP1 SUB SWAP1 PUSH0 MSTORE PUSH1 0x20 PUSH0 KECCAK256 ADD PUSH0 SWAP1 SWAP2 SWAP1 SWAP2 SWAP1 SWAP2 PUSH2 0x100 EXP DUP2 SLOAD DUP2 PUSH20 0xFFFFFFFFFFFFFFFFFFFFFFFFFFFFFFFFFFFFFFFF MUL NOT AND SWAP1 DUP4 PUSH20 0xFFFFFFFFFFFFFFFFFFFFFFFFFFFFFFFFFFFFFFFF AND MUL OR SWAP1 SSTORE POP PUSH1 0x1 PUSH0 SWAP1 SLOAD SWAP1 PUSH2 0x100 EXP SWAP1 DIV PUSH20 0xFFFFFFFFFFFFFFFFFFFFFFFFFFFFFFFFFFFFFFFF AND PUSH20 0xFFFFFFFFFFFFFFFFFFFFFFFFFFFFFFFFFFFFFFFF AND PUSH4 0xA9059CBB PUSH0 PUSH0 SWAP1 SLOAD SWAP1 PUSH2 0x100 EXP SWAP1 DIV PUSH20 0xFFFFFFFFFFFFFFFFFFFFFFFFFFFFFFFFFFFFFFFF AND PUSH1 0x1 PUSH1 0x40 MLOAD DUP4 PUSH4 0xFFFFFFFF AND PUSH1 0xE0 SHL DUP2 MSTORE PUSH1 0x4 ADD PUSH2 0x4B1 SWAP3 SWAP2 SWAP1 PUSH2 0xD49 JUMP JUMPDEST PUSH1 0x20 PUSH1 0x40 MLOAD DUP1 DUP4 SUB DUP2 PUSH0 DUP8 GAS CALL ISZERO DUP1 ISZERO PUSH2 0x4CD JUMPI RETURNDATASIZE PUSH0 PUSH0 RETURNDATACOPY RETURNDATASIZE PUSH0 REVERT JUMPDEST POP POP POP POP PUSH1 0x40 MLOAD RETURNDATASIZE PUSH1 0x1F NOT PUSH1 0x1F DUP3 ADD AND DUP3 ADD DUP1 PUSH1 0x40 MSTORE POP DUP2 ADD SWAP1 PUSH2 0x4F1 SWAP2 SWAP1 PUSH2 0xD9A JUMP JUMPDEST POP PUSH0 PUSH1 0x3 PUSH0 PUSH2 0x100 EXP DUP2 SLOAD DUP2 PUSH1 0xFF MUL NOT AND SWAP1 DUP4 ISZERO ISZERO MUL OR SWAP1 SSTORE POP JUMP JUMPDEST PUSH1 0x2 DUP2 DUP2 SLOAD DUP2 LT PUSH2 0x51C JUMPI PUSH0 DUP1 REVERT JUMPDEST SWAP1 PUSH0 MSTORE PUSH1 0x20 PUSH0 KECCAK256 ADD PUSH0 SWAP2 POP SLOAD SWAP1 PUSH2 0x100 EXP SWAP1 DIV PUSH20 0xFFFFFFFFFFFFFFFFFFFFFFFFFFFFFFFFFFFFFFFF AND DUP2 JUMP JUMPDEST PUSH0 PUSH0 PUSH0 PUSH0 SWAP1 SLOAD SWAP1 PUSH2 0x100 EXP SWAP1 DIV PUSH20 0xFFFFFFFFFFFFFFFFFFFFFFFFFFFFFFFFFFFFFFFF AND PUSH20 0xFFFFFFFFFFFFFFFFFFFFFFFFFFFFFFFFFFFFFFFF AND DUP4 PUSH20 0xFFFFFFFFFFFFFFFFFFFFFFFFFFFFFFFFFFFFFFFF AND SUB PUSH2 0x5D8 JUMPI PUSH1 0x40 MLOAD PUSH32 0x8C379A000000000000000000000000000000000000000000000000000000000 DUP2 MSTORE PUSH1 0x4 ADD PUSH2 0x5CF SWAP1 PUSH2 0xC5D JUMP JUMPDEST PUSH1 0x40 MLOAD DUP1 SWAP2 SUB SWAP1 REVERT JUMPDEST PUSH0 PUSH0 SWAP1 POP PUSH0 PUSH0 SWAP1 POP PUSH0 PUSH0 SWAP1 POP JUMPDEST PUSH1 0x2 DUP1 SLOAD SWAP1 POP DUP2 LT DUP1 ISZERO PUSH2 0x5F7 JUMPI POP DUP2 ISZERO JUMPDEST ISZERO PUSH2 0x689 JUMPI DUP6 PUSH20 0xFFFFFFFFFFFFFFFFFFFFFFFFFFFFFFFFFFFFFFFF AND PUSH1 0x2 DUP3 DUP2 SLOAD DUP2 LT PUSH2 0x627 JUMPI PUSH2 0x626 PUSH2 0xC7B JUMP JUMPDEST JUMPDEST SWAP1 PUSH0 MSTORE PUSH1 0x20 PUSH0 KECCAK256 ADD PUSH0 SWAP1 SLOAD SWAP1 PUSH2 0x100 EXP SWAP1 DIV PUSH20 0xFFFFFFFFFFFFFFFFFFFFFFFFFFFFFFFFFFFFFFFF AND PUSH20 0xFFFFFFFFFFFFFFFFFFFFFFFFFFFFFFFFFFFFFFFF AND SUB PUSH2 0x676 JUMPI DUP1 SWAP3 POP PUSH1 0x1 SWAP2 POP PUSH2 0x689 JUMP JUMPDEST DUP1 DUP1 PUSH2 0x681 SWAP1 PUSH2 0xDF2 JUMP JUMPDEST SWAP2 POP POP PUSH2 0x5E5 JUMP JUMPDEST POP DUP1 DUP3 SWAP4 POP SWAP4 POP POP POP SWAP2 POP SWAP2 JUMP JUMPDEST PUSH0 DUP2 PUSH1 0x1 PUSH0 SWAP1 SLOAD SWAP1 PUSH2 0x100 EXP SWAP1 DIV PUSH20 0xFFFFFFFFFFFFFFFFFFFFFFFFFFFFFFFFFFFFFFFF AND PUSH20 0xFFFFFFFFFFFFFFFFFFFFFFFFFFFFFFFFFFFFFFFF AND PUSH4 0x70A08231 DUP7 PUSH1 0x40 MLOAD DUP3 PUSH4 0xFFFFFFFF AND PUSH1 0xE0 SHL DUP2 MSTORE PUSH1 0x4 ADD PUSH2 0x6F3 SWAP2 SWAP1 PUSH2 0xACA JUMP JUMPDEST PUSH1 0x20 PUSH1 0x40 MLOAD DUP1 DUP4 SUB DUP2 DUP7 GAS STATICCALL ISZERO DUP1 ISZERO PUSH2 0x70E JUMPI RETURNDATASIZE PUSH0 PUSH0 RETURNDATACOPY RETURNDATASIZE PUSH0 REVERT JUMPDEST POP POP POP POP PUSH1 0x40 MLOAD RETURNDATASIZE PUSH1 0x1F NOT PUSH1 0x1F DUP3 ADD AND DUP3 ADD DUP1 PUSH1 0x40 MSTORE POP DUP2 ADD SWAP1 PUSH2 0x732 SWAP2 SWAP1 PUSH2 0xE4D JUMP JUMPDEST LT ISZERO PUSH2 0x773 JUMPI PUSH1 0x40 MLOAD PUSH32 0x8C379A000000000000000000000000000000000000000000000000000000000 DUP2 MSTORE PUSH1 0x4 ADD PUSH2 0x76A SWAP1 PUSH2 0xEC2 JUMP JUMPDEST PUSH1 0x40 MLOAD DUP1 SWAP2 SUB SWAP1 REVERT JUMPDEST PUSH1 0x1 PUSH0 SWAP1 SLOAD SWAP1 PUSH2 0x100 EXP SWAP1 DIV PUSH20 0xFFFFFFFFFFFFFFFFFFFFFFFFFFFFFFFFFFFFFFFF AND PUSH20 0xFFFFFFFFFFFFFFFFFFFFFFFFFFFFFFFFFFFFFFFF AND PUSH4 0x23B872DD DUP6 DUP6 DUP6 PUSH1 0x40 MLOAD DUP5 PUSH4 0xFFFFFFFF AND PUSH1 0xE0 SHL DUP2 MSTORE PUSH1 0x4 ADD PUSH2 0x7D1 SWAP4 SWAP3 SWAP2 SWAP1 PUSH2 0xEE0 JUMP JUMPDEST PUSH1 0x20 PUSH1 0x40 MLOAD DUP1 DUP4 SUB DUP2 PUSH0 DUP8 GAS CALL ISZERO DUP1 ISZERO PUSH2 0x7ED JUMPI RETURNDATASIZE PUSH0 PUSH0 RETURNDATACOPY RETURNDATASIZE PUSH0 REVERT JUMPDEST POP POP POP POP PUSH1 0x40 MLOAD RETURNDATASIZE PUSH1 0x1F NOT PUSH1 0x1F DUP3 ADD AND DUP3 ADD DUP1 PUSH1 0x40 MSTORE POP DUP2 ADD SWAP1 PUSH2 0x811 SWAP2 SWAP1 PUSH2 0xD9A JUMP JUMPDEST POP PUSH1 0x1 SWAP1 POP SWAP4 SWAP3 POP POP POP JUMP JUMPDEST PUSH0 PUSH0 SWAP1 SLOAD SWAP1 PUSH2 0x100 EXP SWAP1 DIV PUSH20 0xFFFFFFFFFFFFFFFFFFFFFFFFFFFFFFFFFFFFFFFF AND DUP2 JUMP JUMPDEST PUSH0 PUSH8 0xDE0B6B3A7640000 PUSH1 0x1 PUSH0 SWAP1 SLOAD SWAP1 PUSH2 0x100 EXP SWAP1 DIV PUSH20 0xFFFFFFFFFFFFFFFFFFFFFFFFFFFFFFFFFFFFFFFF AND PUSH20 0xFFFFFFFFFFFFFFFFFFFFFFFFFFFFFFFFFFFFFFFF AND PUSH4 0x70A08231 CALLER PUSH1 0x40 MLOAD DUP3 PUSH4 0xFFFFFFFF AND PUSH1 0xE0 SHL DUP2 MSTORE PUSH1 0x4 ADD PUSH2 0x8A5 SWAP2 SWAP1 PUSH2 0xACA JUMP JUMPDEST PUSH1 0x20 PUSH1 0x40 MLOAD DUP1 DUP4 SUB DUP2 DUP7 GAS STATICCALL ISZERO DUP1 ISZERO PUSH2 0x8C0 JUMPI RETURNDATASIZE PUSH0 PUSH0 RETURNDATACOPY RETURNDATASIZE PUSH0 REVERT JUMPDEST POP POP POP POP PUSH1 0x40 MLOAD RETURNDATASIZE PUSH1 0x1F NOT PUSH1 0x1F DUP3 ADD AND DUP3 ADD DUP1 PUSH1 0x40 MSTORE POP DUP2 ADD SWAP1 PUSH2 0x8E4 SWAP2 SWAP1 PUSH2 0xE4D JUMP JUMPDEST PUSH2 0x8EE SWAP2 SWAP1 PUSH2 0xF15 JUMP JUMPDEST SWAP1 POP PUSH1 0x1 PUSH0 SWAP1 SLOAD SWAP1 PUSH2 0x100 EXP SWAP1 DIV PUSH20 0xFFFFFFFFFFFFFFFFFFFFFFFFFFFFFFFFFFFFFFFF AND PUSH20 0xFFFFFFFFFFFFFFFFFFFFFFFFFFFFFFFFFFFFFFFF AND PUSH4 0x40C10F19 CALLER DUP4 PUSH1 0x40 MLOAD DUP4 PUSH4 0xFFFFFFFF AND PUSH1 0xE0 SHL DUP2 MSTORE PUSH1 0x4 ADD PUSH2 0x94C SWAP3 SWAP2 SWAP1 PUSH2 0xF48 JUMP JUMPDEST PUSH0 PUSH1 0x40 MLOAD DUP1 DUP4 SUB DUP2 PUSH0 DUP8 DUP1 EXTCODESIZE ISZERO DUP1 ISZERO PUSH2 0x963 JUMPI PUSH0 PUSH0 REVERT JUMPDEST POP GAS CALL ISZERO DUP1 ISZERO PUSH2 0x975 JUMPI RETURNDATASIZE PUSH0 PUSH0 RETURNDATACOPY RETURNDATASIZE PUSH0 REVERT JUMPDEST POP POP POP POP POP JUMP JUMPDEST PUSH1 0x1 PUSH0 SWAP1 SLOAD SWAP1 PUSH2 0x100 EXP SWAP1 DIV PUSH20 0xFFFFFFFFFFFFFFFFFFFFFFFFFFFFFFFFFFFFFFFF AND DUP2 JUMP JUMPDEST PUSH0 PUSH0 REVERT JUMPDEST PUSH0 PUSH20 0xFFFFFFFFFFFFFFFFFFFFFFFFFFFFFFFFFFFFFFFF DUP3 AND SWAP1 POP SWAP2 SWAP1 POP JUMP JUMPDEST PUSH0 PUSH2 0x9CE DUP3 PUSH2 0x9A5 JUMP JUMPDEST SWAP1 POP SWAP2 SWAP1 POP JUMP JUMPDEST PUSH2 0x9DE DUP2 PUSH2 0x9C4 JUMP JUMPDEST DUP2 EQ PUSH2 0x9E8 JUMPI PUSH0 PUSH0 REVERT JUMPDEST POP JUMP JUMPDEST PUSH0 DUP2 CALLDATALOAD SWAP1 POP PUSH2 0x9F9 DUP2 PUSH2 0x9D5 JUMP JUMPDEST SWAP3 SWAP2 POP POP JUMP JUMPDEST PUSH0 PUSH1 0x20 DUP3 DUP5 SUB SLT ISZERO PUSH2 0xA14 JUMPI PUSH2 0xA13 PUSH2 0x9A1 JUMP JUMPDEST JUMPDEST PUSH0 PUSH2 0xA21 DUP5 DUP3 DUP6 ADD PUSH2 0x9EB JUMP JUMPDEST SWAP2 POP POP SWAP3 SWAP2 POP POP JUMP JUMPDEST PUSH0 DUP2 ISZERO ISZERO SWAP1 POP SWAP2 SWAP1 POP JUMP JUMPDEST PUSH2 0xA3E DUP2 PUSH2 0xA2A JUMP JUMPDEST DUP3 MSTORE POP POP JUMP JUMPDEST PUSH0 PUSH1 0x20 DUP3 ADD SWAP1 POP PUSH2 0xA57 PUSH0 DUP4 ADD DUP5 PUSH2 0xA35 JUMP JUMPDEST SWAP3 SWAP2 POP POP JUMP JUMPDEST PUSH0 DUP2 SWAP1 POP SWAP2 SWAP1 POP JUMP JUMPDEST PUSH2 0xA6F DUP2 PUSH2 0xA5D JUMP JUMPDEST DUP2 EQ PUSH2 0xA79 JUMPI PUSH0 PUSH0 REVERT JUMPDEST POP JUMP JUMPDEST PUSH0 DUP2 CALLDATALOAD SWAP1 POP PUSH2 0xA8A DUP2 PUSH2 0xA66 JUMP JUMPDEST SWAP3 SWAP2 POP POP JUMP JUMPDEST PUSH0 PUSH1 0x20 DUP3 DUP5 SUB SLT ISZERO PUSH2 0xAA5 JUMPI PUSH2 0xAA4 PUSH2 0x9A1 JUMP JUMPDEST JUMPDEST PUSH0 PUSH2 0xAB2 DUP5 DUP3 DUP6 ADD PUSH2 0xA7C JUMP JUMPDEST SWAP2 POP POP SWAP3 SWAP2 POP POP JUMP JUMPDEST PUSH2 0xAC4 DUP2 PUSH2 0x9C4 JUMP JUMPDEST DUP3 MSTORE POP POP JUMP JUMPDEST PUSH0 PUSH1 0x20 DUP3 ADD SWAP1 POP PUSH2 0xADD PUSH0 DUP4 ADD DUP5 PUSH2 0xABB JUMP JUMPDEST SWAP3 SWAP2 POP POP JUMP JUMPDEST PUSH2 0xAEC DUP2 PUSH2 0xA5D JUMP JUMPDEST DUP3 MSTORE POP POP JUMP JUMPDEST PUSH0 PUSH1 0x40 DUP3 ADD SWAP1 POP PUSH2 0xB05 PUSH0 DUP4 ADD DUP6 PUSH2 0xA35 JUMP JUMPDEST PUSH2 0xB12 PUSH1 0x20 DUP4 ADD DUP5 PUSH2 0xAE3 JUMP JUMPDEST SWAP4 SWAP3 POP POP POP JUMP JUMPDEST PUSH0 PUSH0 PUSH0 PUSH1 0x60 DUP5 DUP7 SUB SLT ISZERO PUSH2 0xB30 JUMPI PUSH2 0xB2F PUSH2 0x9A1 JUMP JUMPDEST JUMPDEST PUSH0 PUSH2 0xB3D DUP7 DUP3 DUP8 ADD PUSH2 0x9EB JUMP JUMPDEST SWAP4 POP POP PUSH1 0x20 PUSH2 0xB4E DUP7 DUP3 DUP8 ADD PUSH2 0x9EB JUMP JUMPDEST SWAP3 POP POP PUSH1 0x40 PUSH2 0xB5F DUP7 DUP3 DUP8 ADD PUSH2 0xA7C JUMP JUMPDEST SWAP2 POP POP SWAP3 POP SWAP3 POP SWAP3 JUMP JUMPDEST PUSH0 DUP2 SWAP1 POP SWAP2 SWAP1 POP JUMP JUMPDEST PUSH0 PUSH2 0xB8C PUSH2 0xB87 PUSH2 0xB82 DUP5 PUSH2 0x9A5 JUMP JUMPDEST PUSH2 0xB69 JUMP JUMPDEST PUSH2 0x9A5 JUMP JUMPDEST SWAP1 POP SWAP2 SWAP1 POP JUMP JUMPDEST PUSH0 PUSH2 0xB9D DUP3 PUSH2 0xB72 JUMP JUMPDEST SWAP1 POP SWAP2 SWAP1 POP JUMP JUMPDEST PUSH0 PUSH2 0xBAE DUP3 PUSH2 0xB93 JUMP JUMPDEST SWAP1 POP SWAP2 SWAP1 POP JUMP JUMPDEST PUSH2 0xBBE DUP2 PUSH2 0xBA4 JUMP JUMPDEST DUP3 MSTORE POP POP JUMP JUMPDEST PUSH0 PUSH1 0x20 DUP3 ADD SWAP1 POP PUSH2 0xBD7 PUSH0 DUP4 ADD DUP5 PUSH2 0xBB5 JUMP JUMPDEST SWAP3 SWAP2 POP POP JUMP JUMPDEST PUSH0 DUP3 DUP3 MSTORE PUSH1 0x20 DUP3 ADD SWAP1 POP SWAP3 SWAP2 POP POP JUMP JUMPDEST PUSH32 0x456C2070726F706965746172696F206E6F20707565646520657374617220656E PUSH0 DUP3 ADD MSTORE PUSH32 0x206C61206C697374610000000000000000000000000000000000000000000000 PUSH1 0x20 DUP3 ADD MSTORE POP JUMP JUMPDEST PUSH0 PUSH2 0xC47 PUSH1 0x29 DUP4 PUSH2 0xBDD JUMP JUMPDEST SWAP2 POP PUSH2 0xC52 DUP3 PUSH2 0xBED JUMP JUMPDEST PUSH1 0x40 DUP3 ADD SWAP1 POP SWAP2 SWAP1 POP JUMP JUMPDEST PUSH0 PUSH1 0x20 DUP3 ADD SWAP1 POP DUP2 DUP2 SUB PUSH0 DUP4 ADD MSTORE PUSH2 0xC74 DUP2 PUSH2 0xC3B JUMP JUMPDEST SWAP1 POP SWAP2 SWAP1 POP JUMP JUMPDEST PUSH32 0x4E487B7100000000000000000000000000000000000000000000000000000000 PUSH0 MSTORE PUSH1 0x32 PUSH1 0x4 MSTORE PUSH1 0x24 PUSH0 REVERT JUMPDEST PUSH32 0x596120657374617320696E73637269746F000000000000000000000000000000 PUSH0 DUP3 ADD MSTORE POP JUMP JUMPDEST PUSH0 PUSH2 0xCDC PUSH1 0x11 DUP4 PUSH2 0xBDD JUMP JUMPDEST SWAP2 POP PUSH2 0xCE7 DUP3 PUSH2 0xCA8 JUMP JUMPDEST PUSH1 0x20 DUP3 ADD SWAP1 POP SWAP2 SWAP1 POP JUMP JUMPDEST PUSH0 PUSH1 0x20 DUP3 ADD SWAP1 POP DUP2 DUP2 SUB PUSH0 DUP4 ADD MSTORE PUSH2 0xD09 DUP2 PUSH2 0xCD0 JUMP JUMPDEST SWAP1 POP SWAP2 SWAP1 POP JUMP JUMPDEST PUSH0 DUP2 SWAP1 POP SWAP2 SWAP1 POP JUMP JUMPDEST PUSH0 PUSH2 0xD33 PUSH2 0xD2E PUSH2 0xD29 DUP5 PUSH2 0xD10 JUMP JUMPDEST PUSH2 0xB69 JUMP JUMPDEST PUSH2 0xA5D JUMP JUMPDEST SWAP1 POP SWAP2 SWAP1 POP JUMP JUMPDEST PUSH2 0xD43 DUP2 PUSH2 0xD19 JUMP JUMPDEST DUP3 MSTORE POP POP JUMP JUMPDEST PUSH0 PUSH1 0x40 DUP3 ADD SWAP1 POP PUSH2 0xD5C PUSH0 DUP4 ADD DUP6 PUSH2 0xABB JUMP JUMPDEST PUSH2 0xD69 PUSH1 0x20 DUP4 ADD DUP5 PUSH2 0xD3A JUMP JUMPDEST SWAP4 SWAP3 POP POP POP JUMP JUMPDEST PUSH2 0xD79 DUP2 PUSH2 0xA2A JUMP JUMPDEST DUP2 EQ PUSH2 0xD83 JUMPI PUSH0 PUSH0 REVERT JUMPDEST POP JUMP JUMPDEST PUSH0 DUP2 MLOAD SWAP1 POP PUSH2 0xD94 DUP2 PUSH2 0xD70 JUMP JUMPDEST SWAP3 SWAP2 POP POP JUMP JUMPDEST PUSH0 PUSH1 0x20 DUP3 DUP5 SUB SLT ISZERO PUSH2 0xDAF JUMPI PUSH2 0xDAE PUSH2 0x9A1 JUMP JUMPDEST JUMPDEST PUSH0 PUSH2 0xDBC DUP5 DUP3 DUP6 ADD PUSH2 0xD86 JUMP JUMPDEST SWAP2 POP POP SWAP3 SWAP2 POP POP JUMP JUMPDEST PUSH32 0x4E487B7100000000000000000000000000000000000000000000000000000000 PUSH0 MSTORE PUSH1 0x11 PUSH1 0x4 MSTORE PUSH1 0x24 PUSH0 REVERT JUMPDEST PUSH0 PUSH2 0xDFC DUP3 PUSH2 0xA5D JUMP JUMPDEST SWAP2 POP PUSH32 0xFFFFFFFFFFFFFFFFFFFFFFFFFFFFFFFFFFFFFFFFFFFFFFFFFFFFFFFFFFFFFFFF DUP3 SUB PUSH2 0xE2E JUMPI PUSH2 0xE2D PUSH2 0xDC5 JUMP JUMPDEST JUMPDEST PUSH1 0x1 DUP3 ADD SWAP1 POP SWAP2 SWAP1 POP JUMP JUMPDEST PUSH0 DUP2 MLOAD SWAP1 POP PUSH2 0xE47 DUP2 PUSH2 0xA66 JUMP JUMPDEST SWAP3 SWAP2 POP POP JUMP JUMPDEST PUSH0 PUSH1 0x20 DUP3 DUP5 SUB SLT ISZERO PUSH2 0xE62 JUMPI PUSH2 0xE61 PUSH2 0x9A1 JUMP JUMPDEST JUMPDEST PUSH0 PUSH2 0xE6F DUP5 DUP3 DUP6 ADD PUSH2 0xE39 JUMP JUMPDEST SWAP2 POP POP SWAP3 SWAP2 POP POP JUMP JUMPDEST PUSH32 0x53616C646F20696E737566696369656E74650000000000000000000000000000 PUSH0 DUP3 ADD MSTORE POP JUMP JUMPDEST PUSH0 PUSH2 0xEAC PUSH1 0x12 DUP4 PUSH2 0xBDD JUMP JUMPDEST SWAP2 POP PUSH2 0xEB7 DUP3 PUSH2 0xE78 JUMP JUMPDEST PUSH1 0x20 DUP3 ADD SWAP1 POP SWAP2 SWAP1 POP JUMP JUMPDEST PUSH0 PUSH1 0x20 DUP3 ADD SWAP1 POP DUP2 DUP2 SUB PUSH0 DUP4 ADD MSTORE PUSH2 0xED9 DUP2 PUSH2 0xEA0 JUMP JUMPDEST SWAP1 POP SWAP2 SWAP1 POP JUMP JUMPDEST PUSH0 PUSH1 0x60 DUP3 ADD SWAP1 POP PUSH2 0xEF3 PUSH0 DUP4 ADD DUP7 PUSH2 0xABB JUMP JUMPDEST PUSH2 0xF00 PUSH1 0x20 DUP4 ADD DUP6 PUSH2 0xABB JUMP JUMPDEST PUSH2 0xF0D PUSH1 0x40 DUP4 ADD DUP5 PUSH2 0xAE3 JUMP JUMPDEST SWAP5 SWAP4 POP POP POP POP JUMP JUMPDEST PUSH0 PUSH2 0xF1F DUP3 PUSH2 0xA5D JUMP JUMPDEST SWAP2 POP PUSH2 0xF2A DUP4 PUSH2 0xA5D JUMP JUMPDEST SWAP3 POP DUP3 DUP3 ADD SWAP1 POP DUP1 DUP3 GT ISZERO PUSH2 0xF42 JUMPI PUSH2 0xF41 PUSH2 0xDC5 JUMP JUMPDEST JUMPDEST SWAP3 SWAP2 POP POP JUMP JUMPDEST PUSH0 PUSH1 0x40 DUP3 ADD SWAP1 POP PUSH2 0xF5B PUSH0 DUP4 ADD DUP6 PUSH2 0xABB JUMP JUMPDEST PUSH2 0xF68 PUSH1 0x20 DUP4 ADD DUP5 PUSH2 0xAE3 JUMP JUMPDEST SWAP4 SWAP3 POP POP POP JUMP INVALID LOG2 PUSH5 0x6970667358 0x22 SLT KECCAK256 LOG2 CALLF 0xAE18 PUSH15 0x27AFD866BB2E3ED47FE30A4375BAF1 SWAP15 0xC5 SWAPN 0x6B OR EXTCODEHASH PUSH10 0xD89147268164736F6C63 NUMBER STOP ADDMOD 0x1E STOP CALLER "
				},
				"gasEstimates": {
					"creation": {
						"codeDepositCost": "801000",
						"executionCost": "infinite",
						"totalCost": "infinite"
					},
					"external": {
						"comprarToken()": "infinite",
						"inscribirse()": "infinite",
						"inscritos(uint256)": "4989",
						"numeroEnLista(address)": "infinite",
						"owner()": "2529",
						"token()": "infinite",
						"transferForMember(address,address,uint256)": "infinite",
						"yaEstaInscrito(address)": "infinite"
					}
				},
				"methodIdentifiers": {
					"comprarToken()": "f32360a0",
					"inscribirse()": "61722365",
					"inscritos(uint256)": "787e5869",
					"numeroEnLista(address)": "7a54f9d9",
					"owner()": "8da5cb5b",
					"token()": "fc0c546a",
					"transferForMember(address,address,uint256)": "8a75e7bd",
					"yaEstaInscrito(address)": "0469846b"
				}
			},
			"storageLayout": {
				"storage": [
					{
						"astId": 791,
						"contract": "contracts/listaespera.sol:ListaEspera",
						"label": "owner",
						"offset": 0,
						"slot": "0",
						"type": "t_address"
					},
					{
						"astId": 794,
						"contract": "contracts/listaespera.sol:ListaEspera",
						"label": "token",
						"offset": 0,
						"slot": "1",
						"type": "t_contract(TokenEspera)1178"
					},
					{
						"astId": 797,
						"contract": "contracts/listaespera.sol:ListaEspera",
						"label": "inscritos",
						"offset": 0,
						"slot": "2",
						"type": "t_array(t_address)dyn_storage"
					},
					{
						"astId": 799,
						"contract": "contracts/listaespera.sol:ListaEspera",
						"label": "bloqueado",
						"offset": 0,
						"slot": "3",
						"type": "t_bool"
					}
				],
				"types": {
					"t_address": {
						"encoding": "inplace",
						"label": "address",
						"numberOfBytes": "20"
					},
					"t_array(t_address)dyn_storage": {
						"base": "t_address",
						"encoding": "dynamic_array",
						"label": "address[]",
						"numberOfBytes": "32"
					},
					"t_bool": {
						"encoding": "inplace",
						"label": "bool",
						"numberOfBytes": "1"
					},
					"t_contract(TokenEspera)1178": {
						"encoding": "inplace",
						"label": "contract TokenEspera",
						"numberOfBytes": "20"
					}
				}
			},
			"userdoc": {
				"kind": "user",
				"methods": {},
				"version": 1
			}
		}
	}
}