{
	"contracts/listaespera.sol": {
		"ListaEspera": {
			"abi": [
				{
					"inputs": [
						{
							"internalType": "contract TokenEspera",
							"name": "token_",
							"type": "address"
						}
					],
					"stateMutability": "nonpayable",
					"type": "constructor"
				},
				{
					"inputs": [],
					"name": "comprarToken",
					"outputs": [],
					"stateMutability": "nonpayable",
					"type": "function"
				},
				{
					"inputs": [],
					"name": "getBalance",
					"outputs": [
						{
							"internalType": "uint256",
							"name": "",
							"type": "uint256"
						}
					],
					"stateMutability": "view",
					"type": "function"
				},
				{
					"inputs": [],
					"name": "inscribirse",
					"outputs": [],
					"stateMutability": "nonpayable",
					"type": "function"
				},
				{
					"inputs": [
						{
							"internalType": "uint256",
							"name": "",
							"type": "uint256"
						}
					],
					"name": "inscritos",
					"outputs": [
						{
							"internalType": "address",
							"name": "",
							"type": "address"
						}
					],
					"stateMutability": "view",
					"type": "function"
				},
				{
					"inputs": [
						{
							"internalType": "address",
							"name": "_usuario",
							"type": "address"
						}
					],
					"name": "numeroEnLista",
					"outputs": [
						{
							"internalType": "bool",
							"name": "",
							"type": "bool"
						},
						{
							"internalType": "uint256",
							"name": "",
							"type": "uint256"
						}
					],
					"stateMutability": "view",
					"type": "function"
				},
				{
					"inputs": [],
					"name": "owner",
					"outputs": [
						{
							"internalType": "address",
							"name": "",
							"type": "address"
						}
					],
					"stateMutability": "view",
					"type": "function"
				},
				{
					"inputs": [],
					"name": "token",
					"outputs": [
						{
							"internalType": "contract TokenEspera",
							"name": "",
							"type": "address"
						}
					],
					"stateMutability": "view",
					"type": "function"
				},
				{
					"inputs": [
						{
							"internalType": "address",
							"name": "from",
							"type": "address"
						},
						{
							"internalType": "address",
							"name": "to",
							"type": "address"
						},
						{
							"internalType": "uint256",
							"name": "amount",
							"type": "uint256"
						}
					],
					"name": "transferForMember",
					"outputs": [
						{
							"internalType": "bool",
							"name": "",
							"type": "bool"
						}
					],
					"stateMutability": "nonpayable",
					"type": "function"
				},
				{
					"inputs": [
						{
							"internalType": "address",
							"name": "_usuario",
							"type": "address"
						}
					],
					"name": "yaEstaInscrito",
					"outputs": [
						{
							"internalType": "bool",
							"name": "",
							"type": "bool"
						}
					],
					"stateMutability": "view",
					"type": "function"
				}
			],
			"devdoc": {
				"kind": "dev",
				"methods": {},
				"version": 1
			},
			"evm": {
				"assembly": "    /* \"contracts/listaespera.sol\":87:2233  contract ListaEspera {... */\n  mstore(0x40, 0x80)\n    /* \"contracts/listaespera.sol\":142:184  0xF55301514c27489Fde7C9cd9A3EA8044E7E04579 */\n  0xf55301514c27489fde7c9cd9a3ea8044e7e04579\n    /* \"contracts/listaespera.sol\":114:184  address     public  owner = 0xF55301514c27489Fde7C9cd9A3EA8044E7E04579 */\n  0x00\n  exp(0x0100, 0x00)\n  dup2\n  sload\n  dup2\n  0xffffffffffffffffffffffffffffffffffffffff\n  mul\n  not\n  and\n  swap1\n  dup4\n  0xffffffffffffffffffffffffffffffffffffffff\n  and\n  mul\n  or\n  swap1\n  sstore\n  pop\n    /* \"contracts/listaespera.sol\":330:393  constructor(TokenEspera token_) {... */\n  callvalue\n  dup1\n  iszero\n  tag_1\n  jumpi\n  revert(0x00, 0x00)\ntag_1:\n  pop\n  mload(0x40)\n  sub(codesize, bytecodeSize)\n  dup1\n  bytecodeSize\n  dup4\n  codecopy\n  dup2\n  dup2\n  add\n  0x40\n  mstore\n  dup2\n  add\n  swap1\n  tag_2\n  swap2\n  swap1\n  tag_3\n  jump\t// in\ntag_2:\n    /* \"contracts/listaespera.sol\":380:386  token_ */\n  dup1\n    /* \"contracts/listaespera.sol\":372:377  token */\n  0x01\n  0x00\n    /* \"contracts/listaespera.sol\":372:386  token = token_ */\n  0x0100\n  exp\n  dup2\n  sload\n  dup2\n  0xffffffffffffffffffffffffffffffffffffffff\n  mul\n  not\n  and\n  swap1\n  dup4\n  0xffffffffffffffffffffffffffffffffffffffff\n  and\n  mul\n  or\n  swap1\n  sstore\n  pop\n    /* \"contracts/listaespera.sol\":330:393  constructor(TokenEspera token_) {... */\n  pop\n    /* \"contracts/listaespera.sol\":87:2233  contract ListaEspera {... */\n  jump(tag_6)\n    /* \"#utility.yul\":88:205   */\ntag_8:\n    /* \"#utility.yul\":197:198   */\n  0x00\n    /* \"#utility.yul\":194:195   */\n  0x00\n    /* \"#utility.yul\":187:199   */\n  revert\n    /* \"#utility.yul\":334:460   */\ntag_10:\n    /* \"#utility.yul\":371:378   */\n  0x00\n    /* \"#utility.yul\":411:453   */\n  0xffffffffffffffffffffffffffffffffffffffff\n    /* \"#utility.yul\":404:409   */\n  dup3\n    /* \"#utility.yul\":400:454   */\n  and\n    /* \"#utility.yul\":389:454   */\n  swap1\n  pop\n    /* \"#utility.yul\":334:460   */\n  swap2\n  swap1\n  pop\n  jump\t// out\n    /* \"#utility.yul\":466:562   */\ntag_11:\n    /* \"#utility.yul\":503:510   */\n  0x00\n    /* \"#utility.yul\":532:556   */\n  tag_21\n    /* \"#utility.yul\":550:555   */\n  dup3\n    /* \"#utility.yul\":532:556   */\n  tag_10\n  jump\t// in\ntag_21:\n    /* \"#utility.yul\":521:556   */\n  swap1\n  pop\n    /* \"#utility.yul\":466:562   */\n  swap2\n  swap1\n  pop\n  jump\t// out\n    /* \"#utility.yul\":568:684   */\ntag_12:\n    /* \"#utility.yul\":625:632   */\n  0x00\n    /* \"#utility.yul\":654:678   */\n  tag_23\n    /* \"#utility.yul\":672:677   */\n  dup3\n    /* \"#utility.yul\":654:678   */\n  tag_11\n  jump\t// in\ntag_23:\n    /* \"#utility.yul\":643:678   */\n  swap1\n  pop\n    /* \"#utility.yul\":568:684   */\n  swap2\n  swap1\n  pop\n  jump\t// out\n    /* \"#utility.yul\":690:852   */\ntag_13:\n    /* \"#utility.yul\":783:827   */\n  tag_25\n    /* \"#utility.yul\":821:826   */\n  dup2\n    /* \"#utility.yul\":783:827   */\n  tag_12\n  jump\t// in\ntag_25:\n    /* \"#utility.yul\":776:781   */\n  dup2\n    /* \"#utility.yul\":773:828   */\n  eq\n    /* \"#utility.yul\":763:846   */\n  tag_26\n  jumpi\n    /* \"#utility.yul\":842:843   */\n  0x00\n    /* \"#utility.yul\":839:840   */\n  0x00\n    /* \"#utility.yul\":832:844   */\n  revert\n    /* \"#utility.yul\":763:846   */\ntag_26:\n    /* \"#utility.yul\":690:852   */\n  pop\n  jump\t// out\n    /* \"#utility.yul\":858:1041   */\ntag_14:\n    /* \"#utility.yul\":935:940   */\n  0x00\n    /* \"#utility.yul\":966:972   */\n  dup2\n    /* \"#utility.yul\":960:973   */\n  mload\n    /* \"#utility.yul\":951:973   */\n  swap1\n  pop\n    /* \"#utility.yul\":982:1035   */\n  tag_28\n    /* \"#utility.yul\":1029:1034   */\n  dup2\n    /* \"#utility.yul\":982:1035   */\n  tag_13\n  jump\t// in\ntag_28:\n    /* \"#utility.yul\":858:1041   */\n  swap3\n  swap2\n  pop\n  pop\n  jump\t// out\n    /* \"#utility.yul\":1047:1438   */\ntag_3:\n    /* \"#utility.yul\":1137:1143   */\n  0x00\n    /* \"#utility.yul\":1186:1188   */\n  0x20\n    /* \"#utility.yul\":1174:1183   */\n  dup3\n    /* \"#utility.yul\":1165:1172   */\n  dup5\n    /* \"#utility.yul\":1161:1184   */\n  sub\n    /* \"#utility.yul\":1157:1189   */\n  slt\n    /* \"#utility.yul\":1154:1273   */\n  iszero\n  tag_30\n  jumpi\n    /* \"#utility.yul\":1192:1271   */\n  tag_31\n  tag_8\n  jump\t// in\ntag_31:\n    /* \"#utility.yul\":1154:1273   */\ntag_30:\n    /* \"#utility.yul\":1312:1313   */\n  0x00\n    /* \"#utility.yul\":1337:1421   */\n  tag_32\n    /* \"#utility.yul\":1413:1420   */\n  dup5\n    /* \"#utility.yul\":1404:1410   */\n  dup3\n    /* \"#utility.yul\":1393:1402   */\n  dup6\n    /* \"#utility.yul\":1389:1411   */\n  add\n    /* \"#utility.yul\":1337:1421   */\n  tag_14\n  jump\t// in\ntag_32:\n    /* \"#utility.yul\":1327:1421   */\n  swap2\n  pop\n    /* \"#utility.yul\":1283:1431   */\n  pop\n    /* \"#utility.yul\":1047:1438   */\n  swap3\n  swap2\n  pop\n  pop\n  jump\t// out\n    /* \"contracts/listaespera.sol\":87:2233  contract ListaEspera {... */\ntag_6:\n  dataSize(sub_0)\n  dup1\n  dataOffset(sub_0)\n  0x00\n  codecopy\n  0x00\n  return\nstop\n\nsub_0: assembly {\n        /* \"contracts/listaespera.sol\":87:2233  contract ListaEspera {... */\n      mstore(0x40, 0x80)\n      callvalue\n      dup1\n      iszero\n      tag_1\n      jumpi\n      revert(0x00, 0x00)\n    tag_1:\n      pop\n      jumpi(tag_2, lt(calldatasize, 0x04))\n      shr(0xe0, calldataload(0x00))\n      dup1\n      0x7a54f9d9\n      gt\n      tag_12\n      jumpi\n      dup1\n      0x7a54f9d9\n      eq\n      tag_7\n      jumpi\n      dup1\n      0x8a75e7bd\n      eq\n      tag_8\n      jumpi\n      dup1\n      0x8da5cb5b\n      eq\n      tag_9\n      jumpi\n      dup1\n      0xf32360a0\n      eq\n      tag_10\n      jumpi\n      dup1\n      0xfc0c546a\n      eq\n      tag_11\n      jumpi\n      jump(tag_2)\n    tag_12:\n      dup1\n      0x0469846b\n      eq\n      tag_3\n      jumpi\n      dup1\n      0x12065fe0\n      eq\n      tag_4\n      jumpi\n      dup1\n      0x61722365\n      eq\n      tag_5\n      jumpi\n      dup1\n      0x787e5869\n      eq\n      tag_6\n      jumpi\n    tag_2:\n      revert(0x00, 0x00)\n        /* \"contracts/listaespera.sol\":680:1014  function yaEstaInscrito(address _usuario) public view returns (bool) {... */\n    tag_3:\n      tag_13\n      0x04\n      dup1\n      calldatasize\n      sub\n      dup2\n      add\n      swap1\n      tag_14\n      swap2\n      swap1\n      tag_15\n      jump\t// in\n    tag_14:\n      tag_16\n      jump\t// in\n    tag_13:\n      mload(0x40)\n      tag_17\n      swap2\n      swap1\n      tag_18\n      jump\t// in\n    tag_17:\n      mload(0x40)\n      dup1\n      swap2\n      sub\n      swap1\n      return\n        /* \"contracts/listaespera.sol\":1938:2043  function getBalance() view external returns (uint256) {... */\n    tag_4:\n      tag_19\n      tag_20\n      jump\t// in\n    tag_19:\n      mload(0x40)\n      tag_21\n      swap2\n      swap1\n      tag_22\n      jump\t// in\n    tag_21:\n      mload(0x40)\n      dup1\n      swap2\n      sub\n      swap1\n      return\n        /* \"contracts/listaespera.sol\":399:674  function inscribirse() external noReentrancy {... */\n    tag_5:\n      tag_23\n      tag_24\n      jump\t// in\n    tag_23:\n      stop\n        /* \"contracts/listaespera.sol\":221:250  address[]   public  inscritos */\n    tag_6:\n      tag_25\n      0x04\n      dup1\n      calldatasize\n      sub\n      dup2\n      add\n      swap1\n      tag_26\n      swap2\n      swap1\n      tag_27\n      jump\t// in\n    tag_26:\n      tag_28\n      jump\t// in\n    tag_25:\n      mload(0x40)\n      tag_29\n      swap2\n      swap1\n      tag_30\n      jump\t// in\n    tag_29:\n      mload(0x40)\n      dup1\n      swap2\n      sub\n      swap1\n      return\n        /* \"contracts/listaespera.sol\":1020:1522  function numeroEnLista(address _usuario) public view returns (bool, uint256) {... */\n    tag_7:\n      tag_31\n      0x04\n      dup1\n      calldatasize\n      sub\n      dup2\n      add\n      swap1\n      tag_32\n      swap2\n      swap1\n      tag_15\n      jump\t// in\n    tag_32:\n      tag_33\n      jump\t// in\n    tag_31:\n      mload(0x40)\n      tag_34\n      swap3\n      swap2\n      swap1\n      tag_35\n      jump\t// in\n    tag_34:\n      mload(0x40)\n      dup1\n      swap2\n      sub\n      swap1\n      return\n        /* \"contracts/listaespera.sol\":1691:1932  function transferForMember(address from, address to, uint256 amount) external returns (bool) {... */\n    tag_8:\n      tag_36\n      0x04\n      dup1\n      calldatasize\n      sub\n      dup2\n      add\n      swap1\n      tag_37\n      swap2\n      swap1\n      tag_38\n      jump\t// in\n    tag_37:\n      tag_39\n      jump\t// in\n    tag_36:\n      mload(0x40)\n      tag_40\n      swap2\n      swap1\n      tag_18\n      jump\t// in\n    tag_40:\n      mload(0x40)\n      dup1\n      swap2\n      sub\n      swap1\n      return\n        /* \"contracts/listaespera.sol\":114:184  address     public  owner = 0xF55301514c27489Fde7C9cd9A3EA8044E7E04579 */\n    tag_9:\n      tag_41\n      tag_42\n      jump\t// in\n    tag_41:\n      mload(0x40)\n      tag_43\n      swap2\n      swap1\n      tag_30\n      jump\t// in\n    tag_43:\n      mload(0x40)\n      dup1\n      swap2\n      sub\n      swap1\n      return\n        /* \"contracts/listaespera.sol\":1527:1685  function comprarToken() external {... */\n    tag_10:\n      tag_44\n      tag_45\n      jump\t// in\n    tag_44:\n      stop\n        /* \"contracts/listaespera.sol\":190:215  TokenEspera public  token */\n    tag_11:\n      tag_46\n      tag_47\n      jump\t// in\n    tag_46:\n      mload(0x40)\n      tag_48\n      swap2\n      swap1\n      tag_49\n      jump\t// in\n    tag_48:\n      mload(0x40)\n      dup1\n      swap2\n      sub\n      swap1\n      return\n        /* \"contracts/listaespera.sol\":680:1014  function yaEstaInscrito(address _usuario) public view returns (bool) {... */\n    tag_16:\n        /* \"contracts/listaespera.sol\":743:747  bool */\n      0x00\n        /* \"contracts/listaespera.sol\":779:784  owner */\n      0x00\n      0x00\n      swap1\n      sload\n      swap1\n      0x0100\n      exp\n      swap1\n      div\n      0xffffffffffffffffffffffffffffffffffffffff\n      and\n        /* \"contracts/listaespera.sol\":767:784  _usuario != owner */\n      0xffffffffffffffffffffffffffffffffffffffff\n      and\n        /* \"contracts/listaespera.sol\":767:775  _usuario */\n      dup3\n        /* \"contracts/listaespera.sol\":767:784  _usuario != owner */\n      0xffffffffffffffffffffffffffffffffffffffff\n      and\n      sub\n        /* \"contracts/listaespera.sol\":759:830  require(_usuario != owner, \"El propietario no puede estar en la lista\") */\n      tag_51\n      jumpi\n      mload(0x40)\n      0x08c379a000000000000000000000000000000000000000000000000000000000\n      dup2\n      mstore\n      0x04\n      add\n      tag_52\n      swap1\n      tag_53\n      jump\t// in\n    tag_52:\n      mload(0x40)\n      dup1\n      swap2\n      sub\n      swap1\n      revert\n    tag_51:\n        /* \"contracts/listaespera.sol\":845:854  uint256 i */\n      0x00\n        /* \"contracts/listaespera.sol\":857:858  0 */\n      0x00\n        /* \"contracts/listaespera.sol\":845:858  uint256 i = 0 */\n      swap1\n      pop\n        /* \"contracts/listaespera.sol\":841:985  for(uint256 i = 0; i < inscritos.length; i++) {... */\n    tag_54:\n        /* \"contracts/listaespera.sol\":864:873  inscritos */\n      0x02\n        /* \"contracts/listaespera.sol\":864:880  inscritos.length */\n      dup1\n      sload\n      swap1\n      pop\n        /* \"contracts/listaespera.sol\":860:861  i */\n      dup2\n        /* \"contracts/listaespera.sol\":860:880  i < inscritos.length */\n      lt\n        /* \"contracts/listaespera.sol\":841:985  for(uint256 i = 0; i < inscritos.length; i++) {... */\n      iszero\n      tag_55\n      jumpi\n        /* \"contracts/listaespera.sol\":921:929  _usuario */\n      dup3\n        /* \"contracts/listaespera.sol\":905:929  inscritos[i] == _usuario */\n      0xffffffffffffffffffffffffffffffffffffffff\n      and\n        /* \"contracts/listaespera.sol\":905:914  inscritos */\n      0x02\n        /* \"contracts/listaespera.sol\":915:916  i */\n      dup3\n        /* \"contracts/listaespera.sol\":905:917  inscritos[i] */\n      dup2\n      sload\n      dup2\n      lt\n      tag_57\n      jumpi\n      tag_58\n      tag_59\n      jump\t// in\n    tag_58:\n    tag_57:\n      swap1\n      0x00\n      mstore\n      keccak256(0x00, 0x20)\n      add\n      0x00\n      swap1\n      sload\n      swap1\n      0x0100\n      exp\n      swap1\n      div\n      0xffffffffffffffffffffffffffffffffffffffff\n      and\n        /* \"contracts/listaespera.sol\":905:929  inscritos[i] == _usuario */\n      0xffffffffffffffffffffffffffffffffffffffff\n      and\n      sub\n        /* \"contracts/listaespera.sol\":901:975  if (inscritos[i] == _usuario) {... */\n      tag_61\n      jumpi\n        /* \"contracts/listaespera.sol\":956:960  true */\n      0x01\n        /* \"contracts/listaespera.sol\":949:960  return true */\n      swap2\n      pop\n      pop\n      jump(tag_50)\n        /* \"contracts/listaespera.sol\":901:975  if (inscritos[i] == _usuario) {... */\n    tag_61:\n        /* \"contracts/listaespera.sol\":882:885  i++ */\n      dup1\n      dup1\n      0x01\n      add\n      swap2\n      pop\n      pop\n        /* \"contracts/listaespera.sol\":841:985  for(uint256 i = 0; i < inscritos.length; i++) {... */\n      jump(tag_54)\n    tag_55:\n      pop\n        /* \"contracts/listaespera.sol\":1002:1007  false */\n      0x00\n        /* \"contracts/listaespera.sol\":995:1007  return false */\n      swap1\n      pop\n        /* \"contracts/listaespera.sol\":680:1014  function yaEstaInscrito(address _usuario) public view returns (bool) {... */\n    tag_50:\n      swap2\n      swap1\n      pop\n      jump\t// out\n        /* \"contracts/listaespera.sol\":1938:2043  function getBalance() view external returns (uint256) {... */\n    tag_20:\n        /* \"contracts/listaespera.sol\":1983:1990  uint256 */\n      0x00\n        /* \"contracts/listaespera.sol\":2009:2014  token */\n      0x01\n      0x00\n      swap1\n      sload\n      swap1\n      0x0100\n      exp\n      swap1\n      div\n      0xffffffffffffffffffffffffffffffffffffffff\n      and\n        /* \"contracts/listaespera.sol\":2009:2024  token.balanceOf */\n      0xffffffffffffffffffffffffffffffffffffffff\n      and\n      0x70a08231\n        /* \"contracts/listaespera.sol\":2025:2035  msg.sender */\n      caller\n        /* \"contracts/listaespera.sol\":2009:2036  token.balanceOf(msg.sender) */\n      mload(0x40)\n      dup3\n      0xffffffff\n      and\n      0xe0\n      shl\n      dup2\n      mstore\n      0x04\n      add\n      tag_63\n      swap2\n      swap1\n      tag_30\n      jump\t// in\n    tag_63:\n      0x20\n      mload(0x40)\n      dup1\n      dup4\n      sub\n      dup2\n      dup7\n      gas\n      staticcall\n      iszero\n      dup1\n      iszero\n      tag_65\n      jumpi\n      returndatacopy(0x00, 0x00, returndatasize)\n      revert(0x00, returndatasize)\n    tag_65:\n      pop\n      pop\n      pop\n      pop\n      mload(0x40)\n      returndatasize\n      not(0x1f)\n      0x1f\n      dup3\n      add\n      and\n      dup3\n      add\n      dup1\n      0x40\n      mstore\n      pop\n      dup2\n      add\n      swap1\n      tag_66\n      swap2\n      swap1\n      tag_67\n      jump\t// in\n    tag_66:\n        /* \"contracts/listaespera.sol\":2002:2036  return token.balanceOf(msg.sender) */\n      swap1\n      pop\n        /* \"contracts/listaespera.sol\":1938:2043  function getBalance() view external returns (uint256) {... */\n      swap1\n      jump\t// out\n        /* \"contracts/listaespera.sol\":399:674  function inscribirse() external noReentrancy {... */\n    tag_24:\n        /* \"contracts/listaespera.sol\":2141:2150  bloqueado */\n      0x03\n      0x00\n      swap1\n      sload\n      swap1\n      0x0100\n      exp\n      swap1\n      div\n      0xff\n      and\n        /* \"contracts/listaespera.sol\":2137:2160  if (bloqueado) revert() */\n      iszero\n      tag_69\n      jumpi\n        /* \"contracts/listaespera.sol\":2152:2160  revert() */\n      revert(0x00, 0x00)\n        /* \"contracts/listaespera.sol\":2137:2160  if (bloqueado) revert() */\n    tag_69:\n        /* \"contracts/listaespera.sol\":2182:2186  true */\n      0x01\n        /* \"contracts/listaespera.sol\":2170:2179  bloqueado */\n      0x03\n      0x00\n        /* \"contracts/listaespera.sol\":2170:2186  bloqueado = true */\n      0x0100\n      exp\n      dup2\n      sload\n      dup2\n      0xff\n      mul\n      not\n      and\n      swap1\n      dup4\n      iszero\n      iszero\n      mul\n      or\n      swap1\n      sstore\n      pop\n        /* \"contracts/listaespera.sol\":476:481  owner */\n      0x00\n      0x00\n      swap1\n      sload\n      swap1\n      0x0100\n      exp\n      swap1\n      div\n      0xffffffffffffffffffffffffffffffffffffffff\n      and\n        /* \"contracts/listaespera.sol\":462:481  msg.sender != owner */\n      0xffffffffffffffffffffffffffffffffffffffff\n      and\n        /* \"contracts/listaespera.sol\":462:472  msg.sender */\n      caller\n        /* \"contracts/listaespera.sol\":462:481  msg.sender != owner */\n      0xffffffffffffffffffffffffffffffffffffffff\n      and\n      sub\n        /* \"contracts/listaespera.sol\":454:527  require(msg.sender != owner, \"El propietario no puede estar en la lista\") */\n      tag_71\n      jumpi\n      mload(0x40)\n      0x08c379a000000000000000000000000000000000000000000000000000000000\n      dup2\n      mstore\n      0x04\n      add\n      tag_72\n      swap1\n      tag_53\n      jump\t// in\n    tag_72:\n      mload(0x40)\n      dup1\n      swap2\n      sub\n      swap1\n      revert\n    tag_71:\n        /* \"contracts/listaespera.sol\":546:572  yaEstaInscrito(msg.sender) */\n      tag_73\n        /* \"contracts/listaespera.sol\":561:571  msg.sender */\n      caller\n        /* \"contracts/listaespera.sol\":546:560  yaEstaInscrito */\n      tag_16\n        /* \"contracts/listaespera.sol\":546:572  yaEstaInscrito(msg.sender) */\n      jump\t// in\n    tag_73:\n        /* \"contracts/listaespera.sol\":545:572  !yaEstaInscrito(msg.sender) */\n      iszero\n        /* \"contracts/listaespera.sol\":537:594  require(!yaEstaInscrito(msg.sender), \"Ya estas inscrito\") */\n      tag_74\n      jumpi\n      mload(0x40)\n      0x08c379a000000000000000000000000000000000000000000000000000000000\n      dup2\n      mstore\n      0x04\n      add\n      tag_75\n      swap1\n      tag_76\n      jump\t// in\n    tag_75:\n      mload(0x40)\n      dup1\n      swap2\n      sub\n      swap1\n      revert\n    tag_74:\n        /* \"contracts/listaespera.sol\":606:615  inscritos */\n      0x02\n        /* \"contracts/listaespera.sol\":621:631  msg.sender */\n      caller\n        /* \"contracts/listaespera.sol\":606:632  inscritos.push(msg.sender) */\n      swap1\n      dup1\n      0x01\n      dup2\n      sload\n      add\n      dup1\n      dup3\n      sstore\n      dup1\n      swap2\n      pop\n      pop\n      0x01\n      swap1\n      sub\n      swap1\n      0x00\n      mstore\n      keccak256(0x00, 0x20)\n      add\n      0x00\n      swap1\n      swap2\n      swap1\n      swap2\n      swap1\n      swap2\n      0x0100\n      exp\n      dup2\n      sload\n      dup2\n      0xffffffffffffffffffffffffffffffffffffffff\n      mul\n      not\n      and\n      swap1\n      dup4\n      0xffffffffffffffffffffffffffffffffffffffff\n      and\n      mul\n      or\n      swap1\n      sstore\n      pop\n        /* \"contracts/listaespera.sol\":643:648  token */\n      0x01\n      0x00\n      swap1\n      sload\n      swap1\n      0x0100\n      exp\n      swap1\n      div\n      0xffffffffffffffffffffffffffffffffffffffff\n      and\n        /* \"contracts/listaespera.sol\":643:657  token.transfer */\n      0xffffffffffffffffffffffffffffffffffffffff\n      and\n      0xa9059cbb\n        /* \"contracts/listaespera.sol\":658:663  owner */\n      0x00\n      0x00\n      swap1\n      sload\n      swap1\n      0x0100\n      exp\n      swap1\n      div\n      0xffffffffffffffffffffffffffffffffffffffff\n      and\n        /* \"contracts/listaespera.sol\":665:666  1 */\n      0x01\n        /* \"contracts/listaespera.sol\":643:667  token.transfer(owner, 1) */\n      mload(0x40)\n      dup4\n      0xffffffff\n      and\n      0xe0\n      shl\n      dup2\n      mstore\n      0x04\n      add\n      tag_78\n      swap3\n      swap2\n      swap1\n      tag_79\n      jump\t// in\n    tag_78:\n      0x20\n      mload(0x40)\n      dup1\n      dup4\n      sub\n      dup2\n      0x00\n      dup8\n      gas\n      call\n      iszero\n      dup1\n      iszero\n      tag_81\n      jumpi\n      returndatacopy(0x00, 0x00, returndatasize)\n      revert(0x00, returndatasize)\n    tag_81:\n      pop\n      pop\n      pop\n      pop\n      mload(0x40)\n      returndatasize\n      not(0x1f)\n      0x1f\n      dup3\n      add\n      and\n      dup3\n      add\n      dup1\n      0x40\n      mstore\n      pop\n      dup2\n      add\n      swap1\n      tag_82\n      swap2\n      swap1\n      tag_83\n      jump\t// in\n    tag_82:\n      pop\n        /* \"contracts/listaespera.sol\":2219:2224  false */\n      0x00\n        /* \"contracts/listaespera.sol\":2207:2216  bloqueado */\n      0x03\n      0x00\n        /* \"contracts/listaespera.sol\":2207:2224  bloqueado = false */\n      0x0100\n      exp\n      dup2\n      sload\n      dup2\n      0xff\n      mul\n      not\n      and\n      swap1\n      dup4\n      iszero\n      iszero\n      mul\n      or\n      swap1\n      sstore\n      pop\n        /* \"contracts/listaespera.sol\":399:674  function inscribirse() external noReentrancy {... */\n      jump\t// out\n        /* \"contracts/listaespera.sol\":221:250  address[]   public  inscritos */\n    tag_28:\n      0x02\n      dup2\n      dup2\n      sload\n      dup2\n      lt\n      tag_84\n      jumpi\n      0x00\n      dup1\n      revert\n    tag_84:\n      swap1\n      0x00\n      mstore\n      keccak256(0x00, 0x20)\n      add\n      0x00\n      swap2\n      pop\n      sload\n      swap1\n      0x0100\n      exp\n      swap1\n      div\n      0xffffffffffffffffffffffffffffffffffffffff\n      and\n      dup2\n      jump\t// out\n        /* \"contracts/listaespera.sol\":1020:1522  function numeroEnLista(address _usuario) public view returns (bool, uint256) {... */\n    tag_33:\n        /* \"contracts/listaespera.sol\":1082:1086  bool */\n      0x00\n        /* \"contracts/listaespera.sol\":1088:1095  uint256 */\n      0x00\n        /* \"contracts/listaespera.sol\":1127:1132  owner */\n      0x00\n      0x00\n      swap1\n      sload\n      swap1\n      0x0100\n      exp\n      swap1\n      div\n      0xffffffffffffffffffffffffffffffffffffffff\n      and\n        /* \"contracts/listaespera.sol\":1115:1132  _usuario != owner */\n      0xffffffffffffffffffffffffffffffffffffffff\n      and\n        /* \"contracts/listaespera.sol\":1115:1123  _usuario */\n      dup4\n        /* \"contracts/listaespera.sol\":1115:1132  _usuario != owner */\n      0xffffffffffffffffffffffffffffffffffffffff\n      and\n      sub\n        /* \"contracts/listaespera.sol\":1107:1178  require(_usuario != owner, \"El propietario no puede estar en la lista\") */\n      tag_87\n      jumpi\n      mload(0x40)\n      0x08c379a000000000000000000000000000000000000000000000000000000000\n      dup2\n      mstore\n      0x04\n      add\n      tag_88\n      swap1\n      tag_53\n      jump\t// in\n    tag_88:\n      mload(0x40)\n      dup1\n      swap2\n      sub\n      swap1\n      revert\n    tag_87:\n        /* \"contracts/listaespera.sol\":1197:1211  uint256 indice */\n      0x00\n        /* \"contracts/listaespera.sol\":1214:1215  0 */\n      0x00\n        /* \"contracts/listaespera.sol\":1197:1215  uint256 indice = 0 */\n      swap1\n      pop\n        /* \"contracts/listaespera.sol\":1225:1240  bool encontrado */\n      0x00\n        /* \"contracts/listaespera.sol\":1243:1248  false */\n      0x00\n        /* \"contracts/listaespera.sol\":1225:1248  bool encontrado = false */\n      swap1\n      pop\n        /* \"contracts/listaespera.sol\":1262:1271  uint256 i */\n      0x00\n        /* \"contracts/listaespera.sol\":1274:1275  0 */\n      0x00\n        /* \"contracts/listaespera.sol\":1262:1275  uint256 i = 0 */\n      swap1\n      pop\n        /* \"contracts/listaespera.sol\":1258:1478  for(uint256 i = 0; (i < inscritos.length) && (!encontrado); i++) {... */\n    tag_89:\n        /* \"contracts/listaespera.sol\":1282:1291  inscritos */\n      0x02\n        /* \"contracts/listaespera.sol\":1282:1298  inscritos.length */\n      dup1\n      sload\n      swap1\n      pop\n        /* \"contracts/listaespera.sol\":1278:1279  i */\n      dup2\n        /* \"contracts/listaespera.sol\":1278:1298  i < inscritos.length */\n      lt\n        /* \"contracts/listaespera.sol\":1277:1316  (i < inscritos.length) && (!encontrado) */\n      dup1\n      iszero\n      tag_92\n      jumpi\n      pop\n        /* \"contracts/listaespera.sol\":1305:1315  encontrado */\n      dup2\n        /* \"contracts/listaespera.sol\":1304:1315  !encontrado */\n      iszero\n        /* \"contracts/listaespera.sol\":1277:1316  (i < inscritos.length) && (!encontrado) */\n    tag_92:\n        /* \"contracts/listaespera.sol\":1258:1478  for(uint256 i = 0; (i < inscritos.length) && (!encontrado); i++) {... */\n      iszero\n      tag_90\n      jumpi\n        /* \"contracts/listaespera.sol\":1357:1365  _usuario */\n      dup6\n        /* \"contracts/listaespera.sol\":1341:1365  inscritos[i] == _usuario */\n      0xffffffffffffffffffffffffffffffffffffffff\n      and\n        /* \"contracts/listaespera.sol\":1341:1350  inscritos */\n      0x02\n        /* \"contracts/listaespera.sol\":1351:1352  i */\n      dup3\n        /* \"contracts/listaespera.sol\":1341:1353  inscritos[i] */\n      dup2\n      sload\n      dup2\n      lt\n      tag_93\n      jumpi\n      tag_94\n      tag_59\n      jump\t// in\n    tag_94:\n    tag_93:\n      swap1\n      0x00\n      mstore\n      keccak256(0x00, 0x20)\n      add\n      0x00\n      swap1\n      sload\n      swap1\n      0x0100\n      exp\n      swap1\n      div\n      0xffffffffffffffffffffffffffffffffffffffff\n      and\n        /* \"contracts/listaespera.sol\":1341:1365  inscritos[i] == _usuario */\n      0xffffffffffffffffffffffffffffffffffffffff\n      and\n      sub\n        /* \"contracts/listaespera.sol\":1337:1468  if (inscritos[i] == _usuario) {... */\n      tag_96\n      jumpi\n        /* \"contracts/listaespera.sol\":1394:1395  i */\n      dup1\n        /* \"contracts/listaespera.sol\":1385:1395  indice = i */\n      swap3\n      pop\n        /* \"contracts/listaespera.sol\":1426:1430  true */\n      0x01\n        /* \"contracts/listaespera.sol\":1413:1430  encontrado = true */\n      swap2\n      pop\n        /* \"contracts/listaespera.sol\":1448:1453  break */\n      jump(tag_90)\n        /* \"contracts/listaespera.sol\":1337:1468  if (inscritos[i] == _usuario) {... */\n    tag_96:\n        /* \"contracts/listaespera.sol\":1318:1321  i++ */\n      dup1\n      dup1\n      tag_97\n      swap1\n      tag_98\n      jump\t// in\n    tag_97:\n      swap2\n      pop\n      pop\n        /* \"contracts/listaespera.sol\":1258:1478  for(uint256 i = 0; (i < inscritos.length) && (!encontrado); i++) {... */\n      jump(tag_89)\n    tag_90:\n      pop\n        /* \"contracts/listaespera.sol\":1496:1506  encontrado */\n      dup1\n        /* \"contracts/listaespera.sol\":1508:1514  indice */\n      dup3\n        /* \"contracts/listaespera.sol\":1488:1515  return (encontrado, indice) */\n      swap4\n      pop\n      swap4\n      pop\n      pop\n      pop\n        /* \"contracts/listaespera.sol\":1020:1522  function numeroEnLista(address _usuario) public view returns (bool, uint256) {... */\n      swap2\n      pop\n      swap2\n      jump\t// out\n        /* \"contracts/listaespera.sol\":1691:1932  function transferForMember(address from, address to, uint256 amount) external returns (bool) {... */\n    tag_39:\n        /* \"contracts/listaespera.sol\":1778:1782  bool */\n      0x00\n        /* \"contracts/listaespera.sol\":1827:1833  amount */\n      dup2\n        /* \"contracts/listaespera.sol\":1802:1807  token */\n      0x01\n      0x00\n      swap1\n      sload\n      swap1\n      0x0100\n      exp\n      swap1\n      div\n      0xffffffffffffffffffffffffffffffffffffffff\n      and\n        /* \"contracts/listaespera.sol\":1802:1817  token.balanceOf */\n      0xffffffffffffffffffffffffffffffffffffffff\n      and\n      0x70a08231\n        /* \"contracts/listaespera.sol\":1818:1822  from */\n      dup7\n        /* \"contracts/listaespera.sol\":1802:1823  token.balanceOf(from) */\n      mload(0x40)\n      dup3\n      0xffffffff\n      and\n      0xe0\n      shl\n      dup2\n      mstore\n      0x04\n      add\n      tag_100\n      swap2\n      swap1\n      tag_30\n      jump\t// in\n    tag_100:\n      0x20\n      mload(0x40)\n      dup1\n      dup4\n      sub\n      dup2\n      dup7\n      gas\n      staticcall\n      iszero\n      dup1\n      iszero\n      tag_102\n      jumpi\n      returndatacopy(0x00, 0x00, returndatasize)\n      revert(0x00, returndatasize)\n    tag_102:\n      pop\n      pop\n      pop\n      pop\n      mload(0x40)\n      returndatasize\n      not(0x1f)\n      0x1f\n      dup3\n      add\n      and\n      dup3\n      add\n      dup1\n      0x40\n      mstore\n      pop\n      dup2\n      add\n      swap1\n      tag_103\n      swap2\n      swap1\n      tag_67\n      jump\t// in\n    tag_103:\n        /* \"contracts/listaespera.sol\":1802:1833  token.balanceOf(from) >= amount */\n      lt\n      iszero\n        /* \"contracts/listaespera.sol\":1794:1856  require(token.balanceOf(from) >= amount, \"Saldo insuficiente\") */\n      tag_104\n      jumpi\n      mload(0x40)\n      0x08c379a000000000000000000000000000000000000000000000000000000000\n      dup2\n      mstore\n      0x04\n      add\n      tag_105\n      swap1\n      tag_106\n      jump\t// in\n    tag_105:\n      mload(0x40)\n      dup1\n      swap2\n      sub\n      swap1\n      revert\n    tag_104:\n        /* \"contracts/listaespera.sol\":1867:1872  token */\n      0x01\n      0x00\n      swap1\n      sload\n      swap1\n      0x0100\n      exp\n      swap1\n      div\n      0xffffffffffffffffffffffffffffffffffffffff\n      and\n        /* \"contracts/listaespera.sol\":1867:1885  token.transferFrom */\n      0xffffffffffffffffffffffffffffffffffffffff\n      and\n      0x23b872dd\n        /* \"contracts/listaespera.sol\":1886:1890  from */\n      dup6\n        /* \"contracts/listaespera.sol\":1892:1894  to */\n      dup6\n        /* \"contracts/listaespera.sol\":1896:1902  amount */\n      dup6\n        /* \"contracts/listaespera.sol\":1867:1903  token.transferFrom(from, to, amount) */\n      mload(0x40)\n      dup5\n      0xffffffff\n      and\n      0xe0\n      shl\n      dup2\n      mstore\n      0x04\n      add\n      tag_107\n      swap4\n      swap3\n      swap2\n      swap1\n      tag_108\n      jump\t// in\n    tag_107:\n      0x20\n      mload(0x40)\n      dup1\n      dup4\n      sub\n      dup2\n      0x00\n      dup8\n      gas\n      call\n      iszero\n      dup1\n      iszero\n      tag_110\n      jumpi\n      returndatacopy(0x00, 0x00, returndatasize)\n      revert(0x00, returndatasize)\n    tag_110:\n      pop\n      pop\n      pop\n      pop\n      mload(0x40)\n      returndatasize\n      not(0x1f)\n      0x1f\n      dup3\n      add\n      and\n      dup3\n      add\n      dup1\n      0x40\n      mstore\n      pop\n      dup2\n      add\n      swap1\n      tag_111\n      swap2\n      swap1\n      tag_83\n      jump\t// in\n    tag_111:\n      pop\n        /* \"contracts/listaespera.sol\":1921:1925  true */\n      0x01\n        /* \"contracts/listaespera.sol\":1914:1925  return true */\n      swap1\n      pop\n        /* \"contracts/listaespera.sol\":1691:1932  function transferForMember(address from, address to, uint256 amount) external returns (bool) {... */\n      swap4\n      swap3\n      pop\n      pop\n      pop\n      jump\t// out\n        /* \"contracts/listaespera.sol\":114:184  address     public  owner = 0xF55301514c27489Fde7C9cd9A3EA8044E7E04579 */\n    tag_42:\n      0x00\n      0x00\n      swap1\n      sload\n      swap1\n      0x0100\n      exp\n      swap1\n      div\n      0xffffffffffffffffffffffffffffffffffffffff\n      and\n      dup2\n      jump\t// out\n        /* \"contracts/listaespera.sol\":1527:1685  function comprarToken() external {... */\n    tag_45:\n        /* \"contracts/listaespera.sol\":1570:1590  uint256 numeroTokens */\n      0x00\n        /* \"contracts/listaespera.sol\":1624:1630  10**18 */\n      0x0de0b6b3a7640000\n        /* \"contracts/listaespera.sol\":1593:1598  token */\n      0x01\n      0x00\n      swap1\n      sload\n      swap1\n      0x0100\n      exp\n      swap1\n      div\n      0xffffffffffffffffffffffffffffffffffffffff\n      and\n        /* \"contracts/listaespera.sol\":1593:1608  token.balanceOf */\n      0xffffffffffffffffffffffffffffffffffffffff\n      and\n      0x70a08231\n        /* \"contracts/listaespera.sol\":1609:1619  msg.sender */\n      caller\n        /* \"contracts/listaespera.sol\":1593:1620  token.balanceOf(msg.sender) */\n      mload(0x40)\n      dup3\n      0xffffffff\n      and\n      0xe0\n      shl\n      dup2\n      mstore\n      0x04\n      add\n      tag_113\n      swap2\n      swap1\n      tag_30\n      jump\t// in\n    tag_113:\n      0x20\n      mload(0x40)\n      dup1\n      dup4\n      sub\n      dup2\n      dup7\n      gas\n      staticcall\n      iszero\n      dup1\n      iszero\n      tag_115\n      jumpi\n      returndatacopy(0x00, 0x00, returndatasize)\n      revert(0x00, returndatasize)\n    tag_115:\n      pop\n      pop\n      pop\n      pop\n      mload(0x40)\n      returndatasize\n      not(0x1f)\n      0x1f\n      dup3\n      add\n      and\n      dup3\n      add\n      dup1\n      0x40\n      mstore\n      pop\n      dup2\n      add\n      swap1\n      tag_116\n      swap2\n      swap1\n      tag_67\n      jump\t// in\n    tag_116:\n        /* \"contracts/listaespera.sol\":1593:1631  token.balanceOf(msg.sender) + (10**18) */\n      tag_117\n      swap2\n      swap1\n      tag_118\n      jump\t// in\n    tag_117:\n        /* \"contracts/listaespera.sol\":1570:1631  uint256 numeroTokens = token.balanceOf(msg.sender) + (10**18) */\n      swap1\n      pop\n        /* \"contracts/listaespera.sol\":1642:1647  token */\n      0x01\n      0x00\n      swap1\n      sload\n      swap1\n      0x0100\n      exp\n      swap1\n      div\n      0xffffffffffffffffffffffffffffffffffffffff\n      and\n        /* \"contracts/listaespera.sol\":1642:1652  token.mint */\n      0xffffffffffffffffffffffffffffffffffffffff\n      and\n      0x40c10f19\n        /* \"contracts/listaespera.sol\":1653:1663  msg.sender */\n      caller\n        /* \"contracts/listaespera.sol\":1665:1677  numeroTokens */\n      dup4\n        /* \"contracts/listaespera.sol\":1642:1678  token.mint(msg.sender, numeroTokens) */\n      mload(0x40)\n      dup4\n      0xffffffff\n      and\n      0xe0\n      shl\n      dup2\n      mstore\n      0x04\n      add\n      tag_119\n      swap3\n      swap2\n      swap1\n      tag_120\n      jump\t// in\n    tag_119:\n      0x00\n      mload(0x40)\n      dup1\n      dup4\n      sub\n      dup2\n      0x00\n      dup8\n      dup1\n      extcodesize\n      iszero\n      dup1\n      iszero\n      tag_121\n      jumpi\n      revert(0x00, 0x00)\n    tag_121:\n      pop\n      gas\n      call\n      iszero\n      dup1\n      iszero\n      tag_123\n      jumpi\n      returndatacopy(0x00, 0x00, returndatasize)\n      revert(0x00, returndatasize)\n    tag_123:\n      pop\n      pop\n      pop\n      pop\n        /* \"contracts/listaespera.sol\":1560:1685  {... */\n      pop\n        /* \"contracts/listaespera.sol\":1527:1685  function comprarToken() external {... */\n      jump\t// out\n        /* \"contracts/listaespera.sol\":190:215  TokenEspera public  token */\n    tag_47:\n      0x01\n      0x00\n      swap1\n      sload\n      swap1\n      0x0100\n      exp\n      swap1\n      div\n      0xffffffffffffffffffffffffffffffffffffffff\n      and\n      dup2\n      jump\t// out\n        /* \"#utility.yul\":88:205   */\n    tag_125:\n        /* \"#utility.yul\":197:198   */\n      0x00\n        /* \"#utility.yul\":194:195   */\n      0x00\n        /* \"#utility.yul\":187:199   */\n      revert\n        /* \"#utility.yul\":334:460   */\n    tag_127:\n        /* \"#utility.yul\":371:378   */\n      0x00\n        /* \"#utility.yul\":411:453   */\n      0xffffffffffffffffffffffffffffffffffffffff\n        /* \"#utility.yul\":404:409   */\n      dup3\n        /* \"#utility.yul\":400:454   */\n      and\n        /* \"#utility.yul\":389:454   */\n      swap1\n      pop\n        /* \"#utility.yul\":334:460   */\n      swap2\n      swap1\n      pop\n      jump\t// out\n        /* \"#utility.yul\":466:562   */\n    tag_128:\n        /* \"#utility.yul\":503:510   */\n      0x00\n        /* \"#utility.yul\":532:556   */\n      tag_163\n        /* \"#utility.yul\":550:555   */\n      dup3\n        /* \"#utility.yul\":532:556   */\n      tag_127\n      jump\t// in\n    tag_163:\n        /* \"#utility.yul\":521:556   */\n      swap1\n      pop\n        /* \"#utility.yul\":466:562   */\n      swap2\n      swap1\n      pop\n      jump\t// out\n        /* \"#utility.yul\":568:690   */\n    tag_129:\n        /* \"#utility.yul\":641:665   */\n      tag_165\n        /* \"#utility.yul\":659:664   */\n      dup2\n        /* \"#utility.yul\":641:665   */\n      tag_128\n      jump\t// in\n    tag_165:\n        /* \"#utility.yul\":634:639   */\n      dup2\n        /* \"#utility.yul\":631:666   */\n      eq\n        /* \"#utility.yul\":621:684   */\n      tag_166\n      jumpi\n        /* \"#utility.yul\":680:681   */\n      0x00\n        /* \"#utility.yul\":677:678   */\n      0x00\n        /* \"#utility.yul\":670:682   */\n      revert\n        /* \"#utility.yul\":621:684   */\n    tag_166:\n        /* \"#utility.yul\":568:690   */\n      pop\n      jump\t// out\n        /* \"#utility.yul\":696:835   */\n    tag_130:\n        /* \"#utility.yul\":742:747   */\n      0x00\n        /* \"#utility.yul\":780:786   */\n      dup2\n        /* \"#utility.yul\":767:787   */\n      calldataload\n        /* \"#utility.yul\":758:787   */\n      swap1\n      pop\n        /* \"#utility.yul\":796:829   */\n      tag_168\n        /* \"#utility.yul\":823:828   */\n      dup2\n        /* \"#utility.yul\":796:829   */\n      tag_129\n      jump\t// in\n    tag_168:\n        /* \"#utility.yul\":696:835   */\n      swap3\n      swap2\n      pop\n      pop\n      jump\t// out\n        /* \"#utility.yul\":841:1170   */\n    tag_15:\n        /* \"#utility.yul\":900:906   */\n      0x00\n        /* \"#utility.yul\":949:951   */\n      0x20\n        /* \"#utility.yul\":937:946   */\n      dup3\n        /* \"#utility.yul\":928:935   */\n      dup5\n        /* \"#utility.yul\":924:947   */\n      sub\n        /* \"#utility.yul\":920:952   */\n      slt\n        /* \"#utility.yul\":917:1036   */\n      iszero\n      tag_170\n      jumpi\n        /* \"#utility.yul\":955:1034   */\n      tag_171\n      tag_125\n      jump\t// in\n    tag_171:\n        /* \"#utility.yul\":917:1036   */\n    tag_170:\n        /* \"#utility.yul\":1075:1076   */\n      0x00\n        /* \"#utility.yul\":1100:1153   */\n      tag_172\n        /* \"#utility.yul\":1145:1152   */\n      dup5\n        /* \"#utility.yul\":1136:1142   */\n      dup3\n        /* \"#utility.yul\":1125:1134   */\n      dup6\n        /* \"#utility.yul\":1121:1143   */\n      add\n        /* \"#utility.yul\":1100:1153   */\n      tag_130\n      jump\t// in\n    tag_172:\n        /* \"#utility.yul\":1090:1153   */\n      swap2\n      pop\n        /* \"#utility.yul\":1046:1163   */\n      pop\n        /* \"#utility.yul\":841:1170   */\n      swap3\n      swap2\n      pop\n      pop\n      jump\t// out\n        /* \"#utility.yul\":1176:1266   */\n    tag_131:\n        /* \"#utility.yul\":1210:1217   */\n      0x00\n        /* \"#utility.yul\":1253:1258   */\n      dup2\n        /* \"#utility.yul\":1246:1259   */\n      iszero\n        /* \"#utility.yul\":1239:1260   */\n      iszero\n        /* \"#utility.yul\":1228:1260   */\n      swap1\n      pop\n        /* \"#utility.yul\":1176:1266   */\n      swap2\n      swap1\n      pop\n      jump\t// out\n        /* \"#utility.yul\":1272:1381   */\n    tag_132:\n        /* \"#utility.yul\":1353:1374   */\n      tag_175\n        /* \"#utility.yul\":1368:1373   */\n      dup2\n        /* \"#utility.yul\":1353:1374   */\n      tag_131\n      jump\t// in\n    tag_175:\n        /* \"#utility.yul\":1348:1351   */\n      dup3\n        /* \"#utility.yul\":1341:1375   */\n      mstore\n        /* \"#utility.yul\":1272:1381   */\n      pop\n      pop\n      jump\t// out\n        /* \"#utility.yul\":1387:1597   */\n    tag_18:\n        /* \"#utility.yul\":1474:1478   */\n      0x00\n        /* \"#utility.yul\":1512:1514   */\n      0x20\n        /* \"#utility.yul\":1501:1510   */\n      dup3\n        /* \"#utility.yul\":1497:1515   */\n      add\n        /* \"#utility.yul\":1489:1515   */\n      swap1\n      pop\n        /* \"#utility.yul\":1525:1590   */\n      tag_177\n        /* \"#utility.yul\":1587:1588   */\n      0x00\n        /* \"#utility.yul\":1576:1585   */\n      dup4\n        /* \"#utility.yul\":1572:1589   */\n      add\n        /* \"#utility.yul\":1563:1569   */\n      dup5\n        /* \"#utility.yul\":1525:1590   */\n      tag_132\n      jump\t// in\n    tag_177:\n        /* \"#utility.yul\":1387:1597   */\n      swap3\n      swap2\n      pop\n      pop\n      jump\t// out\n        /* \"#utility.yul\":1603:1680   */\n    tag_133:\n        /* \"#utility.yul\":1640:1647   */\n      0x00\n        /* \"#utility.yul\":1669:1674   */\n      dup2\n        /* \"#utility.yul\":1658:1674   */\n      swap1\n      pop\n        /* \"#utility.yul\":1603:1680   */\n      swap2\n      swap1\n      pop\n      jump\t// out\n        /* \"#utility.yul\":1686:1804   */\n    tag_134:\n        /* \"#utility.yul\":1773:1797   */\n      tag_180\n        /* \"#utility.yul\":1791:1796   */\n      dup2\n        /* \"#utility.yul\":1773:1797   */\n      tag_133\n      jump\t// in\n    tag_180:\n        /* \"#utility.yul\":1768:1771   */\n      dup3\n        /* \"#utility.yul\":1761:1798   */\n      mstore\n        /* \"#utility.yul\":1686:1804   */\n      pop\n      pop\n      jump\t// out\n        /* \"#utility.yul\":1810:2032   */\n    tag_22:\n        /* \"#utility.yul\":1903:1907   */\n      0x00\n        /* \"#utility.yul\":1941:1943   */\n      0x20\n        /* \"#utility.yul\":1930:1939   */\n      dup3\n        /* \"#utility.yul\":1926:1944   */\n      add\n        /* \"#utility.yul\":1918:1944   */\n      swap1\n      pop\n        /* \"#utility.yul\":1954:2025   */\n      tag_182\n        /* \"#utility.yul\":2022:2023   */\n      0x00\n        /* \"#utility.yul\":2011:2020   */\n      dup4\n        /* \"#utility.yul\":2007:2024   */\n      add\n        /* \"#utility.yul\":1998:2004   */\n      dup5\n        /* \"#utility.yul\":1954:2025   */\n      tag_134\n      jump\t// in\n    tag_182:\n        /* \"#utility.yul\":1810:2032   */\n      swap3\n      swap2\n      pop\n      pop\n      jump\t// out\n        /* \"#utility.yul\":2038:2160   */\n    tag_135:\n        /* \"#utility.yul\":2111:2135   */\n      tag_184\n        /* \"#utility.yul\":2129:2134   */\n      dup2\n        /* \"#utility.yul\":2111:2135   */\n      tag_133\n      jump\t// in\n    tag_184:\n        /* \"#utility.yul\":2104:2109   */\n      dup2\n        /* \"#utility.yul\":2101:2136   */\n      eq\n        /* \"#utility.yul\":2091:2154   */\n      tag_185\n      jumpi\n        /* \"#utility.yul\":2150:2151   */\n      0x00\n        /* \"#utility.yul\":2147:2148   */\n      0x00\n        /* \"#utility.yul\":2140:2152   */\n      revert\n        /* \"#utility.yul\":2091:2154   */\n    tag_185:\n        /* \"#utility.yul\":2038:2160   */\n      pop\n      jump\t// out\n        /* \"#utility.yul\":2166:2305   */\n    tag_136:\n        /* \"#utility.yul\":2212:2217   */\n      0x00\n        /* \"#utility.yul\":2250:2256   */\n      dup2\n        /* \"#utility.yul\":2237:2257   */\n      calldataload\n        /* \"#utility.yul\":2228:2257   */\n      swap1\n      pop\n        /* \"#utility.yul\":2266:2299   */\n      tag_187\n        /* \"#utility.yul\":2293:2298   */\n      dup2\n        /* \"#utility.yul\":2266:2299   */\n      tag_135\n      jump\t// in\n    tag_187:\n        /* \"#utility.yul\":2166:2305   */\n      swap3\n      swap2\n      pop\n      pop\n      jump\t// out\n        /* \"#utility.yul\":2311:2640   */\n    tag_27:\n        /* \"#utility.yul\":2370:2376   */\n      0x00\n        /* \"#utility.yul\":2419:2421   */\n      0x20\n        /* \"#utility.yul\":2407:2416   */\n      dup3\n        /* \"#utility.yul\":2398:2405   */\n      dup5\n        /* \"#utility.yul\":2394:2417   */\n      sub\n        /* \"#utility.yul\":2390:2422   */\n      slt\n        /* \"#utility.yul\":2387:2506   */\n      iszero\n      tag_189\n      jumpi\n        /* \"#utility.yul\":2425:2504   */\n      tag_190\n      tag_125\n      jump\t// in\n    tag_190:\n        /* \"#utility.yul\":2387:2506   */\n    tag_189:\n        /* \"#utility.yul\":2545:2546   */\n      0x00\n        /* \"#utility.yul\":2570:2623   */\n      tag_191\n        /* \"#utility.yul\":2615:2622   */\n      dup5\n        /* \"#utility.yul\":2606:2612   */\n      dup3\n        /* \"#utility.yul\":2595:2604   */\n      dup6\n        /* \"#utility.yul\":2591:2613   */\n      add\n        /* \"#utility.yul\":2570:2623   */\n      tag_136\n      jump\t// in\n    tag_191:\n        /* \"#utility.yul\":2560:2623   */\n      swap2\n      pop\n        /* \"#utility.yul\":2516:2633   */\n      pop\n        /* \"#utility.yul\":2311:2640   */\n      swap3\n      swap2\n      pop\n      pop\n      jump\t// out\n        /* \"#utility.yul\":2646:2764   */\n    tag_137:\n        /* \"#utility.yul\":2733:2757   */\n      tag_193\n        /* \"#utility.yul\":2751:2756   */\n      dup2\n        /* \"#utility.yul\":2733:2757   */\n      tag_128\n      jump\t// in\n    tag_193:\n        /* \"#utility.yul\":2728:2731   */\n      dup3\n        /* \"#utility.yul\":2721:2758   */\n      mstore\n        /* \"#utility.yul\":2646:2764   */\n      pop\n      pop\n      jump\t// out\n        /* \"#utility.yul\":2770:2992   */\n    tag_30:\n        /* \"#utility.yul\":2863:2867   */\n      0x00\n        /* \"#utility.yul\":2901:2903   */\n      0x20\n        /* \"#utility.yul\":2890:2899   */\n      dup3\n        /* \"#utility.yul\":2886:2904   */\n      add\n        /* \"#utility.yul\":2878:2904   */\n      swap1\n      pop\n        /* \"#utility.yul\":2914:2985   */\n      tag_195\n        /* \"#utility.yul\":2982:2983   */\n      0x00\n        /* \"#utility.yul\":2971:2980   */\n      dup4\n        /* \"#utility.yul\":2967:2984   */\n      add\n        /* \"#utility.yul\":2958:2964   */\n      dup5\n        /* \"#utility.yul\":2914:2985   */\n      tag_137\n      jump\t// in\n    tag_195:\n        /* \"#utility.yul\":2770:2992   */\n      swap3\n      swap2\n      pop\n      pop\n      jump\t// out\n        /* \"#utility.yul\":2998:3318   */\n    tag_35:\n        /* \"#utility.yul\":3113:3117   */\n      0x00\n        /* \"#utility.yul\":3151:3153   */\n      0x40\n        /* \"#utility.yul\":3140:3149   */\n      dup3\n        /* \"#utility.yul\":3136:3154   */\n      add\n        /* \"#utility.yul\":3128:3154   */\n      swap1\n      pop\n        /* \"#utility.yul\":3164:3229   */\n      tag_197\n        /* \"#utility.yul\":3226:3227   */\n      0x00\n        /* \"#utility.yul\":3215:3224   */\n      dup4\n        /* \"#utility.yul\":3211:3228   */\n      add\n        /* \"#utility.yul\":3202:3208   */\n      dup6\n        /* \"#utility.yul\":3164:3229   */\n      tag_132\n      jump\t// in\n    tag_197:\n        /* \"#utility.yul\":3239:3311   */\n      tag_198\n        /* \"#utility.yul\":3307:3309   */\n      0x20\n        /* \"#utility.yul\":3296:3305   */\n      dup4\n        /* \"#utility.yul\":3292:3310   */\n      add\n        /* \"#utility.yul\":3283:3289   */\n      dup5\n        /* \"#utility.yul\":3239:3311   */\n      tag_134\n      jump\t// in\n    tag_198:\n        /* \"#utility.yul\":2998:3318   */\n      swap4\n      swap3\n      pop\n      pop\n      pop\n      jump\t// out\n        /* \"#utility.yul\":3324:3943   */\n    tag_38:\n        /* \"#utility.yul\":3401:3407   */\n      0x00\n        /* \"#utility.yul\":3409:3415   */\n      0x00\n        /* \"#utility.yul\":3417:3423   */\n      0x00\n        /* \"#utility.yul\":3466:3468   */\n      0x60\n        /* \"#utility.yul\":3454:3463   */\n      dup5\n        /* \"#utility.yul\":3445:3452   */\n      dup7\n        /* \"#utility.yul\":3441:3464   */\n      sub\n        /* \"#utility.yul\":3437:3469   */\n      slt\n        /* \"#utility.yul\":3434:3553   */\n      iszero\n      tag_200\n      jumpi\n        /* \"#utility.yul\":3472:3551   */\n      tag_201\n      tag_125\n      jump\t// in\n    tag_201:\n        /* \"#utility.yul\":3434:3553   */\n    tag_200:\n        /* \"#utility.yul\":3592:3593   */\n      0x00\n        /* \"#utility.yul\":3617:3670   */\n      tag_202\n        /* \"#utility.yul\":3662:3669   */\n      dup7\n        /* \"#utility.yul\":3653:3659   */\n      dup3\n        /* \"#utility.yul\":3642:3651   */\n      dup8\n        /* \"#utility.yul\":3638:3660   */\n      add\n        /* \"#utility.yul\":3617:3670   */\n      tag_130\n      jump\t// in\n    tag_202:\n        /* \"#utility.yul\":3607:3670   */\n      swap4\n      pop\n        /* \"#utility.yul\":3563:3680   */\n      pop\n        /* \"#utility.yul\":3719:3721   */\n      0x20\n        /* \"#utility.yul\":3745:3798   */\n      tag_203\n        /* \"#utility.yul\":3790:3797   */\n      dup7\n        /* \"#utility.yul\":3781:3787   */\n      dup3\n        /* \"#utility.yul\":3770:3779   */\n      dup8\n        /* \"#utility.yul\":3766:3788   */\n      add\n        /* \"#utility.yul\":3745:3798   */\n      tag_130\n      jump\t// in\n    tag_203:\n        /* \"#utility.yul\":3735:3798   */\n      swap3\n      pop\n        /* \"#utility.yul\":3690:3808   */\n      pop\n        /* \"#utility.yul\":3847:3849   */\n      0x40\n        /* \"#utility.yul\":3873:3926   */\n      tag_204\n        /* \"#utility.yul\":3918:3925   */\n      dup7\n        /* \"#utility.yul\":3909:3915   */\n      dup3\n        /* \"#utility.yul\":3898:3907   */\n      dup8\n        /* \"#utility.yul\":3894:3916   */\n      add\n        /* \"#utility.yul\":3873:3926   */\n      tag_136\n      jump\t// in\n    tag_204:\n        /* \"#utility.yul\":3863:3926   */\n      swap2\n      pop\n        /* \"#utility.yul\":3818:3936   */\n      pop\n        /* \"#utility.yul\":3324:3943   */\n      swap3\n      pop\n      swap3\n      pop\n      swap3\n      jump\t// out\n        /* \"#utility.yul\":3949:4009   */\n    tag_138:\n        /* \"#utility.yul\":3977:3980   */\n      0x00\n        /* \"#utility.yul\":3998:4003   */\n      dup2\n        /* \"#utility.yul\":3991:4003   */\n      swap1\n      pop\n        /* \"#utility.yul\":3949:4009   */\n      swap2\n      swap1\n      pop\n      jump\t// out\n        /* \"#utility.yul\":4015:4157   */\n    tag_139:\n        /* \"#utility.yul\":4065:4074   */\n      0x00\n        /* \"#utility.yul\":4098:4151   */\n      tag_207\n        /* \"#utility.yul\":4116:4150   */\n      tag_208\n        /* \"#utility.yul\":4125:4149   */\n      tag_209\n        /* \"#utility.yul\":4143:4148   */\n      dup5\n        /* \"#utility.yul\":4125:4149   */\n      tag_127\n      jump\t// in\n    tag_209:\n        /* \"#utility.yul\":4116:4150   */\n      tag_138\n      jump\t// in\n    tag_208:\n        /* \"#utility.yul\":4098:4151   */\n      tag_127\n      jump\t// in\n    tag_207:\n        /* \"#utility.yul\":4085:4151   */\n      swap1\n      pop\n        /* \"#utility.yul\":4015:4157   */\n      swap2\n      swap1\n      pop\n      jump\t// out\n        /* \"#utility.yul\":4163:4289   */\n    tag_140:\n        /* \"#utility.yul\":4213:4222   */\n      0x00\n        /* \"#utility.yul\":4246:4283   */\n      tag_211\n        /* \"#utility.yul\":4277:4282   */\n      dup3\n        /* \"#utility.yul\":4246:4283   */\n      tag_139\n      jump\t// in\n    tag_211:\n        /* \"#utility.yul\":4233:4283   */\n      swap1\n      pop\n        /* \"#utility.yul\":4163:4289   */\n      swap2\n      swap1\n      pop\n      jump\t// out\n        /* \"#utility.yul\":4295:4441   */\n    tag_141:\n        /* \"#utility.yul\":4365:4374   */\n      0x00\n        /* \"#utility.yul\":4398:4435   */\n      tag_213\n        /* \"#utility.yul\":4429:4434   */\n      dup3\n        /* \"#utility.yul\":4398:4435   */\n      tag_140\n      jump\t// in\n    tag_213:\n        /* \"#utility.yul\":4385:4435   */\n      swap1\n      pop\n        /* \"#utility.yul\":4295:4441   */\n      swap2\n      swap1\n      pop\n      jump\t// out\n        /* \"#utility.yul\":4447:4618   */\n    tag_142:\n        /* \"#utility.yul\":4554:4611   */\n      tag_215\n        /* \"#utility.yul\":4605:4610   */\n      dup2\n        /* \"#utility.yul\":4554:4611   */\n      tag_141\n      jump\t// in\n    tag_215:\n        /* \"#utility.yul\":4549:4552   */\n      dup3\n        /* \"#utility.yul\":4542:4612   */\n      mstore\n        /* \"#utility.yul\":4447:4618   */\n      pop\n      pop\n      jump\t// out\n        /* \"#utility.yul\":4624:4886   */\n    tag_49:\n        /* \"#utility.yul\":4737:4741   */\n      0x00\n        /* \"#utility.yul\":4775:4777   */\n      0x20\n        /* \"#utility.yul\":4764:4773   */\n      dup3\n        /* \"#utility.yul\":4760:4778   */\n      add\n        /* \"#utility.yul\":4752:4778   */\n      swap1\n      pop\n        /* \"#utility.yul\":4788:4879   */\n      tag_217\n        /* \"#utility.yul\":4876:4877   */\n      0x00\n        /* \"#utility.yul\":4865:4874   */\n      dup4\n        /* \"#utility.yul\":4861:4878   */\n      add\n        /* \"#utility.yul\":4852:4858   */\n      dup5\n        /* \"#utility.yul\":4788:4879   */\n      tag_142\n      jump\t// in\n    tag_217:\n        /* \"#utility.yul\":4624:4886   */\n      swap3\n      swap2\n      pop\n      pop\n      jump\t// out\n        /* \"#utility.yul\":4892:5061   */\n    tag_143:\n        /* \"#utility.yul\":4976:4987   */\n      0x00\n        /* \"#utility.yul\":5010:5016   */\n      dup3\n        /* \"#utility.yul\":5005:5008   */\n      dup3\n        /* \"#utility.yul\":4998:5017   */\n      mstore\n        /* \"#utility.yul\":5050:5054   */\n      0x20\n        /* \"#utility.yul\":5045:5048   */\n      dup3\n        /* \"#utility.yul\":5041:5055   */\n      add\n        /* \"#utility.yul\":5026:5055   */\n      swap1\n      pop\n        /* \"#utility.yul\":4892:5061   */\n      swap3\n      swap2\n      pop\n      pop\n      jump\t// out\n        /* \"#utility.yul\":5067:5295   */\n    tag_144:\n        /* \"#utility.yul\":5207:5241   */\n      0x456c2070726f706965746172696f206e6f20707565646520657374617220656e\n        /* \"#utility.yul\":5203:5204   */\n      0x00\n        /* \"#utility.yul\":5195:5201   */\n      dup3\n        /* \"#utility.yul\":5191:5205   */\n      add\n        /* \"#utility.yul\":5184:5242   */\n      mstore\n        /* \"#utility.yul\":5276:5287   */\n      0x206c61206c697374610000000000000000000000000000000000000000000000\n        /* \"#utility.yul\":5271:5273   */\n      0x20\n        /* \"#utility.yul\":5263:5269   */\n      dup3\n        /* \"#utility.yul\":5259:5274   */\n      add\n        /* \"#utility.yul\":5252:5288   */\n      mstore\n        /* \"#utility.yul\":5067:5295   */\n      pop\n      jump\t// out\n        /* \"#utility.yul\":5301:5667   */\n    tag_145:\n        /* \"#utility.yul\":5443:5446   */\n      0x00\n        /* \"#utility.yul\":5464:5531   */\n      tag_221\n        /* \"#utility.yul\":5528:5530   */\n      0x29\n        /* \"#utility.yul\":5523:5526   */\n      dup4\n        /* \"#utility.yul\":5464:5531   */\n      tag_143\n      jump\t// in\n    tag_221:\n        /* \"#utility.yul\":5457:5531   */\n      swap2\n      pop\n        /* \"#utility.yul\":5540:5633   */\n      tag_222\n        /* \"#utility.yul\":5629:5632   */\n      dup3\n        /* \"#utility.yul\":5540:5633   */\n      tag_144\n      jump\t// in\n    tag_222:\n        /* \"#utility.yul\":5658:5660   */\n      0x40\n        /* \"#utility.yul\":5653:5656   */\n      dup3\n        /* \"#utility.yul\":5649:5661   */\n      add\n        /* \"#utility.yul\":5642:5661   */\n      swap1\n      pop\n        /* \"#utility.yul\":5301:5667   */\n      swap2\n      swap1\n      pop\n      jump\t// out\n        /* \"#utility.yul\":5673:6092   */\n    tag_53:\n        /* \"#utility.yul\":5839:5843   */\n      0x00\n        /* \"#utility.yul\":5877:5879   */\n      0x20\n        /* \"#utility.yul\":5866:5875   */\n      dup3\n        /* \"#utility.yul\":5862:5880   */\n      add\n        /* \"#utility.yul\":5854:5880   */\n      swap1\n      pop\n        /* \"#utility.yul\":5926:5935   */\n      dup2\n        /* \"#utility.yul\":5920:5924   */\n      dup2\n        /* \"#utility.yul\":5916:5936   */\n      sub\n        /* \"#utility.yul\":5912:5913   */\n      0x00\n        /* \"#utility.yul\":5901:5910   */\n      dup4\n        /* \"#utility.yul\":5897:5914   */\n      add\n        /* \"#utility.yul\":5890:5937   */\n      mstore\n        /* \"#utility.yul\":5954:6085   */\n      tag_224\n        /* \"#utility.yul\":6080:6084   */\n      dup2\n        /* \"#utility.yul\":5954:6085   */\n      tag_145\n      jump\t// in\n    tag_224:\n        /* \"#utility.yul\":5946:6085   */\n      swap1\n      pop\n        /* \"#utility.yul\":5673:6092   */\n      swap2\n      swap1\n      pop\n      jump\t// out\n        /* \"#utility.yul\":6098:6278   */\n    tag_59:\n        /* \"#utility.yul\":6146:6223   */\n      0x4e487b7100000000000000000000000000000000000000000000000000000000\n        /* \"#utility.yul\":6143:6144   */\n      0x00\n        /* \"#utility.yul\":6136:6224   */\n      mstore\n        /* \"#utility.yul\":6243:6247   */\n      0x32\n        /* \"#utility.yul\":6240:6241   */\n      0x04\n        /* \"#utility.yul\":6233:6248   */\n      mstore\n        /* \"#utility.yul\":6267:6271   */\n      0x24\n        /* \"#utility.yul\":6264:6265   */\n      0x00\n        /* \"#utility.yul\":6257:6272   */\n      revert\n        /* \"#utility.yul\":6284:6427   */\n    tag_146:\n        /* \"#utility.yul\":6341:6346   */\n      0x00\n        /* \"#utility.yul\":6372:6378   */\n      dup2\n        /* \"#utility.yul\":6366:6379   */\n      mload\n        /* \"#utility.yul\":6357:6379   */\n      swap1\n      pop\n        /* \"#utility.yul\":6388:6421   */\n      tag_227\n        /* \"#utility.yul\":6415:6420   */\n      dup2\n        /* \"#utility.yul\":6388:6421   */\n      tag_135\n      jump\t// in\n    tag_227:\n        /* \"#utility.yul\":6284:6427   */\n      swap3\n      swap2\n      pop\n      pop\n      jump\t// out\n        /* \"#utility.yul\":6433:6784   */\n    tag_67:\n        /* \"#utility.yul\":6503:6509   */\n      0x00\n        /* \"#utility.yul\":6552:6554   */\n      0x20\n        /* \"#utility.yul\":6540:6549   */\n      dup3\n        /* \"#utility.yul\":6531:6538   */\n      dup5\n        /* \"#utility.yul\":6527:6550   */\n      sub\n        /* \"#utility.yul\":6523:6555   */\n      slt\n        /* \"#utility.yul\":6520:6639   */\n      iszero\n      tag_229\n      jumpi\n        /* \"#utility.yul\":6558:6637   */\n      tag_230\n      tag_125\n      jump\t// in\n    tag_230:\n        /* \"#utility.yul\":6520:6639   */\n    tag_229:\n        /* \"#utility.yul\":6678:6679   */\n      0x00\n        /* \"#utility.yul\":6703:6767   */\n      tag_231\n        /* \"#utility.yul\":6759:6766   */\n      dup5\n        /* \"#utility.yul\":6750:6756   */\n      dup3\n        /* \"#utility.yul\":6739:6748   */\n      dup6\n        /* \"#utility.yul\":6735:6757   */\n      add\n        /* \"#utility.yul\":6703:6767   */\n      tag_146\n      jump\t// in\n    tag_231:\n        /* \"#utility.yul\":6693:6767   */\n      swap2\n      pop\n        /* \"#utility.yul\":6649:6777   */\n      pop\n        /* \"#utility.yul\":6433:6784   */\n      swap3\n      swap2\n      pop\n      pop\n      jump\t// out\n        /* \"#utility.yul\":6790:6957   */\n    tag_147:\n        /* \"#utility.yul\":6930:6949   */\n      0x596120657374617320696e73637269746f000000000000000000000000000000\n        /* \"#utility.yul\":6926:6927   */\n      0x00\n        /* \"#utility.yul\":6918:6924   */\n      dup3\n        /* \"#utility.yul\":6914:6928   */\n      add\n        /* \"#utility.yul\":6907:6950   */\n      mstore\n        /* \"#utility.yul\":6790:6957   */\n      pop\n      jump\t// out\n        /* \"#utility.yul\":6963:7329   */\n    tag_148:\n        /* \"#utility.yul\":7105:7108   */\n      0x00\n        /* \"#utility.yul\":7126:7193   */\n      tag_234\n        /* \"#utility.yul\":7190:7192   */\n      0x11\n        /* \"#utility.yul\":7185:7188   */\n      dup4\n        /* \"#utility.yul\":7126:7193   */\n      tag_143\n      jump\t// in\n    tag_234:\n        /* \"#utility.yul\":7119:7193   */\n      swap2\n      pop\n        /* \"#utility.yul\":7202:7295   */\n      tag_235\n        /* \"#utility.yul\":7291:7294   */\n      dup3\n        /* \"#utility.yul\":7202:7295   */\n      tag_147\n      jump\t// in\n    tag_235:\n        /* \"#utility.yul\":7320:7322   */\n      0x20\n        /* \"#utility.yul\":7315:7318   */\n      dup3\n        /* \"#utility.yul\":7311:7323   */\n      add\n        /* \"#utility.yul\":7304:7323   */\n      swap1\n      pop\n        /* \"#utility.yul\":6963:7329   */\n      swap2\n      swap1\n      pop\n      jump\t// out\n        /* \"#utility.yul\":7335:7754   */\n    tag_76:\n        /* \"#utility.yul\":7501:7505   */\n      0x00\n        /* \"#utility.yul\":7539:7541   */\n      0x20\n        /* \"#utility.yul\":7528:7537   */\n      dup3\n        /* \"#utility.yul\":7524:7542   */\n      add\n        /* \"#utility.yul\":7516:7542   */\n      swap1\n      pop\n        /* \"#utility.yul\":7588:7597   */\n      dup2\n        /* \"#utility.yul\":7582:7586   */\n      dup2\n        /* \"#utility.yul\":7578:7598   */\n      sub\n        /* \"#utility.yul\":7574:7575   */\n      0x00\n        /* \"#utility.yul\":7563:7572   */\n      dup4\n        /* \"#utility.yul\":7559:7576   */\n      add\n        /* \"#utility.yul\":7552:7599   */\n      mstore\n        /* \"#utility.yul\":7616:7747   */\n      tag_237\n        /* \"#utility.yul\":7742:7746   */\n      dup2\n        /* \"#utility.yul\":7616:7747   */\n      tag_148\n      jump\t// in\n    tag_237:\n        /* \"#utility.yul\":7608:7747   */\n      swap1\n      pop\n        /* \"#utility.yul\":7335:7754   */\n      swap2\n      swap1\n      pop\n      jump\t// out\n        /* \"#utility.yul\":7760:7845   */\n    tag_149:\n        /* \"#utility.yul\":7805:7812   */\n      0x00\n        /* \"#utility.yul\":7834:7839   */\n      dup2\n        /* \"#utility.yul\":7823:7839   */\n      swap1\n      pop\n        /* \"#utility.yul\":7760:7845   */\n      swap2\n      swap1\n      pop\n      jump\t// out\n        /* \"#utility.yul\":7851:8009   */\n    tag_150:\n        /* \"#utility.yul\":7909:7918   */\n      0x00\n        /* \"#utility.yul\":7942:8003   */\n      tag_240\n        /* \"#utility.yul\":7960:8002   */\n      tag_241\n        /* \"#utility.yul\":7969:8001   */\n      tag_242\n        /* \"#utility.yul\":7995:8000   */\n      dup5\n        /* \"#utility.yul\":7969:8001   */\n      tag_149\n      jump\t// in\n    tag_242:\n        /* \"#utility.yul\":7960:8002   */\n      tag_138\n      jump\t// in\n    tag_241:\n        /* \"#utility.yul\":7942:8003   */\n      tag_133\n      jump\t// in\n    tag_240:\n        /* \"#utility.yul\":7929:8003   */\n      swap1\n      pop\n        /* \"#utility.yul\":7851:8009   */\n      swap2\n      swap1\n      pop\n      jump\t// out\n        /* \"#utility.yul\":8015:8162   */\n    tag_151:\n        /* \"#utility.yul\":8110:8155   */\n      tag_244\n        /* \"#utility.yul\":8149:8154   */\n      dup2\n        /* \"#utility.yul\":8110:8155   */\n      tag_150\n      jump\t// in\n    tag_244:\n        /* \"#utility.yul\":8105:8108   */\n      dup3\n        /* \"#utility.yul\":8098:8156   */\n      mstore\n        /* \"#utility.yul\":8015:8162   */\n      pop\n      pop\n      jump\t// out\n        /* \"#utility.yul\":8168:8516   */\n    tag_79:\n        /* \"#utility.yul\":8297:8301   */\n      0x00\n        /* \"#utility.yul\":8335:8337   */\n      0x40\n        /* \"#utility.yul\":8324:8333   */\n      dup3\n        /* \"#utility.yul\":8320:8338   */\n      add\n        /* \"#utility.yul\":8312:8338   */\n      swap1\n      pop\n        /* \"#utility.yul\":8348:8419   */\n      tag_246\n        /* \"#utility.yul\":8416:8417   */\n      0x00\n        /* \"#utility.yul\":8405:8414   */\n      dup4\n        /* \"#utility.yul\":8401:8418   */\n      add\n        /* \"#utility.yul\":8392:8398   */\n      dup6\n        /* \"#utility.yul\":8348:8419   */\n      tag_137\n      jump\t// in\n    tag_246:\n        /* \"#utility.yul\":8429:8509   */\n      tag_247\n        /* \"#utility.yul\":8505:8507   */\n      0x20\n        /* \"#utility.yul\":8494:8503   */\n      dup4\n        /* \"#utility.yul\":8490:8508   */\n      add\n        /* \"#utility.yul\":8481:8487   */\n      dup5\n        /* \"#utility.yul\":8429:8509   */\n      tag_151\n      jump\t// in\n    tag_247:\n        /* \"#utility.yul\":8168:8516   */\n      swap4\n      swap3\n      pop\n      pop\n      pop\n      jump\t// out\n        /* \"#utility.yul\":8522:8638   */\n    tag_152:\n        /* \"#utility.yul\":8592:8613   */\n      tag_249\n        /* \"#utility.yul\":8607:8612   */\n      dup2\n        /* \"#utility.yul\":8592:8613   */\n      tag_131\n      jump\t// in\n    tag_249:\n        /* \"#utility.yul\":8585:8590   */\n      dup2\n        /* \"#utility.yul\":8582:8614   */\n      eq\n        /* \"#utility.yul\":8572:8632   */\n      tag_250\n      jumpi\n        /* \"#utility.yul\":8628:8629   */\n      0x00\n        /* \"#utility.yul\":8625:8626   */\n      0x00\n        /* \"#utility.yul\":8618:8630   */\n      revert\n        /* \"#utility.yul\":8572:8632   */\n    tag_250:\n        /* \"#utility.yul\":8522:8638   */\n      pop\n      jump\t// out\n        /* \"#utility.yul\":8644:8781   */\n    tag_153:\n        /* \"#utility.yul\":8698:8703   */\n      0x00\n        /* \"#utility.yul\":8729:8735   */\n      dup2\n        /* \"#utility.yul\":8723:8736   */\n      mload\n        /* \"#utility.yul\":8714:8736   */\n      swap1\n      pop\n        /* \"#utility.yul\":8745:8775   */\n      tag_252\n        /* \"#utility.yul\":8769:8774   */\n      dup2\n        /* \"#utility.yul\":8745:8775   */\n      tag_152\n      jump\t// in\n    tag_252:\n        /* \"#utility.yul\":8644:8781   */\n      swap3\n      swap2\n      pop\n      pop\n      jump\t// out\n        /* \"#utility.yul\":8787:9132   */\n    tag_83:\n        /* \"#utility.yul\":8854:8860   */\n      0x00\n        /* \"#utility.yul\":8903:8905   */\n      0x20\n        /* \"#utility.yul\":8891:8900   */\n      dup3\n        /* \"#utility.yul\":8882:8889   */\n      dup5\n        /* \"#utility.yul\":8878:8901   */\n      sub\n        /* \"#utility.yul\":8874:8906   */\n      slt\n        /* \"#utility.yul\":8871:8990   */\n      iszero\n      tag_254\n      jumpi\n        /* \"#utility.yul\":8909:8988   */\n      tag_255\n      tag_125\n      jump\t// in\n    tag_255:\n        /* \"#utility.yul\":8871:8990   */\n    tag_254:\n        /* \"#utility.yul\":9029:9030   */\n      0x00\n        /* \"#utility.yul\":9054:9115   */\n      tag_256\n        /* \"#utility.yul\":9107:9114   */\n      dup5\n        /* \"#utility.yul\":9098:9104   */\n      dup3\n        /* \"#utility.yul\":9087:9096   */\n      dup6\n        /* \"#utility.yul\":9083:9105   */\n      add\n        /* \"#utility.yul\":9054:9115   */\n      tag_153\n      jump\t// in\n    tag_256:\n        /* \"#utility.yul\":9044:9115   */\n      swap2\n      pop\n        /* \"#utility.yul\":9000:9125   */\n      pop\n        /* \"#utility.yul\":8787:9132   */\n      swap3\n      swap2\n      pop\n      pop\n      jump\t// out\n        /* \"#utility.yul\":9138:9318   */\n    tag_154:\n        /* \"#utility.yul\":9186:9263   */\n      0x4e487b7100000000000000000000000000000000000000000000000000000000\n        /* \"#utility.yul\":9183:9184   */\n      0x00\n        /* \"#utility.yul\":9176:9264   */\n      mstore\n        /* \"#utility.yul\":9283:9287   */\n      0x11\n        /* \"#utility.yul\":9280:9281   */\n      0x04\n        /* \"#utility.yul\":9273:9288   */\n      mstore\n        /* \"#utility.yul\":9307:9311   */\n      0x24\n        /* \"#utility.yul\":9304:9305   */\n      0x00\n        /* \"#utility.yul\":9297:9312   */\n      revert\n        /* \"#utility.yul\":9324:9557   */\n    tag_98:\n        /* \"#utility.yul\":9363:9366   */\n      0x00\n        /* \"#utility.yul\":9386:9410   */\n      tag_259\n        /* \"#utility.yul\":9404:9409   */\n      dup3\n        /* \"#utility.yul\":9386:9410   */\n      tag_133\n      jump\t// in\n    tag_259:\n        /* \"#utility.yul\":9377:9410   */\n      swap2\n      pop\n        /* \"#utility.yul\":9432:9498   */\n      0xffffffffffffffffffffffffffffffffffffffffffffffffffffffffffffffff\n        /* \"#utility.yul\":9425:9430   */\n      dup3\n        /* \"#utility.yul\":9422:9499   */\n      sub\n        /* \"#utility.yul\":9419:9522   */\n      tag_260\n      jumpi\n        /* \"#utility.yul\":9502:9520   */\n      tag_261\n      tag_154\n      jump\t// in\n    tag_261:\n        /* \"#utility.yul\":9419:9522   */\n    tag_260:\n        /* \"#utility.yul\":9549:9550   */\n      0x01\n        /* \"#utility.yul\":9542:9547   */\n      dup3\n        /* \"#utility.yul\":9538:9551   */\n      add\n        /* \"#utility.yul\":9531:9551   */\n      swap1\n      pop\n        /* \"#utility.yul\":9324:9557   */\n      swap2\n      swap1\n      pop\n      jump\t// out\n        /* \"#utility.yul\":9563:9731   */\n    tag_155:\n        /* \"#utility.yul\":9703:9723   */\n      0x53616c646f20696e737566696369656e74650000000000000000000000000000\n        /* \"#utility.yul\":9699:9700   */\n      0x00\n        /* \"#utility.yul\":9691:9697   */\n      dup3\n        /* \"#utility.yul\":9687:9701   */\n      add\n        /* \"#utility.yul\":9680:9724   */\n      mstore\n        /* \"#utility.yul\":9563:9731   */\n      pop\n      jump\t// out\n        /* \"#utility.yul\":9737:10103   */\n    tag_156:\n        /* \"#utility.yul\":9879:9882   */\n      0x00\n        /* \"#utility.yul\":9900:9967   */\n      tag_264\n        /* \"#utility.yul\":9964:9966   */\n      0x12\n        /* \"#utility.yul\":9959:9962   */\n      dup4\n        /* \"#utility.yul\":9900:9967   */\n      tag_143\n      jump\t// in\n    tag_264:\n        /* \"#utility.yul\":9893:9967   */\n      swap2\n      pop\n        /* \"#utility.yul\":9976:10069   */\n      tag_265\n        /* \"#utility.yul\":10065:10068   */\n      dup3\n        /* \"#utility.yul\":9976:10069   */\n      tag_155\n      jump\t// in\n    tag_265:\n        /* \"#utility.yul\":10094:10096   */\n      0x20\n        /* \"#utility.yul\":10089:10092   */\n      dup3\n        /* \"#utility.yul\":10085:10097   */\n      add\n        /* \"#utility.yul\":10078:10097   */\n      swap1\n      pop\n        /* \"#utility.yul\":9737:10103   */\n      swap2\n      swap1\n      pop\n      jump\t// out\n        /* \"#utility.yul\":10109:10528   */\n    tag_106:\n        /* \"#utility.yul\":10275:10279   */\n      0x00\n        /* \"#utility.yul\":10313:10315   */\n      0x20\n        /* \"#utility.yul\":10302:10311   */\n      dup3\n        /* \"#utility.yul\":10298:10316   */\n      add\n        /* \"#utility.yul\":10290:10316   */\n      swap1\n      pop\n        /* \"#utility.yul\":10362:10371   */\n      dup2\n        /* \"#utility.yul\":10356:10360   */\n      dup2\n        /* \"#utility.yul\":10352:10372   */\n      sub\n        /* \"#utility.yul\":10348:10349   */\n      0x00\n        /* \"#utility.yul\":10337:10346   */\n      dup4\n        /* \"#utility.yul\":10333:10350   */\n      add\n        /* \"#utility.yul\":10326:10373   */\n      mstore\n        /* \"#utility.yul\":10390:10521   */\n      tag_267\n        /* \"#utility.yul\":10516:10520   */\n      dup2\n        /* \"#utility.yul\":10390:10521   */\n      tag_156\n      jump\t// in\n    tag_267:\n        /* \"#utility.yul\":10382:10521   */\n      swap1\n      pop\n        /* \"#utility.yul\":10109:10528   */\n      swap2\n      swap1\n      pop\n      jump\t// out\n        /* \"#utility.yul\":10534:10976   */\n    tag_108:\n        /* \"#utility.yul\":10683:10687   */\n      0x00\n        /* \"#utility.yul\":10721:10723   */\n      0x60\n        /* \"#utility.yul\":10710:10719   */\n      dup3\n        /* \"#utility.yul\":10706:10724   */\n      add\n        /* \"#utility.yul\":10698:10724   */\n      swap1\n      pop\n        /* \"#utility.yul\":10734:10805   */\n      tag_269\n        /* \"#utility.yul\":10802:10803   */\n      0x00\n        /* \"#utility.yul\":10791:10800   */\n      dup4\n        /* \"#utility.yul\":10787:10804   */\n      add\n        /* \"#utility.yul\":10778:10784   */\n      dup7\n        /* \"#utility.yul\":10734:10805   */\n      tag_137\n      jump\t// in\n    tag_269:\n        /* \"#utility.yul\":10815:10887   */\n      tag_270\n        /* \"#utility.yul\":10883:10885   */\n      0x20\n        /* \"#utility.yul\":10872:10881   */\n      dup4\n        /* \"#utility.yul\":10868:10886   */\n      add\n        /* \"#utility.yul\":10859:10865   */\n      dup6\n        /* \"#utility.yul\":10815:10887   */\n      tag_137\n      jump\t// in\n    tag_270:\n        /* \"#utility.yul\":10897:10969   */\n      tag_271\n        /* \"#utility.yul\":10965:10967   */\n      0x40\n        /* \"#utility.yul\":10954:10963   */\n      dup4\n        /* \"#utility.yul\":10950:10968   */\n      add\n        /* \"#utility.yul\":10941:10947   */\n      dup5\n        /* \"#utility.yul\":10897:10969   */\n      tag_134\n      jump\t// in\n    tag_271:\n        /* \"#utility.yul\":10534:10976   */\n      swap5\n      swap4\n      pop\n      pop\n      pop\n      pop\n      jump\t// out\n        /* \"#utility.yul\":10982:11173   */\n    tag_118:\n        /* \"#utility.yul\":11022:11025   */\n      0x00\n        /* \"#utility.yul\":11041:11061   */\n      tag_273\n        /* \"#utility.yul\":11059:11060   */\n      dup3\n        /* \"#utility.yul\":11041:11061   */\n      tag_133\n      jump\t// in\n    tag_273:\n        /* \"#utility.yul\":11036:11061   */\n      swap2\n      pop\n        /* \"#utility.yul\":11075:11095   */\n      tag_274\n        /* \"#utility.yul\":11093:11094   */\n      dup4\n        /* \"#utility.yul\":11075:11095   */\n      tag_133\n      jump\t// in\n    tag_274:\n        /* \"#utility.yul\":11070:11095   */\n      swap3\n      pop\n        /* \"#utility.yul\":11118:11119   */\n      dup3\n        /* \"#utility.yul\":11115:11116   */\n      dup3\n        /* \"#utility.yul\":11111:11120   */\n      add\n        /* \"#utility.yul\":11104:11120   */\n      swap1\n      pop\n        /* \"#utility.yul\":11139:11142   */\n      dup1\n        /* \"#utility.yul\":11136:11137   */\n      dup3\n        /* \"#utility.yul\":11133:11143   */\n      gt\n        /* \"#utility.yul\":11130:11166   */\n      iszero\n      tag_275\n      jumpi\n        /* \"#utility.yul\":11146:11164   */\n      tag_276\n      tag_154\n      jump\t// in\n    tag_276:\n        /* \"#utility.yul\":11130:11166   */\n    tag_275:\n        /* \"#utility.yul\":10982:11173   */\n      swap3\n      swap2\n      pop\n      pop\n      jump\t// out\n        /* \"#utility.yul\":11179:11511   */\n    tag_120:\n        /* \"#utility.yul\":11300:11304   */\n      0x00\n        /* \"#utility.yul\":11338:11340   */\n      0x40\n        /* \"#utility.yul\":11327:11336   */\n      dup3\n        /* \"#utility.yul\":11323:11341   */\n      add\n        /* \"#utility.yul\":11315:11341   */\n      swap1\n      pop\n        /* \"#utility.yul\":11351:11422   */\n      tag_278\n        /* \"#utility.yul\":11419:11420   */\n      0x00\n        /* \"#utility.yul\":11408:11417   */\n      dup4\n        /* \"#utility.yul\":11404:11421   */\n      add\n        /* \"#utility.yul\":11395:11401   */\n      dup6\n        /* \"#utility.yul\":11351:11422   */\n      tag_137\n      jump\t// in\n    tag_278:\n        /* \"#utility.yul\":11432:11504   */\n      tag_279\n        /* \"#utility.yul\":11500:11502   */\n      0x20\n        /* \"#utility.yul\":11489:11498   */\n      dup4\n        /* \"#utility.yul\":11485:11503   */\n      add\n        /* \"#utility.yul\":11476:11482   */\n      dup5\n        /* \"#utility.yul\":11432:11504   */\n      tag_134\n      jump\t// in\n    tag_279:\n        /* \"#utility.yul\":11179:11511   */\n      swap4\n      swap3\n      pop\n      pop\n      pop\n      jump\t// out\n\n    auxdata: 0xa26469706673582212200cdc9dba45999fa05b851a4e73170d918d59590613ad6dff633e62c4c2c563b864736f6c634300081e0033\n}\n",
				"bytecode": {
					"linkReferences": {},
					"object": "608060405273f55301514c27489fde7c9cd9a3ea8044e7e045795f5f6101000a81548173ffffffffffffffffffffffffffffffffffffffff021916908373ffffffffffffffffffffffffffffffffffffffff160217905550348015610062575f5ffd5b506040516111f73803806111f783398181016040528101906100849190610139565b8060015f6101000a81548173ffffffffffffffffffffffffffffffffffffffff021916908373ffffffffffffffffffffffffffffffffffffffff16021790555050610164565b5f5ffd5b5f73ffffffffffffffffffffffffffffffffffffffff82169050919050565b5f6100f7826100ce565b9050919050565b5f610108826100ed565b9050919050565b610118816100fe565b8114610122575f5ffd5b50565b5f815190506101338161010f565b92915050565b5f6020828403121561014e5761014d6100ca565b5b5f61015b84828501610125565b91505092915050565b611086806101715f395ff3fe608060405234801561000f575f5ffd5b5060043610610091575f3560e01c80637a54f9d9116100645780637a54f9d91461011d5780638a75e7bd1461014e5780638da5cb5b1461017e578063f32360a01461019c578063fc0c546a146101a657610091565b80630469846b1461009557806312065fe0146100c557806361722365146100e3578063787e5869146100ed575b5f5ffd5b6100af60048036038101906100aa9190610ac7565b6101c4565b6040516100bc9190610b0c565b60405180910390f35b6100cd6102f4565b6040516100da9190610b3d565b60405180910390f35b6100eb610393565b005b61010760048036038101906101029190610b80565b6105d5565b6040516101149190610bba565b60405180910390f35b61013760048036038101906101329190610ac7565b610610565b604051610145929190610bd3565b60405180910390f35b61016860048036038101906101639190610bfa565b61075f565b6040516101759190610b0c565b60405180910390f35b6101866108e5565b6040516101939190610bba565b60405180910390f35b6101a4610909565b005b6101ae610a44565b6040516101bb9190610ca5565b60405180910390f35b5f5f5f9054906101000a900473ffffffffffffffffffffffffffffffffffffffff1673ffffffffffffffffffffffffffffffffffffffff168273ffffffffffffffffffffffffffffffffffffffff1603610253576040517f08c379a000000000000000000000000000000000000000000000000000000000815260040161024a90610d3e565b60405180910390fd5b5f5f90505b6002805490508110156102ea578273ffffffffffffffffffffffffffffffffffffffff16600282815481106102905761028f610d5c565b5b905f5260205f20015f9054906101000a900473ffffffffffffffffffffffffffffffffffffffff1673ffffffffffffffffffffffffffffffffffffffff16036102dd5760019150506102ef565b8080600101915050610258565b505f90505b919050565b5f60015f9054906101000a900473ffffffffffffffffffffffffffffffffffffffff1673ffffffffffffffffffffffffffffffffffffffff166370a08231336040518263ffffffff1660e01b815260040161034f9190610bba565b602060405180830381865afa15801561036a573d5f5f3e3d5ffd5b505050506040513d601f19601f8201168201806040525081019061038e9190610d9d565b905090565b60035f9054906101000a900460ff16156103ab575f5ffd5b600160035f6101000a81548160ff0219169083151502179055505f5f9054906101000a900473ffffffffffffffffffffffffffffffffffffffff1673ffffffffffffffffffffffffffffffffffffffff163373ffffffffffffffffffffffffffffffffffffffff1603610453576040517f08c379a000000000000000000000000000000000000000000000000000000000815260040161044a90610d3e565b60405180910390fd5b61045c336101c4565b1561049c576040517f08c379a000000000000000000000000000000000000000000000000000000000815260040161049390610e12565b60405180910390fd5b600233908060018154018082558091505060019003905f5260205f20015f9091909190916101000a81548173ffffffffffffffffffffffffffffffffffffffff021916908373ffffffffffffffffffffffffffffffffffffffff16021790555060015f9054906101000a900473ffffffffffffffffffffffffffffffffffffffff1673ffffffffffffffffffffffffffffffffffffffff1663a9059cbb5f5f9054906101000a900473ffffffffffffffffffffffffffffffffffffffff1660016040518363ffffffff1660e01b8152600401610579929190610e69565b6020604051808303815f875af1158015610595573d5f5f3e3d5ffd5b505050506040513d601f19601f820116820180604052508101906105b99190610eba565b505f60035f6101000a81548160ff021916908315150217905550565b600281815481106105e4575f80fd5b905f5260205f20015f915054906101000a900473ffffffffffffffffffffffffffffffffffffffff1681565b5f5f5f5f9054906101000a900473ffffffffffffffffffffffffffffffffffffffff1673ffffffffffffffffffffffffffffffffffffffff168373ffffffffffffffffffffffffffffffffffffffff16036106a0576040517f08c379a000000000000000000000000000000000000000000000000000000000815260040161069790610d3e565b60405180910390fd5b5f5f90505f5f90505f5f90505b600280549050811080156106bf575081155b15610751578573ffffffffffffffffffffffffffffffffffffffff16600282815481106106ef576106ee610d5c565b5b905f5260205f20015f9054906101000a900473ffffffffffffffffffffffffffffffffffffffff1673ffffffffffffffffffffffffffffffffffffffff160361073e5780925060019150610751565b808061074990610f12565b9150506106ad565b508082935093505050915091565b5f8160015f9054906101000a900473ffffffffffffffffffffffffffffffffffffffff1673ffffffffffffffffffffffffffffffffffffffff166370a08231866040518263ffffffff1660e01b81526004016107bb9190610bba565b602060405180830381865afa1580156107d6573d5f5f3e3d5ffd5b505050506040513d601f19601f820116820180604052508101906107fa9190610d9d565b101561083b576040517f08c379a000000000000000000000000000000000000000000000000000000000815260040161083290610fa3565b60405180910390fd5b60015f9054906101000a900473ffffffffffffffffffffffffffffffffffffffff1673ffffffffffffffffffffffffffffffffffffffff166323b872dd8585856040518463ffffffff1660e01b815260040161089993929190610fc1565b6020604051808303815f875af11580156108b5573d5f5f3e3d5ffd5b505050506040513d601f19601f820116820180604052508101906108d99190610eba565b50600190509392505050565b5f5f9054906101000a900473ffffffffffffffffffffffffffffffffffffffff1681565b5f670de0b6b3a764000060015f9054906101000a900473ffffffffffffffffffffffffffffffffffffffff1673ffffffffffffffffffffffffffffffffffffffff166370a08231336040518263ffffffff1660e01b815260040161096d9190610bba565b602060405180830381865afa158015610988573d5f5f3e3d5ffd5b505050506040513d601f19601f820116820180604052508101906109ac9190610d9d565b6109b69190610ff6565b905060015f9054906101000a900473ffffffffffffffffffffffffffffffffffffffff1673ffffffffffffffffffffffffffffffffffffffff166340c10f1933836040518363ffffffff1660e01b8152600401610a14929190611029565b5f604051808303815f87803b158015610a2b575f5ffd5b505af1158015610a3d573d5f5f3e3d5ffd5b5050505050565b60015f9054906101000a900473ffffffffffffffffffffffffffffffffffffffff1681565b5f5ffd5b5f73ffffffffffffffffffffffffffffffffffffffff82169050919050565b5f610a9682610a6d565b9050919050565b610aa681610a8c565b8114610ab0575f5ffd5b50565b5f81359050610ac181610a9d565b92915050565b5f60208284031215610adc57610adb610a69565b5b5f610ae984828501610ab3565b91505092915050565b5f8115159050919050565b610b0681610af2565b82525050565b5f602082019050610b1f5f830184610afd565b92915050565b5f819050919050565b610b3781610b25565b82525050565b5f602082019050610b505f830184610b2e565b92915050565b610b5f81610b25565b8114610b69575f5ffd5b50565b5f81359050610b7a81610b56565b92915050565b5f60208284031215610b9557610b94610a69565b5b5f610ba284828501610b6c565b91505092915050565b610bb481610a8c565b82525050565b5f602082019050610bcd5f830184610bab565b92915050565b5f604082019050610be65f830185610afd565b610bf36020830184610b2e565b9392505050565b5f5f5f60608486031215610c1157610c10610a69565b5b5f610c1e86828701610ab3565b9350506020610c2f86828701610ab3565b9250506040610c4086828701610b6c565b9150509250925092565b5f819050919050565b5f610c6d610c68610c6384610a6d565b610c4a565b610a6d565b9050919050565b5f610c7e82610c53565b9050919050565b5f610c8f82610c74565b9050919050565b610c9f81610c85565b82525050565b5f602082019050610cb85f830184610c96565b92915050565b5f82825260208201905092915050565b7f456c2070726f706965746172696f206e6f20707565646520657374617220656e5f8201527f206c61206c697374610000000000000000000000000000000000000000000000602082015250565b5f610d28602983610cbe565b9150610d3382610cce565b604082019050919050565b5f6020820190508181035f830152610d5581610d1c565b9050919050565b7f4e487b71000000000000000000000000000000000000000000000000000000005f52603260045260245ffd5b5f81519050610d9781610b56565b92915050565b5f60208284031215610db257610db1610a69565b5b5f610dbf84828501610d89565b91505092915050565b7f596120657374617320696e73637269746f0000000000000000000000000000005f82015250565b5f610dfc601183610cbe565b9150610e0782610dc8565b602082019050919050565b5f6020820190508181035f830152610e2981610df0565b9050919050565b5f819050919050565b5f610e53610e4e610e4984610e30565b610c4a565b610b25565b9050919050565b610e6381610e39565b82525050565b5f604082019050610e7c5f830185610bab565b610e896020830184610e5a565b9392505050565b610e9981610af2565b8114610ea3575f5ffd5b50565b5f81519050610eb481610e90565b92915050565b5f60208284031215610ecf57610ece610a69565b5b5f610edc84828501610ea6565b91505092915050565b7f4e487b71000000000000000000000000000000000000000000000000000000005f52601160045260245ffd5b5f610f1c82610b25565b91507fffffffffffffffffffffffffffffffffffffffffffffffffffffffffffffffff8203610f4e57610f4d610ee5565b5b600182019050919050565b7f53616c646f20696e737566696369656e746500000000000000000000000000005f82015250565b5f610f8d601283610cbe565b9150610f9882610f59565b602082019050919050565b5f6020820190508181035f830152610fba81610f81565b9050919050565b5f606082019050610fd45f830186610bab565b610fe16020830185610bab565b610fee6040830184610b2e565b949350505050565b5f61100082610b25565b915061100b83610b25565b925082820190508082111561102357611022610ee5565b5b92915050565b5f60408201905061103c5f830185610bab565b6110496020830184610b2e565b939250505056fea26469706673582212200cdc9dba45999fa05b851a4e73170d918d59590613ad6dff633e62c4c2c563b864736f6c634300081e0033",
					"opcodes": "PUSH1 0x80 PUSH1 0x40 MSTORE PUSH20 0xF55301514C27489FDE7C9CD9A3EA8044E7E04579 PUSH0 PUSH0 PUSH2 0x100 EXP DUP2 SLOAD DUP2 PUSH20 0xFFFFFFFFFFFFFFFFFFFFFFFFFFFFFFFFFFFFFFFF MUL NOT AND SWAP1 DUP4 PUSH20 0xFFFFFFFFFFFFFFFFFFFFFFFFFFFFFFFFFFFFFFFF AND MUL OR SWAP1 SSTORE POP CALLVALUE DUP1 ISZERO PUSH2 0x62 JUMPI PUSH0 PUSH0 REVERT JUMPDEST POP PUSH1 0x40 MLOAD PUSH2 0x11F7 CODESIZE SUB DUP1 PUSH2 0x11F7 DUP4 CODECOPY DUP2 DUP2 ADD PUSH1 0x40 MSTORE DUP2 ADD SWAP1 PUSH2 0x84 SWAP2 SWAP1 PUSH2 0x139 JUMP JUMPDEST DUP1 PUSH1 0x1 PUSH0 PUSH2 0x100 EXP DUP2 SLOAD DUP2 PUSH20 0xFFFFFFFFFFFFFFFFFFFFFFFFFFFFFFFFFFFFFFFF MUL NOT AND SWAP1 DUP4 PUSH20 0xFFFFFFFFFFFFFFFFFFFFFFFFFFFFFFFFFFFFFFFF AND MUL OR SWAP1 SSTORE POP POP PUSH2 0x164 JUMP JUMPDEST PUSH0 PUSH0 REVERT JUMPDEST PUSH0 PUSH20 0xFFFFFFFFFFFFFFFFFFFFFFFFFFFFFFFFFFFFFFFF DUP3 AND SWAP1 POP SWAP2 SWAP1 POP JUMP JUMPDEST PUSH0 PUSH2 0xF7 DUP3 PUSH2 0xCE JUMP JUMPDEST SWAP1 POP SWAP2 SWAP1 POP JUMP JUMPDEST PUSH0 PUSH2 0x108 DUP3 PUSH2 0xED JUMP JUMPDEST SWAP1 POP SWAP2 SWAP1 POP JUMP JUMPDEST PUSH2 0x118 DUP2 PUSH2 0xFE JUMP JUMPDEST DUP2 EQ PUSH2 0x122 JUMPI PUSH0 PUSH0 REVERT JUMPDEST POP JUMP JUMPDEST PUSH0 DUP2 MLOAD SWAP1 POP PUSH2 0x133 DUP2 PUSH2 0x10F JUMP JUMPDEST SWAP3 SWAP2 POP POP JUMP JUMPDEST PUSH0 PUSH1 0x20 DUP3 DUP5 SUB SLT ISZERO PUSH2 0x14E JUMPI PUSH2 0x14D PUSH2 0xCA JUMP JUMPDEST JUMPDEST PUSH0 PUSH2 0x15B DUP5 DUP3 DUP6 ADD PUSH2 0x125 JUMP JUMPDEST SWAP2 POP POP SWAP3 SWAP2 POP POP JUMP JUMPDEST PUSH2 0x1086 DUP1 PUSH2 0x171 PUSH0 CODECOPY PUSH0 RETURN INVALID PUSH1 0x80 PUSH1 0x40 MSTORE CALLVALUE DUP1 ISZERO PUSH2 0xF JUMPI PUSH0 PUSH0 REVERT JUMPDEST POP PUSH1 0x4 CALLDATASIZE LT PUSH2 0x91 JUMPI PUSH0 CALLDATALOAD PUSH1 0xE0 SHR DUP1 PUSH4 0x7A54F9D9 GT PUSH2 0x64 JUMPI DUP1 PUSH4 0x7A54F9D9 EQ PUSH2 0x11D JUMPI DUP1 PUSH4 0x8A75E7BD EQ PUSH2 0x14E JUMPI DUP1 PUSH4 0x8DA5CB5B EQ PUSH2 0x17E JUMPI DUP1 PUSH4 0xF32360A0 EQ PUSH2 0x19C JUMPI DUP1 PUSH4 0xFC0C546A EQ PUSH2 0x1A6 JUMPI PUSH2 0x91 JUMP JUMPDEST DUP1 PUSH4 0x469846B EQ PUSH2 0x95 JUMPI DUP1 PUSH4 0x12065FE0 EQ PUSH2 0xC5 JUMPI DUP1 PUSH4 0x61722365 EQ PUSH2 0xE3 JUMPI DUP1 PUSH4 0x787E5869 EQ PUSH2 0xED JUMPI JUMPDEST PUSH0 PUSH0 REVERT JUMPDEST PUSH2 0xAF PUSH1 0x4 DUP1 CALLDATASIZE SUB DUP2 ADD SWAP1 PUSH2 0xAA SWAP2 SWAP1 PUSH2 0xAC7 JUMP JUMPDEST PUSH2 0x1C4 JUMP JUMPDEST PUSH1 0x40 MLOAD PUSH2 0xBC SWAP2 SWAP1 PUSH2 0xB0C JUMP JUMPDEST PUSH1 0x40 MLOAD DUP1 SWAP2 SUB SWAP1 RETURN JUMPDEST PUSH2 0xCD PUSH2 0x2F4 JUMP JUMPDEST PUSH1 0x40 MLOAD PUSH2 0xDA SWAP2 SWAP1 PUSH2 0xB3D JUMP JUMPDEST PUSH1 0x40 MLOAD DUP1 SWAP2 SUB SWAP1 RETURN JUMPDEST PUSH2 0xEB PUSH2 0x393 JUMP JUMPDEST STOP JUMPDEST PUSH2 0x107 PUSH1 0x4 DUP1 CALLDATASIZE SUB DUP2 ADD SWAP1 PUSH2 0x102 SWAP2 SWAP1 PUSH2 0xB80 JUMP JUMPDEST PUSH2 0x5D5 JUMP JUMPDEST PUSH1 0x40 MLOAD PUSH2 0x114 SWAP2 SWAP1 PUSH2 0xBBA JUMP JUMPDEST PUSH1 0x40 MLOAD DUP1 SWAP2 SUB SWAP1 RETURN JUMPDEST PUSH2 0x137 PUSH1 0x4 DUP1 CALLDATASIZE SUB DUP2 ADD SWAP1 PUSH2 0x132 SWAP2 SWAP1 PUSH2 0xAC7 JUMP JUMPDEST PUSH2 0x610 JUMP JUMPDEST PUSH1 0x40 MLOAD PUSH2 0x145 SWAP3 SWAP2 SWAP1 PUSH2 0xBD3 JUMP JUMPDEST PUSH1 0x40 MLOAD DUP1 SWAP2 SUB SWAP1 RETURN JUMPDEST PUSH2 0x168 PUSH1 0x4 DUP1 CALLDATASIZE SUB DUP2 ADD SWAP1 PUSH2 0x163 SWAP2 SWAP1 PUSH2 0xBFA JUMP JUMPDEST PUSH2 0x75F JUMP JUMPDEST PUSH1 0x40 MLOAD PUSH2 0x175 SWAP2 SWAP1 PUSH2 0xB0C JUMP JUMPDEST PUSH1 0x40 MLOAD DUP1 SWAP2 SUB SWAP1 RETURN JUMPDEST PUSH2 0x186 PUSH2 0x8E5 JUMP JUMPDEST PUSH1 0x40 MLOAD PUSH2 0x193 SWAP2 SWAP1 PUSH2 0xBBA JUMP JUMPDEST PUSH1 0x40 MLOAD DUP1 SWAP2 SUB SWAP1 RETURN JUMPDEST PUSH2 0x1A4 PUSH2 0x909 JUMP JUMPDEST STOP JUMPDEST PUSH2 0x1AE PUSH2 0xA44 JUMP JUMPDEST PUSH1 0x40 MLOAD PUSH2 0x1BB SWAP2 SWAP1 PUSH2 0xCA5 JUMP JUMPDEST PUSH1 0x40 MLOAD DUP1 SWAP2 SUB SWAP1 RETURN JUMPDEST PUSH0 PUSH0 PUSH0 SWAP1 SLOAD SWAP1 PUSH2 0x100 EXP SWAP1 DIV PUSH20 0xFFFFFFFFFFFFFFFFFFFFFFFFFFFFFFFFFFFFFFFF AND PUSH20 0xFFFFFFFFFFFFFFFFFFFFFFFFFFFFFFFFFFFFFFFF AND DUP3 PUSH20 0xFFFFFFFFFFFFFFFFFFFFFFFFFFFFFFFFFFFFFFFF AND SUB PUSH2 0x253 JUMPI PUSH1 0x40 MLOAD PUSH32 0x8C379A000000000000000000000000000000000000000000000000000000000 DUP2 MSTORE PUSH1 0x4 ADD PUSH2 0x24A SWAP1 PUSH2 0xD3E JUMP JUMPDEST PUSH1 0x40 MLOAD DUP1 SWAP2 SUB SWAP1 REVERT JUMPDEST PUSH0 PUSH0 SWAP1 POP JUMPDEST PUSH1 0x2 DUP1 SLOAD SWAP1 POP DUP2 LT ISZERO PUSH2 0x2EA JUMPI DUP3 PUSH20 0xFFFFFFFFFFFFFFFFFFFFFFFFFFFFFFFFFFFFFFFF AND PUSH1 0x2 DUP3 DUP2 SLOAD DUP2 LT PUSH2 0x290 JUMPI PUSH2 0x28F PUSH2 0xD5C JUMP JUMPDEST JUMPDEST SWAP1 PUSH0 MSTORE PUSH1 0x20 PUSH0 KECCAK256 ADD PUSH0 SWAP1 SLOAD SWAP1 PUSH2 0x100 EXP SWAP1 DIV PUSH20 0xFFFFFFFFFFFFFFFFFFFFFFFFFFFFFFFFFFFFFFFF AND PUSH20 0xFFFFFFFFFFFFFFFFFFFFFFFFFFFFFFFFFFFFFFFF AND SUB PUSH2 0x2DD JUMPI PUSH1 0x1 SWAP2 POP POP PUSH2 0x2EF JUMP JUMPDEST DUP1 DUP1 PUSH1 0x1 ADD SWAP2 POP POP PUSH2 0x258 JUMP JUMPDEST POP PUSH0 SWAP1 POP JUMPDEST SWAP2 SWAP1 POP JUMP JUMPDEST PUSH0 PUSH1 0x1 PUSH0 SWAP1 SLOAD SWAP1 PUSH2 0x100 EXP SWAP1 DIV PUSH20 0xFFFFFFFFFFFFFFFFFFFFFFFFFFFFFFFFFFFFFFFF AND PUSH20 0xFFFFFFFFFFFFFFFFFFFFFFFFFFFFFFFFFFFFFFFF AND PUSH4 0x70A08231 CALLER PUSH1 0x40 MLOAD DUP3 PUSH4 0xFFFFFFFF AND PUSH1 0xE0 SHL DUP2 MSTORE PUSH1 0x4 ADD PUSH2 0x34F SWAP2 SWAP1 PUSH2 0xBBA JUMP JUMPDEST PUSH1 0x20 PUSH1 0x40 MLOAD DUP1 DUP4 SUB DUP2 DUP7 GAS STATICCALL ISZERO DUP1 ISZERO PUSH2 0x36A JUMPI RETURNDATASIZE PUSH0 PUSH0 RETURNDATACOPY RETURNDATASIZE PUSH0 REVERT JUMPDEST POP POP POP POP PUSH1 0x40 MLOAD RETURNDATASIZE PUSH1 0x1F NOT PUSH1 0x1F DUP3 ADD AND DUP3 ADD DUP1 PUSH1 0x40 MSTORE POP DUP2 ADD SWAP1 PUSH2 0x38E SWAP2 SWAP1 PUSH2 0xD9D JUMP JUMPDEST SWAP1 POP SWAP1 JUMP JUMPDEST PUSH1 0x3 PUSH0 SWAP1 SLOAD SWAP1 PUSH2 0x100 EXP SWAP1 DIV PUSH1 0xFF AND ISZERO PUSH2 0x3AB JUMPI PUSH0 PUSH0 REVERT JUMPDEST PUSH1 0x1 PUSH1 0x3 PUSH0 PUSH2 0x100 EXP DUP2 SLOAD DUP2 PUSH1 0xFF MUL NOT AND SWAP1 DUP4 ISZERO ISZERO MUL OR SWAP1 SSTORE POP PUSH0 PUSH0 SWAP1 SLOAD SWAP1 PUSH2 0x100 EXP SWAP1 DIV PUSH20 0xFFFFFFFFFFFFFFFFFFFFFFFFFFFFFFFFFFFFFFFF AND PUSH20 0xFFFFFFFFFFFFFFFFFFFFFFFFFFFFFFFFFFFFFFFF AND CALLER PUSH20 0xFFFFFFFFFFFFFFFFFFFFFFFFFFFFFFFFFFFFFFFF AND SUB PUSH2 0x453 JUMPI PUSH1 0x40 MLOAD PUSH32 0x8C379A000000000000000000000000000000000000000000000000000000000 DUP2 MSTORE PUSH1 0x4 ADD PUSH2 0x44A SWAP1 PUSH2 0xD3E JUMP JUMPDEST PUSH1 0x40 MLOAD DUP1 SWAP2 SUB SWAP1 REVERT JUMPDEST PUSH2 0x45C CALLER PUSH2 0x1C4 JUMP JUMPDEST ISZERO PUSH2 0x49C JUMPI PUSH1 0x40 MLOAD PUSH32 0x8C379A000000000000000000000000000000000000000000000000000000000 DUP2 MSTORE PUSH1 0x4 ADD PUSH2 0x493 SWAP1 PUSH2 0xE12 JUMP JUMPDEST PUSH1 0x40 MLOAD DUP1 SWAP2 SUB SWAP1 REVERT JUMPDEST PUSH1 0x2 CALLER SWAP1 DUP1 PUSH1 0x1 DUP2 SLOAD ADD DUP1 DUP3 SSTORE DUP1 SWAP2 POP POP PUSH1 0x1 SWAP1 SUB SWAP1 PUSH0 MSTORE PUSH1 0x20 PUSH0 KECCAK256 ADD PUSH0 SWAP1 SWAP2 SWAP1 SWAP2 SWAP1 SWAP2 PUSH2 0x100 EXP DUP2 SLOAD DUP2 PUSH20 0xFFFFFFFFFFFFFFFFFFFFFFFFFFFFFFFFFFFFFFFF MUL NOT AND SWAP1 DUP4 PUSH20 0xFFFFFFFFFFFFFFFFFFFFFFFFFFFFFFFFFFFFFFFF AND MUL OR SWAP1 SSTORE POP PUSH1 0x1 PUSH0 SWAP1 SLOAD SWAP1 PUSH2 0x100 EXP SWAP1 DIV PUSH20 0xFFFFFFFFFFFFFFFFFFFFFFFFFFFFFFFFFFFFFFFF AND PUSH20 0xFFFFFFFFFFFFFFFFFFFFFFFFFFFFFFFFFFFFFFFF AND PUSH4 0xA9059CBB PUSH0 PUSH0 SWAP1 SLOAD SWAP1 PUSH2 0x100 EXP SWAP1 DIV PUSH20 0xFFFFFFFFFFFFFFFFFFFFFFFFFFFFFFFFFFFFFFFF AND PUSH1 0x1 PUSH1 0x40 MLOAD DUP4 PUSH4 0xFFFFFFFF AND PUSH1 0xE0 SHL DUP2 MSTORE PUSH1 0x4 ADD PUSH2 0x579 SWAP3 SWAP2 SWAP1 PUSH2 0xE69 JUMP JUMPDEST PUSH1 0x20 PUSH1 0x40 MLOAD DUP1 DUP4 SUB DUP2 PUSH0 DUP8 GAS CALL ISZERO DUP1 ISZERO PUSH2 0x595 JUMPI RETURNDATASIZE PUSH0 PUSH0 RETURNDATACOPY RETURNDATASIZE PUSH0 REVERT JUMPDEST POP POP POP POP PUSH1 0x40 MLOAD RETURNDATASIZE PUSH1 0x1F NOT PUSH1 0x1F DUP3 ADD AND DUP3 ADD DUP1 PUSH1 0x40 MSTORE POP DUP2 ADD SWAP1 PUSH2 0x5B9 SWAP2 SWAP1 PUSH2 0xEBA JUMP JUMPDEST POP PUSH0 PUSH1 0x3 PUSH0 PUSH2 0x100 EXP DUP2 SLOAD DUP2 PUSH1 0xFF MUL NOT AND SWAP1 DUP4 ISZERO ISZERO MUL OR SWAP1 SSTORE POP JUMP JUMPDEST PUSH1 0x2 DUP2 DUP2 SLOAD DUP2 LT PUSH2 0x5E4 JUMPI PUSH0 DUP1 REVERT JUMPDEST SWAP1 PUSH0 MSTORE PUSH1 0x20 PUSH0 KECCAK256 ADD PUSH0 SWAP2 POP SLOAD SWAP1 PUSH2 0x100 EXP SWAP1 DIV PUSH20 0xFFFFFFFFFFFFFFFFFFFFFFFFFFFFFFFFFFFFFFFF AND DUP2 JUMP JUMPDEST PUSH0 PUSH0 PUSH0 PUSH0 SWAP1 SLOAD SWAP1 PUSH2 0x100 EXP SWAP1 DIV PUSH20 0xFFFFFFFFFFFFFFFFFFFFFFFFFFFFFFFFFFFFFFFF AND PUSH20 0xFFFFFFFFFFFFFFFFFFFFFFFFFFFFFFFFFFFFFFFF AND DUP4 PUSH20 0xFFFFFFFFFFFFFFFFFFFFFFFFFFFFFFFFFFFFFFFF AND SUB PUSH2 0x6A0 JUMPI PUSH1 0x40 MLOAD PUSH32 0x8C379A000000000000000000000000000000000000000000000000000000000 DUP2 MSTORE PUSH1 0x4 ADD PUSH2 0x697 SWAP1 PUSH2 0xD3E JUMP JUMPDEST PUSH1 0x40 MLOAD DUP1 SWAP2 SUB SWAP1 REVERT JUMPDEST PUSH0 PUSH0 SWAP1 POP PUSH0 PUSH0 SWAP1 POP PUSH0 PUSH0 SWAP1 POP JUMPDEST PUSH1 0x2 DUP1 SLOAD SWAP1 POP DUP2 LT DUP1 ISZERO PUSH2 0x6BF JUMPI POP DUP2 ISZERO JUMPDEST ISZERO PUSH2 0x751 JUMPI DUP6 PUSH20 0xFFFFFFFFFFFFFFFFFFFFFFFFFFFFFFFFFFFFFFFF AND PUSH1 0x2 DUP3 DUP2 SLOAD DUP2 LT PUSH2 0x6EF JUMPI PUSH2 0x6EE PUSH2 0xD5C JUMP JUMPDEST JUMPDEST SWAP1 PUSH0 MSTORE PUSH1 0x20 PUSH0 KECCAK256 ADD PUSH0 SWAP1 SLOAD SWAP1 PUSH2 0x100 EXP SWAP1 DIV PUSH20 0xFFFFFFFFFFFFFFFFFFFFFFFFFFFFFFFFFFFFFFFF AND PUSH20 0xFFFFFFFFFFFFFFFFFFFFFFFFFFFFFFFFFFFFFFFF AND SUB PUSH2 0x73E JUMPI DUP1 SWAP3 POP PUSH1 0x1 SWAP2 POP PUSH2 0x751 JUMP JUMPDEST DUP1 DUP1 PUSH2 0x749 SWAP1 PUSH2 0xF12 JUMP JUMPDEST SWAP2 POP POP PUSH2 0x6AD JUMP JUMPDEST POP DUP1 DUP3 SWAP4 POP SWAP4 POP POP POP SWAP2 POP SWAP2 JUMP JUMPDEST PUSH0 DUP2 PUSH1 0x1 PUSH0 SWAP1 SLOAD SWAP1 PUSH2 0x100 EXP SWAP1 DIV PUSH20 0xFFFFFFFFFFFFFFFFFFFFFFFFFFFFFFFFFFFFFFFF AND PUSH20 0xFFFFFFFFFFFFFFFFFFFFFFFFFFFFFFFFFFFFFFFF AND PUSH4 0x70A08231 DUP7 PUSH1 0x40 MLOAD DUP3 PUSH4 0xFFFFFFFF AND PUSH1 0xE0 SHL DUP2 MSTORE PUSH1 0x4 ADD PUSH2 0x7BB SWAP2 SWAP1 PUSH2 0xBBA JUMP JUMPDEST PUSH1 0x20 PUSH1 0x40 MLOAD DUP1 DUP4 SUB DUP2 DUP7 GAS STATICCALL ISZERO DUP1 ISZERO PUSH2 0x7D6 JUMPI RETURNDATASIZE PUSH0 PUSH0 RETURNDATACOPY RETURNDATASIZE PUSH0 REVERT JUMPDEST POP POP POP POP PUSH1 0x40 MLOAD RETURNDATASIZE PUSH1 0x1F NOT PUSH1 0x1F DUP3 ADD AND DUP3 ADD DUP1 PUSH1 0x40 MSTORE POP DUP2 ADD SWAP1 PUSH2 0x7FA SWAP2 SWAP1 PUSH2 0xD9D JUMP JUMPDEST LT ISZERO PUSH2 0x83B JUMPI PUSH1 0x40 MLOAD PUSH32 0x8C379A000000000000000000000000000000000000000000000000000000000 DUP2 MSTORE PUSH1 0x4 ADD PUSH2 0x832 SWAP1 PUSH2 0xFA3 JUMP JUMPDEST PUSH1 0x40 MLOAD DUP1 SWAP2 SUB SWAP1 REVERT JUMPDEST PUSH1 0x1 PUSH0 SWAP1 SLOAD SWAP1 PUSH2 0x100 EXP SWAP1 DIV PUSH20 0xFFFFFFFFFFFFFFFFFFFFFFFFFFFFFFFFFFFFFFFF AND PUSH20 0xFFFFFFFFFFFFFFFFFFFFFFFFFFFFFFFFFFFFFFFF AND PUSH4 0x23B872DD DUP6 DUP6 DUP6 PUSH1 0x40 MLOAD DUP5 PUSH4 0xFFFFFFFF AND PUSH1 0xE0 SHL DUP2 MSTORE PUSH1 0x4 ADD PUSH2 0x899 SWAP4 SWAP3 SWAP2 SWAP1 PUSH2 0xFC1 JUMP JUMPDEST PUSH1 0x20 PUSH1 0x40 MLOAD DUP1 DUP4 SUB DUP2 PUSH0 DUP8 GAS CALL ISZERO DUP1 ISZERO PUSH2 0x8B5 JUMPI RETURNDATASIZE PUSH0 PUSH0 RETURNDATACOPY RETURNDATASIZE PUSH0 REVERT JUMPDEST POP POP POP POP PUSH1 0x40 MLOAD RETURNDATASIZE PUSH1 0x1F NOT PUSH1 0x1F DUP3 ADD AND DUP3 ADD DUP1 PUSH1 0x40 MSTORE POP DUP2 ADD SWAP1 PUSH2 0x8D9 SWAP2 SWAP1 PUSH2 0xEBA JUMP JUMPDEST POP PUSH1 0x1 SWAP1 POP SWAP4 SWAP3 POP POP POP JUMP JUMPDEST PUSH0 PUSH0 SWAP1 SLOAD SWAP1 PUSH2 0x100 EXP SWAP1 DIV PUSH20 0xFFFFFFFFFFFFFFFFFFFFFFFFFFFFFFFFFFFFFFFF AND DUP2 JUMP JUMPDEST PUSH0 PUSH8 0xDE0B6B3A7640000 PUSH1 0x1 PUSH0 SWAP1 SLOAD SWAP1 PUSH2 0x100 EXP SWAP1 DIV PUSH20 0xFFFFFFFFFFFFFFFFFFFFFFFFFFFFFFFFFFFFFFFF AND PUSH20 0xFFFFFFFFFFFFFFFFFFFFFFFFFFFFFFFFFFFFFFFF AND PUSH4 0x70A08231 CALLER PUSH1 0x40 MLOAD DUP3 PUSH4 0xFFFFFFFF AND PUSH1 0xE0 SHL DUP2 MSTORE PUSH1 0x4 ADD PUSH2 0x96D SWAP2 SWAP1 PUSH2 0xBBA JUMP JUMPDEST PUSH1 0x20 PUSH1 0x40 MLOAD DUP1 DUP4 SUB DUP2 DUP7 GAS STATICCALL ISZERO DUP1 ISZERO PUSH2 0x988 JUMPI RETURNDATASIZE PUSH0 PUSH0 RETURNDATACOPY RETURNDATASIZE PUSH0 REVERT JUMPDEST POP POP POP POP PUSH1 0x40 MLOAD RETURNDATASIZE PUSH1 0x1F NOT PUSH1 0x1F DUP3 ADD AND DUP3 ADD DUP1 PUSH1 0x40 MSTORE POP DUP2 ADD SWAP1 PUSH2 0x9AC SWAP2 SWAP1 PUSH2 0xD9D JUMP JUMPDEST PUSH2 0x9B6 SWAP2 SWAP1 PUSH2 0xFF6 JUMP JUMPDEST SWAP1 POP PUSH1 0x1 PUSH0 SWAP1 SLOAD SWAP1 PUSH2 0x100 EXP SWAP1 DIV PUSH20 0xFFFFFFFFFFFFFFFFFFFFFFFFFFFFFFFFFFFFFFFF AND PUSH20 0xFFFFFFFFFFFFFFFFFFFFFFFFFFFFFFFFFFFFFFFF AND PUSH4 0x40C10F19 CALLER DUP4 PUSH1 0x40 MLOAD DUP4 PUSH4 0xFFFFFFFF AND PUSH1 0xE0 SHL DUP2 MSTORE PUSH1 0x4 ADD PUSH2 0xA14 SWAP3 SWAP2 SWAP1 PUSH2 0x1029 JUMP JUMPDEST PUSH0 PUSH1 0x40 MLOAD DUP1 DUP4 SUB DUP2 PUSH0 DUP8 DUP1 EXTCODESIZE ISZERO DUP1 ISZERO PUSH2 0xA2B JUMPI PUSH0 PUSH0 REVERT JUMPDEST POP GAS CALL ISZERO DUP1 ISZERO PUSH2 0xA3D JUMPI RETURNDATASIZE PUSH0 PUSH0 RETURNDATACOPY RETURNDATASIZE PUSH0 REVERT JUMPDEST POP POP POP POP POP JUMP JUMPDEST PUSH1 0x1 PUSH0 SWAP1 SLOAD SWAP1 PUSH2 0x100 EXP SWAP1 DIV PUSH20 0xFFFFFFFFFFFFFFFFFFFFFFFFFFFFFFFFFFFFFFFF AND DUP2 JUMP JUMPDEST PUSH0 PUSH0 REVERT JUMPDEST PUSH0 PUSH20 0xFFFFFFFFFFFFFFFFFFFFFFFFFFFFFFFFFFFFFFFF DUP3 AND SWAP1 POP SWAP2 SWAP1 POP JUMP JUMPDEST PUSH0 PUSH2 0xA96 DUP3 PUSH2 0xA6D JUMP JUMPDEST SWAP1 POP SWAP2 SWAP1 POP JUMP JUMPDEST PUSH2 0xAA6 DUP2 PUSH2 0xA8C JUMP JUMPDEST DUP2 EQ PUSH2 0xAB0 JUMPI PUSH0 PUSH0 REVERT JUMPDEST POP JUMP JUMPDEST PUSH0 DUP2 CALLDATALOAD SWAP1 POP PUSH2 0xAC1 DUP2 PUSH2 0xA9D JUMP JUMPDEST SWAP3 SWAP2 POP POP JUMP JUMPDEST PUSH0 PUSH1 0x20 DUP3 DUP5 SUB SLT ISZERO PUSH2 0xADC JUMPI PUSH2 0xADB PUSH2 0xA69 JUMP JUMPDEST JUMPDEST PUSH0 PUSH2 0xAE9 DUP5 DUP3 DUP6 ADD PUSH2 0xAB3 JUMP JUMPDEST SWAP2 POP POP SWAP3 SWAP2 POP POP JUMP JUMPDEST PUSH0 DUP2 ISZERO ISZERO SWAP1 POP SWAP2 SWAP1 POP JUMP JUMPDEST PUSH2 0xB06 DUP2 PUSH2 0xAF2 JUMP JUMPDEST DUP3 MSTORE POP POP JUMP JUMPDEST PUSH0 PUSH1 0x20 DUP3 ADD SWAP1 POP PUSH2 0xB1F PUSH0 DUP4 ADD DUP5 PUSH2 0xAFD JUMP JUMPDEST SWAP3 SWAP2 POP POP JUMP JUMPDEST PUSH0 DUP2 SWAP1 POP SWAP2 SWAP1 POP JUMP JUMPDEST PUSH2 0xB37 DUP2 PUSH2 0xB25 JUMP JUMPDEST DUP3 MSTORE POP POP JUMP JUMPDEST PUSH0 PUSH1 0x20 DUP3 ADD SWAP1 POP PUSH2 0xB50 PUSH0 DUP4 ADD DUP5 PUSH2 0xB2E JUMP JUMPDEST SWAP3 SWAP2 POP POP JUMP JUMPDEST PUSH2 0xB5F DUP2 PUSH2 0xB25 JUMP JUMPDEST DUP2 EQ PUSH2 0xB69 JUMPI PUSH0 PUSH0 REVERT JUMPDEST POP JUMP JUMPDEST PUSH0 DUP2 CALLDATALOAD SWAP1 POP PUSH2 0xB7A DUP2 PUSH2 0xB56 JUMP JUMPDEST SWAP3 SWAP2 POP POP JUMP JUMPDEST PUSH0 PUSH1 0x20 DUP3 DUP5 SUB SLT ISZERO PUSH2 0xB95 JUMPI PUSH2 0xB94 PUSH2 0xA69 JUMP JUMPDEST JUMPDEST PUSH0 PUSH2 0xBA2 DUP5 DUP3 DUP6 ADD PUSH2 0xB6C JUMP JUMPDEST SWAP2 POP POP SWAP3 SWAP2 POP POP JUMP JUMPDEST PUSH2 0xBB4 DUP2 PUSH2 0xA8C JUMP JUMPDEST DUP3 MSTORE POP POP JUMP JUMPDEST PUSH0 PUSH1 0x20 DUP3 ADD SWAP1 POP PUSH2 0xBCD PUSH0 DUP4 ADD DUP5 PUSH2 0xBAB JUMP JUMPDEST SWAP3 SWAP2 POP POP JUMP JUMPDEST PUSH0 PUSH1 0x40 DUP3 ADD SWAP1 POP PUSH2 0xBE6 PUSH0 DUP4 ADD DUP6 PUSH2 0xAFD JUMP JUMPDEST PUSH2 0xBF3 PUSH1 0x20 DUP4 ADD DUP5 PUSH2 0xB2E JUMP JUMPDEST SWAP4 SWAP3 POP POP POP JUMP JUMPDEST PUSH0 PUSH0 PUSH0 PUSH1 0x60 DUP5 DUP7 SUB SLT ISZERO PUSH2 0xC11 JUMPI PUSH2 0xC10 PUSH2 0xA69 JUMP JUMPDEST JUMPDEST PUSH0 PUSH2 0xC1E DUP7 DUP3 DUP8 ADD PUSH2 0xAB3 JUMP JUMPDEST SWAP4 POP POP PUSH1 0x20 PUSH2 0xC2F DUP7 DUP3 DUP8 ADD PUSH2 0xAB3 JUMP JUMPDEST SWAP3 POP POP PUSH1 0x40 PUSH2 0xC40 DUP7 DUP3 DUP8 ADD PUSH2 0xB6C JUMP JUMPDEST SWAP2 POP POP SWAP3 POP SWAP3 POP SWAP3 JUMP JUMPDEST PUSH0 DUP2 SWAP1 POP SWAP2 SWAP1 POP JUMP JUMPDEST PUSH0 PUSH2 0xC6D PUSH2 0xC68 PUSH2 0xC63 DUP5 PUSH2 0xA6D JUMP JUMPDEST PUSH2 0xC4A JUMP JUMPDEST PUSH2 0xA6D JUMP JUMPDEST SWAP1 POP SWAP2 SWAP1 POP JUMP JUMPDEST PUSH0 PUSH2 0xC7E DUP3 PUSH2 0xC53 JUMP JUMPDEST SWAP1 POP SWAP2 SWAP1 POP JUMP JUMPDEST PUSH0 PUSH2 0xC8F DUP3 PUSH2 0xC74 JUMP JUMPDEST SWAP1 POP SWAP2 SWAP1 POP JUMP JUMPDEST PUSH2 0xC9F DUP2 PUSH2 0xC85 JUMP JUMPDEST DUP3 MSTORE POP POP JUMP JUMPDEST PUSH0 PUSH1 0x20 DUP3 ADD SWAP1 POP PUSH2 0xCB8 PUSH0 DUP4 ADD DUP5 PUSH2 0xC96 JUMP JUMPDEST SWAP3 SWAP2 POP POP JUMP JUMPDEST PUSH0 DUP3 DUP3 MSTORE PUSH1 0x20 DUP3 ADD SWAP1 POP SWAP3 SWAP2 POP POP JUMP JUMPDEST PUSH32 0x456C2070726F706965746172696F206E6F20707565646520657374617220656E PUSH0 DUP3 ADD MSTORE PUSH32 0x206C61206C697374610000000000000000000000000000000000000000000000 PUSH1 0x20 DUP3 ADD MSTORE POP JUMP JUMPDEST PUSH0 PUSH2 0xD28 PUSH1 0x29 DUP4 PUSH2 0xCBE JUMP JUMPDEST SWAP2 POP PUSH2 0xD33 DUP3 PUSH2 0xCCE JUMP JUMPDEST PUSH1 0x40 DUP3 ADD SWAP1 POP SWAP2 SWAP1 POP JUMP JUMPDEST PUSH0 PUSH1 0x20 DUP3 ADD SWAP1 POP DUP2 DUP2 SUB PUSH0 DUP4 ADD MSTORE PUSH2 0xD55 DUP2 PUSH2 0xD1C JUMP JUMPDEST SWAP1 POP SWAP2 SWAP1 POP JUMP JUMPDEST PUSH32 0x4E487B7100000000000000000000000000000000000000000000000000000000 PUSH0 MSTORE PUSH1 0x32 PUSH1 0x4 MSTORE PUSH1 0x24 PUSH0 REVERT JUMPDEST PUSH0 DUP2 MLOAD SWAP1 POP PUSH2 0xD97 DUP2 PUSH2 0xB56 JUMP JUMPDEST SWAP3 SWAP2 POP POP JUMP JUMPDEST PUSH0 PUSH1 0x20 DUP3 DUP5 SUB SLT ISZERO PUSH2 0xDB2 JUMPI PUSH2 0xDB1 PUSH2 0xA69 JUMP JUMPDEST JUMPDEST PUSH0 PUSH2 0xDBF DUP5 DUP3 DUP6 ADD PUSH2 0xD89 JUMP JUMPDEST SWAP2 POP POP SWAP3 SWAP2 POP POP JUMP JUMPDEST PUSH32 0x596120657374617320696E73637269746F000000000000000000000000000000 PUSH0 DUP3 ADD MSTORE POP JUMP JUMPDEST PUSH0 PUSH2 0xDFC PUSH1 0x11 DUP4 PUSH2 0xCBE JUMP JUMPDEST SWAP2 POP PUSH2 0xE07 DUP3 PUSH2 0xDC8 JUMP JUMPDEST PUSH1 0x20 DUP3 ADD SWAP1 POP SWAP2 SWAP1 POP JUMP JUMPDEST PUSH0 PUSH1 0x20 DUP3 ADD SWAP1 POP DUP2 DUP2 SUB PUSH0 DUP4 ADD MSTORE PUSH2 0xE29 DUP2 PUSH2 0xDF0 JUMP JUMPDEST SWAP1 POP SWAP2 SWAP1 POP JUMP JUMPDEST PUSH0 DUP2 SWAP1 POP SWAP2 SWAP1 POP JUMP JUMPDEST PUSH0 PUSH2 0xE53 PUSH2 0xE4E PUSH2 0xE49 DUP5 PUSH2 0xE30 JUMP JUMPDEST PUSH2 0xC4A JUMP JUMPDEST PUSH2 0xB25 JUMP JUMPDEST SWAP1 POP SWAP2 SWAP1 POP JUMP JUMPDEST PUSH2 0xE63 DUP2 PUSH2 0xE39 JUMP JUMPDEST DUP3 MSTORE POP POP JUMP JUMPDEST PUSH0 PUSH1 0x40 DUP3 ADD SWAP1 POP PUSH2 0xE7C PUSH0 DUP4 ADD DUP6 PUSH2 0xBAB JUMP JUMPDEST PUSH2 0xE89 PUSH1 0x20 DUP4 ADD DUP5 PUSH2 0xE5A JUMP JUMPDEST SWAP4 SWAP3 POP POP POP JUMP JUMPDEST PUSH2 0xE99 DUP2 PUSH2 0xAF2 JUMP JUMPDEST DUP2 EQ PUSH2 0xEA3 JUMPI PUSH0 PUSH0 REVERT JUMPDEST POP JUMP JUMPDEST PUSH0 DUP2 MLOAD SWAP1 POP PUSH2 0xEB4 DUP2 PUSH2 0xE90 JUMP JUMPDEST SWAP3 SWAP2 POP POP JUMP JUMPDEST PUSH0 PUSH1 0x20 DUP3 DUP5 SUB SLT ISZERO PUSH2 0xECF JUMPI PUSH2 0xECE PUSH2 0xA69 JUMP JUMPDEST JUMPDEST PUSH0 PUSH2 0xEDC DUP5 DUP3 DUP6 ADD PUSH2 0xEA6 JUMP JUMPDEST SWAP2 POP POP SWAP3 SWAP2 POP POP JUMP JUMPDEST PUSH32 0x4E487B7100000000000000000000000000000000000000000000000000000000 PUSH0 MSTORE PUSH1 0x11 PUSH1 0x4 MSTORE PUSH1 0x24 PUSH0 REVERT JUMPDEST PUSH0 PUSH2 0xF1C DUP3 PUSH2 0xB25 JUMP JUMPDEST SWAP2 POP PUSH32 0xFFFFFFFFFFFFFFFFFFFFFFFFFFFFFFFFFFFFFFFFFFFFFFFFFFFFFFFFFFFFFFFF DUP3 SUB PUSH2 0xF4E JUMPI PUSH2 0xF4D PUSH2 0xEE5 JUMP JUMPDEST JUMPDEST PUSH1 0x1 DUP3 ADD SWAP1 POP SWAP2 SWAP1 POP JUMP JUMPDEST PUSH32 0x53616C646F20696E737566696369656E74650000000000000000000000000000 PUSH0 DUP3 ADD MSTORE POP JUMP JUMPDEST PUSH0 PUSH2 0xF8D PUSH1 0x12 DUP4 PUSH2 0xCBE JUMP JUMPDEST SWAP2 POP PUSH2 0xF98 DUP3 PUSH2 0xF59 JUMP JUMPDEST PUSH1 0x20 DUP3 ADD SWAP1 POP SWAP2 SWAP1 POP JUMP JUMPDEST PUSH0 PUSH1 0x20 DUP3 ADD SWAP1 POP DUP2 DUP2 SUB PUSH0 DUP4 ADD MSTORE PUSH2 0xFBA DUP2 PUSH2 0xF81 JUMP JUMPDEST SWAP1 POP SWAP2 SWAP1 POP JUMP JUMPDEST PUSH0 PUSH1 0x60 DUP3 ADD SWAP1 POP PUSH2 0xFD4 PUSH0 DUP4 ADD DUP7 PUSH2 0xBAB JUMP JUMPDEST PUSH2 0xFE1 PUSH1 0x20 DUP4 ADD DUP6 PUSH2 0xBAB JUMP JUMPDEST PUSH2 0xFEE PUSH1 0x40 DUP4 ADD DUP5 PUSH2 0xB2E JUMP JUMPDEST SWAP5 SWAP4 POP POP POP POP JUMP JUMPDEST PUSH0 PUSH2 0x1000 DUP3 PUSH2 0xB25 JUMP JUMPDEST SWAP2 POP PUSH2 0x100B DUP4 PUSH2 0xB25 JUMP JUMPDEST SWAP3 POP DUP3 DUP3 ADD SWAP1 POP DUP1 DUP3 GT ISZERO PUSH2 0x1023 JUMPI PUSH2 0x1022 PUSH2 0xEE5 JUMP JUMPDEST JUMPDEST SWAP3 SWAP2 POP POP JUMP JUMPDEST PUSH0 PUSH1 0x40 DUP3 ADD SWAP1 POP PUSH2 0x103C PUSH0 DUP4 ADD DUP6 PUSH2 0xBAB JUMP JUMPDEST PUSH2 0x1049 PUSH1 0x20 DUP4 ADD DUP5 PUSH2 0xB2E JUMP JUMPDEST SWAP4 SWAP3 POP POP POP JUMP INVALID LOG2 PUSH5 0x6970667358 0x22 SLT KECCAK256 0xC 0xDC SWAP14 0xBA GASLIMIT SWAP10 SWAP16 LOG0 JUMPDEST DUP6 BYTE 0x4E PUSH20 0x170D918D59590613AD6DFF633E62C4C2C563B864 PUSH20 0x6F6C634300081E00330000000000000000000000 "
				},
				"gasEstimates": {
					"creation": {
						"codeDepositCost": "846000",
						"executionCost": "infinite",
						"totalCost": "infinite"
					},
					"external": {
						"comprarToken()": "infinite",
						"getBalance()": "infinite",
						"inscribirse()": "infinite",
						"inscritos(uint256)": "5011",
						"numeroEnLista(address)": "infinite",
						"owner()": "2551",
						"token()": "infinite",
						"transferForMember(address,address,uint256)": "infinite",
						"yaEstaInscrito(address)": "infinite"
					}
				},
				"methodIdentifiers": {
					"comprarToken()": "f32360a0",
					"getBalance()": "12065fe0",
					"inscribirse()": "61722365",
					"inscritos(uint256)": "787e5869",
					"numeroEnLista(address)": "7a54f9d9",
					"owner()": "8da5cb5b",
					"token()": "fc0c546a",
					"transferForMember(address,address,uint256)": "8a75e7bd",
					"yaEstaInscrito(address)": "0469846b"
				}
			},
			"storageLayout": {
				"storage": [
					{
						"astId": 791,
						"contract": "contracts/listaespera.sol:ListaEspera",
						"label": "owner",
						"offset": 0,
						"slot": "0",
						"type": "t_address"
					},
					{
						"astId": 794,
						"contract": "contracts/listaespera.sol:ListaEspera",
						"label": "token",
						"offset": 0,
						"slot": "1",
						"type": "t_contract(TokenEspera)1176"
					},
					{
						"astId": 797,
						"contract": "contracts/listaespera.sol:ListaEspera",
						"label": "inscritos",
						"offset": 0,
						"slot": "2",
						"type": "t_array(t_address)dyn_storage"
					},
					{
						"astId": 799,
						"contract": "contracts/listaespera.sol:ListaEspera",
						"label": "bloqueado",
						"offset": 0,
						"slot": "3",
						"type": "t_bool"
					}
				],
				"types": {
					"t_address": {
						"encoding": "inplace",
						"label": "address",
						"numberOfBytes": "20"
					},
					"t_array(t_address)dyn_storage": {
						"base": "t_address",
						"encoding": "dynamic_array",
						"label": "address[]",
						"numberOfBytes": "32"
					},
					"t_bool": {
						"encoding": "inplace",
						"label": "bool",
						"numberOfBytes": "1"
					},
					"t_contract(TokenEspera)1176": {
						"encoding": "inplace",
						"label": "contract TokenEspera",
						"numberOfBytes": "20"
					}
				}
			},
			"userdoc": {
				"kind": "user",
				"methods": {},
				"version": 1
			}
		}
	}
}