{
	"data": {
		"bytecode": {
			"linkReferences": {},
			"object": "608060405273f55301514c27489fde7c9cd9a3ea8044e7e045795f5f6101000a81548173ffffffffffffffffffffffffffffffffffffffff021916908373ffffffffffffffffffffffffffffffffffffffff160217905550348015610062575f5ffd5b5060405161109838038061109883398181016040528101906100849190610139565b8060015f6101000a81548173ffffffffffffffffffffffffffffffffffffffff021916908373ffffffffffffffffffffffffffffffffffffffff16021790555050610164565b5f5ffd5b5f73ffffffffffffffffffffffffffffffffffffffff82169050919050565b5f6100f7826100ce565b9050919050565b5f610108826100ed565b9050919050565b610118816100fe565b8114610122575f5ffd5b50565b5f815190506101338161010f565b92915050565b5f6020828403121561014e5761014d6100ca565b5b5f61015b84828501610125565b91505092915050565b610f27806101715f395ff3fe608060405234801561000f575f5ffd5b5060043610610091575f3560e01c80637a54f9d9116100645780637a54f9d91461011d5780638a75e7bd1461014d5780638da5cb5b1461017d578063f32360a01461019b578063fc0c546a146101a557610091565b80630469846b1461009557806312065fe0146100c557806361722365146100e3578063787e5869146100ed575b5f5ffd5b6100af60048036038101906100aa9190610a1d565b6101c3565b6040516100bc9190610a62565b60405180910390f35b6100cd610265565b6040516100da9190610a93565b60405180910390f35b6100eb610304565b005b61010760048036038101906101029190610ad6565b6105a1565b6040516101149190610b10565b60405180910390f35b61013760048036038101906101329190610a1d565b6105dc565b6040516101449190610a93565b60405180910390f35b61016760048036038101906101629190610b29565b6106b5565b6040516101749190610a62565b60405180910390f35b61018561083b565b6040516101929190610b10565b60405180910390f35b6101a361085f565b005b6101ad61099a565b6040516101ba9190610bd4565b60405180910390f35b5f5f5f90505b60028054905081101561025b578273ffffffffffffffffffffffffffffffffffffffff166002828154811061020157610200610bed565b5b905f5260205f20015f9054906101000a900473ffffffffffffffffffffffffffffffffffffffff1673ffffffffffffffffffffffffffffffffffffffff160361024e576001915050610260565b80806001019150506101c9565b505f90505b919050565b5f60015f9054906101000a900473ffffffffffffffffffffffffffffffffffffffff1673ffffffffffffffffffffffffffffffffffffffff166370a08231336040518263ffffffff1660e01b81526004016102c09190610b10565b602060405180830381865afa1580156102db573d5f5f3e3d5ffd5b505050506040513d601f19601f820116820180604052508101906102ff9190610c2e565b905090565b60035f9054906101000a900460ff161561031c575f5ffd5b600160035f6101000a81548160ff02191690831515021790555061033f336101c3565b1561037f576040517f08c379a000000000000000000000000000000000000000000000000000000000815260040161037690610cb3565b60405180910390fd5b670de0b6b3a764000060015f9054906101000a900473ffffffffffffffffffffffffffffffffffffffff1673ffffffffffffffffffffffffffffffffffffffff166370a08231336040518263ffffffff1660e01b81526004016103e29190610b10565b602060405180830381865afa1580156103fd573d5f5f3e3d5ffd5b505050506040513d601f19601f820116820180604052508101906104219190610c2e565b11610461576040517f08c379a000000000000000000000000000000000000000000000000000000000815260040161045890610d1b565b60405180910390fd5b600233908060018154018082558091505060019003905f5260205f20015f9091909190916101000a81548173ffffffffffffffffffffffffffffffffffffffff021916908373ffffffffffffffffffffffffffffffffffffffff16021790555060015f9054906101000a900473ffffffffffffffffffffffffffffffffffffffff1673ffffffffffffffffffffffffffffffffffffffff1663a9059cbb5f5f9054906101000a900473ffffffffffffffffffffffffffffffffffffffff16670de0b6b3a76400006040518363ffffffff1660e01b8152600401610545929190610d72565b6020604051808303815f875af1158015610561573d5f5f3e3d5ffd5b505050506040513d601f19601f820116820180604052508101906105859190610dc3565b505f60035f6101000a81548160ff021916908315150217905550565b600281815481106105b0575f80fd5b905f5260205f20015f915054906101000a900473ffffffffffffffffffffffffffffffffffffffff1681565b5f5f5f90505f5f90505f5f90505b600280549050811080156105fc575081155b1561068e578473ffffffffffffffffffffffffffffffffffffffff166002828154811061062c5761062b610bed565b5b905f5260205f20015f9054906101000a900473ffffffffffffffffffffffffffffffffffffffff1673ffffffffffffffffffffffffffffffffffffffff160361067b578092506001915061068e565b808061068690610e1b565b9150506105ea565b508061069e575f925050506106b0565b6001826106ab9190610e62565b925050505b919050565b5f8160015f9054906101000a900473ffffffffffffffffffffffffffffffffffffffff1673ffffffffffffffffffffffffffffffffffffffff166370a08231866040518263ffffffff1660e01b81526004016107119190610b10565b602060405180830381865afa15801561072c573d5f5f3e3d5ffd5b505050506040513d601f19601f820116820180604052508101906107509190610c2e565b1015610791576040517f08c379a000000000000000000000000000000000000000000000000000000000815260040161078890610d1b565b60405180910390fd5b60015f9054906101000a900473ffffffffffffffffffffffffffffffffffffffff1673ffffffffffffffffffffffffffffffffffffffff166323b872dd8585856040518463ffffffff1660e01b81526004016107ef93929190610e95565b6020604051808303815f875af115801561080b573d5f5f3e3d5ffd5b505050506040513d601f19601f8201168201806040525081019061082f9190610dc3565b50600190509392505050565b5f5f9054906101000a900473ffffffffffffffffffffffffffffffffffffffff1681565b5f670de0b6b3a764000060015f9054906101000a900473ffffffffffffffffffffffffffffffffffffffff1673ffffffffffffffffffffffffffffffffffffffff166370a08231336040518263ffffffff1660e01b81526004016108c39190610b10565b602060405180830381865afa1580156108de573d5f5f3e3d5ffd5b505050506040513d601f19601f820116820180604052508101906109029190610c2e565b61090c9190610e62565b905060015f9054906101000a900473ffffffffffffffffffffffffffffffffffffffff1673ffffffffffffffffffffffffffffffffffffffff166340c10f1933836040518363ffffffff1660e01b815260040161096a929190610eca565b5f604051808303815f87803b158015610981575f5ffd5b505af1158015610993573d5f5f3e3d5ffd5b5050505050565b60015f9054906101000a900473ffffffffffffffffffffffffffffffffffffffff1681565b5f5ffd5b5f73ffffffffffffffffffffffffffffffffffffffff82169050919050565b5f6109ec826109c3565b9050919050565b6109fc816109e2565b8114610a06575f5ffd5b50565b5f81359050610a17816109f3565b92915050565b5f60208284031215610a3257610a316109bf565b5b5f610a3f84828501610a09565b91505092915050565b5f8115159050919050565b610a5c81610a48565b82525050565b5f602082019050610a755f830184610a53565b92915050565b5f819050919050565b610a8d81610a7b565b82525050565b5f602082019050610aa65f830184610a84565b92915050565b610ab581610a7b565b8114610abf575f5ffd5b50565b5f81359050610ad081610aac565b92915050565b5f60208284031215610aeb57610aea6109bf565b5b5f610af884828501610ac2565b91505092915050565b610b0a816109e2565b82525050565b5f602082019050610b235f830184610b01565b92915050565b5f5f5f60608486031215610b4057610b3f6109bf565b5b5f610b4d86828701610a09565b9350506020610b5e86828701610a09565b9250506040610b6f86828701610ac2565b9150509250925092565b5f819050919050565b5f610b9c610b97610b92846109c3565b610b79565b6109c3565b9050919050565b5f610bad82610b82565b9050919050565b5f610bbe82610ba3565b9050919050565b610bce81610bb4565b82525050565b5f602082019050610be75f830184610bc5565b92915050565b7f4e487b71000000000000000000000000000000000000000000000000000000005f52603260045260245ffd5b5f81519050610c2881610aac565b92915050565b5f60208284031215610c4357610c426109bf565b5b5f610c5084828501610c1a565b91505092915050565b5f82825260208201905092915050565b7f596120657374617320696e73637269746f0000000000000000000000000000005f82015250565b5f610c9d601183610c59565b9150610ca882610c69565b602082019050919050565b5f6020820190508181035f830152610cca81610c91565b9050919050565b7f53616c646f20696e737566696369656e746500000000000000000000000000005f82015250565b5f610d05601283610c59565b9150610d1082610cd1565b602082019050919050565b5f6020820190508181035f830152610d3281610cf9565b9050919050565b5f819050919050565b5f610d5c610d57610d5284610d39565b610b79565b610a7b565b9050919050565b610d6c81610d42565b82525050565b5f604082019050610d855f830185610b01565b610d926020830184610d63565b9392505050565b610da281610a48565b8114610dac575f5ffd5b50565b5f81519050610dbd81610d99565b92915050565b5f60208284031215610dd857610dd76109bf565b5b5f610de584828501610daf565b91505092915050565b7f4e487b71000000000000000000000000000000000000000000000000000000005f52601160045260245ffd5b5f610e2582610a7b565b91507fffffffffffffffffffffffffffffffffffffffffffffffffffffffffffffffff8203610e5757610e56610dee565b5b600182019050919050565b5f610e6c82610a7b565b9150610e7783610a7b565b9250828201905080821115610e8f57610e8e610dee565b5b92915050565b5f606082019050610ea85f830186610b01565b610eb56020830185610b01565b610ec26040830184610a84565b949350505050565b5f604082019050610edd5f830185610b01565b610eea6020830184610a84565b939250505056fea26469706673582212209223709f4fc974932858e40bb68f164c99b0837626b4a1f207b7525fd4399e8664736f6c634300081e0033",
			"opcodes": "PUSH1 0x80 PUSH1 0x40 MSTORE PUSH20 0xF55301514C27489FDE7C9CD9A3EA8044E7E04579 PUSH0 PUSH0 PUSH2 0x100 EXP DUP2 SLOAD DUP2 PUSH20 0xFFFFFFFFFFFFFFFFFFFFFFFFFFFFFFFFFFFFFFFF MUL NOT AND SWAP1 DUP4 PUSH20 0xFFFFFFFFFFFFFFFFFFFFFFFFFFFFFFFFFFFFFFFF AND MUL OR SWAP1 SSTORE POP CALLVALUE DUP1 ISZERO PUSH2 0x62 JUMPI PUSH0 PUSH0 REVERT JUMPDEST POP PUSH1 0x40 MLOAD PUSH2 0x1098 CODESIZE SUB DUP1 PUSH2 0x1098 DUP4 CODECOPY DUP2 DUP2 ADD PUSH1 0x40 MSTORE DUP2 ADD SWAP1 PUSH2 0x84 SWAP2 SWAP1 PUSH2 0x139 JUMP JUMPDEST DUP1 PUSH1 0x1 PUSH0 PUSH2 0x100 EXP DUP2 SLOAD DUP2 PUSH20 0xFFFFFFFFFFFFFFFFFFFFFFFFFFFFFFFFFFFFFFFF MUL NOT AND SWAP1 DUP4 PUSH20 0xFFFFFFFFFFFFFFFFFFFFFFFFFFFFFFFFFFFFFFFF AND MUL OR SWAP1 SSTORE POP POP PUSH2 0x164 JUMP JUMPDEST PUSH0 PUSH0 REVERT JUMPDEST PUSH0 PUSH20 0xFFFFFFFFFFFFFFFFFFFFFFFFFFFFFFFFFFFFFFFF DUP3 AND SWAP1 POP SWAP2 SWAP1 POP JUMP JUMPDEST PUSH0 PUSH2 0xF7 DUP3 PUSH2 0xCE JUMP JUMPDEST SWAP1 POP SWAP2 SWAP1 POP JUMP JUMPDEST PUSH0 PUSH2 0x108 DUP3 PUSH2 0xED JUMP JUMPDEST SWAP1 POP SWAP2 SWAP1 POP JUMP JUMPDEST PUSH2 0x118 DUP2 PUSH2 0xFE JUMP JUMPDEST DUP2 EQ PUSH2 0x122 JUMPI PUSH0 PUSH0 REVERT JUMPDEST POP JUMP JUMPDEST PUSH0 DUP2 MLOAD SWAP1 POP PUSH2 0x133 DUP2 PUSH2 0x10F JUMP JUMPDEST SWAP3 SWAP2 POP POP JUMP JUMPDEST PUSH0 PUSH1 0x20 DUP3 DUP5 SUB SLT ISZERO PUSH2 0x14E JUMPI PUSH2 0x14D PUSH2 0xCA JUMP JUMPDEST JUMPDEST PUSH0 PUSH2 0x15B DUP5 DUP3 DUP6 ADD PUSH2 0x125 JUMP JUMPDEST SWAP2 POP POP SWAP3 SWAP2 POP POP JUMP JUMPDEST PUSH2 0xF27 DUP1 PUSH2 0x171 PUSH0 CODECOPY PUSH0 RETURN INVALID PUSH1 0x80 PUSH1 0x40 MSTORE CALLVALUE DUP1 ISZERO PUSH2 0xF JUMPI PUSH0 PUSH0 REVERT JUMPDEST POP PUSH1 0x4 CALLDATASIZE LT PUSH2 0x91 JUMPI PUSH0 CALLDATALOAD PUSH1 0xE0 SHR DUP1 PUSH4 0x7A54F9D9 GT PUSH2 0x64 JUMPI DUP1 PUSH4 0x7A54F9D9 EQ PUSH2 0x11D JUMPI DUP1 PUSH4 0x8A75E7BD EQ PUSH2 0x14D JUMPI DUP1 PUSH4 0x8DA5CB5B EQ PUSH2 0x17D JUMPI DUP1 PUSH4 0xF32360A0 EQ PUSH2 0x19B JUMPI DUP1 PUSH4 0xFC0C546A EQ PUSH2 0x1A5 JUMPI PUSH2 0x91 JUMP JUMPDEST DUP1 PUSH4 0x469846B EQ PUSH2 0x95 JUMPI DUP1 PUSH4 0x12065FE0 EQ PUSH2 0xC5 JUMPI DUP1 PUSH4 0x61722365 EQ PUSH2 0xE3 JUMPI DUP1 PUSH4 0x787E5869 EQ PUSH2 0xED JUMPI JUMPDEST PUSH0 PUSH0 REVERT JUMPDEST PUSH2 0xAF PUSH1 0x4 DUP1 CALLDATASIZE SUB DUP2 ADD SWAP1 PUSH2 0xAA SWAP2 SWAP1 PUSH2 0xA1D JUMP JUMPDEST PUSH2 0x1C3 JUMP JUMPDEST PUSH1 0x40 MLOAD PUSH2 0xBC SWAP2 SWAP1 PUSH2 0xA62 JUMP JUMPDEST PUSH1 0x40 MLOAD DUP1 SWAP2 SUB SWAP1 RETURN JUMPDEST PUSH2 0xCD PUSH2 0x265 JUMP JUMPDEST PUSH1 0x40 MLOAD PUSH2 0xDA SWAP2 SWAP1 PUSH2 0xA93 JUMP JUMPDEST PUSH1 0x40 MLOAD DUP1 SWAP2 SUB SWAP1 RETURN JUMPDEST PUSH2 0xEB PUSH2 0x304 JUMP JUMPDEST STOP JUMPDEST PUSH2 0x107 PUSH1 0x4 DUP1 CALLDATASIZE SUB DUP2 ADD SWAP1 PUSH2 0x102 SWAP2 SWAP1 PUSH2 0xAD6 JUMP JUMPDEST PUSH2 0x5A1 JUMP JUMPDEST PUSH1 0x40 MLOAD PUSH2 0x114 SWAP2 SWAP1 PUSH2 0xB10 JUMP JUMPDEST PUSH1 0x40 MLOAD DUP1 SWAP2 SUB SWAP1 RETURN JUMPDEST PUSH2 0x137 PUSH1 0x4 DUP1 CALLDATASIZE SUB DUP2 ADD SWAP1 PUSH2 0x132 SWAP2 SWAP1 PUSH2 0xA1D JUMP JUMPDEST PUSH2 0x5DC JUMP JUMPDEST PUSH1 0x40 MLOAD PUSH2 0x144 SWAP2 SWAP1 PUSH2 0xA93 JUMP JUMPDEST PUSH1 0x40 MLOAD DUP1 SWAP2 SUB SWAP1 RETURN JUMPDEST PUSH2 0x167 PUSH1 0x4 DUP1 CALLDATASIZE SUB DUP2 ADD SWAP1 PUSH2 0x162 SWAP2 SWAP1 PUSH2 0xB29 JUMP JUMPDEST PUSH2 0x6B5 JUMP JUMPDEST PUSH1 0x40 MLOAD PUSH2 0x174 SWAP2 SWAP1 PUSH2 0xA62 JUMP JUMPDEST PUSH1 0x40 MLOAD DUP1 SWAP2 SUB SWAP1 RETURN JUMPDEST PUSH2 0x185 PUSH2 0x83B JUMP JUMPDEST PUSH1 0x40 MLOAD PUSH2 0x192 SWAP2 SWAP1 PUSH2 0xB10 JUMP JUMPDEST PUSH1 0x40 MLOAD DUP1 SWAP2 SUB SWAP1 RETURN JUMPDEST PUSH2 0x1A3 PUSH2 0x85F JUMP JUMPDEST STOP JUMPDEST PUSH2 0x1AD PUSH2 0x99A JUMP JUMPDEST PUSH1 0x40 MLOAD PUSH2 0x1BA SWAP2 SWAP1 PUSH2 0xBD4 JUMP JUMPDEST PUSH1 0x40 MLOAD DUP1 SWAP2 SUB SWAP1 RETURN JUMPDEST PUSH0 PUSH0 PUSH0 SWAP1 POP JUMPDEST PUSH1 0x2 DUP1 SLOAD SWAP1 POP DUP2 LT ISZERO PUSH2 0x25B JUMPI DUP3 PUSH20 0xFFFFFFFFFFFFFFFFFFFFFFFFFFFFFFFFFFFFFFFF AND PUSH1 0x2 DUP3 DUP2 SLOAD DUP2 LT PUSH2 0x201 JUMPI PUSH2 0x200 PUSH2 0xBED JUMP JUMPDEST JUMPDEST SWAP1 PUSH0 MSTORE PUSH1 0x20 PUSH0 KECCAK256 ADD PUSH0 SWAP1 SLOAD SWAP1 PUSH2 0x100 EXP SWAP1 DIV PUSH20 0xFFFFFFFFFFFFFFFFFFFFFFFFFFFFFFFFFFFFFFFF AND PUSH20 0xFFFFFFFFFFFFFFFFFFFFFFFFFFFFFFFFFFFFFFFF AND SUB PUSH2 0x24E JUMPI PUSH1 0x1 SWAP2 POP POP PUSH2 0x260 JUMP JUMPDEST DUP1 DUP1 PUSH1 0x1 ADD SWAP2 POP POP PUSH2 0x1C9 JUMP JUMPDEST POP PUSH0 SWAP1 POP JUMPDEST SWAP2 SWAP1 POP JUMP JUMPDEST PUSH0 PUSH1 0x1 PUSH0 SWAP1 SLOAD SWAP1 PUSH2 0x100 EXP SWAP1 DIV PUSH20 0xFFFFFFFFFFFFFFFFFFFFFFFFFFFFFFFFFFFFFFFF AND PUSH20 0xFFFFFFFFFFFFFFFFFFFFFFFFFFFFFFFFFFFFFFFF AND PUSH4 0x70A08231 CALLER PUSH1 0x40 MLOAD DUP3 PUSH4 0xFFFFFFFF AND PUSH1 0xE0 SHL DUP2 MSTORE PUSH1 0x4 ADD PUSH2 0x2C0 SWAP2 SWAP1 PUSH2 0xB10 JUMP JUMPDEST PUSH1 0x20 PUSH1 0x40 MLOAD DUP1 DUP4 SUB DUP2 DUP7 GAS STATICCALL ISZERO DUP1 ISZERO PUSH2 0x2DB JUMPI RETURNDATASIZE PUSH0 PUSH0 RETURNDATACOPY RETURNDATASIZE PUSH0 REVERT JUMPDEST POP POP POP POP PUSH1 0x40 MLOAD RETURNDATASIZE PUSH1 0x1F NOT PUSH1 0x1F DUP3 ADD AND DUP3 ADD DUP1 PUSH1 0x40 MSTORE POP DUP2 ADD SWAP1 PUSH2 0x2FF SWAP2 SWAP1 PUSH2 0xC2E JUMP JUMPDEST SWAP1 POP SWAP1 JUMP JUMPDEST PUSH1 0x3 PUSH0 SWAP1 SLOAD SWAP1 PUSH2 0x100 EXP SWAP1 DIV PUSH1 0xFF AND ISZERO PUSH2 0x31C JUMPI PUSH0 PUSH0 REVERT JUMPDEST PUSH1 0x1 PUSH1 0x3 PUSH0 PUSH2 0x100 EXP DUP2 SLOAD DUP2 PUSH1 0xFF MUL NOT AND SWAP1 DUP4 ISZERO ISZERO MUL OR SWAP1 SSTORE POP PUSH2 0x33F CALLER PUSH2 0x1C3 JUMP JUMPDEST ISZERO PUSH2 0x37F JUMPI PUSH1 0x40 MLOAD PUSH32 0x8C379A000000000000000000000000000000000000000000000000000000000 DUP2 MSTORE PUSH1 0x4 ADD PUSH2 0x376 SWAP1 PUSH2 0xCB3 JUMP JUMPDEST PUSH1 0x40 MLOAD DUP1 SWAP2 SUB SWAP1 REVERT JUMPDEST PUSH8 0xDE0B6B3A7640000 PUSH1 0x1 PUSH0 SWAP1 SLOAD SWAP1 PUSH2 0x100 EXP SWAP1 DIV PUSH20 0xFFFFFFFFFFFFFFFFFFFFFFFFFFFFFFFFFFFFFFFF AND PUSH20 0xFFFFFFFFFFFFFFFFFFFFFFFFFFFFFFFFFFFFFFFF AND PUSH4 0x70A08231 CALLER PUSH1 0x40 MLOAD DUP3 PUSH4 0xFFFFFFFF AND PUSH1 0xE0 SHL DUP2 MSTORE PUSH1 0x4 ADD PUSH2 0x3E2 SWAP2 SWAP1 PUSH2 0xB10 JUMP JUMPDEST PUSH1 0x20 PUSH1 0x40 MLOAD DUP1 DUP4 SUB DUP2 DUP7 GAS STATICCALL ISZERO DUP1 ISZERO PUSH2 0x3FD JUMPI RETURNDATASIZE PUSH0 PUSH0 RETURNDATACOPY RETURNDATASIZE PUSH0 REVERT JUMPDEST POP POP POP POP PUSH1 0x40 MLOAD RETURNDATASIZE PUSH1 0x1F NOT PUSH1 0x1F DUP3 ADD AND DUP3 ADD DUP1 PUSH1 0x40 MSTORE POP DUP2 ADD SWAP1 PUSH2 0x421 SWAP2 SWAP1 PUSH2 0xC2E JUMP JUMPDEST GT PUSH2 0x461 JUMPI PUSH1 0x40 MLOAD PUSH32 0x8C379A000000000000000000000000000000000000000000000000000000000 DUP2 MSTORE PUSH1 0x4 ADD PUSH2 0x458 SWAP1 PUSH2 0xD1B JUMP JUMPDEST PUSH1 0x40 MLOAD DUP1 SWAP2 SUB SWAP1 REVERT JUMPDEST PUSH1 0x2 CALLER SWAP1 DUP1 PUSH1 0x1 DUP2 SLOAD ADD DUP1 DUP3 SSTORE DUP1 SWAP2 POP POP PUSH1 0x1 SWAP1 SUB SWAP1 PUSH0 MSTORE PUSH1 0x20 PUSH0 KECCAK256 ADD PUSH0 SWAP1 SWAP2 SWAP1 SWAP2 SWAP1 SWAP2 PUSH2 0x100 EXP DUP2 SLOAD DUP2 PUSH20 0xFFFFFFFFFFFFFFFFFFFFFFFFFFFFFFFFFFFFFFFF MUL NOT AND SWAP1 DUP4 PUSH20 0xFFFFFFFFFFFFFFFFFFFFFFFFFFFFFFFFFFFFFFFF AND MUL OR SWAP1 SSTORE POP PUSH1 0x1 PUSH0 SWAP1 SLOAD SWAP1 PUSH2 0x100 EXP SWAP1 DIV PUSH20 0xFFFFFFFFFFFFFFFFFFFFFFFFFFFFFFFFFFFFFFFF AND PUSH20 0xFFFFFFFFFFFFFFFFFFFFFFFFFFFFFFFFFFFFFFFF AND PUSH4 0xA9059CBB PUSH0 PUSH0 SWAP1 SLOAD SWAP1 PUSH2 0x100 EXP SWAP1 DIV PUSH20 0xFFFFFFFFFFFFFFFFFFFFFFFFFFFFFFFFFFFFFFFF AND PUSH8 0xDE0B6B3A7640000 PUSH1 0x40 MLOAD DUP4 PUSH4 0xFFFFFFFF AND PUSH1 0xE0 SHL DUP2 MSTORE PUSH1 0x4 ADD PUSH2 0x545 SWAP3 SWAP2 SWAP1 PUSH2 0xD72 JUMP JUMPDEST PUSH1 0x20 PUSH1 0x40 MLOAD DUP1 DUP4 SUB DUP2 PUSH0 DUP8 GAS CALL ISZERO DUP1 ISZERO PUSH2 0x561 JUMPI RETURNDATASIZE PUSH0 PUSH0 RETURNDATACOPY RETURNDATASIZE PUSH0 REVERT JUMPDEST POP POP POP POP PUSH1 0x40 MLOAD RETURNDATASIZE PUSH1 0x1F NOT PUSH1 0x1F DUP3 ADD AND DUP3 ADD DUP1 PUSH1 0x40 MSTORE POP DUP2 ADD SWAP1 PUSH2 0x585 SWAP2 SWAP1 PUSH2 0xDC3 JUMP JUMPDEST POP PUSH0 PUSH1 0x3 PUSH0 PUSH2 0x100 EXP DUP2 SLOAD DUP2 PUSH1 0xFF MUL NOT AND SWAP1 DUP4 ISZERO ISZERO MUL OR SWAP1 SSTORE POP JUMP JUMPDEST PUSH1 0x2 DUP2 DUP2 SLOAD DUP2 LT PUSH2 0x5B0 JUMPI PUSH0 DUP1 REVERT JUMPDEST SWAP1 PUSH0 MSTORE PUSH1 0x20 PUSH0 KECCAK256 ADD PUSH0 SWAP2 POP SLOAD SWAP1 PUSH2 0x100 EXP SWAP1 DIV PUSH20 0xFFFFFFFFFFFFFFFFFFFFFFFFFFFFFFFFFFFFFFFF AND DUP2 JUMP JUMPDEST PUSH0 PUSH0 PUSH0 SWAP1 POP PUSH0 PUSH0 SWAP1 POP PUSH0 PUSH0 SWAP1 POP JUMPDEST PUSH1 0x2 DUP1 SLOAD SWAP1 POP DUP2 LT DUP1 ISZERO PUSH2 0x5FC JUMPI POP DUP2 ISZERO JUMPDEST ISZERO PUSH2 0x68E JUMPI DUP5 PUSH20 0xFFFFFFFFFFFFFFFFFFFFFFFFFFFFFFFFFFFFFFFF AND PUSH1 0x2 DUP3 DUP2 SLOAD DUP2 LT PUSH2 0x62C JUMPI PUSH2 0x62B PUSH2 0xBED JUMP JUMPDEST JUMPDEST SWAP1 PUSH0 MSTORE PUSH1 0x20 PUSH0 KECCAK256 ADD PUSH0 SWAP1 SLOAD SWAP1 PUSH2 0x100 EXP SWAP1 DIV PUSH20 0xFFFFFFFFFFFFFFFFFFFFFFFFFFFFFFFFFFFFFFFF AND PUSH20 0xFFFFFFFFFFFFFFFFFFFFFFFFFFFFFFFFFFFFFFFF AND SUB PUSH2 0x67B JUMPI DUP1 SWAP3 POP PUSH1 0x1 SWAP2 POP PUSH2 0x68E JUMP JUMPDEST DUP1 DUP1 PUSH2 0x686 SWAP1 PUSH2 0xE1B JUMP JUMPDEST SWAP2 POP POP PUSH2 0x5EA JUMP JUMPDEST POP DUP1 PUSH2 0x69E JUMPI PUSH0 SWAP3 POP POP POP PUSH2 0x6B0 JUMP JUMPDEST PUSH1 0x1 DUP3 PUSH2 0x6AB SWAP2 SWAP1 PUSH2 0xE62 JUMP JUMPDEST SWAP3 POP POP POP JUMPDEST SWAP2 SWAP1 POP JUMP JUMPDEST PUSH0 DUP2 PUSH1 0x1 PUSH0 SWAP1 SLOAD SWAP1 PUSH2 0x100 EXP SWAP1 DIV PUSH20 0xFFFFFFFFFFFFFFFFFFFFFFFFFFFFFFFFFFFFFFFF AND PUSH20 0xFFFFFFFFFFFFFFFFFFFFFFFFFFFFFFFFFFFFFFFF AND PUSH4 0x70A08231 DUP7 PUSH1 0x40 MLOAD DUP3 PUSH4 0xFFFFFFFF AND PUSH1 0xE0 SHL DUP2 MSTORE PUSH1 0x4 ADD PUSH2 0x711 SWAP2 SWAP1 PUSH2 0xB10 JUMP JUMPDEST PUSH1 0x20 PUSH1 0x40 MLOAD DUP1 DUP4 SUB DUP2 DUP7 GAS STATICCALL ISZERO DUP1 ISZERO PUSH2 0x72C JUMPI RETURNDATASIZE PUSH0 PUSH0 RETURNDATACOPY RETURNDATASIZE PUSH0 REVERT JUMPDEST POP POP POP POP PUSH1 0x40 MLOAD RETURNDATASIZE PUSH1 0x1F NOT PUSH1 0x1F DUP3 ADD AND DUP3 ADD DUP1 PUSH1 0x40 MSTORE POP DUP2 ADD SWAP1 PUSH2 0x750 SWAP2 SWAP1 PUSH2 0xC2E JUMP JUMPDEST LT ISZERO PUSH2 0x791 JUMPI PUSH1 0x40 MLOAD PUSH32 0x8C379A000000000000000000000000000000000000000000000000000000000 DUP2 MSTORE PUSH1 0x4 ADD PUSH2 0x788 SWAP1 PUSH2 0xD1B JUMP JUMPDEST PUSH1 0x40 MLOAD DUP1 SWAP2 SUB SWAP1 REVERT JUMPDEST PUSH1 0x1 PUSH0 SWAP1 SLOAD SWAP1 PUSH2 0x100 EXP SWAP1 DIV PUSH20 0xFFFFFFFFFFFFFFFFFFFFFFFFFFFFFFFFFFFFFFFF AND PUSH20 0xFFFFFFFFFFFFFFFFFFFFFFFFFFFFFFFFFFFFFFFF AND PUSH4 0x23B872DD DUP6 DUP6 DUP6 PUSH1 0x40 MLOAD DUP5 PUSH4 0xFFFFFFFF AND PUSH1 0xE0 SHL DUP2 MSTORE PUSH1 0x4 ADD PUSH2 0x7EF SWAP4 SWAP3 SWAP2 SWAP1 PUSH2 0xE95 JUMP JUMPDEST PUSH1 0x20 PUSH1 0x40 MLOAD DUP1 DUP4 SUB DUP2 PUSH0 DUP8 GAS CALL ISZERO DUP1 ISZERO PUSH2 0x80B JUMPI RETURNDATASIZE PUSH0 PUSH0 RETURNDATACOPY RETURNDATASIZE PUSH0 REVERT JUMPDEST POP POP POP POP PUSH1 0x40 MLOAD RETURNDATASIZE PUSH1 0x1F NOT PUSH1 0x1F DUP3 ADD AND DUP3 ADD DUP1 PUSH1 0x40 MSTORE POP DUP2 ADD SWAP1 PUSH2 0x82F SWAP2 SWAP1 PUSH2 0xDC3 JUMP JUMPDEST POP PUSH1 0x1 SWAP1 POP SWAP4 SWAP3 POP POP POP JUMP JUMPDEST PUSH0 PUSH0 SWAP1 SLOAD SWAP1 PUSH2 0x100 EXP SWAP1 DIV PUSH20 0xFFFFFFFFFFFFFFFFFFFFFFFFFFFFFFFFFFFFFFFF AND DUP2 JUMP JUMPDEST PUSH0 PUSH8 0xDE0B6B3A7640000 PUSH1 0x1 PUSH0 SWAP1 SLOAD SWAP1 PUSH2 0x100 EXP SWAP1 DIV PUSH20 0xFFFFFFFFFFFFFFFFFFFFFFFFFFFFFFFFFFFFFFFF AND PUSH20 0xFFFFFFFFFFFFFFFFFFFFFFFFFFFFFFFFFFFFFFFF AND PUSH4 0x70A08231 CALLER PUSH1 0x40 MLOAD DUP3 PUSH4 0xFFFFFFFF AND PUSH1 0xE0 SHL DUP2 MSTORE PUSH1 0x4 ADD PUSH2 0x8C3 SWAP2 SWAP1 PUSH2 0xB10 JUMP JUMPDEST PUSH1 0x20 PUSH1 0x40 MLOAD DUP1 DUP4 SUB DUP2 DUP7 GAS STATICCALL ISZERO DUP1 ISZERO PUSH2 0x8DE JUMPI RETURNDATASIZE PUSH0 PUSH0 RETURNDATACOPY RETURNDATASIZE PUSH0 REVERT JUMPDEST POP POP POP POP PUSH1 0x40 MLOAD RETURNDATASIZE PUSH1 0x1F NOT PUSH1 0x1F DUP3 ADD AND DUP3 ADD DUP1 PUSH1 0x40 MSTORE POP DUP2 ADD SWAP1 PUSH2 0x902 SWAP2 SWAP1 PUSH2 0xC2E JUMP JUMPDEST PUSH2 0x90C SWAP2 SWAP1 PUSH2 0xE62 JUMP JUMPDEST SWAP1 POP PUSH1 0x1 PUSH0 SWAP1 SLOAD SWAP1 PUSH2 0x100 EXP SWAP1 DIV PUSH20 0xFFFFFFFFFFFFFFFFFFFFFFFFFFFFFFFFFFFFFFFF AND PUSH20 0xFFFFFFFFFFFFFFFFFFFFFFFFFFFFFFFFFFFFFFFF AND PUSH4 0x40C10F19 CALLER DUP4 PUSH1 0x40 MLOAD DUP4 PUSH4 0xFFFFFFFF AND PUSH1 0xE0 SHL DUP2 MSTORE PUSH1 0x4 ADD PUSH2 0x96A SWAP3 SWAP2 SWAP1 PUSH2 0xECA JUMP JUMPDEST PUSH0 PUSH1 0x40 MLOAD DUP1 DUP4 SUB DUP2 PUSH0 DUP8 DUP1 EXTCODESIZE ISZERO DUP1 ISZERO PUSH2 0x981 JUMPI PUSH0 PUSH0 REVERT JUMPDEST POP GAS CALL ISZERO DUP1 ISZERO PUSH2 0x993 JUMPI RETURNDATASIZE PUSH0 PUSH0 RETURNDATACOPY RETURNDATASIZE PUSH0 REVERT JUMPDEST POP POP POP POP POP JUMP JUMPDEST PUSH1 0x1 PUSH0 SWAP1 SLOAD SWAP1 PUSH2 0x100 EXP SWAP1 DIV PUSH20 0xFFFFFFFFFFFFFFFFFFFFFFFFFFFFFFFFFFFFFFFF AND DUP2 JUMP JUMPDEST PUSH0 PUSH0 REVERT JUMPDEST PUSH0 PUSH20 0xFFFFFFFFFFFFFFFFFFFFFFFFFFFFFFFFFFFFFFFF DUP3 AND SWAP1 POP SWAP2 SWAP1 POP JUMP JUMPDEST PUSH0 PUSH2 0x9EC DUP3 PUSH2 0x9C3 JUMP JUMPDEST SWAP1 POP SWAP2 SWAP1 POP JUMP JUMPDEST PUSH2 0x9FC DUP2 PUSH2 0x9E2 JUMP JUMPDEST DUP2 EQ PUSH2 0xA06 JUMPI PUSH0 PUSH0 REVERT JUMPDEST POP JUMP JUMPDEST PUSH0 DUP2 CALLDATALOAD SWAP1 POP PUSH2 0xA17 DUP2 PUSH2 0x9F3 JUMP JUMPDEST SWAP3 SWAP2 POP POP JUMP JUMPDEST PUSH0 PUSH1 0x20 DUP3 DUP5 SUB SLT ISZERO PUSH2 0xA32 JUMPI PUSH2 0xA31 PUSH2 0x9BF JUMP JUMPDEST JUMPDEST PUSH0 PUSH2 0xA3F DUP5 DUP3 DUP6 ADD PUSH2 0xA09 JUMP JUMPDEST SWAP2 POP POP SWAP3 SWAP2 POP POP JUMP JUMPDEST PUSH0 DUP2 ISZERO ISZERO SWAP1 POP SWAP2 SWAP1 POP JUMP JUMPDEST PUSH2 0xA5C DUP2 PUSH2 0xA48 JUMP JUMPDEST DUP3 MSTORE POP POP JUMP JUMPDEST PUSH0 PUSH1 0x20 DUP3 ADD SWAP1 POP PUSH2 0xA75 PUSH0 DUP4 ADD DUP5 PUSH2 0xA53 JUMP JUMPDEST SWAP3 SWAP2 POP POP JUMP JUMPDEST PUSH0 DUP2 SWAP1 POP SWAP2 SWAP1 POP JUMP JUMPDEST PUSH2 0xA8D DUP2 PUSH2 0xA7B JUMP JUMPDEST DUP3 MSTORE POP POP JUMP JUMPDEST PUSH0 PUSH1 0x20 DUP3 ADD SWAP1 POP PUSH2 0xAA6 PUSH0 DUP4 ADD DUP5 PUSH2 0xA84 JUMP JUMPDEST SWAP3 SWAP2 POP POP JUMP JUMPDEST PUSH2 0xAB5 DUP2 PUSH2 0xA7B JUMP JUMPDEST DUP2 EQ PUSH2 0xABF JUMPI PUSH0 PUSH0 REVERT JUMPDEST POP JUMP JUMPDEST PUSH0 DUP2 CALLDATALOAD SWAP1 POP PUSH2 0xAD0 DUP2 PUSH2 0xAAC JUMP JUMPDEST SWAP3 SWAP2 POP POP JUMP JUMPDEST PUSH0 PUSH1 0x20 DUP3 DUP5 SUB SLT ISZERO PUSH2 0xAEB JUMPI PUSH2 0xAEA PUSH2 0x9BF JUMP JUMPDEST JUMPDEST PUSH0 PUSH2 0xAF8 DUP5 DUP3 DUP6 ADD PUSH2 0xAC2 JUMP JUMPDEST SWAP2 POP POP SWAP3 SWAP2 POP POP JUMP JUMPDEST PUSH2 0xB0A DUP2 PUSH2 0x9E2 JUMP JUMPDEST DUP3 MSTORE POP POP JUMP JUMPDEST PUSH0 PUSH1 0x20 DUP3 ADD SWAP1 POP PUSH2 0xB23 PUSH0 DUP4 ADD DUP5 PUSH2 0xB01 JUMP JUMPDEST SWAP3 SWAP2 POP POP JUMP JUMPDEST PUSH0 PUSH0 PUSH0 PUSH1 0x60 DUP5 DUP7 SUB SLT ISZERO PUSH2 0xB40 JUMPI PUSH2 0xB3F PUSH2 0x9BF JUMP JUMPDEST JUMPDEST PUSH0 PUSH2 0xB4D DUP7 DUP3 DUP8 ADD PUSH2 0xA09 JUMP JUMPDEST SWAP4 POP POP PUSH1 0x20 PUSH2 0xB5E DUP7 DUP3 DUP8 ADD PUSH2 0xA09 JUMP JUMPDEST SWAP3 POP POP PUSH1 0x40 PUSH2 0xB6F DUP7 DUP3 DUP8 ADD PUSH2 0xAC2 JUMP JUMPDEST SWAP2 POP POP SWAP3 POP SWAP3 POP SWAP3 JUMP JUMPDEST PUSH0 DUP2 SWAP1 POP SWAP2 SWAP1 POP JUMP JUMPDEST PUSH0 PUSH2 0xB9C PUSH2 0xB97 PUSH2 0xB92 DUP5 PUSH2 0x9C3 JUMP JUMPDEST PUSH2 0xB79 JUMP JUMPDEST PUSH2 0x9C3 JUMP JUMPDEST SWAP1 POP SWAP2 SWAP1 POP JUMP JUMPDEST PUSH0 PUSH2 0xBAD DUP3 PUSH2 0xB82 JUMP JUMPDEST SWAP1 POP SWAP2 SWAP1 POP JUMP JUMPDEST PUSH0 PUSH2 0xBBE DUP3 PUSH2 0xBA3 JUMP JUMPDEST SWAP1 POP SWAP2 SWAP1 POP JUMP JUMPDEST PUSH2 0xBCE DUP2 PUSH2 0xBB4 JUMP JUMPDEST DUP3 MSTORE POP POP JUMP JUMPDEST PUSH0 PUSH1 0x20 DUP3 ADD SWAP1 POP PUSH2 0xBE7 PUSH0 DUP4 ADD DUP5 PUSH2 0xBC5 JUMP JUMPDEST SWAP3 SWAP2 POP POP JUMP JUMPDEST PUSH32 0x4E487B7100000000000000000000000000000000000000000000000000000000 PUSH0 MSTORE PUSH1 0x32 PUSH1 0x4 MSTORE PUSH1 0x24 PUSH0 REVERT JUMPDEST PUSH0 DUP2 MLOAD SWAP1 POP PUSH2 0xC28 DUP2 PUSH2 0xAAC JUMP JUMPDEST SWAP3 SWAP2 POP POP JUMP JUMPDEST PUSH0 PUSH1 0x20 DUP3 DUP5 SUB SLT ISZERO PUSH2 0xC43 JUMPI PUSH2 0xC42 PUSH2 0x9BF JUMP JUMPDEST JUMPDEST PUSH0 PUSH2 0xC50 DUP5 DUP3 DUP6 ADD PUSH2 0xC1A JUMP JUMPDEST SWAP2 POP POP SWAP3 SWAP2 POP POP JUMP JUMPDEST PUSH0 DUP3 DUP3 MSTORE PUSH1 0x20 DUP3 ADD SWAP1 POP SWAP3 SWAP2 POP POP JUMP JUMPDEST PUSH32 0x596120657374617320696E73637269746F000000000000000000000000000000 PUSH0 DUP3 ADD MSTORE POP JUMP JUMPDEST PUSH0 PUSH2 0xC9D PUSH1 0x11 DUP4 PUSH2 0xC59 JUMP JUMPDEST SWAP2 POP PUSH2 0xCA8 DUP3 PUSH2 0xC69 JUMP JUMPDEST PUSH1 0x20 DUP3 ADD SWAP1 POP SWAP2 SWAP1 POP JUMP JUMPDEST PUSH0 PUSH1 0x20 DUP3 ADD SWAP1 POP DUP2 DUP2 SUB PUSH0 DUP4 ADD MSTORE PUSH2 0xCCA DUP2 PUSH2 0xC91 JUMP JUMPDEST SWAP1 POP SWAP2 SWAP1 POP JUMP JUMPDEST PUSH32 0x53616C646F20696E737566696369656E74650000000000000000000000000000 PUSH0 DUP3 ADD MSTORE POP JUMP JUMPDEST PUSH0 PUSH2 0xD05 PUSH1 0x12 DUP4 PUSH2 0xC59 JUMP JUMPDEST SWAP2 POP PUSH2 0xD10 DUP3 PUSH2 0xCD1 JUMP JUMPDEST PUSH1 0x20 DUP3 ADD SWAP1 POP SWAP2 SWAP1 POP JUMP JUMPDEST PUSH0 PUSH1 0x20 DUP3 ADD SWAP1 POP DUP2 DUP2 SUB PUSH0 DUP4 ADD MSTORE PUSH2 0xD32 DUP2 PUSH2 0xCF9 JUMP JUMPDEST SWAP1 POP SWAP2 SWAP1 POP JUMP JUMPDEST PUSH0 DUP2 SWAP1 POP SWAP2 SWAP1 POP JUMP JUMPDEST PUSH0 PUSH2 0xD5C PUSH2 0xD57 PUSH2 0xD52 DUP5 PUSH2 0xD39 JUMP JUMPDEST PUSH2 0xB79 JUMP JUMPDEST PUSH2 0xA7B JUMP JUMPDEST SWAP1 POP SWAP2 SWAP1 POP JUMP JUMPDEST PUSH2 0xD6C DUP2 PUSH2 0xD42 JUMP JUMPDEST DUP3 MSTORE POP POP JUMP JUMPDEST PUSH0 PUSH1 0x40 DUP3 ADD SWAP1 POP PUSH2 0xD85 PUSH0 DUP4 ADD DUP6 PUSH2 0xB01 JUMP JUMPDEST PUSH2 0xD92 PUSH1 0x20 DUP4 ADD DUP5 PUSH2 0xD63 JUMP JUMPDEST SWAP4 SWAP3 POP POP POP JUMP JUMPDEST PUSH2 0xDA2 DUP2 PUSH2 0xA48 JUMP JUMPDEST DUP2 EQ PUSH2 0xDAC JUMPI PUSH0 PUSH0 REVERT JUMPDEST POP JUMP JUMPDEST PUSH0 DUP2 MLOAD SWAP1 POP PUSH2 0xDBD DUP2 PUSH2 0xD99 JUMP JUMPDEST SWAP3 SWAP2 POP POP JUMP JUMPDEST PUSH0 PUSH1 0x20 DUP3 DUP5 SUB SLT ISZERO PUSH2 0xDD8 JUMPI PUSH2 0xDD7 PUSH2 0x9BF JUMP JUMPDEST JUMPDEST PUSH0 PUSH2 0xDE5 DUP5 DUP3 DUP6 ADD PUSH2 0xDAF JUMP JUMPDEST SWAP2 POP POP SWAP3 SWAP2 POP POP JUMP JUMPDEST PUSH32 0x4E487B7100000000000000000000000000000000000000000000000000000000 PUSH0 MSTORE PUSH1 0x11 PUSH1 0x4 MSTORE PUSH1 0x24 PUSH0 REVERT JUMPDEST PUSH0 PUSH2 0xE25 DUP3 PUSH2 0xA7B JUMP JUMPDEST SWAP2 POP PUSH32 0xFFFFFFFFFFFFFFFFFFFFFFFFFFFFFFFFFFFFFFFFFFFFFFFFFFFFFFFFFFFFFFFF DUP3 SUB PUSH2 0xE57 JUMPI PUSH2 0xE56 PUSH2 0xDEE JUMP JUMPDEST JUMPDEST PUSH1 0x1 DUP3 ADD SWAP1 POP SWAP2 SWAP1 POP JUMP JUMPDEST PUSH0 PUSH2 0xE6C DUP3 PUSH2 0xA7B JUMP JUMPDEST SWAP2 POP PUSH2 0xE77 DUP4 PUSH2 0xA7B JUMP JUMPDEST SWAP3 POP DUP3 DUP3 ADD SWAP1 POP DUP1 DUP3 GT ISZERO PUSH2 0xE8F JUMPI PUSH2 0xE8E PUSH2 0xDEE JUMP JUMPDEST JUMPDEST SWAP3 SWAP2 POP POP JUMP JUMPDEST PUSH0 PUSH1 0x60 DUP3 ADD SWAP1 POP PUSH2 0xEA8 PUSH0 DUP4 ADD DUP7 PUSH2 0xB01 JUMP JUMPDEST PUSH2 0xEB5 PUSH1 0x20 DUP4 ADD DUP6 PUSH2 0xB01 JUMP JUMPDEST PUSH2 0xEC2 PUSH1 0x40 DUP4 ADD DUP5 PUSH2 0xA84 JUMP JUMPDEST SWAP5 SWAP4 POP POP POP POP JUMP JUMPDEST PUSH0 PUSH1 0x40 DUP3 ADD SWAP1 POP PUSH2 0xEDD PUSH0 DUP4 ADD DUP6 PUSH2 0xB01 JUMP JUMPDEST PUSH2 0xEEA PUSH1 0x20 DUP4 ADD DUP5 PUSH2 0xA84 JUMP JUMPDEST SWAP4 SWAP3 POP POP POP JUMP INVALID LOG2 PUSH5 0x6970667358 0x22 SLT KECCAK256 SWAP3 0x23 PUSH17 0x9F4FC974932858E40BB68F164C99B08376 0x26 0xB4 LOG1 CALLCODE SMOD 0xB7 MSTORE PUSH0 0xD4 CODECOPY SWAP15 DUP7 PUSH5 0x736F6C6343 STOP ADDMOD 0x1E STOP CALLER "
		},
		"gasEstimates": {
			"creation": {
				"codeDepositCost": "775800",
				"executionCost": "infinite",
				"totalCost": "infinite"
			},
			"external": {
				"comprarToken()": "infinite",
				"getBalance()": "infinite",
				"inscribirse()": "infinite",
				"inscritos(uint256)": "5011",
				"numeroEnLista(address)": "infinite",
				"owner()": "2551",
				"token()": "infinite",
				"transferForMember(address,address,uint256)": "infinite",
				"yaEstaInscrito(address)": "infinite"
			}
		},
		"methodIdentifiers": {
			"comprarToken()": "f32360a0",
			"getBalance()": "12065fe0",
			"inscribirse()": "61722365",
			"inscritos(uint256)": "787e5869",
			"numeroEnLista(address)": "7a54f9d9",
			"owner()": "8da5cb5b",
			"token()": "fc0c546a",
			"transferForMember(address,address,uint256)": "8a75e7bd",
			"yaEstaInscrito(address)": "0469846b"
		}
	},
	"abi": [
		{
			"inputs": [
				{
					"internalType": "contract TokenEspera",
					"name": "token_",
					"type": "address"
				}
			],
			"stateMutability": "nonpayable",
			"type": "constructor"
		},
		{
			"inputs": [],
			"name": "comprarToken",
			"outputs": [],
			"stateMutability": "nonpayable",
			"type": "function"
		},
		{
			"inputs": [],
			"name": "getBalance",
			"outputs": [
				{
					"internalType": "uint256",
					"name": "",
					"type": "uint256"
				}
			],
			"stateMutability": "view",
			"type": "function"
		},
		{
			"inputs": [],
			"name": "inscribirse",
			"outputs": [],
			"stateMutability": "nonpayable",
			"type": "function"
		},
		{
			"inputs": [
				{
					"internalType": "uint256",
					"name": "",
					"type": "uint256"
				}
			],
			"name": "inscritos",
			"outputs": [
				{
					"internalType": "address",
					"name": "",
					"type": "address"
				}
			],
			"stateMutability": "view",
			"type": "function"
		},
		{
			"inputs": [
				{
					"internalType": "address",
					"name": "_usuario",
					"type": "address"
				}
			],
			"name": "numeroEnLista",
			"outputs": [
				{
					"internalType": "uint256",
					"name": "",
					"type": "uint256"
				}
			],
			"stateMutability": "view",
			"type": "function"
		},
		{
			"inputs": [],
			"name": "owner",
			"outputs": [
				{
					"internalType": "address",
					"name": "",
					"type": "address"
				}
			],
			"stateMutability": "view",
			"type": "function"
		},
		{
			"inputs": [],
			"name": "token",
			"outputs": [
				{
					"internalType": "contract TokenEspera",
					"name": "",
					"type": "address"
				}
			],
			"stateMutability": "view",
			"type": "function"
		},
		{
			"inputs": [
				{
					"internalType": "address",
					"name": "from",
					"type": "address"
				},
				{
					"internalType": "address",
					"name": "to",
					"type": "address"
				},
				{
					"internalType": "uint256",
					"name": "amount",
					"type": "uint256"
				}
			],
			"name": "transferForMember",
			"outputs": [
				{
					"internalType": "bool",
					"name": "",
					"type": "bool"
				}
			],
			"stateMutability": "nonpayable",
			"type": "function"
		},
		{
			"inputs": [
				{
					"internalType": "address",
					"name": "_usuario",
					"type": "address"
				}
			],
			"name": "yaEstaInscrito",
			"outputs": [
				{
					"internalType": "bool",
					"name": "",
					"type": "bool"
				}
			],
			"stateMutability": "view",
			"type": "function"
		}
	]
}