{
	"data": {
		"bytecode": {
			"linkReferences": {},
			"object": "608060405273f55301514c27489fde7c9cd9a3ea8044e7e045795f5f6101000a81548173ffffffffffffffffffffffffffffffffffffffff021916908373ffffffffffffffffffffffffffffffffffffffff160217905550348015610062575f5ffd5b506040516119d03803806119d083398181016040528101906100849190610139565b8060015f6101000a81548173ffffffffffffffffffffffffffffffffffffffff021916908373ffffffffffffffffffffffffffffffffffffffff16021790555050610164565b5f5ffd5b5f73ffffffffffffffffffffffffffffffffffffffff82169050919050565b5f6100f7826100ce565b9050919050565b5f610108826100ed565b9050919050565b610118816100fe565b8114610122575f5ffd5b50565b5f815190506101338161010f565b92915050565b5f6020828403121561014e5761014d6100ca565b5b5f61015b84828501610125565b91505092915050565b61185f806101715f395ff3fe608060405234801561000f575f5ffd5b50600436106100cd575f3560e01c80638a75e7bd1161008a578063f013b04111610064578063f013b04114610201578063f2f86cec1461021f578063f32360a01461023d578063fc0c546a14610247576100cd565b80638a75e7bd146101955780638da5cb5b146101c5578063cd0d232a146101e3576100cd565b80630469846b146100d157806312065fe014610101578063580465121461011f578063617223651461013d578063787e5869146101475780638881a87414610177575b5f5ffd5b6100eb60048036038101906100e6919061110c565b610265565b6040516100f89190611151565b60405180910390f35b610109610307565b6040516101169190611182565b60405180910390f35b6101276103a6565b6040516101349190611182565b60405180910390f35b6101456103be565b005b610161600480360381019061015c91906111c5565b610694565b60405161016e91906111ff565b60405180910390f35b61017f6106cf565b60405161018c9190611182565b60405180910390f35b6101af60048036038101906101aa9190611218565b6106db565b6040516101bc9190611151565b60405180910390f35b6101cd610861565b6040516101da91906111ff565b60405180910390f35b6101eb610885565b6040516101f89190611182565b60405180910390f35b61020961095c565b6040516102169190611151565b60405180910390f35b610227610c88565b6040516102349190611151565b60405180910390f35b610245610f15565b005b61024f611089565b60405161025c91906112c3565b60405180910390f35b5f5f5f90505b6002805490508110156102fd578273ffffffffffffffffffffffffffffffffffffffff16600282815481106102a3576102a26112dc565b5b905f5260205f20015f9054906101000a900473ffffffffffffffffffffffffffffffffffffffff1673ffffffffffffffffffffffffffffffffffffffff16036102f0576001915050610302565b808060010191505061026b565b505f90505b919050565b5f60015f9054906101000a900473ffffffffffffffffffffffffffffffffffffffff1673ffffffffffffffffffffffffffffffffffffffff166370a08231336040518263ffffffff1660e01b815260040161036291906111ff565b602060405180830381865afa15801561037d573d5f5f3e3d5ffd5b505050506040513d601f19601f820116820180604052508101906103a1919061131d565b905090565b6002670de0b6b3a76400006103bb91906113a2565b81565b6103c733610265565b15610407576040517f08c379a00000000000000000000000000000000000000000000000000000000081526004016103fe9061142c565b60405180910390fd5b670de0b6b3a764000060015f9054906101000a900473ffffffffffffffffffffffffffffffffffffffff1673ffffffffffffffffffffffffffffffffffffffff166370a08231336040518263ffffffff1660e01b815260040161046a91906111ff565b602060405180830381865afa158015610485573d5f5f3e3d5ffd5b505050506040513d601f19601f820116820180604052508101906104a9919061131d565b10156104ea576040517f08c379a00000000000000000000000000000000000000000000000000000000081526004016104e190611494565b60405180910390fd5b600233908060018154018082558091505060019003905f5260205f20015f9091909190916101000a81548173ffffffffffffffffffffffffffffffffffffffff021916908373ffffffffffffffffffffffffffffffffffffffff1602179055505f60015f9054906101000a900473ffffffffffffffffffffffffffffffffffffffff1673ffffffffffffffffffffffffffffffffffffffff166323b872dd335f5f9054906101000a900473ffffffffffffffffffffffffffffffffffffffff16670de0b6b3a76400006040518463ffffffff1660e01b81526004016105d1939291906114b2565b6020604051808303815f875af11580156105ed573d5f5f3e3d5ffd5b505050506040513d601f19601f820116820180604052508101906106119190611511565b905080610653576040517f08c379a000000000000000000000000000000000000000000000000000000000815260040161064a906115ac565b60405180910390fd5b7f53ffb9ab58a05878b8f1b79ef119cb89673b7bb80e29897b3fe5b34a0b00c2c6336002805490506040516106899291906115ca565b60405180910390a150565b600281815481106106a3575f80fd5b905f5260205f20015f915054906101000a900473ffffffffffffffffffffffffffffffffffffffff1681565b670de0b6b3a764000081565b5f8160015f9054906101000a900473ffffffffffffffffffffffffffffffffffffffff1673ffffffffffffffffffffffffffffffffffffffff166370a08231866040518263ffffffff1660e01b815260040161073791906111ff565b602060405180830381865afa158015610752573d5f5f3e3d5ffd5b505050506040513d601f19601f82011682018060405250810190610776919061131d565b10156107b7576040517f08c379a00000000000000000000000000000000000000000000000000000000081526004016107ae90611494565b60405180910390fd5b60015f9054906101000a900473ffffffffffffffffffffffffffffffffffffffff1673ffffffffffffffffffffffffffffffffffffffff166323b872dd8585856040518463ffffffff1660e01b8152600401610815939291906114b2565b6020604051808303815f875af1158015610831573d5f5f3e3d5ffd5b505050506040513d601f19601f820116820180604052508101906108559190611511565b50600190509392505050565b5f5f9054906101000a900473ffffffffffffffffffffffffffffffffffffffff1681565b5f5f5f90505f5f90505f5f90505b600280549050811080156108a5575081155b15610937573373ffffffffffffffffffffffffffffffffffffffff16600282815481106108d5576108d46112dc565b5b905f5260205f20015f9054906101000a900473ffffffffffffffffffffffffffffffffffffffff1673ffffffffffffffffffffffffffffffffffffffff16036109245780925060019150610937565b808061092f906115f1565b915050610893565b5080610947575f92505050610959565b6001826109549190611638565b925050505b90565b5f5f5f9054906101000a900473ffffffffffffffffffffffffffffffffffffffff1673ffffffffffffffffffffffffffffffffffffffff163373ffffffffffffffffffffffffffffffffffffffff16146109eb576040517f08c379a00000000000000000000000000000000000000000000000000000000081526004016109e2906116db565b60405180910390fd5b5f60028054905011610a32576040517f08c379a0000000000000000000000000000000000000000000000000000000008152600401610a2990611743565b60405180910390fd5b5f60025f81548110610a4757610a466112dc565b5b905f5260205f20015f9054906101000a900473ffffffffffffffffffffffffffffffffffffffff1690505f5f90505b6001600280549050610a889190611761565b811015610b3d576002600182610a9e9190611638565b81548110610aaf57610aae6112dc565b5b905f5260205f20015f9054906101000a900473ffffffffffffffffffffffffffffffffffffffff1660028281548110610aeb57610aea6112dc565b5b905f5260205f20015f6101000a81548173ffffffffffffffffffffffffffffffffffffffff021916908373ffffffffffffffffffffffffffffffffffffffff1602179055508080600101915050610a76565b506002805480610b5057610b4f611794565b5b600190038181905f5260205f20015f6101000a81549073ffffffffffffffffffffffffffffffffffffffff0219169055905560015f9054906101000a900473ffffffffffffffffffffffffffffffffffffffff1673ffffffffffffffffffffffffffffffffffffffff166323b872dd5f5f9054906101000a900473ffffffffffffffffffffffffffffffffffffffff1683670de0b6b3a76400006040518463ffffffff1660e01b8152600401610c08939291906114b2565b6020604051808303815f875af1158015610c24573d5f5f3e3d5ffd5b505050506040513d601f19601f82011682018060405250810190610c489190611511565b507f2491de2722573fb113794d3e2424f2af2ea039d83de6e9c2fd131098c98c5fca81604051610c7891906111ff565b60405180910390a1600191505090565b5f610c9233610265565b610cd1576040517f08c379a0000000000000000000000000000000000000000000000000000000008152600401610cc89061180b565b60405180910390fd5b5f610cda610885565b90505f8190505b6001600280549050610cf39190611761565b811015610da8576002600182610d099190611638565b81548110610d1a57610d196112dc565b5b905f5260205f20015f9054906101000a900473ffffffffffffffffffffffffffffffffffffffff1660028281548110610d5657610d556112dc565b5b905f5260205f20015f6101000a81548173ffffffffffffffffffffffffffffffffffffffff021916908373ffffffffffffffffffffffffffffffffffffffff1602179055508080600101915050610ce1565b506002805480610dbb57610dba611794565b5b600190038181905f5260205f20015f6101000a81549073ffffffffffffffffffffffffffffffffffffffff0219169055905560015f9054906101000a900473ffffffffffffffffffffffffffffffffffffffff1673ffffffffffffffffffffffffffffffffffffffff166323b872dd5f5f9054906101000a900473ffffffffffffffffffffffffffffffffffffffff16336002670de0b6b3a7640000610e6191906113a2565b6040518463ffffffff1660e01b8152600401610e7f939291906114b2565b6020604051808303815f875af1158015610e9b573d5f5f3e3d5ffd5b505050506040513d601f19601f82011682018060405250810190610ebf9190611511565b507f46d17c3a7286a693e0dc0769e261984d3981e0f266eda030d0b63bcaa23e776d336002670de0b6b3a7640000610ef791906113a2565b604051610f059291906115ca565b60405180910390a1600191505090565b5f670de0b6b3a764000060015f9054906101000a900473ffffffffffffffffffffffffffffffffffffffff1673ffffffffffffffffffffffffffffffffffffffff166370a08231336040518263ffffffff1660e01b8152600401610f7991906111ff565b602060405180830381865afa158015610f94573d5f5f3e3d5ffd5b505050506040513d601f19601f82011682018060405250810190610fb8919061131d565b610fc29190611638565b905060015f9054906101000a900473ffffffffffffffffffffffffffffffffffffffff1673ffffffffffffffffffffffffffffffffffffffff166340c10f1933836040518363ffffffff1660e01b81526004016110209291906115ca565b5f604051808303815f87803b158015611037575f5ffd5b505af1158015611049573d5f5f3e3d5ffd5b505050507f24337561d9fc4cc0ca14b628cc04197220b4d5413475d31288c747321bf998a4338260405161107e9291906115ca565b60405180910390a150565b60015f9054906101000a900473ffffffffffffffffffffffffffffffffffffffff1681565b5f5ffd5b5f73ffffffffffffffffffffffffffffffffffffffff82169050919050565b5f6110db826110b2565b9050919050565b6110eb816110d1565b81146110f5575f5ffd5b50565b5f81359050611106816110e2565b92915050565b5f60208284031215611121576111206110ae565b5b5f61112e848285016110f8565b91505092915050565b5f8115159050919050565b61114b81611137565b82525050565b5f6020820190506111645f830184611142565b92915050565b5f819050919050565b61117c8161116a565b82525050565b5f6020820190506111955f830184611173565b92915050565b6111a48161116a565b81146111ae575f5ffd5b50565b5f813590506111bf8161119b565b92915050565b5f602082840312156111da576111d96110ae565b5b5f6111e7848285016111b1565b91505092915050565b6111f9816110d1565b82525050565b5f6020820190506112125f8301846111f0565b92915050565b5f5f5f6060848603121561122f5761122e6110ae565b5b5f61123c868287016110f8565b935050602061124d868287016110f8565b925050604061125e868287016111b1565b9150509250925092565b5f819050919050565b5f61128b611286611281846110b2565b611268565b6110b2565b9050919050565b5f61129c82611271565b9050919050565b5f6112ad82611292565b9050919050565b6112bd816112a3565b82525050565b5f6020820190506112d65f8301846112b4565b92915050565b7f4e487b71000000000000000000000000000000000000000000000000000000005f52603260045260245ffd5b5f815190506113178161119b565b92915050565b5f60208284031215611332576113316110ae565b5b5f61133f84828501611309565b91505092915050565b7f4e487b71000000000000000000000000000000000000000000000000000000005f52601260045260245ffd5b7f4e487b71000000000000000000000000000000000000000000000000000000005f52601160045260245ffd5b5f6113ac8261116a565b91506113b78361116a565b9250826113c7576113c6611348565b5b828204905092915050565b5f82825260208201905092915050565b7f596120657374617320696e73637269746f0000000000000000000000000000005f82015250565b5f6114166011836113d2565b9150611421826113e2565b602082019050919050565b5f6020820190508181035f8301526114438161140a565b9050919050565b7f53616c646f20696e737566696369656e746500000000000000000000000000005f82015250565b5f61147e6012836113d2565b91506114898261144a565b602082019050919050565b5f6020820190508181035f8301526114ab81611472565b9050919050565b5f6060820190506114c55f8301866111f0565b6114d260208301856111f0565b6114df6040830184611173565b949350505050565b6114f081611137565b81146114fa575f5ffd5b50565b5f8151905061150b816114e7565b92915050565b5f60208284031215611526576115256110ae565b5b5f611533848285016114fd565b91505092915050565b7f4572726f7220616c207265616c697a6172206c61207472616e73666572656e635f8201527f6961000000000000000000000000000000000000000000000000000000000000602082015250565b5f6115966022836113d2565b91506115a18261153c565b604082019050919050565b5f6020820190508181035f8301526115c38161158a565b9050919050565b5f6040820190506115dd5f8301856111f0565b6115ea6020830184611173565b9392505050565b5f6115fb8261116a565b91507fffffffffffffffffffffffffffffffffffffffffffffffffffffffffffffffff820361162d5761162c611375565b5b600182019050919050565b5f6116428261116a565b915061164d8361116a565b925082820190508082111561166557611664611375565b5b92915050565b7f536f6c6f20656c2070726f706965746172696f207075656465207265746972615f8201527f72207573756172696f73206465206c61206c6973746100000000000000000000602082015250565b5f6116c56036836113d2565b91506116d08261166b565b604082019050919050565b5f6020820190508181035f8301526116f2816116b9565b9050919050565b7f4e6f20686179206e6164696520696e73637269746f20746f64617669610000005f82015250565b5f61172d601d836113d2565b9150611738826116f9565b602082019050919050565b5f6020820190508181035f83015261175a81611721565b9050919050565b5f61176b8261116a565b91506117768361116a565b925082820390508181111561178e5761178d611375565b5b92915050565b7f4e487b71000000000000000000000000000000000000000000000000000000005f52603160045260245ffd5b7f4e6f20657374617320696e73637269746f0000000000000000000000000000005f82015250565b5f6117f56011836113d2565b9150611800826117c1565b602082019050919050565b5f6020820190508181035f830152611822816117e9565b905091905056fea264697066735822122011d5cf35c2cced807436ca5e909e6b8f63833614ddad1cd866b5f97d2c62371464736f6c634300081e0033",
			"opcodes": "PUSH1 0x80 PUSH1 0x40 MSTORE PUSH20 0xF55301514C27489FDE7C9CD9A3EA8044E7E04579 PUSH0 PUSH0 PUSH2 0x100 EXP DUP2 SLOAD DUP2 PUSH20 0xFFFFFFFFFFFFFFFFFFFFFFFFFFFFFFFFFFFFFFFF MUL NOT AND SWAP1 DUP4 PUSH20 0xFFFFFFFFFFFFFFFFFFFFFFFFFFFFFFFFFFFFFFFF AND MUL OR SWAP1 SSTORE POP CALLVALUE DUP1 ISZERO PUSH2 0x62 JUMPI PUSH0 PUSH0 REVERT JUMPDEST POP PUSH1 0x40 MLOAD PUSH2 0x19D0 CODESIZE SUB DUP1 PUSH2 0x19D0 DUP4 CODECOPY DUP2 DUP2 ADD PUSH1 0x40 MSTORE DUP2 ADD SWAP1 PUSH2 0x84 SWAP2 SWAP1 PUSH2 0x139 JUMP JUMPDEST DUP1 PUSH1 0x1 PUSH0 PUSH2 0x100 EXP DUP2 SLOAD DUP2 PUSH20 0xFFFFFFFFFFFFFFFFFFFFFFFFFFFFFFFFFFFFFFFF MUL NOT AND SWAP1 DUP4 PUSH20 0xFFFFFFFFFFFFFFFFFFFFFFFFFFFFFFFFFFFFFFFF AND MUL OR SWAP1 SSTORE POP POP PUSH2 0x164 JUMP JUMPDEST PUSH0 PUSH0 REVERT JUMPDEST PUSH0 PUSH20 0xFFFFFFFFFFFFFFFFFFFFFFFFFFFFFFFFFFFFFFFF DUP3 AND SWAP1 POP SWAP2 SWAP1 POP JUMP JUMPDEST PUSH0 PUSH2 0xF7 DUP3 PUSH2 0xCE JUMP JUMPDEST SWAP1 POP SWAP2 SWAP1 POP JUMP JUMPDEST PUSH0 PUSH2 0x108 DUP3 PUSH2 0xED JUMP JUMPDEST SWAP1 POP SWAP2 SWAP1 POP JUMP JUMPDEST PUSH2 0x118 DUP2 PUSH2 0xFE JUMP JUMPDEST DUP2 EQ PUSH2 0x122 JUMPI PUSH0 PUSH0 REVERT JUMPDEST POP JUMP JUMPDEST PUSH0 DUP2 MLOAD SWAP1 POP PUSH2 0x133 DUP2 PUSH2 0x10F JUMP JUMPDEST SWAP3 SWAP2 POP POP JUMP JUMPDEST PUSH0 PUSH1 0x20 DUP3 DUP5 SUB SLT ISZERO PUSH2 0x14E JUMPI PUSH2 0x14D PUSH2 0xCA JUMP JUMPDEST JUMPDEST PUSH0 PUSH2 0x15B DUP5 DUP3 DUP6 ADD PUSH2 0x125 JUMP JUMPDEST SWAP2 POP POP SWAP3 SWAP2 POP POP JUMP JUMPDEST PUSH2 0x185F DUP1 PUSH2 0x171 PUSH0 CODECOPY PUSH0 RETURN INVALID PUSH1 0x80 PUSH1 0x40 MSTORE CALLVALUE DUP1 ISZERO PUSH2 0xF JUMPI PUSH0 PUSH0 REVERT JUMPDEST POP PUSH1 0x4 CALLDATASIZE LT PUSH2 0xCD JUMPI PUSH0 CALLDATALOAD PUSH1 0xE0 SHR DUP1 PUSH4 0x8A75E7BD GT PUSH2 0x8A JUMPI DUP1 PUSH4 0xF013B041 GT PUSH2 0x64 JUMPI DUP1 PUSH4 0xF013B041 EQ PUSH2 0x201 JUMPI DUP1 PUSH4 0xF2F86CEC EQ PUSH2 0x21F JUMPI DUP1 PUSH4 0xF32360A0 EQ PUSH2 0x23D JUMPI DUP1 PUSH4 0xFC0C546A EQ PUSH2 0x247 JUMPI PUSH2 0xCD JUMP JUMPDEST DUP1 PUSH4 0x8A75E7BD EQ PUSH2 0x195 JUMPI DUP1 PUSH4 0x8DA5CB5B EQ PUSH2 0x1C5 JUMPI DUP1 PUSH4 0xCD0D232A EQ PUSH2 0x1E3 JUMPI PUSH2 0xCD JUMP JUMPDEST DUP1 PUSH4 0x469846B EQ PUSH2 0xD1 JUMPI DUP1 PUSH4 0x12065FE0 EQ PUSH2 0x101 JUMPI DUP1 PUSH4 0x58046512 EQ PUSH2 0x11F JUMPI DUP1 PUSH4 0x61722365 EQ PUSH2 0x13D JUMPI DUP1 PUSH4 0x787E5869 EQ PUSH2 0x147 JUMPI DUP1 PUSH4 0x8881A874 EQ PUSH2 0x177 JUMPI JUMPDEST PUSH0 PUSH0 REVERT JUMPDEST PUSH2 0xEB PUSH1 0x4 DUP1 CALLDATASIZE SUB DUP2 ADD SWAP1 PUSH2 0xE6 SWAP2 SWAP1 PUSH2 0x110C JUMP JUMPDEST PUSH2 0x265 JUMP JUMPDEST PUSH1 0x40 MLOAD PUSH2 0xF8 SWAP2 SWAP1 PUSH2 0x1151 JUMP JUMPDEST PUSH1 0x40 MLOAD DUP1 SWAP2 SUB SWAP1 RETURN JUMPDEST PUSH2 0x109 PUSH2 0x307 JUMP JUMPDEST PUSH1 0x40 MLOAD PUSH2 0x116 SWAP2 SWAP1 PUSH2 0x1182 JUMP JUMPDEST PUSH1 0x40 MLOAD DUP1 SWAP2 SUB SWAP1 RETURN JUMPDEST PUSH2 0x127 PUSH2 0x3A6 JUMP JUMPDEST PUSH1 0x40 MLOAD PUSH2 0x134 SWAP2 SWAP1 PUSH2 0x1182 JUMP JUMPDEST PUSH1 0x40 MLOAD DUP1 SWAP2 SUB SWAP1 RETURN JUMPDEST PUSH2 0x145 PUSH2 0x3BE JUMP JUMPDEST STOP JUMPDEST PUSH2 0x161 PUSH1 0x4 DUP1 CALLDATASIZE SUB DUP2 ADD SWAP1 PUSH2 0x15C SWAP2 SWAP1 PUSH2 0x11C5 JUMP JUMPDEST PUSH2 0x694 JUMP JUMPDEST PUSH1 0x40 MLOAD PUSH2 0x16E SWAP2 SWAP1 PUSH2 0x11FF JUMP JUMPDEST PUSH1 0x40 MLOAD DUP1 SWAP2 SUB SWAP1 RETURN JUMPDEST PUSH2 0x17F PUSH2 0x6CF JUMP JUMPDEST PUSH1 0x40 MLOAD PUSH2 0x18C SWAP2 SWAP1 PUSH2 0x1182 JUMP JUMPDEST PUSH1 0x40 MLOAD DUP1 SWAP2 SUB SWAP1 RETURN JUMPDEST PUSH2 0x1AF PUSH1 0x4 DUP1 CALLDATASIZE SUB DUP2 ADD SWAP1 PUSH2 0x1AA SWAP2 SWAP1 PUSH2 0x1218 JUMP JUMPDEST PUSH2 0x6DB JUMP JUMPDEST PUSH1 0x40 MLOAD PUSH2 0x1BC SWAP2 SWAP1 PUSH2 0x1151 JUMP JUMPDEST PUSH1 0x40 MLOAD DUP1 SWAP2 SUB SWAP1 RETURN JUMPDEST PUSH2 0x1CD PUSH2 0x861 JUMP JUMPDEST PUSH1 0x40 MLOAD PUSH2 0x1DA SWAP2 SWAP1 PUSH2 0x11FF JUMP JUMPDEST PUSH1 0x40 MLOAD DUP1 SWAP2 SUB SWAP1 RETURN JUMPDEST PUSH2 0x1EB PUSH2 0x885 JUMP JUMPDEST PUSH1 0x40 MLOAD PUSH2 0x1F8 SWAP2 SWAP1 PUSH2 0x1182 JUMP JUMPDEST PUSH1 0x40 MLOAD DUP1 SWAP2 SUB SWAP1 RETURN JUMPDEST PUSH2 0x209 PUSH2 0x95C JUMP JUMPDEST PUSH1 0x40 MLOAD PUSH2 0x216 SWAP2 SWAP1 PUSH2 0x1151 JUMP JUMPDEST PUSH1 0x40 MLOAD DUP1 SWAP2 SUB SWAP1 RETURN JUMPDEST PUSH2 0x227 PUSH2 0xC88 JUMP JUMPDEST PUSH1 0x40 MLOAD PUSH2 0x234 SWAP2 SWAP1 PUSH2 0x1151 JUMP JUMPDEST PUSH1 0x40 MLOAD DUP1 SWAP2 SUB SWAP1 RETURN JUMPDEST PUSH2 0x245 PUSH2 0xF15 JUMP JUMPDEST STOP JUMPDEST PUSH2 0x24F PUSH2 0x1089 JUMP JUMPDEST PUSH1 0x40 MLOAD PUSH2 0x25C SWAP2 SWAP1 PUSH2 0x12C3 JUMP JUMPDEST PUSH1 0x40 MLOAD DUP1 SWAP2 SUB SWAP1 RETURN JUMPDEST PUSH0 PUSH0 PUSH0 SWAP1 POP JUMPDEST PUSH1 0x2 DUP1 SLOAD SWAP1 POP DUP2 LT ISZERO PUSH2 0x2FD JUMPI DUP3 PUSH20 0xFFFFFFFFFFFFFFFFFFFFFFFFFFFFFFFFFFFFFFFF AND PUSH1 0x2 DUP3 DUP2 SLOAD DUP2 LT PUSH2 0x2A3 JUMPI PUSH2 0x2A2 PUSH2 0x12DC JUMP JUMPDEST JUMPDEST SWAP1 PUSH0 MSTORE PUSH1 0x20 PUSH0 KECCAK256 ADD PUSH0 SWAP1 SLOAD SWAP1 PUSH2 0x100 EXP SWAP1 DIV PUSH20 0xFFFFFFFFFFFFFFFFFFFFFFFFFFFFFFFFFFFFFFFF AND PUSH20 0xFFFFFFFFFFFFFFFFFFFFFFFFFFFFFFFFFFFFFFFF AND SUB PUSH2 0x2F0 JUMPI PUSH1 0x1 SWAP2 POP POP PUSH2 0x302 JUMP JUMPDEST DUP1 DUP1 PUSH1 0x1 ADD SWAP2 POP POP PUSH2 0x26B JUMP JUMPDEST POP PUSH0 SWAP1 POP JUMPDEST SWAP2 SWAP1 POP JUMP JUMPDEST PUSH0 PUSH1 0x1 PUSH0 SWAP1 SLOAD SWAP1 PUSH2 0x100 EXP SWAP1 DIV PUSH20 0xFFFFFFFFFFFFFFFFFFFFFFFFFFFFFFFFFFFFFFFF AND PUSH20 0xFFFFFFFFFFFFFFFFFFFFFFFFFFFFFFFFFFFFFFFF AND PUSH4 0x70A08231 CALLER PUSH1 0x40 MLOAD DUP3 PUSH4 0xFFFFFFFF AND PUSH1 0xE0 SHL DUP2 MSTORE PUSH1 0x4 ADD PUSH2 0x362 SWAP2 SWAP1 PUSH2 0x11FF JUMP JUMPDEST PUSH1 0x20 PUSH1 0x40 MLOAD DUP1 DUP4 SUB DUP2 DUP7 GAS STATICCALL ISZERO DUP1 ISZERO PUSH2 0x37D JUMPI RETURNDATASIZE PUSH0 PUSH0 RETURNDATACOPY RETURNDATASIZE PUSH0 REVERT JUMPDEST POP POP POP POP PUSH1 0x40 MLOAD RETURNDATASIZE PUSH1 0x1F NOT PUSH1 0x1F DUP3 ADD AND DUP3 ADD DUP1 PUSH1 0x40 MSTORE POP DUP2 ADD SWAP1 PUSH2 0x3A1 SWAP2 SWAP1 PUSH2 0x131D JUMP JUMPDEST SWAP1 POP SWAP1 JUMP JUMPDEST PUSH1 0x2 PUSH8 0xDE0B6B3A7640000 PUSH2 0x3BB SWAP2 SWAP1 PUSH2 0x13A2 JUMP JUMPDEST DUP2 JUMP JUMPDEST PUSH2 0x3C7 CALLER PUSH2 0x265 JUMP JUMPDEST ISZERO PUSH2 0x407 JUMPI PUSH1 0x40 MLOAD PUSH32 0x8C379A000000000000000000000000000000000000000000000000000000000 DUP2 MSTORE PUSH1 0x4 ADD PUSH2 0x3FE SWAP1 PUSH2 0x142C JUMP JUMPDEST PUSH1 0x40 MLOAD DUP1 SWAP2 SUB SWAP1 REVERT JUMPDEST PUSH8 0xDE0B6B3A7640000 PUSH1 0x1 PUSH0 SWAP1 SLOAD SWAP1 PUSH2 0x100 EXP SWAP1 DIV PUSH20 0xFFFFFFFFFFFFFFFFFFFFFFFFFFFFFFFFFFFFFFFF AND PUSH20 0xFFFFFFFFFFFFFFFFFFFFFFFFFFFFFFFFFFFFFFFF AND PUSH4 0x70A08231 CALLER PUSH1 0x40 MLOAD DUP3 PUSH4 0xFFFFFFFF AND PUSH1 0xE0 SHL DUP2 MSTORE PUSH1 0x4 ADD PUSH2 0x46A SWAP2 SWAP1 PUSH2 0x11FF JUMP JUMPDEST PUSH1 0x20 PUSH1 0x40 MLOAD DUP1 DUP4 SUB DUP2 DUP7 GAS STATICCALL ISZERO DUP1 ISZERO PUSH2 0x485 JUMPI RETURNDATASIZE PUSH0 PUSH0 RETURNDATACOPY RETURNDATASIZE PUSH0 REVERT JUMPDEST POP POP POP POP PUSH1 0x40 MLOAD RETURNDATASIZE PUSH1 0x1F NOT PUSH1 0x1F DUP3 ADD AND DUP3 ADD DUP1 PUSH1 0x40 MSTORE POP DUP2 ADD SWAP1 PUSH2 0x4A9 SWAP2 SWAP1 PUSH2 0x131D JUMP JUMPDEST LT ISZERO PUSH2 0x4EA JUMPI PUSH1 0x40 MLOAD PUSH32 0x8C379A000000000000000000000000000000000000000000000000000000000 DUP2 MSTORE PUSH1 0x4 ADD PUSH2 0x4E1 SWAP1 PUSH2 0x1494 JUMP JUMPDEST PUSH1 0x40 MLOAD DUP1 SWAP2 SUB SWAP1 REVERT JUMPDEST PUSH1 0x2 CALLER SWAP1 DUP1 PUSH1 0x1 DUP2 SLOAD ADD DUP1 DUP3 SSTORE DUP1 SWAP2 POP POP PUSH1 0x1 SWAP1 SUB SWAP1 PUSH0 MSTORE PUSH1 0x20 PUSH0 KECCAK256 ADD PUSH0 SWAP1 SWAP2 SWAP1 SWAP2 SWAP1 SWAP2 PUSH2 0x100 EXP DUP2 SLOAD DUP2 PUSH20 0xFFFFFFFFFFFFFFFFFFFFFFFFFFFFFFFFFFFFFFFF MUL NOT AND SWAP1 DUP4 PUSH20 0xFFFFFFFFFFFFFFFFFFFFFFFFFFFFFFFFFFFFFFFF AND MUL OR SWAP1 SSTORE POP PUSH0 PUSH1 0x1 PUSH0 SWAP1 SLOAD SWAP1 PUSH2 0x100 EXP SWAP1 DIV PUSH20 0xFFFFFFFFFFFFFFFFFFFFFFFFFFFFFFFFFFFFFFFF AND PUSH20 0xFFFFFFFFFFFFFFFFFFFFFFFFFFFFFFFFFFFFFFFF AND PUSH4 0x23B872DD CALLER PUSH0 PUSH0 SWAP1 SLOAD SWAP1 PUSH2 0x100 EXP SWAP1 DIV PUSH20 0xFFFFFFFFFFFFFFFFFFFFFFFFFFFFFFFFFFFFFFFF AND PUSH8 0xDE0B6B3A7640000 PUSH1 0x40 MLOAD DUP5 PUSH4 0xFFFFFFFF AND PUSH1 0xE0 SHL DUP2 MSTORE PUSH1 0x4 ADD PUSH2 0x5D1 SWAP4 SWAP3 SWAP2 SWAP1 PUSH2 0x14B2 JUMP JUMPDEST PUSH1 0x20 PUSH1 0x40 MLOAD DUP1 DUP4 SUB DUP2 PUSH0 DUP8 GAS CALL ISZERO DUP1 ISZERO PUSH2 0x5ED JUMPI RETURNDATASIZE PUSH0 PUSH0 RETURNDATACOPY RETURNDATASIZE PUSH0 REVERT JUMPDEST POP POP POP POP PUSH1 0x40 MLOAD RETURNDATASIZE PUSH1 0x1F NOT PUSH1 0x1F DUP3 ADD AND DUP3 ADD DUP1 PUSH1 0x40 MSTORE POP DUP2 ADD SWAP1 PUSH2 0x611 SWAP2 SWAP1 PUSH2 0x1511 JUMP JUMPDEST SWAP1 POP DUP1 PUSH2 0x653 JUMPI PUSH1 0x40 MLOAD PUSH32 0x8C379A000000000000000000000000000000000000000000000000000000000 DUP2 MSTORE PUSH1 0x4 ADD PUSH2 0x64A SWAP1 PUSH2 0x15AC JUMP JUMPDEST PUSH1 0x40 MLOAD DUP1 SWAP2 SUB SWAP1 REVERT JUMPDEST PUSH32 0x53FFB9AB58A05878B8F1B79EF119CB89673B7BB80E29897B3FE5B34A0B00C2C6 CALLER PUSH1 0x2 DUP1 SLOAD SWAP1 POP PUSH1 0x40 MLOAD PUSH2 0x689 SWAP3 SWAP2 SWAP1 PUSH2 0x15CA JUMP JUMPDEST PUSH1 0x40 MLOAD DUP1 SWAP2 SUB SWAP1 LOG1 POP JUMP JUMPDEST PUSH1 0x2 DUP2 DUP2 SLOAD DUP2 LT PUSH2 0x6A3 JUMPI PUSH0 DUP1 REVERT JUMPDEST SWAP1 PUSH0 MSTORE PUSH1 0x20 PUSH0 KECCAK256 ADD PUSH0 SWAP2 POP SLOAD SWAP1 PUSH2 0x100 EXP SWAP1 DIV PUSH20 0xFFFFFFFFFFFFFFFFFFFFFFFFFFFFFFFFFFFFFFFF AND DUP2 JUMP JUMPDEST PUSH8 0xDE0B6B3A7640000 DUP2 JUMP JUMPDEST PUSH0 DUP2 PUSH1 0x1 PUSH0 SWAP1 SLOAD SWAP1 PUSH2 0x100 EXP SWAP1 DIV PUSH20 0xFFFFFFFFFFFFFFFFFFFFFFFFFFFFFFFFFFFFFFFF AND PUSH20 0xFFFFFFFFFFFFFFFFFFFFFFFFFFFFFFFFFFFFFFFF AND PUSH4 0x70A08231 DUP7 PUSH1 0x40 MLOAD DUP3 PUSH4 0xFFFFFFFF AND PUSH1 0xE0 SHL DUP2 MSTORE PUSH1 0x4 ADD PUSH2 0x737 SWAP2 SWAP1 PUSH2 0x11FF JUMP JUMPDEST PUSH1 0x20 PUSH1 0x40 MLOAD DUP1 DUP4 SUB DUP2 DUP7 GAS STATICCALL ISZERO DUP1 ISZERO PUSH2 0x752 JUMPI RETURNDATASIZE PUSH0 PUSH0 RETURNDATACOPY RETURNDATASIZE PUSH0 REVERT JUMPDEST POP POP POP POP PUSH1 0x40 MLOAD RETURNDATASIZE PUSH1 0x1F NOT PUSH1 0x1F DUP3 ADD AND DUP3 ADD DUP1 PUSH1 0x40 MSTORE POP DUP2 ADD SWAP1 PUSH2 0x776 SWAP2 SWAP1 PUSH2 0x131D JUMP JUMPDEST LT ISZERO PUSH2 0x7B7 JUMPI PUSH1 0x40 MLOAD PUSH32 0x8C379A000000000000000000000000000000000000000000000000000000000 DUP2 MSTORE PUSH1 0x4 ADD PUSH2 0x7AE SWAP1 PUSH2 0x1494 JUMP JUMPDEST PUSH1 0x40 MLOAD DUP1 SWAP2 SUB SWAP1 REVERT JUMPDEST PUSH1 0x1 PUSH0 SWAP1 SLOAD SWAP1 PUSH2 0x100 EXP SWAP1 DIV PUSH20 0xFFFFFFFFFFFFFFFFFFFFFFFFFFFFFFFFFFFFFFFF AND PUSH20 0xFFFFFFFFFFFFFFFFFFFFFFFFFFFFFFFFFFFFFFFF AND PUSH4 0x23B872DD DUP6 DUP6 DUP6 PUSH1 0x40 MLOAD DUP5 PUSH4 0xFFFFFFFF AND PUSH1 0xE0 SHL DUP2 MSTORE PUSH1 0x4 ADD PUSH2 0x815 SWAP4 SWAP3 SWAP2 SWAP1 PUSH2 0x14B2 JUMP JUMPDEST PUSH1 0x20 PUSH1 0x40 MLOAD DUP1 DUP4 SUB DUP2 PUSH0 DUP8 GAS CALL ISZERO DUP1 ISZERO PUSH2 0x831 JUMPI RETURNDATASIZE PUSH0 PUSH0 RETURNDATACOPY RETURNDATASIZE PUSH0 REVERT JUMPDEST POP POP POP POP PUSH1 0x40 MLOAD RETURNDATASIZE PUSH1 0x1F NOT PUSH1 0x1F DUP3 ADD AND DUP3 ADD DUP1 PUSH1 0x40 MSTORE POP DUP2 ADD SWAP1 PUSH2 0x855 SWAP2 SWAP1 PUSH2 0x1511 JUMP JUMPDEST POP PUSH1 0x1 SWAP1 POP SWAP4 SWAP3 POP POP POP JUMP JUMPDEST PUSH0 PUSH0 SWAP1 SLOAD SWAP1 PUSH2 0x100 EXP SWAP1 DIV PUSH20 0xFFFFFFFFFFFFFFFFFFFFFFFFFFFFFFFFFFFFFFFF AND DUP2 JUMP JUMPDEST PUSH0 PUSH0 PUSH0 SWAP1 POP PUSH0 PUSH0 SWAP1 POP PUSH0 PUSH0 SWAP1 POP JUMPDEST PUSH1 0x2 DUP1 SLOAD SWAP1 POP DUP2 LT DUP1 ISZERO PUSH2 0x8A5 JUMPI POP DUP2 ISZERO JUMPDEST ISZERO PUSH2 0x937 JUMPI CALLER PUSH20 0xFFFFFFFFFFFFFFFFFFFFFFFFFFFFFFFFFFFFFFFF AND PUSH1 0x2 DUP3 DUP2 SLOAD DUP2 LT PUSH2 0x8D5 JUMPI PUSH2 0x8D4 PUSH2 0x12DC JUMP JUMPDEST JUMPDEST SWAP1 PUSH0 MSTORE PUSH1 0x20 PUSH0 KECCAK256 ADD PUSH0 SWAP1 SLOAD SWAP1 PUSH2 0x100 EXP SWAP1 DIV PUSH20 0xFFFFFFFFFFFFFFFFFFFFFFFFFFFFFFFFFFFFFFFF AND PUSH20 0xFFFFFFFFFFFFFFFFFFFFFFFFFFFFFFFFFFFFFFFF AND SUB PUSH2 0x924 JUMPI DUP1 SWAP3 POP PUSH1 0x1 SWAP2 POP PUSH2 0x937 JUMP JUMPDEST DUP1 DUP1 PUSH2 0x92F SWAP1 PUSH2 0x15F1 JUMP JUMPDEST SWAP2 POP POP PUSH2 0x893 JUMP JUMPDEST POP DUP1 PUSH2 0x947 JUMPI PUSH0 SWAP3 POP POP POP PUSH2 0x959 JUMP JUMPDEST PUSH1 0x1 DUP3 PUSH2 0x954 SWAP2 SWAP1 PUSH2 0x1638 JUMP JUMPDEST SWAP3 POP POP POP JUMPDEST SWAP1 JUMP JUMPDEST PUSH0 PUSH0 PUSH0 SWAP1 SLOAD SWAP1 PUSH2 0x100 EXP SWAP1 DIV PUSH20 0xFFFFFFFFFFFFFFFFFFFFFFFFFFFFFFFFFFFFFFFF AND PUSH20 0xFFFFFFFFFFFFFFFFFFFFFFFFFFFFFFFFFFFFFFFF AND CALLER PUSH20 0xFFFFFFFFFFFFFFFFFFFFFFFFFFFFFFFFFFFFFFFF AND EQ PUSH2 0x9EB JUMPI PUSH1 0x40 MLOAD PUSH32 0x8C379A000000000000000000000000000000000000000000000000000000000 DUP2 MSTORE PUSH1 0x4 ADD PUSH2 0x9E2 SWAP1 PUSH2 0x16DB JUMP JUMPDEST PUSH1 0x40 MLOAD DUP1 SWAP2 SUB SWAP1 REVERT JUMPDEST PUSH0 PUSH1 0x2 DUP1 SLOAD SWAP1 POP GT PUSH2 0xA32 JUMPI PUSH1 0x40 MLOAD PUSH32 0x8C379A000000000000000000000000000000000000000000000000000000000 DUP2 MSTORE PUSH1 0x4 ADD PUSH2 0xA29 SWAP1 PUSH2 0x1743 JUMP JUMPDEST PUSH1 0x40 MLOAD DUP1 SWAP2 SUB SWAP1 REVERT JUMPDEST PUSH0 PUSH1 0x2 PUSH0 DUP2 SLOAD DUP2 LT PUSH2 0xA47 JUMPI PUSH2 0xA46 PUSH2 0x12DC JUMP JUMPDEST JUMPDEST SWAP1 PUSH0 MSTORE PUSH1 0x20 PUSH0 KECCAK256 ADD PUSH0 SWAP1 SLOAD SWAP1 PUSH2 0x100 EXP SWAP1 DIV PUSH20 0xFFFFFFFFFFFFFFFFFFFFFFFFFFFFFFFFFFFFFFFF AND SWAP1 POP PUSH0 PUSH0 SWAP1 POP JUMPDEST PUSH1 0x1 PUSH1 0x2 DUP1 SLOAD SWAP1 POP PUSH2 0xA88 SWAP2 SWAP1 PUSH2 0x1761 JUMP JUMPDEST DUP2 LT ISZERO PUSH2 0xB3D JUMPI PUSH1 0x2 PUSH1 0x1 DUP3 PUSH2 0xA9E SWAP2 SWAP1 PUSH2 0x1638 JUMP JUMPDEST DUP2 SLOAD DUP2 LT PUSH2 0xAAF JUMPI PUSH2 0xAAE PUSH2 0x12DC JUMP JUMPDEST JUMPDEST SWAP1 PUSH0 MSTORE PUSH1 0x20 PUSH0 KECCAK256 ADD PUSH0 SWAP1 SLOAD SWAP1 PUSH2 0x100 EXP SWAP1 DIV PUSH20 0xFFFFFFFFFFFFFFFFFFFFFFFFFFFFFFFFFFFFFFFF AND PUSH1 0x2 DUP3 DUP2 SLOAD DUP2 LT PUSH2 0xAEB JUMPI PUSH2 0xAEA PUSH2 0x12DC JUMP JUMPDEST JUMPDEST SWAP1 PUSH0 MSTORE PUSH1 0x20 PUSH0 KECCAK256 ADD PUSH0 PUSH2 0x100 EXP DUP2 SLOAD DUP2 PUSH20 0xFFFFFFFFFFFFFFFFFFFFFFFFFFFFFFFFFFFFFFFF MUL NOT AND SWAP1 DUP4 PUSH20 0xFFFFFFFFFFFFFFFFFFFFFFFFFFFFFFFFFFFFFFFF AND MUL OR SWAP1 SSTORE POP DUP1 DUP1 PUSH1 0x1 ADD SWAP2 POP POP PUSH2 0xA76 JUMP JUMPDEST POP PUSH1 0x2 DUP1 SLOAD DUP1 PUSH2 0xB50 JUMPI PUSH2 0xB4F PUSH2 0x1794 JUMP JUMPDEST JUMPDEST PUSH1 0x1 SWAP1 SUB DUP2 DUP2 SWAP1 PUSH0 MSTORE PUSH1 0x20 PUSH0 KECCAK256 ADD PUSH0 PUSH2 0x100 EXP DUP2 SLOAD SWAP1 PUSH20 0xFFFFFFFFFFFFFFFFFFFFFFFFFFFFFFFFFFFFFFFF MUL NOT AND SWAP1 SSTORE SWAP1 SSTORE PUSH1 0x1 PUSH0 SWAP1 SLOAD SWAP1 PUSH2 0x100 EXP SWAP1 DIV PUSH20 0xFFFFFFFFFFFFFFFFFFFFFFFFFFFFFFFFFFFFFFFF AND PUSH20 0xFFFFFFFFFFFFFFFFFFFFFFFFFFFFFFFFFFFFFFFF AND PUSH4 0x23B872DD PUSH0 PUSH0 SWAP1 SLOAD SWAP1 PUSH2 0x100 EXP SWAP1 DIV PUSH20 0xFFFFFFFFFFFFFFFFFFFFFFFFFFFFFFFFFFFFFFFF AND DUP4 PUSH8 0xDE0B6B3A7640000 PUSH1 0x40 MLOAD DUP5 PUSH4 0xFFFFFFFF AND PUSH1 0xE0 SHL DUP2 MSTORE PUSH1 0x4 ADD PUSH2 0xC08 SWAP4 SWAP3 SWAP2 SWAP1 PUSH2 0x14B2 JUMP JUMPDEST PUSH1 0x20 PUSH1 0x40 MLOAD DUP1 DUP4 SUB DUP2 PUSH0 DUP8 GAS CALL ISZERO DUP1 ISZERO PUSH2 0xC24 JUMPI RETURNDATASIZE PUSH0 PUSH0 RETURNDATACOPY RETURNDATASIZE PUSH0 REVERT JUMPDEST POP POP POP POP PUSH1 0x40 MLOAD RETURNDATASIZE PUSH1 0x1F NOT PUSH1 0x1F DUP3 ADD AND DUP3 ADD DUP1 PUSH1 0x40 MSTORE POP DUP2 ADD SWAP1 PUSH2 0xC48 SWAP2 SWAP1 PUSH2 0x1511 JUMP JUMPDEST POP PUSH32 0x2491DE2722573FB113794D3E2424F2AF2EA039D83DE6E9C2FD131098C98C5FCA DUP2 PUSH1 0x40 MLOAD PUSH2 0xC78 SWAP2 SWAP1 PUSH2 0x11FF JUMP JUMPDEST PUSH1 0x40 MLOAD DUP1 SWAP2 SUB SWAP1 LOG1 PUSH1 0x1 SWAP2 POP POP SWAP1 JUMP JUMPDEST PUSH0 PUSH2 0xC92 CALLER PUSH2 0x265 JUMP JUMPDEST PUSH2 0xCD1 JUMPI PUSH1 0x40 MLOAD PUSH32 0x8C379A000000000000000000000000000000000000000000000000000000000 DUP2 MSTORE PUSH1 0x4 ADD PUSH2 0xCC8 SWAP1 PUSH2 0x180B JUMP JUMPDEST PUSH1 0x40 MLOAD DUP1 SWAP2 SUB SWAP1 REVERT JUMPDEST PUSH0 PUSH2 0xCDA PUSH2 0x885 JUMP JUMPDEST SWAP1 POP PUSH0 DUP2 SWAP1 POP JUMPDEST PUSH1 0x1 PUSH1 0x2 DUP1 SLOAD SWAP1 POP PUSH2 0xCF3 SWAP2 SWAP1 PUSH2 0x1761 JUMP JUMPDEST DUP2 LT ISZERO PUSH2 0xDA8 JUMPI PUSH1 0x2 PUSH1 0x1 DUP3 PUSH2 0xD09 SWAP2 SWAP1 PUSH2 0x1638 JUMP JUMPDEST DUP2 SLOAD DUP2 LT PUSH2 0xD1A JUMPI PUSH2 0xD19 PUSH2 0x12DC JUMP JUMPDEST JUMPDEST SWAP1 PUSH0 MSTORE PUSH1 0x20 PUSH0 KECCAK256 ADD PUSH0 SWAP1 SLOAD SWAP1 PUSH2 0x100 EXP SWAP1 DIV PUSH20 0xFFFFFFFFFFFFFFFFFFFFFFFFFFFFFFFFFFFFFFFF AND PUSH1 0x2 DUP3 DUP2 SLOAD DUP2 LT PUSH2 0xD56 JUMPI PUSH2 0xD55 PUSH2 0x12DC JUMP JUMPDEST JUMPDEST SWAP1 PUSH0 MSTORE PUSH1 0x20 PUSH0 KECCAK256 ADD PUSH0 PUSH2 0x100 EXP DUP2 SLOAD DUP2 PUSH20 0xFFFFFFFFFFFFFFFFFFFFFFFFFFFFFFFFFFFFFFFF MUL NOT AND SWAP1 DUP4 PUSH20 0xFFFFFFFFFFFFFFFFFFFFFFFFFFFFFFFFFFFFFFFF AND MUL OR SWAP1 SSTORE POP DUP1 DUP1 PUSH1 0x1 ADD SWAP2 POP POP PUSH2 0xCE1 JUMP JUMPDEST POP PUSH1 0x2 DUP1 SLOAD DUP1 PUSH2 0xDBB JUMPI PUSH2 0xDBA PUSH2 0x1794 JUMP JUMPDEST JUMPDEST PUSH1 0x1 SWAP1 SUB DUP2 DUP2 SWAP1 PUSH0 MSTORE PUSH1 0x20 PUSH0 KECCAK256 ADD PUSH0 PUSH2 0x100 EXP DUP2 SLOAD SWAP1 PUSH20 0xFFFFFFFFFFFFFFFFFFFFFFFFFFFFFFFFFFFFFFFF MUL NOT AND SWAP1 SSTORE SWAP1 SSTORE PUSH1 0x1 PUSH0 SWAP1 SLOAD SWAP1 PUSH2 0x100 EXP SWAP1 DIV PUSH20 0xFFFFFFFFFFFFFFFFFFFFFFFFFFFFFFFFFFFFFFFF AND PUSH20 0xFFFFFFFFFFFFFFFFFFFFFFFFFFFFFFFFFFFFFFFF AND PUSH4 0x23B872DD PUSH0 PUSH0 SWAP1 SLOAD SWAP1 PUSH2 0x100 EXP SWAP1 DIV PUSH20 0xFFFFFFFFFFFFFFFFFFFFFFFFFFFFFFFFFFFFFFFF AND CALLER PUSH1 0x2 PUSH8 0xDE0B6B3A7640000 PUSH2 0xE61 SWAP2 SWAP1 PUSH2 0x13A2 JUMP JUMPDEST PUSH1 0x40 MLOAD DUP5 PUSH4 0xFFFFFFFF AND PUSH1 0xE0 SHL DUP2 MSTORE PUSH1 0x4 ADD PUSH2 0xE7F SWAP4 SWAP3 SWAP2 SWAP1 PUSH2 0x14B2 JUMP JUMPDEST PUSH1 0x20 PUSH1 0x40 MLOAD DUP1 DUP4 SUB DUP2 PUSH0 DUP8 GAS CALL ISZERO DUP1 ISZERO PUSH2 0xE9B JUMPI RETURNDATASIZE PUSH0 PUSH0 RETURNDATACOPY RETURNDATASIZE PUSH0 REVERT JUMPDEST POP POP POP POP PUSH1 0x40 MLOAD RETURNDATASIZE PUSH1 0x1F NOT PUSH1 0x1F DUP3 ADD AND DUP3 ADD DUP1 PUSH1 0x40 MSTORE POP DUP2 ADD SWAP1 PUSH2 0xEBF SWAP2 SWAP1 PUSH2 0x1511 JUMP JUMPDEST POP PUSH32 0x46D17C3A7286A693E0DC0769E261984D3981E0F266EDA030D0B63BCAA23E776D CALLER PUSH1 0x2 PUSH8 0xDE0B6B3A7640000 PUSH2 0xEF7 SWAP2 SWAP1 PUSH2 0x13A2 JUMP JUMPDEST PUSH1 0x40 MLOAD PUSH2 0xF05 SWAP3 SWAP2 SWAP1 PUSH2 0x15CA JUMP JUMPDEST PUSH1 0x40 MLOAD DUP1 SWAP2 SUB SWAP1 LOG1 PUSH1 0x1 SWAP2 POP POP SWAP1 JUMP JUMPDEST PUSH0 PUSH8 0xDE0B6B3A7640000 PUSH1 0x1 PUSH0 SWAP1 SLOAD SWAP1 PUSH2 0x100 EXP SWAP1 DIV PUSH20 0xFFFFFFFFFFFFFFFFFFFFFFFFFFFFFFFFFFFFFFFF AND PUSH20 0xFFFFFFFFFFFFFFFFFFFFFFFFFFFFFFFFFFFFFFFF AND PUSH4 0x70A08231 CALLER PUSH1 0x40 MLOAD DUP3 PUSH4 0xFFFFFFFF AND PUSH1 0xE0 SHL DUP2 MSTORE PUSH1 0x4 ADD PUSH2 0xF79 SWAP2 SWAP1 PUSH2 0x11FF JUMP JUMPDEST PUSH1 0x20 PUSH1 0x40 MLOAD DUP1 DUP4 SUB DUP2 DUP7 GAS STATICCALL ISZERO DUP1 ISZERO PUSH2 0xF94 JUMPI RETURNDATASIZE PUSH0 PUSH0 RETURNDATACOPY RETURNDATASIZE PUSH0 REVERT JUMPDEST POP POP POP POP PUSH1 0x40 MLOAD RETURNDATASIZE PUSH1 0x1F NOT PUSH1 0x1F DUP3 ADD AND DUP3 ADD DUP1 PUSH1 0x40 MSTORE POP DUP2 ADD SWAP1 PUSH2 0xFB8 SWAP2 SWAP1 PUSH2 0x131D JUMP JUMPDEST PUSH2 0xFC2 SWAP2 SWAP1 PUSH2 0x1638 JUMP JUMPDEST SWAP1 POP PUSH1 0x1 PUSH0 SWAP1 SLOAD SWAP1 PUSH2 0x100 EXP SWAP1 DIV PUSH20 0xFFFFFFFFFFFFFFFFFFFFFFFFFFFFFFFFFFFFFFFF AND PUSH20 0xFFFFFFFFFFFFFFFFFFFFFFFFFFFFFFFFFFFFFFFF AND PUSH4 0x40C10F19 CALLER DUP4 PUSH1 0x40 MLOAD DUP4 PUSH4 0xFFFFFFFF AND PUSH1 0xE0 SHL DUP2 MSTORE PUSH1 0x4 ADD PUSH2 0x1020 SWAP3 SWAP2 SWAP1 PUSH2 0x15CA JUMP JUMPDEST PUSH0 PUSH1 0x40 MLOAD DUP1 DUP4 SUB DUP2 PUSH0 DUP8 DUP1 EXTCODESIZE ISZERO DUP1 ISZERO PUSH2 0x1037 JUMPI PUSH0 PUSH0 REVERT JUMPDEST POP GAS CALL ISZERO DUP1 ISZERO PUSH2 0x1049 JUMPI RETURNDATASIZE PUSH0 PUSH0 RETURNDATACOPY RETURNDATASIZE PUSH0 REVERT JUMPDEST POP POP POP POP PUSH32 0x24337561D9FC4CC0CA14B628CC04197220B4D5413475D31288C747321BF998A4 CALLER DUP3 PUSH1 0x40 MLOAD PUSH2 0x107E SWAP3 SWAP2 SWAP1 PUSH2 0x15CA JUMP JUMPDEST PUSH1 0x40 MLOAD DUP1 SWAP2 SUB SWAP1 LOG1 POP JUMP JUMPDEST PUSH1 0x1 PUSH0 SWAP1 SLOAD SWAP1 PUSH2 0x100 EXP SWAP1 DIV PUSH20 0xFFFFFFFFFFFFFFFFFFFFFFFFFFFFFFFFFFFFFFFF AND DUP2 JUMP JUMPDEST PUSH0 PUSH0 REVERT JUMPDEST PUSH0 PUSH20 0xFFFFFFFFFFFFFFFFFFFFFFFFFFFFFFFFFFFFFFFF DUP3 AND SWAP1 POP SWAP2 SWAP1 POP JUMP JUMPDEST PUSH0 PUSH2 0x10DB DUP3 PUSH2 0x10B2 JUMP JUMPDEST SWAP1 POP SWAP2 SWAP1 POP JUMP JUMPDEST PUSH2 0x10EB DUP2 PUSH2 0x10D1 JUMP JUMPDEST DUP2 EQ PUSH2 0x10F5 JUMPI PUSH0 PUSH0 REVERT JUMPDEST POP JUMP JUMPDEST PUSH0 DUP2 CALLDATALOAD SWAP1 POP PUSH2 0x1106 DUP2 PUSH2 0x10E2 JUMP JUMPDEST SWAP3 SWAP2 POP POP JUMP JUMPDEST PUSH0 PUSH1 0x20 DUP3 DUP5 SUB SLT ISZERO PUSH2 0x1121 JUMPI PUSH2 0x1120 PUSH2 0x10AE JUMP JUMPDEST JUMPDEST PUSH0 PUSH2 0x112E DUP5 DUP3 DUP6 ADD PUSH2 0x10F8 JUMP JUMPDEST SWAP2 POP POP SWAP3 SWAP2 POP POP JUMP JUMPDEST PUSH0 DUP2 ISZERO ISZERO SWAP1 POP SWAP2 SWAP1 POP JUMP JUMPDEST PUSH2 0x114B DUP2 PUSH2 0x1137 JUMP JUMPDEST DUP3 MSTORE POP POP JUMP JUMPDEST PUSH0 PUSH1 0x20 DUP3 ADD SWAP1 POP PUSH2 0x1164 PUSH0 DUP4 ADD DUP5 PUSH2 0x1142 JUMP JUMPDEST SWAP3 SWAP2 POP POP JUMP JUMPDEST PUSH0 DUP2 SWAP1 POP SWAP2 SWAP1 POP JUMP JUMPDEST PUSH2 0x117C DUP2 PUSH2 0x116A JUMP JUMPDEST DUP3 MSTORE POP POP JUMP JUMPDEST PUSH0 PUSH1 0x20 DUP3 ADD SWAP1 POP PUSH2 0x1195 PUSH0 DUP4 ADD DUP5 PUSH2 0x1173 JUMP JUMPDEST SWAP3 SWAP2 POP POP JUMP JUMPDEST PUSH2 0x11A4 DUP2 PUSH2 0x116A JUMP JUMPDEST DUP2 EQ PUSH2 0x11AE JUMPI PUSH0 PUSH0 REVERT JUMPDEST POP JUMP JUMPDEST PUSH0 DUP2 CALLDATALOAD SWAP1 POP PUSH2 0x11BF DUP2 PUSH2 0x119B JUMP JUMPDEST SWAP3 SWAP2 POP POP JUMP JUMPDEST PUSH0 PUSH1 0x20 DUP3 DUP5 SUB SLT ISZERO PUSH2 0x11DA JUMPI PUSH2 0x11D9 PUSH2 0x10AE JUMP JUMPDEST JUMPDEST PUSH0 PUSH2 0x11E7 DUP5 DUP3 DUP6 ADD PUSH2 0x11B1 JUMP JUMPDEST SWAP2 POP POP SWAP3 SWAP2 POP POP JUMP JUMPDEST PUSH2 0x11F9 DUP2 PUSH2 0x10D1 JUMP JUMPDEST DUP3 MSTORE POP POP JUMP JUMPDEST PUSH0 PUSH1 0x20 DUP3 ADD SWAP1 POP PUSH2 0x1212 PUSH0 DUP4 ADD DUP5 PUSH2 0x11F0 JUMP JUMPDEST SWAP3 SWAP2 POP POP JUMP JUMPDEST PUSH0 PUSH0 PUSH0 PUSH1 0x60 DUP5 DUP7 SUB SLT ISZERO PUSH2 0x122F JUMPI PUSH2 0x122E PUSH2 0x10AE JUMP JUMPDEST JUMPDEST PUSH0 PUSH2 0x123C DUP7 DUP3 DUP8 ADD PUSH2 0x10F8 JUMP JUMPDEST SWAP4 POP POP PUSH1 0x20 PUSH2 0x124D DUP7 DUP3 DUP8 ADD PUSH2 0x10F8 JUMP JUMPDEST SWAP3 POP POP PUSH1 0x40 PUSH2 0x125E DUP7 DUP3 DUP8 ADD PUSH2 0x11B1 JUMP JUMPDEST SWAP2 POP POP SWAP3 POP SWAP3 POP SWAP3 JUMP JUMPDEST PUSH0 DUP2 SWAP1 POP SWAP2 SWAP1 POP JUMP JUMPDEST PUSH0 PUSH2 0x128B PUSH2 0x1286 PUSH2 0x1281 DUP5 PUSH2 0x10B2 JUMP JUMPDEST PUSH2 0x1268 JUMP JUMPDEST PUSH2 0x10B2 JUMP JUMPDEST SWAP1 POP SWAP2 SWAP1 POP JUMP JUMPDEST PUSH0 PUSH2 0x129C DUP3 PUSH2 0x1271 JUMP JUMPDEST SWAP1 POP SWAP2 SWAP1 POP JUMP JUMPDEST PUSH0 PUSH2 0x12AD DUP3 PUSH2 0x1292 JUMP JUMPDEST SWAP1 POP SWAP2 SWAP1 POP JUMP JUMPDEST PUSH2 0x12BD DUP2 PUSH2 0x12A3 JUMP JUMPDEST DUP3 MSTORE POP POP JUMP JUMPDEST PUSH0 PUSH1 0x20 DUP3 ADD SWAP1 POP PUSH2 0x12D6 PUSH0 DUP4 ADD DUP5 PUSH2 0x12B4 JUMP JUMPDEST SWAP3 SWAP2 POP POP JUMP JUMPDEST PUSH32 0x4E487B7100000000000000000000000000000000000000000000000000000000 PUSH0 MSTORE PUSH1 0x32 PUSH1 0x4 MSTORE PUSH1 0x24 PUSH0 REVERT JUMPDEST PUSH0 DUP2 MLOAD SWAP1 POP PUSH2 0x1317 DUP2 PUSH2 0x119B JUMP JUMPDEST SWAP3 SWAP2 POP POP JUMP JUMPDEST PUSH0 PUSH1 0x20 DUP3 DUP5 SUB SLT ISZERO PUSH2 0x1332 JUMPI PUSH2 0x1331 PUSH2 0x10AE JUMP JUMPDEST JUMPDEST PUSH0 PUSH2 0x133F DUP5 DUP3 DUP6 ADD PUSH2 0x1309 JUMP JUMPDEST SWAP2 POP POP SWAP3 SWAP2 POP POP JUMP JUMPDEST PUSH32 0x4E487B7100000000000000000000000000000000000000000000000000000000 PUSH0 MSTORE PUSH1 0x12 PUSH1 0x4 MSTORE PUSH1 0x24 PUSH0 REVERT JUMPDEST PUSH32 0x4E487B7100000000000000000000000000000000000000000000000000000000 PUSH0 MSTORE PUSH1 0x11 PUSH1 0x4 MSTORE PUSH1 0x24 PUSH0 REVERT JUMPDEST PUSH0 PUSH2 0x13AC DUP3 PUSH2 0x116A JUMP JUMPDEST SWAP2 POP PUSH2 0x13B7 DUP4 PUSH2 0x116A JUMP JUMPDEST SWAP3 POP DUP3 PUSH2 0x13C7 JUMPI PUSH2 0x13C6 PUSH2 0x1348 JUMP JUMPDEST JUMPDEST DUP3 DUP3 DIV SWAP1 POP SWAP3 SWAP2 POP POP JUMP JUMPDEST PUSH0 DUP3 DUP3 MSTORE PUSH1 0x20 DUP3 ADD SWAP1 POP SWAP3 SWAP2 POP POP JUMP JUMPDEST PUSH32 0x596120657374617320696E73637269746F000000000000000000000000000000 PUSH0 DUP3 ADD MSTORE POP JUMP JUMPDEST PUSH0 PUSH2 0x1416 PUSH1 0x11 DUP4 PUSH2 0x13D2 JUMP JUMPDEST SWAP2 POP PUSH2 0x1421 DUP3 PUSH2 0x13E2 JUMP JUMPDEST PUSH1 0x20 DUP3 ADD SWAP1 POP SWAP2 SWAP1 POP JUMP JUMPDEST PUSH0 PUSH1 0x20 DUP3 ADD SWAP1 POP DUP2 DUP2 SUB PUSH0 DUP4 ADD MSTORE PUSH2 0x1443 DUP2 PUSH2 0x140A JUMP JUMPDEST SWAP1 POP SWAP2 SWAP1 POP JUMP JUMPDEST PUSH32 0x53616C646F20696E737566696369656E74650000000000000000000000000000 PUSH0 DUP3 ADD MSTORE POP JUMP JUMPDEST PUSH0 PUSH2 0x147E PUSH1 0x12 DUP4 PUSH2 0x13D2 JUMP JUMPDEST SWAP2 POP PUSH2 0x1489 DUP3 PUSH2 0x144A JUMP JUMPDEST PUSH1 0x20 DUP3 ADD SWAP1 POP SWAP2 SWAP1 POP JUMP JUMPDEST PUSH0 PUSH1 0x20 DUP3 ADD SWAP1 POP DUP2 DUP2 SUB PUSH0 DUP4 ADD MSTORE PUSH2 0x14AB DUP2 PUSH2 0x1472 JUMP JUMPDEST SWAP1 POP SWAP2 SWAP1 POP JUMP JUMPDEST PUSH0 PUSH1 0x60 DUP3 ADD SWAP1 POP PUSH2 0x14C5 PUSH0 DUP4 ADD DUP7 PUSH2 0x11F0 JUMP JUMPDEST PUSH2 0x14D2 PUSH1 0x20 DUP4 ADD DUP6 PUSH2 0x11F0 JUMP JUMPDEST PUSH2 0x14DF PUSH1 0x40 DUP4 ADD DUP5 PUSH2 0x1173 JUMP JUMPDEST SWAP5 SWAP4 POP POP POP POP JUMP JUMPDEST PUSH2 0x14F0 DUP2 PUSH2 0x1137 JUMP JUMPDEST DUP2 EQ PUSH2 0x14FA JUMPI PUSH0 PUSH0 REVERT JUMPDEST POP JUMP JUMPDEST PUSH0 DUP2 MLOAD SWAP1 POP PUSH2 0x150B DUP2 PUSH2 0x14E7 JUMP JUMPDEST SWAP3 SWAP2 POP POP JUMP JUMPDEST PUSH0 PUSH1 0x20 DUP3 DUP5 SUB SLT ISZERO PUSH2 0x1526 JUMPI PUSH2 0x1525 PUSH2 0x10AE JUMP JUMPDEST JUMPDEST PUSH0 PUSH2 0x1533 DUP5 DUP3 DUP6 ADD PUSH2 0x14FD JUMP JUMPDEST SWAP2 POP POP SWAP3 SWAP2 POP POP JUMP JUMPDEST PUSH32 0x4572726F7220616C207265616C697A6172206C61207472616E73666572656E63 PUSH0 DUP3 ADD MSTORE PUSH32 0x6961000000000000000000000000000000000000000000000000000000000000 PUSH1 0x20 DUP3 ADD MSTORE POP JUMP JUMPDEST PUSH0 PUSH2 0x1596 PUSH1 0x22 DUP4 PUSH2 0x13D2 JUMP JUMPDEST SWAP2 POP PUSH2 0x15A1 DUP3 PUSH2 0x153C JUMP JUMPDEST PUSH1 0x40 DUP3 ADD SWAP1 POP SWAP2 SWAP1 POP JUMP JUMPDEST PUSH0 PUSH1 0x20 DUP3 ADD SWAP1 POP DUP2 DUP2 SUB PUSH0 DUP4 ADD MSTORE PUSH2 0x15C3 DUP2 PUSH2 0x158A JUMP JUMPDEST SWAP1 POP SWAP2 SWAP1 POP JUMP JUMPDEST PUSH0 PUSH1 0x40 DUP3 ADD SWAP1 POP PUSH2 0x15DD PUSH0 DUP4 ADD DUP6 PUSH2 0x11F0 JUMP JUMPDEST PUSH2 0x15EA PUSH1 0x20 DUP4 ADD DUP5 PUSH2 0x1173 JUMP JUMPDEST SWAP4 SWAP3 POP POP POP JUMP JUMPDEST PUSH0 PUSH2 0x15FB DUP3 PUSH2 0x116A JUMP JUMPDEST SWAP2 POP PUSH32 0xFFFFFFFFFFFFFFFFFFFFFFFFFFFFFFFFFFFFFFFFFFFFFFFFFFFFFFFFFFFFFFFF DUP3 SUB PUSH2 0x162D JUMPI PUSH2 0x162C PUSH2 0x1375 JUMP JUMPDEST JUMPDEST PUSH1 0x1 DUP3 ADD SWAP1 POP SWAP2 SWAP1 POP JUMP JUMPDEST PUSH0 PUSH2 0x1642 DUP3 PUSH2 0x116A JUMP JUMPDEST SWAP2 POP PUSH2 0x164D DUP4 PUSH2 0x116A JUMP JUMPDEST SWAP3 POP DUP3 DUP3 ADD SWAP1 POP DUP1 DUP3 GT ISZERO PUSH2 0x1665 JUMPI PUSH2 0x1664 PUSH2 0x1375 JUMP JUMPDEST JUMPDEST SWAP3 SWAP2 POP POP JUMP JUMPDEST PUSH32 0x536F6C6F20656C2070726F706965746172696F20707565646520726574697261 PUSH0 DUP3 ADD MSTORE PUSH32 0x72207573756172696F73206465206C61206C6973746100000000000000000000 PUSH1 0x20 DUP3 ADD MSTORE POP JUMP JUMPDEST PUSH0 PUSH2 0x16C5 PUSH1 0x36 DUP4 PUSH2 0x13D2 JUMP JUMPDEST SWAP2 POP PUSH2 0x16D0 DUP3 PUSH2 0x166B JUMP JUMPDEST PUSH1 0x40 DUP3 ADD SWAP1 POP SWAP2 SWAP1 POP JUMP JUMPDEST PUSH0 PUSH1 0x20 DUP3 ADD SWAP1 POP DUP2 DUP2 SUB PUSH0 DUP4 ADD MSTORE PUSH2 0x16F2 DUP2 PUSH2 0x16B9 JUMP JUMPDEST SWAP1 POP SWAP2 SWAP1 POP JUMP JUMPDEST PUSH32 0x4E6F20686179206E6164696520696E73637269746F20746F6461766961000000 PUSH0 DUP3 ADD MSTORE POP JUMP JUMPDEST PUSH0 PUSH2 0x172D PUSH1 0x1D DUP4 PUSH2 0x13D2 JUMP JUMPDEST SWAP2 POP PUSH2 0x1738 DUP3 PUSH2 0x16F9 JUMP JUMPDEST PUSH1 0x20 DUP3 ADD SWAP1 POP SWAP2 SWAP1 POP JUMP JUMPDEST PUSH0 PUSH1 0x20 DUP3 ADD SWAP1 POP DUP2 DUP2 SUB PUSH0 DUP4 ADD MSTORE PUSH2 0x175A DUP2 PUSH2 0x1721 JUMP JUMPDEST SWAP1 POP SWAP2 SWAP1 POP JUMP JUMPDEST PUSH0 PUSH2 0x176B DUP3 PUSH2 0x116A JUMP JUMPDEST SWAP2 POP PUSH2 0x1776 DUP4 PUSH2 0x116A JUMP JUMPDEST SWAP3 POP DUP3 DUP3 SUB SWAP1 POP DUP2 DUP2 GT ISZERO PUSH2 0x178E JUMPI PUSH2 0x178D PUSH2 0x1375 JUMP JUMPDEST JUMPDEST SWAP3 SWAP2 POP POP JUMP JUMPDEST PUSH32 0x4E487B7100000000000000000000000000000000000000000000000000000000 PUSH0 MSTORE PUSH1 0x31 PUSH1 0x4 MSTORE PUSH1 0x24 PUSH0 REVERT JUMPDEST PUSH32 0x4E6F20657374617320696E73637269746F000000000000000000000000000000 PUSH0 DUP3 ADD MSTORE POP JUMP JUMPDEST PUSH0 PUSH2 0x17F5 PUSH1 0x11 DUP4 PUSH2 0x13D2 JUMP JUMPDEST SWAP2 POP PUSH2 0x1800 DUP3 PUSH2 0x17C1 JUMP JUMPDEST PUSH1 0x20 DUP3 ADD SWAP1 POP SWAP2 SWAP1 POP JUMP JUMPDEST PUSH0 PUSH1 0x20 DUP3 ADD SWAP1 POP DUP2 DUP2 SUB PUSH0 DUP4 ADD MSTORE PUSH2 0x1822 DUP2 PUSH2 0x17E9 JUMP JUMPDEST SWAP1 POP SWAP2 SWAP1 POP JUMP INVALID LOG2 PUSH5 0x6970667358 0x22 SLT KECCAK256 GT 0xD5 0xCF CALLDATALOAD 0xC2 0xCC 0xED DUP1 PUSH21 0x36CA5E909E6B8F63833614DDAD1CD866B5F97D2C62 CALLDATACOPY EQ PUSH5 0x736F6C6343 STOP ADDMOD 0x1E STOP CALLER "
		},
		"gasEstimates": {
			"creation": {
				"codeDepositCost": "1247800",
				"executionCost": "infinite",
				"totalCost": "infinite"
			},
			"external": {
				"COST_REGISTER()": "436",
				"COST_UNREGISTER()": "infinite",
				"comprarToken()": "infinite",
				"getBalance()": "infinite",
				"inscribirse()": "infinite",
				"inscritos(uint256)": "5033",
				"numeroEnLista()": "infinite",
				"owner()": "2552",
				"retirarUsuario()": "infinite",
				"retirarUsuarioAdmin()": "infinite",
				"token()": "infinite",
				"transferForMember(address,address,uint256)": "infinite",
				"yaEstaInscrito(address)": "infinite"
			}
		},
		"methodIdentifiers": {
			"COST_REGISTER()": "8881a874",
			"COST_UNREGISTER()": "58046512",
			"comprarToken()": "f32360a0",
			"getBalance()": "12065fe0",
			"inscribirse()": "61722365",
			"inscritos(uint256)": "787e5869",
			"numeroEnLista()": "cd0d232a",
			"owner()": "8da5cb5b",
			"retirarUsuario()": "f2f86cec",
			"retirarUsuarioAdmin()": "f013b041",
			"token()": "fc0c546a",
			"transferForMember(address,address,uint256)": "8a75e7bd",
			"yaEstaInscrito(address)": "0469846b"
		}
	},
	"abi": [
		{
			"inputs": [
				{
					"internalType": "contract TokenEspera",
					"name": "token_",
					"type": "address"
				}
			],
			"stateMutability": "nonpayable",
			"type": "constructor"
		},
		{
			"anonymous": false,
			"inputs": [
				{
					"indexed": false,
					"internalType": "address",
					"name": "user",
					"type": "address"
				},
				{
					"indexed": false,
					"internalType": "uint256",
					"name": "amount",
					"type": "uint256"
				}
			],
			"name": "ComprarToken",
			"type": "event"
		},
		{
			"anonymous": false,
			"inputs": [
				{
					"indexed": false,
					"internalType": "address",
					"name": "user",
					"type": "address"
				},
				{
					"indexed": false,
					"internalType": "uint256",
					"name": "position",
					"type": "uint256"
				}
			],
			"name": "Registrar",
			"type": "event"
		},
		{
			"anonymous": false,
			"inputs": [
				{
					"indexed": false,
					"internalType": "address",
					"name": "user",
					"type": "address"
				},
				{
					"indexed": false,
					"internalType": "uint256",
					"name": "amount",
					"type": "uint256"
				}
			],
			"name": "Unregister",
			"type": "event"
		},
		{
			"anonymous": false,
			"inputs": [
				{
					"indexed": false,
					"internalType": "address",
					"name": "user",
					"type": "address"
				}
			],
			"name": "UnregisterAdmin",
			"type": "event"
		},
		{
			"inputs": [],
			"name": "COST_REGISTER",
			"outputs": [
				{
					"internalType": "uint256",
					"name": "",
					"type": "uint256"
				}
			],
			"stateMutability": "view",
			"type": "function"
		},
		{
			"inputs": [],
			"name": "COST_UNREGISTER",
			"outputs": [
				{
					"internalType": "uint256",
					"name": "",
					"type": "uint256"
				}
			],
			"stateMutability": "view",
			"type": "function"
		},
		{
			"inputs": [],
			"name": "comprarToken",
			"outputs": [],
			"stateMutability": "nonpayable",
			"type": "function"
		},
		{
			"inputs": [],
			"name": "getBalance",
			"outputs": [
				{
					"internalType": "uint256",
					"name": "",
					"type": "uint256"
				}
			],
			"stateMutability": "view",
			"type": "function"
		},
		{
			"inputs": [],
			"name": "inscribirse",
			"outputs": [],
			"stateMutability": "nonpayable",
			"type": "function"
		},
		{
			"inputs": [
				{
					"internalType": "uint256",
					"name": "",
					"type": "uint256"
				}
			],
			"name": "inscritos",
			"outputs": [
				{
					"internalType": "address",
					"name": "",
					"type": "address"
				}
			],
			"stateMutability": "view",
			"type": "function"
		},
		{
			"inputs": [],
			"name": "numeroEnLista",
			"outputs": [
				{
					"internalType": "uint256",
					"name": "",
					"type": "uint256"
				}
			],
			"stateMutability": "view",
			"type": "function"
		},
		{
			"inputs": [],
			"name": "owner",
			"outputs": [
				{
					"internalType": "address",
					"name": "",
					"type": "address"
				}
			],
			"stateMutability": "view",
			"type": "function"
		},
		{
			"inputs": [],
			"name": "retirarUsuario",
			"outputs": [
				{
					"internalType": "bool",
					"name": "",
					"type": "bool"
				}
			],
			"stateMutability": "nonpayable",
			"type": "function"
		},
		{
			"inputs": [],
			"name": "retirarUsuarioAdmin",
			"outputs": [
				{
					"internalType": "bool",
					"name": "",
					"type": "bool"
				}
			],
			"stateMutability": "nonpayable",
			"type": "function"
		},
		{
			"inputs": [],
			"name": "token",
			"outputs": [
				{
					"internalType": "contract TokenEspera",
					"name": "",
					"type": "address"
				}
			],
			"stateMutability": "view",
			"type": "function"
		},
		{
			"inputs": [
				{
					"internalType": "address",
					"name": "from",
					"type": "address"
				},
				{
					"internalType": "address",
					"name": "to",
					"type": "address"
				},
				{
					"internalType": "uint256",
					"name": "amount",
					"type": "uint256"
				}
			],
			"name": "transferForMember",
			"outputs": [
				{
					"internalType": "bool",
					"name": "",
					"type": "bool"
				}
			],
			"stateMutability": "nonpayable",
			"type": "function"
		},
		{
			"inputs": [
				{
					"internalType": "address",
					"name": "_usuario",
					"type": "address"
				}
			],
			"name": "yaEstaInscrito",
			"outputs": [
				{
					"internalType": "bool",
					"name": "",
					"type": "bool"
				}
			],
			"stateMutability": "view",
			"type": "function"
		}
	]
}